:100000000C945D030C9495030C9495030C94950348
:100010000C9495030C9495030C9495030C94950300
:100020000C9495030C9495030C9428280C94E427C5
:100030000C9425290C9495030C9495030C9495032A
:100040000C9495030C9495030C9495030C949503D0
:100050000C9495030C9401290C9495030C9495032E
:100060000C9495030C9495030C9495030C949503B0
:100070000C9495030C9495030C9495030C949503A0
:100080000C9495030C9495030C9495030C94950390
:100090000C9495030C9495030C9495030C94950380
:1000A0000C9495030C9495030C9495030501090297
:1000B000A10185020901A100050919012905150001
:1000C00025019505750181029501750381010501E1
:1000D000093009311581257F950275088106093897
:1000E0001581257F950175088106050C0A380215D2
:1000F00081257F950175088106C0C005010980A191
:1001000001850319012AB700150126B7009501756D
:10011000108100C0050C0901A101850419012AA064
:1001200002150126A002950175108100C005010984
:1001300006A1018506050719E029E71500250195A7
:1001400008750181020507190029EF1500250195A1
:10015000F0750181020508190129059505750191C0
:1001600002950175039101C00660FF0961A10109B3
:1001700062150026FF0095207508810209631500AD
:1001800026FF00952075089102C005010906A1010E
:10019000050719E029E71500250195087501810279
:1001A0009501750881010507190029FF150026FF33
:1001B0000095067508810005081901290595057542
:1001C000019102950175039101C0FD377A585A00DB
:1001D0000004E6D6B4460200210116000000742F88
:1001E000E5A3E0017B00B45D003D8889C65436C3B9
:1001F000174FE4F41B037A1F0811B592D4ED5D8C00
:10020000C8F8694E0FA4E4E57CC7EAACAAB81CDBC9
:10021000BEE134A438435391E86D3051F75D874A0D
:100220004F338D6D1F18C8D8AA3DB6C6BC5CAEC58D
:100230000AC63EA2AEEC576A2D928E6247382CF663
:100240001701A24E481F9FD0EEFA76F087C6D50C54
:1002500096F64373475B911D0A29D2366B9A471273
:1002600009B171ACE3516878E699DFC87BEF11649E
:10027000001221BADC86CBB6691B71B31572DDE9B9
:1002800085F9D3923906CEC1559630F19F0D764649
:10029000F4CA43C27EADD9609F5D5F417F00A53E39
:1002A0003AAEFB37FD9E0001D001FC020000339CFA
:1002B0003F23B1C467FB020000000004595A00004C
:1002C000000000000000000000000000000000002E
:1002D000000000000000000000000000000000001E
:1002E000000000000000000000000000000000000E
:1002F00000000000000000000000000000000000FE
:1003000000000000000000000000000000000100EC
:1003100001000100010001000100010001000100D5
:1003200001000100010001000100010001000100C5
:1003300001000100010001000100010001000100B5
:1003400001000100010001000100010001000100A5
:100350000100010001000100010001000100010095
:100360000100010001000100010001000100010085
:100370000100010001000100010001000100010075
:100380000100010001000100010001000100010065
:100390000100010001000100010001000100010055
:1003A0000100010001000100010001000100010045
:1003B0000100010001000100010001000100010035
:1003C0000100010001000100010001000100010025
:1003D0000100010001000100010001000100010015
:1003E0000100010001000100010001000100010005
:1003F00001000100010001000100010001000100F5
:1004000001000100010001000100010001000100E4
:1004100001000100010001000100010001000100D4
:1004200001000100010001000100010001000100C4
:1004300001000100010001000100010001000100B4
:1004400001000100010001000100010001000100A4
:1004500001006A03E40D170E0000020002006603AB
:10046000E40D170E0000030001006B03E40D170EEE
:100470000000040002005003E40D170E0E070500F3
:1004800001006C03E40D170E000006000200520389
:10049000E40D170E0000070002006803E40D170EBC
:1004A0000000080001006D03E40D170E00000900B4
:1004B00002005403E40D170EE9060A000200560379
:1004C000E40D170EE9060B0002005803E40D170EA9
:1004D000E9060C0002005A03E40D170EE9060D00B0
:1004E00002005C03E40D170EE9060E0002005E0335
:1004F000E40D170EE9060F0002006003E40D170E6D
:10050000E906100002006203E40D170EE90611006F
:1005100002006403E40D170EE906120002006E03E8
:10052000E40D170E0000130002007003E40D170E17
:100530000000140001007203E40D170E0000150006
:10054000000000006F06E814000009025B000301D0
:1005500000A0FA09040000010301010009211101B2
:100560000001224000070581030800010904010081
:1005700002030000000921110100012222000705E9
:100580008203200001070503032000010904020083
:10059000010300000009211101000122BC00070530
:1005A00084032000011201000200000008EDFE603B
:1005B000600001010203011C037600690061006C08
:1005C000003A0066003600340063003200620033F7
:1005D000006300000014036A00750061006E006F84
:1005E000007200740068006F00000018036A007554
:1005F0000061006E006D00690063006800650072B4
:10060000006F000000040309040000000000000067
:1006100000000000000000000000000000000000DA
:10062000000000000000000000000000007E0F003D
:10063000D4FFFFFFC70000007800000000000000AA
:10064000002A2B280000000000000000000000002D
:100650000000000029000000002C1E34202122246C
:10066000342627252E362D3738271E1F20212223FA
:100670002425263333362E37381F0405060708098C
:100680000A0B0C0D0E0F1011121314151617181952
:100690001A1B1C1D2F3130232D35040506070809B0
:1006A0000A0B0C0D0E0F1011121314151617181932
:1006B0001A1B1C1D2F3130354C0011241FBECFEFEB
:1006C000DAE0DEBFCDBF04B603FE18C08091770428
:1006D00090917804A0917904B0917A048730904B7E
:1006E000A740B04B59F410927704109278041092FE
:1006F000790410927A04E0E0F8E3099511E0A0E0B3
:10070000B1E0EAE2F2E602C005900D92A237B1072D
:10071000D9F724E0A2E7B1E001C01D92A737B207E4
:10072000E1F70E944C290C94EF300C940000E8EDA6
:10073000F0E080818E7F80831092E2001092DA00D8
:100740001092E100A0EEB0E08C9181608C938081EA
:100750008F77808319BCA7EDB0E08C918E7F8C934E
:1007600080818F7E80831092430408952091E4005D
:100770003091E50095E6A9012091EC00822F81706F
:1007800020FF06C08091E80080FF06C080E0089549
:100790002091E80022FD1AC080916804882389F026
:1007A000853089F08091EB0085FD0FC02091E40039
:1007B0003091E50042175307F9F29150E1F684E0D9
:1007C000089582E0089583E0089581E00895EF920E
:1007D000FF920F931F93CF937C018B010E94B6036E
:1007E000C82F811117C08091E80085FD0BC0809152
:1007F000E8008E778093E8000E94B603882399F37F
:10080000C82F08C0F70181917F018093F10001504A
:10081000110949F78C2FCF911F910F91FF90EF9005
:10082000089580916A0487FF13C08091E80082FFD9
:1008300006C08091E8008B778093E80004C0809127
:1008400068048111F2CF0895809168048823D9F358
:100850008091E80080FFF8CF8091E8008E77ECCFA0
:10086000982F9093E900242F762F50E0891731F0CC
:100870007091EC002091ED005091F00021FD07C037
:100880009F5F973071F78093E90081E00895309180
:10089000EB003E7F3093EB003091ED003D7F3093D5
:1008A000ED003091EB0031603093EB007093EC0081
:1008B0002093ED005093F0002091EE0027FDE0CF53
:1008C00080E00895B0E0A0E0E8E6F4E00C94423067
:1008D000C8EDD0E088818F7E8883E7EDF0E08081ED
:1008E0008160808384E082BF81E0809343048881BB
:1008F0008E7F888302EE10E0F80110821092DA00F9
:1009000081EEC82ED12CF601108288818F778883E2
:1009100088818068888388818F7D888319BC109244
:10092000680410926904109267041092660490EEB5
:10093000E92EF12CF70180818B7F80838881816093
:10094000888342E060E080E00E943004F60180810C
:100950008E7F8083F80180818160808380818860C0
:100960008083F70180818E7F808388818061888386
:10097000CDB7DEB7E8E00C945E30FC0180917004E6
:100980009091710486179707A0F06115710529F4FD
:100990009091E8009E779093E80090E061157105D2
:1009A00051F4911108C08091E80082FF34C080E0CA
:1009B0000895BC01F2CF809168048823C1F185308D
:1009C000C1F18091E80083FD30C08091E80082FD94
:1009D000EACF8091E80080FFE1CF8091F300209181
:1009E000F200382F6115710519F02830310558F0E3
:1009F00091E02830310509F090E02091E8002E7751
:100A00002093E800CBCF81918093F1006150710970
:100A10002F5F3F4FE7CF80916804882341F08530F6
:100A200041F08091E80083FFBECF81E0089582E02D
:100A3000089583E0089508958091450408959C01E8
:100A40004FB7F89480913A0490913B04A0913C04F4
:100A5000B0913D044FBF821B930B08952FB7F894BC
:100A600060913A0470913B0480913C0490913D0464
:100A70002FBF08952FB7F89480913A0490913B04CA
:100A8000A0913C04B0913D042FBF089520911B011B
:100A90002223C1F020913E0427FF14C0E62FE695E3
:100AA000E695E695EE31F8F4E80FF92FF11D677041
:100AB00021E030E001C0220F6A95EAF78281822BA3
:100AC00082830895FC0132962FEF30E04191641744
:100AD00051F02F3F19F4411101C0232F3F5F3630F1
:100AE000A9F72F3F09F40895820F911D27FD9A95CC
:100AF000FC0162830895209137043091380428174F
:100B0000390771F09093380480933704E0913504ED
:100B1000F0913604309721F00084F185E02D09959D
:100B2000089520913304309134042817390771F067
:100B30009093340480933304E0913504F0913604AB
:100B4000309721F00680F781E02D09950895E09116
:100B50003504F0913604309729F00190F081E02DB2
:100B60000995089580E00895CF93DF93EC014091BB
:100B700028045091290460912A0470912B042FB706
:100B8000F89480913A0490913B04A0913C04B09178
:100B90003D042FBF841B950BA60BB70B843F9140E0
:100BA000A105B10518F58091280490912904A09120
:100BB0002A04B0912B048093240490932504A093DD
:100BC0002604B093270484EF91E0A0E0B0E0809386
:100BD000200490932104A0932204B0932304D09383
:100BE0003004C0932F04DF91CF9108950E942E0509
:100BF0006093240470932504809326049093270423
:100C000082E390E0A0E0B0E0E2CFFC0184818623A3
:100C100051F492819923B9F06923808583FF05C03F
:100C200081E061110FC080E00895892F8F70929547
:100C30009F70982B862F8F7062956F70682B81E064
:100C40009613F1CF089581E0FDCF452B39F068234D
:100C500081E06F3F09F080E08170089581E0FCCF72
:100C6000DC0160911C0480911D04962F891301C042
:100C70000895292F30E0F901EE0FFF1FEC5EFB4FC6
:100C8000408151814A175B07A1F487E08A9FA00148
:100C90008B9F500D112444525C4F81E0FA018483F4
:100CA0009613E6CF2F5F3F4F2370332720931C040A
:100CB00008952F5F3F4F922F9370D8CF10927903F2
:100CC00010927803ECEDF3E08581811102C014826B
:100CD0001682379684E0E431F807B1F70895B0E062
:100CE000A0E0E5E7F6E00C9440308FEF9FEF443052
:100CF000510508F469C040913E0441FB882780F902
:100D000090E0880F991F42FB002700F910E0000FC8
:100D1000111F000F111F802B912B40FBCC24C0F81A
:100D2000D12C8C299D2943FB222720F9C22FE0E0FA
:100D3000DE2F53E0CC0FDD1F5A95E1F78C2B9D2B56
:100D400044FBAA27A0F9B0E0E4E0AA0FBB1FEA9594
:100D5000E1F78A2B9B2B45FBEE27E0F9F0E0A5E0BD
:100D6000EE0FFF1FAA95E1F78E2B9F2B46FB222744
:100D700020F930E0B6E0220F331FBA95E1F7822B5D
:100D8000932B47FB222720F930E03695322F22277C
:100D900037952795822B932B20913F04322F31706A
:100DA000F32EE82EF92A26952170B22EBB0CA82E20
:100DB000BF28C501BB0CAA0BBB0BFB018083918331
:100DC000A283B38390E080E0CDB7DEB7EAE00C9475
:100DD0005C30E0E5F3E0848195812AE030E0B90100
:100DE0000E940330609316018681809315018285ED
:100DF0008093140184858093130186859785B901BA
:100E00000E940330609312018089809311018289CE
:100E100080931001848980930F010895809150037D
:100E200090915103909318018093170108950E94A7
:100E30003A059C0190914C0280914D02982B21F033
:100E4000309349022093480290914E0280914F02C4
:100E5000982B21F03093470220934602E09135040D
:100E6000F0913604309749F082E080934A02048082
:100E7000F581E02D8AE492E00995089590914C0265
:100E8000803F59F480914D0287FF0DC010924D02B2
:100E900091110BC01092440208C0813F81F48091EF
:100EA0004D0218169CF3992381F080914E02909187
:100EB0004F02892B09F064C0109243020895823FCB
:100EC00049F497FFF0CF10924C0280914D028111AE
:100ED000ECCFE0CF833F19F41916ACF3E4CF2091A7
:100EE0004E02893F29F41216F4F610924E02DBCF1F
:100EF0008A3F19F427FFD7CFF8CF20914F028B3FBD
:100F000029F427FFD0CF10924F02CDCF8C3F19F498
:100F10001216CCF3C8CF843F31F480914B028E7F00
:100F200080934B02C0CF853F21F480914B028D7F8F
:100F3000F7CF863F21F480914B028B7FF1CF873F23
:100F400021F480914B02877FEBCF883F21F4809181
:100F50004B028F7EE5CF8D3F31F4809145028E7F2D
:100F600080934502A0CF8E3F21F4809145028D7F72
:100F7000F7CF8F3F09F097CF809145028B7FF0CF5D
:100F800008958091450280FF0CC06091100170E0CF
:100F900075956795759567956115710549F1862F6A
:100FA000089581FF06C06091100170E07595679506
:100FB000F3CF6091100182FD0BC090914302992301
:100FC000A1F060910F0180911001961738F0682F01
:100FD00070E06038710500F38FE70895899FC001C4
:100FE000112470E00E941730F4CF61E070E0D7CF99
:100FF00081E00895809145026091580370915903F2
:1010000080FF16C020911401269FC001279F900DDC
:101010001124BC01769567957695679560387105C2
:1010200008F043C06115710509F441C0862F089589
:1010300081FF0BC020911401269FC001279F900DB6
:101040001124BC0176956795E9CF82FF09C0809194
:1010500014019B01829FB001839F700D1124DECF8C
:10106000209144022223D1F2909113018091140126
:10107000482F50E0291748F0CB01849FB001859F8D
:10108000700D949F700D1124C9CF289F90011124D9
:10109000269FA001279F500D369F500D1124692FC8
:1010A00070E0CA010E940330B9CF8FE7089581E054
:1010B0000895803F31F40E94FA07819580934D0294
:1010C0000895813F19F40E94FA07F8CF823F31F466
:1010D0000E94FA07819580934C020895833F19F48A
:1010E0000E94FA07F8CF893F29F40E94C107809334
:1010F0004E0208958A3F21F40E94C1078195F7CFDF
:101100008B3F31F40E94C107819580934F0208956F
:101110008C3F19F40E94C107F8CF843F31F48091CD
:101120004B02816080934B020895853F21F48091AA
:101130004B028260F7CF863F21F480914B0284609E
:10114000F1CF873F21F480914B028860EBCF883F3D
:1011500021F480914B028061E5CF8D3F31F4809185
:10116000450281608093450208958E3F21F480916D
:1011700045028260F7CF8F3FB9F7809145028460C6
:10118000F1CF80E00895F894E82FE295EF70F0E059
:1011900031A1282F2F7081E090E001C0880F2A959F
:1011A000EAF7982F9095932391A392A1892B82A37C
:1011B0007894089590913E0492FF06C0282F2871DC
:1011C0002830F9F4877F846093FF06C0282F2871A8
:1011D0002831F1F4877E846120913F0420FF06C00E
:1011E000382F38713830D9F4877F816021FF06C0ED
:1011F000282F28712831D1F4877E816194FD877E64
:101200000895282F24712430F9F68B7F8860DCCF75
:10121000282F2471243101F78B7E8861DDCF382F90
:101220003171313019F78E7F8860E0CF282F21711E
:10123000213121F78E7E8861E1CFCF93DF93EC01DE
:1012400082389105B1F108F040C08133910509F46D
:101250009DC048F58932910509F48DC08A9709F43B
:101260009CC0C11521E5D20708F0C3C0C11530E507
:10127000D30708F01EC1C83ED10508F0A3C0C13E87
:10128000D10588F5C83AD10508F08EC0C53AD10518
:1012900008F007C1C130D10531F1209721F1C430E8
:1012A000D10508F545C08533910509F45FC0C9979C
:1012B000C1F680913E04837009F044C180913F04DF
:1012C00083FF11C0C9E2D0E00EC0833E910599F1C1
:1012D00070F4803E910501F1823E910511F68091F6
:1012E0003E0482FD21C0CE01DF91CF910895863E5C
:1012F000910561F1873E910571F1843E910509F0F8
:10130000B0CF80913F0481FFEECF80913E04C7EEC5
:10131000D0E084FD0DC0E7CF80913E0480FD33C056
:1013200090913F0490FFDFCFC3EED0E084FFDBCF8E
:10133000D0E0C0E0D8CF80913E0482FD00C1909102
:101340003F0490FDFFC084FFCECFF2CF80913E04DA
:1013500083FDDDCFC8CF80913E0483FDF6C0909120
:101360003F0491FFF0CFC4EED0E0BDCF80913E04AA
:1013700085FFB9CFA7CF80913E0485FDE9C080915C
:101380003F0483FFB0CFC9E3D0E0ADCF80913E04EE
:1013900086FFA9CFCAE2D0E0A6CF80913E0486FFA7
:1013A000A2CFC1E3D0E09FCFCF3BD10508F6C85A0A
:1013B000D0E0CC0FDD1FC95DDE4F0990D881C02D74
:1013C000D46491CFC11540E2D40758F4C11581E02F
:1013D000D80708F088CFC03FD10508F4A9CFD06561
:1013E00082CFC11520E4D20708F4A2CFDF70D06A03
:1013F0007ACFC11535E5D30718F5C11544E5D407F3
:1014000008F085C0C11583E5D80708F06CC0C11588
:1014100022E5D20708F462C0CE018370992721E04B
:1014200030E002C0220F331F8A95E2F7C695C695B9
:1014300080E2C89FE0011124C22BD32BDC6853CF7C
:10144000C11539E5D307A8F4C11548E5D40708F05C
:1014500063C0C11586E5D80708F06ACF8C2F0E94BB
:10146000DA08C82FD0E0DC2FCC27CC27DF71D06280
:101470003ACFC1152AE5D20708F453C0CE019056E1
:101480008115904208F054CF8D2F8F710E94DA0899
:1014900090E0982F882788279F719C012C2BE901C9
:1014A000E6CFC55AD0E0CC5DDE4FC881D0E0D06435
:1014B0001ACF2C2F26952695237040E2249F900169
:1014C00011248C2F8370C1E0D0E002C0CC0FDD1F4F
:1014D0008A95E2F7C22BD32BDD6805CFDC2FCC2712
:1014E000C16FD06A00CFCE018370992721E030E030
:1014F00002C0220F331F8A95E2F7C695C69540E2D7
:10150000C49FE0011124C22BD32BDA68ECCEDC2F70
:10151000CC27C46FD06AE7CEDC2FCC27C06FD06A4F
:10152000E2CE8C2F8F700E94DA0834E0D695C795F2
:101530003A95E1F7CF709C2FEC01D069D4CEC2EE82
:10154000D0E0D1CEC0EED0E0CECEC6EED0E0CBCE55
:10155000C5E3D0E0C8CE80911802882331F0109204
:10156000180210921702109216020895CF93C82FF6
:1015700080913F0482FF0CC0809118028C1741F0CB
:101580000E943A059093170280931602C0931802A6
:10159000CF910895809590912F03982390932F03D6
:1015A00008951092F5011092F4011092F30108953C
:1015B0008091520390915303892B89F00E943A0540
:1015C0002091160230911702AC01421B530B81E0AF
:1015D00020915203309153034217530708F480E0DF
:1015E0008170089590911B019923D1F090913E0450
:1015F00097FF16C0E82FE695E695E695EE31E0F404
:10160000F0E0EC58FE4F282F277081E090E001C0F9
:10161000880F2A95EAF7809592818923828308951D
:10162000E6E7F1E09191891303C0DF0111971C9265
:1016300091E0EC37F907B1F708952091F20190910C
:10164000B101291302C080E0089530E0F90153E0B0
:10165000EE0FFF1F5A95E1F7EE54FE4F51815613DE
:1016600006C05081581303C05281541304C02F5F29
:101670003F4F2770E6CF81E008958091F20190916D
:10168000B101981301C008958F5F8770FACF292F99
:10169000943078F58A3068F590E03AE0239F800D29
:1016A000911D1124682F677023E0969587952A95E0
:1016B000E1F7FC01EE0FFF1FE80FF91FE656FE4FA2
:1016C00050E040E080E0219130E0062E02C03695E7
:1016D00027950A94E2F721703327042E01C0220FC8
:1016E0000A94EAF7822B4F5F5F4F4330510559F759
:1016F000089580E00895292F943098F58A3088F570
:1017000090E03AE0239F800D911D1124282F27702F
:1017100041E001C0440F2A95EAF723E096958795AA
:101720002A95E1F7FC01EE0FFF1FE80FF91FE656BF
:10173000FE4F30E020E070E05191DF011197CB01C6
:10174000022E02C0969587950A94E2F781708195E2
:101750008527842385278C932F5F3F4F23303105C6
:1017600059F7089592959F70963091F058F4925FD2
:101770009F70923058F4803F19F030F4883E30F476
:1017800081E008959A5FF4CF843FD1F380E008951B
:10179000883EB0F3813FD1F7F3CF9C013A952115F4
:1017A0003F4150F5FC01EE27F170BC0166277270D5
:1017B000AC01442754709C012227387094FF0EC05E
:1017C00080E1EF2B09F480E0672B09F08062452B64
:1017D00009F08064232B89F08068089581E0EF2B65
:1017E00009F480E0672B09F08260452B09F08460E2
:1017F000232B19F08860089580E0089580934004B9
:101800007093420460934104809168048430F9F439
:101810008093E9008FEF9091E800815095FD06C01C
:1018200095ED9A95F1F700008111F5CF8091E800D0
:1018300085FF0DC050E040E063E070E080E494E09C
:101840000E94E7038091E8008E778093E800089576
:10185000BC0184E00E94FE0B0895BC0183E00E945D
:10186000FE0B08959C0184E08093E9009FEF809136
:10187000E800915085FD06C085ED8A95F1F70000DE
:101880009111F5CF8091E80085FF0CC050E040E059
:1018900066E070E0C9010E94E7038091E8008E775E
:1018A0008093E8000895CF93DF93EC0180911B01B2
:1018B0008823B1F180913E0487FF32C060E284E06A
:1018C0008093E9008FEF9091E800815095FD06C06C
:1018D00095ED9A95F1F700008111F5CF8091E80020
:1018E00085FF1BC080911B0170E050E040E081113A
:1018F00004C050E040E068E070E0CE010E94E703E1
:101900008091E8008E778093E80080E2FE01A6E4F3
:10191000B4E001900D928A95E1F7DF91CF9108959F
:1019200068E081E0CDCF81E08093E00080E28093A9
:10193000D8001092C9008FE19EE40197F1F700C032
:10194000000087E090EBDC018093770490937804AB
:10195000A0937904B0937A0488E19CE00FB6F894E0
:10196000A895809360000FBE90936000FFCF019711
:1019700008F40895EFE9FFE03197F1F700C00000A7
:10198000F6CF0F931F93CF93DF9300E513E0C7E6E5
:10199000D1E0CE010E94A530F80181938F012196FC
:1019A000CB38F1E0DF07A9F7C8E5D4E0FE01859167
:1019B0009491009711F0FC0109952C96F5E0C4353F
:1019C000DF07A1F7DF91CF911F910F9108950F933A
:1019D0001F93CF93DF93843030F5643020F54A3085
:1019E00010F5C42FD0E0CC0FDD1F24E1629FC00DA5
:1019F000D11D112430E5839FC00DD11D1124CE01CE
:101A000087960E94A530082F10E0102F0027CE01E6
:101A100088960E94A5309801282BC901DF91CF91AB
:101A20001F910F91089590E080E0F8CF462F20910C
:101A30002D0330912E03232B99F4703F39F4603F2E
:101A400079F480912B0390912C030895843040F415
:101A5000743030F46A3020F4672F0E94E70C089548
:101A600090E080E00895CF92DF92FF920F931F9352
:101A7000CF93DF936C010091720480911902082BBF
:101A8000C7E0D0E010E0FC2EC8010C2E02C09595F6
:101A900087950A94E2F780FD0CC02197A0F7F12CFE
:101AA0008F2DDF91CF911F910F91FF90DF90CF90FD
:101AB0000895B6018C2F0E94160D0E941D090197F2
:101AC00061F3EECFCF93DF93EC010E94330DBE01A3
:101AD0000E94160D0E941D09DF91CF910895CF93AA
:101AE000DF93EC014B815C81698188810E9425062E
:101AF000811110C08E819F81009739F00E941D09CD
:101B00000E94B20BDF91CF910895888199810E9444
:101B1000620DF6CF80E0F6CFA5E0B0E0E2E9FDE0AF
:101B20000C94473049835A8389819A81662399F0BE
:101B3000222389F00E94330D182F682F89819A8102
:101B40000E947B0B69817A81812F0E94160D259658
:101B5000E3E00C9463300E94470B182FF3CFFC0195
:101B6000262F86819781009739F4408151816281C7
:101B7000738184810E948C0D089583E290E00E941D
:101B8000A530843589F484E290E00E94A5308B363C
:101B900059F485E290E00E94A53091E0843309F089
:101BA00090E0892F8170089580E0FCCFCF9384E08E
:101BB00090E00E94A530C82F82E290E00E94A530FC
:101BC000982F8C2FCF910895DB01FC01329625913F
:101BD00034914217530758F0FC0134966591749183
:101BE000A901CD010E94853090E080E008958FEF3B
:101BF0009FEF08950F931F93CF93DF9300E513E0BA
:101C0000C7E6D1E0CE010E94A530F80161918F01B5
:101C1000681719F0CE010E94B3302196CB38F1E05D
:101C2000DF0781F7DF91CF911F910F910895DA01BE
:101C30009C012E5F3F4FF90145915491F901259187
:101C40003491A217B30758F0FC0134968591949112
:101C50000E9485300E94FA0D90E080E008958FEF99
:101C60009FEF0895CF93DF93CBE2D2E060E0CE0107
:101C70000E94B3302196C11584E0D807B9F7DF91EF
:101C8000CF9108951F93CF93DF93122F8430E0F408
:101C90006430D0F44A30C0F4C42FD0E0CC0FDD1F44
:101CA00094E1699FC00DD11D112490E5899FC00D5D
:101CB000D11D1124632FCE0187960E94B330612F6E
:101CC000CE0188960E94B330DF91CF911F91089585
:101CD000CF93C82F6FEF811164E583E290E00E94FB
:101CE000B3306FEFC1116BE684E290E00E94B33035
:101CF0006FEFC11164E385E290E00E94B330CF91B1
:101D00000895CF93C92F682F84E090E00E94B330EC
:101D10006C2F82E290E00E94B330CF910895AAE048
:101D2000B0E0E5E9FEE00C943E3003EB12E081EA1E
:101D3000C82E82E0D82E9BEDE92EFF24F39427E0F5
:101D4000922E30EAA32E32E0B32E88248394D6015B
:101D50000D931D936D014AE050E0B701CE0101964D
:101D60000E949530F8013896DF01892D1D928A95E1
:101D7000E9F789819A81D80111969C938E938F817E
:101D800012968C9312978D8113968C931397888556
:101D900014968C931497898515968C9315978B813F
:101DA0009C8117969C938E93169718961C92189761
:101DB0008A8587FF3CC01E961C921E921D9780FF4D
:101DC00003C0D80118968C9281FF04C0F801908559
:101DD0009260908782FF07C0D80118969C9118974F
:101DE000946018969C9383FF04C0F80190859860D6
:101DF000908784FF07C0D80118969C91189790612E
:101E000018969C9385FF04C0F801808580628087C6
:101E1000015F1F4FFAE0EF0EF11C8BE2E81682E043
:101E2000F80609F094CF2A96ECE00C945A30F801A9
:101E3000B686A586C4CFAAE0B0E0E1E2FFE00C944C
:101E40004230E0E5F2E080E5DF011D928A95E9F796
:101E5000ECEDF3E088E3DF011D928A95E9F780E578
:101E6000C82E82E0D82E7F010BE811E0F701D18265
:101E7000C0824AE050E0B801CE0101960E94953040
:101E800088E0FE013196D60101900D928A95E1F726
:101E900089859A85D70113969C938E931297BAE001
:101EA000CB0ED11CE7E0EE0EF11C065F1F4F0B3D81
:101EB000F1E01F07D9F62A96E8E00C945E30A8E01E
:101EC000B0E0E5E6FFE00C943E308E010F5F1F4F5F
:101ED00088E0F80111928A95E9F795E5E92E91E0FD
:101EE000F92E6801AA24A394B12CF70181917F01F6
:101EF0008F3F09F446C0F894E82FE295EF70F0E0C8
:101F000021A18F70A50102C0440F551F8A95E2F7E9
:101F1000CA01922F982B91A392A18095892382A325
:101F2000789400C0E9E5F1E021E030E0912C812CCB
:101F300041914F3F09F467C0A42FA295AF70B0E064
:101F400090968C9190E04F7002C0959587954A9538
:101F5000E2F780FD58C0C901882A992A220F331F51
:101F600051E0E336F50721F7F701319780818F3F84
:101F700011F00E94C30880EA8A95F1F7F601918278
:101F80008082F2E0CF0ED11C49E5E41641E0F40670
:101F900009F0ABCF48E050E0B8018DE192E00E943B
:101FA0007830892B99F188E0F801ADE1B2E0019039
:101FB0000D928A95E1F781E080931C020E943A0518
:101FC00090931B0280931A0280911A0290911B0237
:101FD0000E941F050597F0F048E050E06DE172E0C7
:101FE0008BE392E00E947830892BC9F088E0EDE124
:101FF000F2E0ABE3B2E001900D928A95E1F781E067
:1020000010921C0208C090E080E0A6CF80911C02D4
:102010008111DACF80E02896ECE00C945A3080E011
:10202000EFCFCF9380912F0390917304892B8093EE
:10203000740180911802882329F1809152039091B4
:102040005303892B29F00E94D80A81110E94AB0A00
:102050008091740190911802892B80937401809172
:102060001B01882309F447C080913E0487FF43C0C9
:102070008EE1E6E7F1E090E0815008F03EC091117A
:102080000E94AB0AC0912C04C09580917401C823B2
:1020900080912D04C82BC093740140E250E066EF9C
:1020A00071E084E791E00E947830892B11F180E2A1
:1020B000E4E7F1E0A6EFB1E001900D928A95E1F737
:1020C000E0913504F0913604309799F080911B012E
:1020D000882349F080913E0487FF05C0C0937501B5
:1020E00086E0809374010280F381E02D84E791E023
:1020F0000995CF91089586E0BCCF2191222309F460
:10210000BBCF9F5FB9CF80911901877F8093190161
:10211000909173049D7F9093730484FF08C08F7E19
:102120008093190180912F03826080932F03809107
:10213000190185FF08C08F7D8093190180912F03BD
:10214000806280932F030E941110089590E080E038
:102150000E94910590E080E00E947B05109273043C
:102160000E94111086E0EAE4F2E0DF011D928A95F8
:10217000E9F71092440210924302109245020E9425
:1021800017070895809372040E94A6100895809105
:102190007204982F9670963021F488600E94C210C5
:1021A0000895877FFBCF21E030E001C0220F8A95A0
:1021B000EAF720958091720482230E94C21008954C
:1021C0009091F501809589238093F501282F277040
:1021D00091F4282F082E000C330B9217130659F098
:1021E00090913F0492FF07C08595859585950E9443
:1021F000D3100E94D10A089590913F0492FB2227A8
:1022000020F9281769F080FB92F990933F048091A0
:102210003E0490913F040E94810E82E00E94E010F3
:10222000089521E030E001C0220F8A95EAF78091FD
:102230007204822B0E94C210089590913F0492FF75
:1022400010C098E0899F90011124622B6093F501E2
:102250000E9411110E943A059093F4018093F301BA
:1022600008950E9411110895809319020E94A610EA
:10227000089510922F0380911B01E6E7F1E0882377
:1022800061F080913E0487FF08C08EE1DF011D925E
:102290008A95E9F70E94A610089586E0F7CFAAE292
:1022A000B0E0E5E5F1E10C9447308AE694E0209156
:1022B000F100DC012D93CD01B4E082379B07B9F723
:1022C00080916B04833009F472C0B8F4813009F452
:1022D00049C0823009F4B3C08091E80083FF96C200
:1022E00080916A0490916B049A3008F08FC2E92FB4
:1022F000F0E0EF50FF4C0C942B308A3009F48EC084
:102300008B3009F471C0893039F780916A048132C9
:1023100019F780916E0490916F04009711F0029765
:10232000D9F68091E800877F8093E8008091E800EB
:1023300082FF38C09091F3008091F200029731F44F
:102340008091F100813011F0863021F48091F1000C
:10235000809345048091E8008B778093E8000E9489
:102360001104BACF80916A04813A09F0B5CF809107
:10237000E800877F8093E80080916E0490916F045D
:10238000892B61F460E286E494E070E00E94BD0471
:102390008091E8008B778093E8009ECF60E090E02A
:1023A00080E0F3CF809168048111C0CF95CF8091F8
:1023B0006A04813A09F090CF80916E0490916F0485
:1023C000892B09F089CF8091E800877F8093E8000E
:1023D0008091E80080FFFCCF80911B018093F10089
:1023E0008091E8008E77B9CF80916A04813209F03C
:1023F00073CF80916E0490916F04892B09F06CCF9C
:102400008091E800877F8093E8000E94110480910A
:102410006C0480931B010E9439115ECF80916A0485
:10242000813209F059CF8091E800877F8093E800DE
:102430000E94110480916D04809344044DCF8091DB
:102440006A04813A09F048CF8091E800877F809341
:10245000E8008091E80080FFFCCF80914404BECF6B
:10246000803899F0823809F0D1C180916E048F7064
:10247000873008F0CBC18093E9008091EB0085FBA9
:10248000882780F91092E90006C080916604909137
:102490006704911182609091E800977F9093E80023
:1024A0008093F1001092F1008091E8008E77AAC12C
:1024B000882309F498C1823009F0A8C180916C0486
:1024C00081119BC180916E048F702FEF280F2630F1
:1024D00008F09CC18093E9002091EB0020FF8DC1A2
:1024E000933031F48091EB0080628093EB0085C1E2
:1024F0009091EB0090619093EB0021E030E001C0FF
:10250000220F8A95EAF72093EA001092EA00809160
:10251000EB008860EACF811179C110916C041F77BC
:102520008091E3008078812B8093E3008091E80024
:10253000877F8093E8000E9411048091E80080FF6B
:10254000FCCF8091E30080688093E30082E011116A
:1025500083E0809368045AC18058823008F056C1E5
:1025600020916C0430916D042C3DE3E03E07A1F511
:1025700083E08A838AE289834FB7F894DE01139659
:1025800020E03EE051E2E32FF0E050935700E49169
:1025900020FF03C0E295EF703F5FEF708E2F90E059
:1025A000EA30C0F0C7968D939D932F5F243159F781
:1025B0004FBF8091E800877F8093E8006AE270E077
:1025C000CE0101960E94BD048091E8008B77809334
:1025D000E8001CC1C096E7CF80916E0490916F0413
:1025E000432F55274330510509F44AC078F541304F
:1025F000510509F485C08BE590E0EAE4F5E042304E
:10260000510509F003C12091E800277F2093E800DD
:1026100020917004309171048217930708F49C0193
:1026200040E02115310509F070C041116EC0809164
:10263000E80082FDC9CF80916804882329F28530A3
:1026400019F28091E80083FFF2CFBECF41325105ED
:1026500009F447C04232510509F0D8C083309105D2
:1026600008F0D4C0FC01EE0FFF1FEA59FE4F0190A5
:10267000F081E02D8D599E4FDC018C9190E01DC0C2
:10268000332721303105E9F02115310579F0223069
:102690003105F9F02330310509F0B8C0E7EBF5E07A
:1026A000E4918E2F90E0E7EBF5E007C0E5E0F6E07F
:1026B000E4918E2F90E0E5E0F6E0009709F4A6C0E3
:1026C000A2CFEBEEF5E0E4918E2F90E0EBEEF5E09B
:1026D000F4CFE5EDF5E0E4918E2F90E0E5EDF5E047
:1026E000ECCF8330910508F091C0880F991FFC0151
:1026F000E459FE4F0190F081E02D89E090E083CF16
:1027000082E190E0E5EAF5E07ECF809168048823DD
:1027100009F45ACF853009F457CF8091E80083FD42
:1027200053CF8091E80082FD82CF8091E80080FF46
:1027300078CF9091F3008091F2002115310519F0C6
:102740008830910550F041E0089709F040E0809111
:10275000E8008E778093E80064CF44914093F100C5
:102760003196215031090196E8CF803809F04EC0EA
:102770008091E800877F8093E800809169048093CE
:10278000F10092CE811142C010916C041230F0F52C
:102790008091E800877F8093E800109369040E948D
:1027A0001104112311F084E005C08091E30087FD3E
:1027B000FACF81E08093680442E061EC81E00E94FE
:1027C000300442E261EC84E00E94300442E261ECB9
:1027D00082E00E94300442E260EC83E00E94300418
:1027E0008091680413C080916C04813079F481E099
:1027F000933009F080E0809367041092E9008091A3
:10280000E800877F8093E8000E9411048091E8002F
:1028100083FF0AC08091E800877F8093E800809161
:10282000EB0080628093EB00AA96E3E00C946330A7
:10283000E0E5F3E0128E138E8FEA90E091838083BF
:1028400025E0248F88E893E1938382838AE090E0F7
:102850009583848344E150E05783468348E050E009
:1028600051874087938782876EE170E07587648720
:102870009787868780E590E0918B808B538B428B86
:1028800048E250E0558B448B42E350E0578B468B37
:1028900048EC50E0518F408F158E178E168E91A305
:1028A00080A322A30E94FA0D0E94391110923F04C6
:1028B00010923E04EFE3F4E0808184608083809195
:1028C0003E0490913F040E94810E0E94C10C089525
:1028D000A4E1B0E0EEE6F4E10C943D30A0900D01EF
:1028E000B0900E0181E090E090930E0180930D0175
:1028F0008EEBC82E82E0D82E712C760100E014C039
:10290000F40125913491412F602F872D0E94420EB2
:1029100082E0880E911C1F5F1A3091F794E1E90E56
:10292000F11C0F5F043019F0470110E0E9CF7394F8
:10293000E0E5CE0ED11CF4E07F12DFCF0E94181428
:10294000CE0101967C01FC0111921A95E9F70BE882
:1029500011E04AE050E0B801C7010E94D730065F9D
:102960001F4F0B3DF1E01F07A1F77E018BE0E80E42
:10297000F11C8AE0F70111928A95E9F78FEF9FEF3A
:10298000988B8F8787E08C8B4AE050E0B801C701B5
:102990000E94D730065F1F4F0B32F2E01F07A1F7EE
:1029A000B0920E01A0920D016496EDE00C945930A6
:1029B00080E00E94680E60E086E290E00E94B33002
:1029C0000E9468140E94320E81E00E94680E0895F1
:1029D000CF92DF92EF92FF928FEF9FEF443051053D
:1029E00008F46AC0FB01C080D180E280F3800E94BD
:1029F000391180913E04C0FA80F9B701A60176959D
:102A000067955795479540FB81F9B701A60122E0EC
:102A100076956795579547952A95D1F740FB82F9AA
:102A2000B701A60133E076956795579547953A9596
:102A3000D1F740FB83F9B701A601E4E076956795ED
:102A400057954795EA95D1F740FB84F9B701A60160
:102A5000F5E07695679557954795FA95D1F740FB40
:102A600085F9B701A601A6E0769567955795479534
:102A7000AA95D1F740FB86F9B701A601B7E0769594
:102A8000679557954795BA95D1F740FB87F980939D
:102A90003E0480913F04D0FA80F9D1FACC24C0F8EA
:102AA000C0FA81F980933F0480913E0490913F04E5
:102AB0000E94810E90E080E0FF90EF90DF90CF9039
:102AC00008950E9439112FEF84E39CE0215080404B
:102AD0009040E1F700C0000088E19CE00FB6F89458
:102AE000A895809360000FBE90936000FFCF88236D
:102AF00041F08095909173048923809373040E9420
:102B000011100895882339F090917304982B9093B5
:102B100073040E9411100895882321F00E94CA0AAC
:102B20000E9411100895882339F090912F03982B5B
:102B300090932F030E9411100895882379F19CEF40
:102B4000980F913A28F40E94F20A0E9411100895F9
:102B500090E2980F983050F4877091E001C0990F7F
:102B60008A95EAF7892F0E94CA0AEFCF9BE5980F52
:102B7000933028F490E080E00E949105089598E554
:102B8000980F973128F490E080E00E947B0508952B
:102B9000803F20F00E943E070E9417070895FF9291
:102BA0000F931F93CF93DF93F82E00913104109170
:102BB00032040115110509F449C010923004109235
:102BC0002F0410922C0410922D04D8011696CD914A
:102BD000DC919E013A9521153F4108F4D07ED1E069
:102BE000C11101C0D0E0D8011996ED91FC911A975E
:102BF000309731F01B966D917C9180E00995D82338
:102C0000DD2339F08CEF8C0F813A30F58C2F0E9448
:102C1000F20AFF2099F0E0913104F09132048085AE
:102C200084FD0CC080912E04882341F08081918125
:102C30009C0121503109203B3D45A0F00E9411101C
:102C4000109232041092310410922E04C801CDB7B4
:102C5000DEB7E5E00C9461300E9411108C2F0E94C9
:102C60009D15D7CF0E94B405E9CFCF93DF93EC0138
:102C70000E949D15CE010E94CD0B9E01205E310960
:102C80002830310510F0CD2B29F40E948C15DF91EE
:102C9000CF9108950E947715FACFCF93C82F88233C
:102CA000C1F18CEF8C0F813AB0F580911B01882324
:102CB00001F180913E0487FF1CC0EC2FE695E6955C
:102CC000E695F0E0EC58FE4F828190E04C2F477083
:102CD00021E030E002C0220F331F4A95E2F7822341
:102CE0009323892B79F08C2F0E94F20A0E941110F5
:102CF00009C0E6E7F1E08191C817A9F381E0EC375C
:102D0000F807C9F76C2F84E791E00E9446050E94FE
:102D10001110CF91089580E28C0F883068F4C7704D
:102D200021E030E001C0220FCA95EAF780912F031D
:102D3000822B80932F03EBCFEBE5EC0FE33040F4D5
:102D4000F0E0EC5DFE4F808190E00E949105E1CFC4
:102D5000E8E5EC0FE73150F4F0E0EE0FFF1FE95D1E
:102D6000FE4F808191810E947B05D3CFC03F88F2C6
:102D70008C2F0E9459080E941707CBCF1F93CF9327
:102D8000DF93182FC0917003D0917103893321F024
:102D9000C0916E03D0916F03812F0E944D16209732
:102DA00039F4812F0E949D15DF91CF911F910895D5
:102DB0008FE99FE00197F1F700C000002197EFCF66
:102DC0000F931F93CF93DF93C62FD42F022FFC01B5
:102DD00082818823A9F0609376040E943A0590933B
:102DE000750480937404C77081E001C0880FCA9590
:102DF000EAF70E949315DF91CF911F910F910895EB
:102E000080917604681332C08091740490917504A7
:102E10000E941F05883C910548F510E21D0FCD1753
:102E2000B9F080E28C0F883040F4C77081E001C0B7
:102E3000880FCA95EAF70E948C15183048F481E093
:102E40009D2F977001C0880F9A95EAF70E949315FD
:102E5000802F0E94BE16183070F6D77081E001C036
:102E6000880FDA95EAF70E948C15C5CFC77081E00C
:102E700001C0880FCA95EAF7F6CFB0E0A0E0E3E41E
:102E8000F7E10C944030EC018AE0A82E288122233F
:102E900009F48FC02130C9F599818A81913021F4DC
:102EA00022960E94BE1605C0923029F422960E94F6
:102EB0004D162196EBCF933021F422960E949D155A
:102EC000F8CF943011F02196F4CF229630E020E034
:102ED000AE014F5F5F4F8053990B8A30910550F0E0
:102EE0002150310930F38FE99FE00197F1F700C0DD
:102EF0000000F6CFA29EB001A39E700D11249C018C
:102F0000260F371F8981EA01E3CFE22FF0E0E75C6B
:102F1000F94FB490822F86958695869590E0FC01B6
:102F2000E75DF94FE4902770F12C022E02C0F59472
:102F3000E7940A94E2F731E0E322FF24FC01E75E24
:102F4000F94FC490D12C022E02C0D594C7940A9494
:102F5000E2F731E0C322DD24FC01E75FF94F049181
:102F600010E002C0159507952A95E2F70170112728
:102F7000E114F10419F081EE0E944D16C114D10440
:102F800019F086EE0E944D168B2D0E94BE16C114BC
:102F9000D10419F086EE0E949D15E114F10419F098
:102FA00081EE0E949D150115110509F482CF8CE276
:102FB00078CFCDB7DEB7EAE00C945C30CF93DF93E7
:102FC000EC010E94CD0B9E01205E310928303105B5
:102FD00010F0209741F40E9493158C2F0E944D16FB
:102FE000DF91CF9108950E948215F7CF662329F0D3
:102FF000209173042260209373049C0130562115A4
:1030000040E2340720F0305E2115304108F4992762
:103010000E94DE170895B0E0A0E0E1E1F8E10C9431
:1030200043307C018B01D42E8091190182FF8CC02A
:10303000C0917603D0917703CE15DF0521F0E1141E
:10304000F10409F081C0809119018B7F80931901EF
:1030500081FD73C08091740390917503A801481B92
:10306000590B81E020911701309118014217530745
:1030700008F480E08170F82E80911901F0FA81F94E
:1030800080931901FE0183E0F695E7958A95E1F7B3
:10309000EE71FF27E05DFC4F20813181AE014F7062
:1030A000552781E090E002C0880F991F4A95E2F70A
:1030B000FF2009F444C0822B932B9183808380915D
:1030C0002F0381FF08C0809119018061809319014D
:1030D00082E00E94CA0A80912F0385FF08C0809178
:1030E000190180628093190180E20E94CA0A6F2D43
:1030F000CE010E94F617DD2031F080916B0385FF31
:1031000002C086FF3BC080916E0390916F030E94C6
:10311000B70C80917603909177039C01305621156E
:1031200040E2340720F0305E2115304108F4992741
:103130000E9435160E9483101DC081E09BCF8095B0
:10314000909582239323B9CFC701992797013056D1
:10315000211540E2340728F0305E2115304108F097
:10316000C7010E94351680917603909177038E15E2
:103170009F0501F31093750300937403CDB7DEB779
:10318000E7E00C945F3068EE7EEF90E080E00E9414
:10319000D13060E082E090E00E94B33060E083E0F4
:1031A00090E00E94B3301092190260E084E090E059
:1031B0000E94B33064E082E290E00E94B33060E0AD
:1031C00085E090E00E94B33060E086E090E00E94ED
:1031D000B3306FEF87E090E00E94B33040E050E002
:1031E000BA0188E090E00E94C53060E08DE090E098
:1031F0000E94B33040E050E0BA0188E190E00E94C4
:10320000C53060E087E190E00E94B33040E050E0DC
:10321000BA018CE190E00E94C53070E060E080E28D
:1032200090E00E94D13040E050E0BA0188E190E0A7
:103230000E94C53080E00E94680E0E94D81440E0D1
:1032400050E0BA018FE090E00E94C53040E050E0CD
:10325000BA0183E190E00E94C5300895A7E0B0E094
:10326000E4E3F9E10C9438307C01DC0113964D91D4
:103270005C91149711966C9111978C910E94250680
:103280008111D3C061E0C7010E94AF0D8C01F7012D
:103290005280552009F483C782519F45409708F01A
:1032A0005CC78FEF93E00E94A5308111AEC07EEE27
:1032B000D72ED00E0BE212E0D11036C019821A823E
:1032C0001B821C8299249A9468012FEFC21AD20A99
:1032D000C8010E94A53089831A82882309F495C009
:1032E000813009F087C0580132E0A30EB11CC6013D
:1032F0000E94A530C82E8A83882309F486C0C501A0
:103300000E94A530D82E8FEF8C0D8330D8F4580151
:1033100043E0A40EB11CDB82DD2021F0CE0101963A
:103320000E943D178501D0CF0115F4E01F0709F475
:103330006CC0C8010E94A530811101C0DA940F5FF2
:103340001F4FBACF8BEF8C0D833070F5C8010396F9
:10335000DB825C01DD2031F3580154E0A50EB11C85
:103360000E94A5308C838823E9F20B811C810130F7
:103370006FEF160710F0102F002776E0C71681F0C8
:1033800087E0C81649F0C8010E94BE2780916E03ED
:1033900090916F030E94B70CC8010E949927C2CF79
:1033A000C8010E94BE27BECF94E0C912BBCF58010E
:1033B000A4E0AA0EB11CC80103960E94A530DD202E
:1033C00021F1882311F18150990B989E9001999ECB
:1033D000300D1124ED2DE150FF0BCF01820F931F13
:1033E000019708F49FCFAFE9BFE01197F1F700C054
:1033F0000000F6CFCE0101960E943D17560192CFF4
:1034000081E00E9411110E94C7108091F501877020
:1034100061F0D70112968C91882339F080913F0496
:1034200082FF03C082E00E94E0102796E2E10C9444
:10343000543081E00E94D310E6CF82E0E2CF82E0F8
:10344000F9CF81E080930001E0CF80954822D3C678
:10345000552009F456C610939501009394010E94DB
:103460002E05609328047093290480932A04909376
:103470002B041092300410922F04BDC682FB8827C3
:1034800080F9FCC6552001F18170F8C60E949D1597
:1034900081C70497813A910558F46A2D84E791E039
:1034A0000E944605552009F4D3C50E941110ADCFE6
:1034B0000E9411108FE39CE90197F1F700C0000012
:1034C0008A2D0E944D16EECF9D819F5F9D83ABC6D6
:1034D000FC01208131810217130709F0B2C5511098
:1034E000B2C510922E0480E035C68091190181602A
:1034F00080931901DAC5809119018E7F809319019B
:103500000E948310D2C5809119018F7E013E110562
:1035100031F0053E1105C9F4809119018F7D80932A
:1035200019018091190180FFCFC5D70112968C91A6
:103530000832110528F50E31110508F074C0043069
:10354000110580F58111BCC5BFC5C8019056811514
:1035500060E2960720F0905E8115904110F780910F
:10356000190182FFB1C580916D0381FDADC520E3D6
:1035700032E040E0B60190E080E00E940B18A4C564
:103580000933110558F40D32110518F40B321105E9
:10359000C9F690916B0392FDD5CF08C00436110592
:1035A000C1F3D0CF90916B0394FDCCCF882309F465
:1035B0009DC090912F0380911802282F292B322F24
:1035C0003D7FB1F1109277031092760330916B0337
:1035D00031FD2EC0F80143E0F695E7954A95E1F7F5
:1035E000EE71FF27E05DFC4F98012F70332781E0DB
:1035F00090E002C0880F991F2A95E2F78095909578
:1036000020813181822393239183808360E0C801EC
:103610000E94F617809118028D7F0E94B60A82E000
:103620000E94E010F2CE90916B0393FD8BCFBECF42
:1036300038E0F701A0E3B2E001900D923A95E1F78E
:10364000109232021092340210923302A09076034C
:10365000B09077030A151B0591F530916B0335FF88
:103660002EC04091190141FB992490F841FF02C0FE
:1036700036FF25C04091740350917503F601E41B99
:10368000F50BE83CF105D8F491FF08C080911901D1
:1036900080618093190182E00E94CA0A80912F0301
:1036A00085FF08C08091190180628093190180E232
:1036B0000E94CA0A692DC5010E94F617A6CE9091F4
:1036C000190121FB91F9909319018D7F0E94B60A8F
:1036D0001093770300937603D0927503C09274031E
:1036E0008091190184608093190199CF970140E07E
:1036F000B601C8010E940B1888CE053F6CE516077D
:1037000009F460C008F45AC027E245EE66EE063FB1
:103710008CE5180709F4F1C4D70112963C913323C4
:1037200009F4DFC5109276040330BDE51B0708F0ED
:1037300050C00A3FECE51E0730F4C80182509C459A
:10374000449708F052C00E94D60D90933F04809396
:103750003E0402315CE5150709F48DC108F0DDC0B7
:1037600009307CE5170709F464C108F0A7C00530EB
:103770009CE5190709F451C108F08EC00330BCE57F
:103780001B0709F442C108F044C180913E048160E6
:103790000230FCE51F0709F4BDC080913E04909102
:1037A0003F040E94810E0E9439112FCE27E245EE80
:1037B00065EEA3C426E241EE60EE9FC427E245EE2B
:1037C00064EE9BC426E241EE62EE97C428E241E03B
:1037D000EFCF053AFDE51F0709F4B5CF08F055C056
:1037E00001364DE5140709F4AECF06315CE5150747
:1037F00009F47CC50A359DE5190709F495C108F05F
:103800006EC10115BCE51B0709F474C10E3D1C45D2
:1038100009F47DC1F70186819781009709F488C179
:103820000E941D09182F092FF701D280C580C2946C
:103830003FE0C3228091F5018770C1F0AD2CDD20FF
:10384000B1F0892F807F803421F080E2810F8830B1
:1038500068F080913F0482FF09C082E00E94E0107E
:103860008091F5018770AA24A3948111A12C902E38
:1038700092942FE09222FBE0F91508F4EDC1E92DB6
:10388000F0E0E550FF4C0C942B30C8018D5A9D455B
:10389000039708F0AACF57CF80913E04806207308B
:1038A0002CE51207B9F180913E04806108303CE5B7
:1038B000130780F180913E0480642CC00D304CE5EC
:1038C000140709F4C0C090F480913E048E7F0B3041
:1038D0006CE51607F9F080913E048C600C307CE5B5
:1038E0001707C0F080913E048D7F14C00F308CE527
:1038F000180709F4B8C008F4AAC00031ACE51A07EB
:1039000009F4B5C080913E048F7B0131BCE51B07F3
:1039100009F043CF80933E0440CF0F3FECE51E07F4
:1039200009F4B3C0A8F50A3F2CE5120709F479C0E1
:10393000C0F404314CE5140709F4B5C008F4A1C083
:1039400005316CE5160709F028CF80913E0482FB13
:10395000992790F921E0922790FB82F990FB83F957
:10396000D9CF0C3F7CE5170709F475C008F45DC09A
:103970000D3F9CE5190709F472C080913F048360F4
:103980000E3FACE51A0709F008CF80933F0405CF3E
:103990000136BDE51B0709F491C090F40130FDE547
:1039A0001F0709F489C008F474C060E002303DE5E7
:1039B000130709F0F2CE8EE090E00E94B330EDCE16
:1039C0000D3A4DE51407E9F060F490913E04892F1B
:1039D0008E7F90FF8160053A6DE5160709F49ACF56
:1039E000DCCE0E3A7DE5170751F10F3A8DE5180749
:1039F00009F0D3CE90913F04892F877F93FF886091
:103A0000C4CF80913F048860C0CF80913E04826023
:103A100081CF80913E0484607DCF80913E04886098
:103A200079CF80913F048160B0CF80913F04826064
:103A3000ACCF0E94391180913E0480686BCF809199
:103A40003F04877FA2CF80913E048B7F63CF80911C
:103A50003E04877F5FCF80913F048E7F96CF809119
:103A60003F048D7F92CF80913E048F7E53CF809113
:103A70003E048F7D4FCF0E94391180913E048F7795
:103A800049CF80913E04837F45CF80913F048C7F56
:103A90007CCF80913F04982F909591708E7F892BD9
:103AA00090FB81F972CF0E94391190913E04892FC9
:103AB00097FB87F980582ECF61E07DCF90913E042F
:103AC000892F8F7E94FF806125CF8091960181118F
:103AD00004C089E20E94F20AE8CC85E3FBCF0C35F2
:103AE000FDE51F07B9F010F1073A1D4509F092CE28
:103AF0000E9461150E9439114FEF54E36CE0415070
:103B000050406040E1F700C000000E94930C0E940A
:103B1000C318EECF80913F0482FB882780F991E0A3
:103B200089270E94FC1076CE81E0FBCF80E0F9CFA0
:103B3000828100811181882369F0C8010E94330DC0
:103B4000D82E682FC8010E947B0BB8018D2D0E94D2
:103B5000160D66CEC8010E94470BD82EF6CF202F37
:103B60002F70B22E802F807F19F0B29490EFB9227F
:103B7000DD20B9F0BB2069F080E2810F883010F0C1
:103B8000111109C080912F03B82AB0922F030E940F
:103B90001110812F5FC080917304B82AB092730412
:103BA000F6CF812F0E949D15BB2009F455C080E2FD
:103BB000810F883010F0111104C08B2D0E94CA0AA9
:103BC00006C0B09480917304B822B09273040E942E
:103BD000111042C0302F3F70B32E802F807F803273
:103BE00019F0B29480EFB822112321F1113009F4B9
:103BF000B0C0DD2009F4B9C0CC2009F481C020E0B8
:103C0000D7014C9111965C91119712966C91129775
:103C100013967C91139714968C910E948C0D809131
:103C20006D0381FDB6CFF701858180FFB2CF8F7024
:103C3000858366C080913F0482FD42C0DD20D1F1C2
:103C4000BB2039F080912F03B82AB0922F030E9435
:103C5000111080E00E944D16692D6850770B64307A
:103C6000710510F40E94A705812F902F0E94B20BBE
:103C70008111C1C11092990110929801AA20A9F056
:103C80008091F50180FD11C0F7011282859585951F
:103C900085950E941111C7010E942E198091F5018E
:103CA0008595859585950E94D31060E0C7010E9497
:103CB000AF0DBBCB80E00E949D15BB2069F27DCF8C
:103CC000DD2011F1C11004C0809118028B2919C0A8
:103CD00041E0C41206C0809118028B290E94B60AE6
:103CE000BBCF80916C03823078F3C812EDCF0E9475
:103CF000AB0A909197018B2D892B891380939701A3
:103D00008B2D0E949315A8CFC11003C00E94AB0A4F
:103D100017C080916C0351E0C51216C0823008F4C0
:103D20009BCF80912F038B2109F496CF0E94AB0A81
:103D3000909197018B2D809589238913809397010A
:103D40008B2D0E948C1588CF823000F3C812DECFF5
:103D500083CF80917203DD2021F08C1508F47CCF95
:103D6000CFCFC81608F078CFEBCFCC2049F38091A5
:103D7000700390917103193321F080916E0390913B
:103D80006F030E94B70C812F0E949D1565CF802F75
:103D900086958695837069F0813009F05DCF812F1B
:103DA000902F9370D11002C090E080E00E947B05BC
:103DB00053CF812F902F9370D11002C090E080E0FC
:103DC0000E94910549CF812FDD2029F00E945908DA
:103DD0000E94170741CF0E943E07FACF802F8370C1
:103DE00091F5D11039CF412F429546954770440F38
:103DF000440F812F8F70042E01C0880F0A94EAF7B8
:103E0000212F207114FF07C02FE030E001C0220FE6
:103E10004A95EAF72095302F369536953370323033
:103E200069F050F440911902313029F0822B84233B
:103E30000E94341111CF842B822BFACF282B809132
:103E400019028227F5CF8695DD2011F0802F817031
:103E5000882309F401CF412F429546954770440FBE
:103E6000440F812F8F70042E01C0880F0A94EAF747
:103E7000212F207114FF07C02FE030E001C0220F76
:103E80004A95EAF72095302F3695369533703230C3
:103E900069F050F440917204313029F0822B842370
:103EA0000E94C210D9CE842B822BFACF282B80916E
:103EB00072048227F5CFF02FFF70BF2EDD2029F08E
:103EC0008F2F0E941111812F1CCF812F0E948C15E2
:103ED0008B2D0E94D310C0CE123F89F160F4103FA9
:103EE000B9F0113F81F0DD2009F480C0C11051CE3E
:103EF000802F8F7128C0133F49F1143FA1F78091A3
:103F00003F0482FD2FC0802F8F71DD2011F31BC075
:103F100080917203DD2079F0C81608F09DCE202F25
:103F20002F7181E090E001C0880F2A95EAF7909107
:103F300072048927B5CF8C1508F48ECEF0CF802F70
:103F40008F71D110C6CF0E94111186CE80E0DD2086
:103F500009F4A6CF81E0902F9F7101C0880F9A9538
:103F6000EAF79ECF80916C03823040F1DD20D1F0E2
:103F70009091F5019770943041F40E94D10A802FFE
:103F80008F710E94D310A12C67CEC816E0F7202FA6
:103F90002F71B22E822F0E94111163E08B2D0E948F
:103FA0001D11F1CFC81630F00E94D10A64E0802FB5
:103FB0008F71F5CF81E00E94E010E5CFDD2059F050
:103FC000302F3F71B32E832F0E94111163E08B2D90
:103FD0000E941D1141CE81E00E94E01041E04C158D
:103FE00008F03ACE82E00E94E01036CEC110BFCE7B
:103FF000802F8F716ECFDD2019F0C1103BCE3ECEE9
:10400000C11038CE20E0D7014C9111965C911197E8
:1040100012966C91129713967C91139714968C912B
:104020000E948C0D80916D0383FF24CE80919801B6
:1040300090919901029709F01DCE812F0E94BE1622
:1040400019CE552029F0DC0118968C9185FF4BCABA
:1040500080916B0380FF38C00E943A056C01F70124
:104060008281882309F44FCA8091190182FF08C018
:1040700020E332E040E0B60190E080E00E940B18BF
:104080000B31FCE51F0709F430CA0C312CE512078F
:1040900009F431CA90911901892F8E7F90FF8160B8
:1040A0000A313CE5130709F429CAC8019056811565
:1040B00040E2940728F0905E8115904108F031CAE3
:1040C0001092770310927603033FFCE51F0709F473
:1040D00071CB08F012CB083D3CE5130709F466CB21
:1040E000093D4CE5140709F471CB073D5CE5150764
:1040F00009F012CB26E241EE61EEC7010E94E01604
:1041000084C980919401909195010817190781F451
:104110001092950110929401109228041092290493
:1041200010922A0410922B041092300410922F0443
:104130008091310490913204009709F489CFA8E06E
:104140008A16910408F0C4C9642D0E9405068111E5
:104150007FCF81E00E94CF157BCF0031BFE51B07E9
:1041600009F44EC90131EFE51E0709F466C90F35A0
:10417000EDE51E0709F465C90036FDE51F0749F0A6
:104180000E352DE51207A1F480910001882309F472
:1041900058C91092000180E00E94CF1536C98031C5
:1041A000FFE59F0709F445C981319F4509F447C9D7
:1041B00080910001882309F44BCF480130EE831A27
:1041C00091084090180280919701482A80912F030E
:1041D000482A48E08416910408F03AC998012770EB
:1041E000332781E090E001C0880F2A95EAF7552037
:1041F00009F42BC9482AD7018D919C910E94470B45
:1042000021E030E0190102C0220C331C8A95E2F74C
:10421000E0913104F0913204FF83EE8360909401C9
:10422000709095011D822D81E22FF0E0EE0FFF1FAF
:10423000EF55FD4FC080D180C114D10409F478CF6F
:10424000411005C0D60112968C9181113DC9F6012D
:10425000838190E082219321892B09F435C98085DF
:10426000982F977009F487E0F8E08F16910408F012
:1042700009C9552009F402C986958170882309F47B
:1042800023C9D601AD90BC900A151B0519F4552021
:1042900009F41AC9EE81FF81CE16DF0609F414C9AC
:1042A000D6011D96ED91FC91309721F080818823F5
:1042B00009F40AC9642DC6010E940506882309F481
:1042C00003C90A151B0509F03FC00115110509F4C2
:1042D00040C0511040C0A614B70409F0F5C8512CD5
:1042E0003AC006314CE5140709F094CA80912F03B7
:1042F000982F9A7A20916A0320FF04C0482F4474B3
:1043000009F090E021FF04C0482F417109F090E0CE
:1043100022FF04C0482F487809F090E023FF03C033
:10432000827209F090E0332309F4CFCB81E0911140
:1043300001C080E08093960169E2911165E384E712
:1043400091E00E944605B1C8A114B10409F0C3CFA1
:10435000512CB12CA12C80E00E94CF15D0923204B8
:10436000C092310481E080932E04D60115968C9181
:1043700080932C0451100EC0AB2861F0F6018081AF
:1043800091819C0124503109213A310508F07EC801
:104390000E94F20AD6011696AD90BC90C5019A957E
:1043A00081159F4110F4E0EEBE2277247394C5017D
:1043B0000197803B9D4508F0712CD6011996ED912F
:1043C000FC911A97309731F01B966D917C9181E0AA
:1043D00009957822772079F0F601868197810E94ED
:1043E000CD0B80932D04C501F8E08F16910408F0E1
:1043F00050C80E94B4050E94111054C8EF92FF9259
:104400000F931F93CF93DF938091AE01807F09F0CC
:104410004CC08091AB01882309F447C0C091F201E0
:10442000E090B101D091A901F090AA010091AC01F6
:104430001091AD01EC16C9F1A8016F2D8D2F0E94CE
:1044400025062C2F30E0811135C0F90183E0EE0FF5
:10445000FF1F8A95E1F7DF01AE54BE4F11968C9194
:1044600011978F1127C08C918D1324C012968C91B7
:10447000129781111FC013968D919C91801B910BF7
:10448000883C9105B8F48091AE018F708061809373
:10449000AE01E954FE4F80818F708061808389EA8C
:1044A00091E00E942E190E943D0BCDB7DEB7E6E0E9
:1044B0000C9460302F5F3F4FC22FC770BBCFA5E178
:1044C000B0E0E5E6F2E20C943A308C0185E0F801C8
:1044D000DE01519601900D928A95E1F7D8016C901A
:1044E00011967C9011971296EC9012971396CD909E
:1044F000DC9060E089EA91E00E94AF0D89EAA82E85
:1045000081E0B82E5090A9014090AA018090AC01A2
:104510009090AD01A401642D852D0E942506811186
:104520005CC1F090AB01960128193909FF2009F40C
:1045300017C18091AE01982F907F283C310508F07B
:10454000D2C0F8012181911181C0FE2C24111FC01D
:10455000908195111CC04091AF015091B00126810E
:1045600037814217530799F4E11011C08F708061B1
:104570008093AE01C5010E942E198091AE01D80131
:1045800015968C938F2D6596E0E10C945630A6011C
:10459000672D862D0E942506D82E81E08E25D1100C
:1045A00080E080FF18C04E2D672D862D0E941D0BC8
:1045B000882389F080916D0380FF0DC089EA91E026
:1045C0000E942E1988E0E9EAF1E0DF011D928A9548
:1045D000E9F7F12CD7CF81E08E25D11080E0B82FFC
:1045E000B170DB2E80FF29C04E2D672D862D0E94D5
:1045F0001D0BC82E811121C0698A7A8A89899A89FE
:104600000E94620D292F22952F70223050F0243005
:1046100078F49F7051F0F8019581907F31F4FC2C73
:10462000B1CF9F7011F08823D1F3805E8830B8F34A
:10463000C8010E942E19CD2CF2CFEE2009F4A2CF92
:104640008091AE0181608093AE01C3CF24111BC065
:104650009081951118C04091AF015091B001268111
:1046600037814217530779F4E1100DC08583C801E3
:104670000E942E1988E0F801A9EAB1E001900D929C
:104680008A95E1F77FCFC8010E946F0D882339F129
:10469000EE2029F18091AE018032A0F02091A90195
:1046A0003091AA013A8729871B86DD86CC868E87C2
:1046B0008091AF019091B001988B8F87CE010996C0
:1046C0000E942E1988E0F801A9EAB1E001900D924C
:1046D0008A95E1F70E94FE21FF24F39453CFC8018D
:1046E0000E942E19F9CF992309F468CFF80191811E
:1046F000941118C09081951115C04091AF0150914F
:10470000B001268137814217530761F4E1100AC0D6
:104710008583C8010E942E1988E0D5011D928A95D3
:10472000E9F730CFC8010E946F0D8823C1F2EE2057
:10473000B1F28091AE01803228F22091A90130912E
:10474000AA013A8329831B82DD82CC828E838091E9
:10475000AF019091B00198878F83CE010196B0CFC1
:10476000283C3105C8F6FE2CEE2009F4B8CFF8013C
:104770008181841124C08081851121C02091AF01E5
:104780003091B0018681978128173907C1F4809153
:104790006D0382FD6FCF9091AE0190FD6BCF907F46
:1047A00009F468CF8091AE018583903F09F45FCF13
:1047B000982F907F905F8F70892B858358CFC80189
:1047C0000E946F0D81117ECF8091AE018160809338
:1047D000AE01C8010E942E19D5CEEE2009F47FCF7C
:1047E000C8010E946F0DF82E882309F478CF88E065
:1047F000F801A9EAB1E001900D928A95E1F7809164
:10480000A9019091AA010E94620D0E94FE21BACED8
:10481000A0E1B0E0EEE0F4E20C94483029873A875A
:104820004B875C876D877E878F87988BCE01099633
:104830000E945F2281112FC088E0FE013996DE01BF
:10484000119601900D928A95E1F74C855D856A85F8
:1048500089850E94250681111EC0A091B101B0E09A
:10486000CD010196877099272091F201281719062A
:10487000E1F093E0AA0FBB1F9A95E1F7AE54BE4F4B
:1048800098E0FE01319601900D929A95E1F78093A0
:10489000B1010E943D0B8091F2019091B101891309
:1048A00012C06096E2E00C9464300E9439111092BC
:1048B000B1011092F20188E0E9EAF1E0DF011D9216
:1048C0008A95E9F7E8CFB8E08B9FC00111248E5498
:1048D0009E4F0E945F22882321F38091F20190E095
:1048E0000196877099278093F201D5CFEF92FF92BE
:1048F0000F931F93CF93DF9380917B03882361F005
:10490000C0917A038CE0F82E80917B03C81748F0A1
:1049100010927B0310927A03CDB7DEB7E6E00C94D9
:104920006030EE24E394EC0EE0927A030C2F10E05A
:10493000CF9DE0011124C458DC4F4B815C8169811B
:1049400088810E94250681111DC08E819F81892B3F
:1049500021F488859985019651F4288139814A810D
:104960005B816C817D818E819F810E940824F09EF5
:10497000F001F19EF00D1124E458FC4F14821382D3
:1049800010927304CE2DC0CF10921F0410921E04FB
:1049900010921A0180911D0480931C040E945E06EF
:1049A0000E9476240895B0E0A0E0E9EDF4E20C94D2
:1049B0003930C0911C0497E0892E01E010E02CE012
:1049C000322E3EEF932E4424439480911D048C1389
:1049D00009C00E9476240E945E06CDB7DEB7E1E1F1
:1049E0000C945530D0E0FE01EE0FFF1FEC5EFB4F44
:1049F00080819181889ED001899EB00D1124A4529E
:104A0000BC4F14962C911497211158C050907B03E1
:104A1000ECE7F3E030E020E0712C5D01251508F0B3
:104A20004BC0E284F384D501CD90DC906FEF7FEF33
:104A3000612C462D50E0DA01AA0FBB1FAC0DBD1D45
:104A40000D90BC91A02D109731F0EA16FB0609F4E9
:104A5000BA016394EECF6F3F7607A9F1D80102C087
:104A6000AA0FBB1F6A95E2F77A2AB801062C02C08A
:104A7000660F771F0A94E2F7AB0141505109741693
:104A80001506F9F4329EF001339EF00D1124E4581E
:104A9000FC4F889ED001899EB00D1124A452BC4FBA
:104AA00012962D913C9113973783268390829182A1
:104AB0009187808715964C920E9430062196C3708C
:104AC00084CF148213822F5F3F4F3C96A7CFA9E17A
:104AD000B0E0EDE6F5E20C943830942F498B252FA9
:104AE0005A8B6B8B7C8B8D8B4C895D89622F892FC8
:104AF0000E942506811109C0809198019091990129
:104B0000019690939901809398018B89811110925D
:104B100073041D861E861F86188A85E0FE01719625
:104B2000DE01199601900D928A95E1F780913F047C
:104B300082FF1EC08091520390915303892BC1F0D4
:104B40000E943A052091F3013091F401821B930BEE
:104B500020915203309153038217930720F08091E4
:104B6000F50182FFE2C10E94D80A81110E94AB0ABE
:104B70004C855D856A8589850E942506811111C055
:104B800061E0CE0109960E94AF0D6C018B8527EF85
:104B9000C2162CE5D20681F4882321F181E08093AE
:104BA0001A0129853A854B855C856D857E858F85C3
:104BB00098890E940824C6C038EFC3163CE5D30686
:104BC00029F4882379F00E94C424EBCF49EFC4165E
:104BD0004CE5D40639F4882329F080911A0181111B
:104BE000F2CFDCCF0CED13E0512CB12CA12C222400
:104BF0002394312C2EEF422EF801408151818824DC
:104C00008A94982C20E0822F90E0FC01EE0FFF1F89
:104C1000E40FF51F608171816115710531F0C616D1
:104C2000D70609F44C012F5FEECFF12CFFEF8F1662
:104C30009F0609F449C0F8014481F0901A018F2DB4
:104C4000411180E0F82FF170FF2EF801E580868198
:104C50009B85992309F4F8C0FF2009F4F5C0609002
:104C6000660370906703E11013C0A101082C01C016
:104C7000440F0A94EAF7842B8683809178039091FD
:104C800079038615970520F4709279036092780372
:104C9000C10102C0880F991F2A95E2F70197F80118
:104CA00026812817190681F480911E0490911F0413
:104CB000009709F44BC00E941F056816790608F09A
:104CC00045C021E0F80124835F28FFEFAF1ABF0A37
:104CD000095F1F4F28E0A216B10409F08DCF8B8524
:104CE000882309F40DC1552009F40AC10E943A0530
:104CF00090931F0480931E0480917B03883010F5ED
:104D000091E0980F90937B0398E0FE013996DE01C5
:104D1000119601900D929A95E1F73CE0839FC001B6
:104D2000112484589C4F28E0FE013196DC0101904B
:104D30000D922A95E1F72FEF3FEFFC013187208795
:104D4000D386C2866996E2E10C94543080911C04AB
:104D500050911D04982FF0E0E0E0851314C090936B
:104D60001C04E017F10709F4AFCF90E0FC01EE0F4F
:104D7000FF1FEC5EFB4FB182A082019683709927E2
:104D800080931D04A1CF682E712CF301EE0FFF1F3D
:104D9000EC5EFB4F2081318147E0429FD001439F71
:104DA000B00D1124A452BC4F6D917C911197798F55
:104DB000688F40E020E030E0E32FF0E0EE0FFF1FCF
:104DC000688D798DE60FF71F8080918081149104A2
:104DD000E1F0F8010190F081E02DFF8BEE8B20E0F7
:104DE00005C08616970609F44F2D2F5FE22FF0E0DD
:104DF000EE0FFF1F6E897F89E60FF71F60817181BB
:104E00006115710571F73F5FD7CF4423D1F0F801E9
:104E1000231708F0FD0121E024830E171F0721F45A
:104E200090931C04F42E50CF981305C0AE17BF0703
:104E300011F49F5F937093012F5F3F4F822F837018
:104E40008CCFF0E0E0E0F7CF90E0E11020C0B101BE
:104E500002C0660F771F2A95E2F79B0121503109A6
:104E60008217930731F4442309F448C0C5010E9416
:104E70003006C101082C01C0880F0A94EAF7982F68
:104E80009095F801868189238683FE2C1DCF9C0195
:104E9000082C02C0359527950A94E2F7A9014170C4
:104EA0005527BC016150710986239723892B11F581
:104EB000452B01F1F80182819381892BC1F01B827E
:104EC0001C821D821E8249824A820E943A058160AC
:104ED000582F9D838C83F801828193818F839887DB
:104EE00029813A814B816D817E810E940824F801DD
:104EF0001582BFCFF22FF170EF2EBBCFEF2CB9CFC1
:104F000090911C0480911D04981731F00E94D324C5
:104F1000552009F446CE16CF0E94762410921F0425
:104F200010921E040E945E06F3CF82E00E94E01001
:104F30001ACEA5E0B0E0EFE9F7E20C944830909388
:104F40002C0380932B03811520E2920730F40E94FA
:104F500035162596E2E00C94643080EF89838A83CD
:104F60001B820E943A058160782F9D838C83498142
:104F70005A816B818D810E946725EBCFA5E0B0E05F
:104F8000E4ECF7E20C94483090932C0380932B03CD
:104F9000811520E2920730F40E94DE172596E2E0A8
:104FA0000C94643080EF89838A8381E08B830E9434
:104FB0003A058160782F9D838C8349815A816B816A
:104FC0008D810E946725EACF1F920F920FB60F9234
:104FD00011242F933F934F935F936F937F938F93FE
:104FE0009F93AF93BF93CF93DF93EF93FF93D091B2
:104FF000E900DF708091EC00C82FC17080FDC0E82F
:105000001092E9008091F000877F8093F0007894FF
:105010000E944F111092E9008091F0008860809307
:10502000F000CD2BCF70C093E900FF91EF91DF919D
:10503000CF91BF91AF919F918F917F916F915F9130
:105040004F913F912F910F900FBE0F901F90189589
:105050001F920F920FB60F9211242F933F934F93ED
:105060005F936F937F938F939F93AF93BF93EF93D0
:10507000FF938091E10082FF09C08091E20082FFEE
:1050800005C08091E1008B7F8093E1008091DA0080
:1050900080FF24C08091D80080FF20C08091DA007A
:1050A0008E7F8093DA008091D90080FF9DC080E1DF
:1050B00089BD82E189BD09B400FEFDCF81E0809306
:1050C000680480914304811109C00E9497030E94E3
:1050D00062048091E20084608093E2008091E100AC
:1050E00080FF17C08091E20080FF13C08091E20032
:1050F0008E7F8093E2008091E20080618093E200E5
:105100008091D80080628093D80019BC85E080939C
:1051100068048091E10084FF2BC08091E20084FF4D
:1051200027C080E189BD82E189BD89B5982F917042
:1051300080FFFBCF8091D8008F7D8093D800809135
:10514000E1008F7E8093E1008091E2008F7E80936A
:10515000E2008091E20081608093E2008091690426
:10516000882309F447C084E0809368048091680430
:105170008091E10083FF27C08091E20083FF23C07C
:105180008091E100877F8093E10082E08093680452
:10519000109269048091E1008E7F8093E1008091FC
:1051A000E2008E7F8093E2008091E2008061809334
:1051B000E20042E060E080E00E9430048091F00074
:1051C00088608093F000FF91EF91BF91AF919F9124
:1051D0008F917F916F915F914F913F912F910F90A0
:1051E0000FBE0F901F90189519BC10926804109272
:1051F000430474CF8091E30087FD93E090936804AB
:10520000B5CF78941F921FB61F9211248F939F934E
:10521000AF93BF9380913A0490913B04A0913C04DA
:10522000B0913D040196A11DB11D80933A04909365
:105230003B04A0933C04B0933D04BF91AF919F9178
:105240008F911F901FBE1F9018951F921FB61F921F
:1052500011248F939F93AF93BF9380913904811151
:1052600013C080913A0490913B04A0913C04B0910A
:105270003D044196A11DB11D80933A0490933B04D7
:10528000A0933C04B0933D04BF91AF919F918F9147
:105290001F901FBE1F901895CDB7DEB7E4970FB6CD
:1052A000F894DEBF0FBECDBF85B7806885BF85B7D8
:1052B000806885BF84B7877F84BF0FB6F894A895B0
:1052C00080916000886180936000109260000FBE42
:1052D00080E890E00FB6F8948093610090936100AD
:1052E0000FBE81EC98E090937301809372010E944D
:1052F0001B0F0E948F0E0E94C10C0E9497030E94F8
:1053000062048091E20084608093E200789480914E
:1053100068048823A1F01091E9001F709091EC00BF
:10532000892F817090FD80E8182B1092E900809100
:10533000E80083FD0E944F111F701093E90082E086
:1053400084BD93E095BD9AEF97BD80936E000E9457
:10535000BD0D811102C00E94D81481E30E94C308D0
:1053600083E30E94C30882E30E94C30886E30E948D
:10537000C30809E511E083E6E82E81E0F82ED801A4
:105380008D918D018F3F11F00E94C308E016F10648
:10539000B1F788E0EBE3F2E0DF01282F1D922A95B8
:1053A000E9F7EDE1F2E0DF011D928A95E9F790E07F
:1053B00080E00E94AD30883E9E4F21F40E94BD0DDA
:1053C000811102C00E94C31882E090E00E94A530C3
:1053D000809327020E94D60D90933F0480933E0451
:1053E0000E945F0FEFEFF6E721E0E150F040204030
:1053F000E1F700C000000E945F0F80913B0280FF38
:1054000008C06FEF7FEF90E080E00E94D1300E94F3
:10541000930C83E090E00E94A5300E94341181E05B
:1054200091E0909336048093350410E4212E5524A6
:1054300053948E010F5F1F4F80916804A0E1EA2E04
:10544000B2E1FB2E853009F48EC00E945F0FE8E2C6
:105450008E2EE2E09E2EFBE36F2EF2E07F2ED30134
:10546000F401219131918D919D9142E0E033F40757
:1054700009F483C028173907A1F3412CD301ED901B
:10548000FD903D01F401A190B1904F01AE14BF0415
:1054900059F1AE24BF24312CCC24C394D12CC501A6
:1054A0008C219D21892BB1F038AA49AA21E0C7019E
:1054B0008C219D21892B09F420E02AAB0E943A051A
:1054C0008160782F9CAB8BAB48A959A96AA98CA99C
:1054D0000E9467253394CC0CDD1CFAE03F12DFCF2D
:1054E000F4013297F182E082439424E04212C6CF65
:1054F0000E942E0564C080916804843019F11092D6
:10550000390488E190E00FB6F894A8958093600084
:105510000FBE2092600083B7817F846083BF83B712
:10552000816083BF7894889583B78E7F83BF0FB6E1
:10553000F894A89580916000886180936000109233
:1055400060000FBE80916704882369F00E945F0F9E
:10555000EBE3F2E081919191892B09F007C592E08C
:10556000E334F907B9F780916804853009F4C3CFB3
:105570000E9439110E94A70568CF2817390709F042
:105580007CCF0E943A057C018091250290912602F1
:10559000E816F906A1F08FEF8BA78CA71DA60E9435
:1055A0003A058160782F9FA78EA74BA55CA56DA5B6
:1055B0008FA50E946725F0922602E0922502809135
:1055C0002F0490913004892B09F43EC040912404AB
:1055D0005091250460912604709127042FB7F89408
:1055E00080913A0490913B04A0913C04B0913D0419
:1055F0002FBF841B950BA60BB70B40912004509135
:105600002104609122047091230484179507A60752
:10561000B707D0F080912F04909130040E94DE17DC
:105620001092300410922F0410922404109225043A
:105630001092260410922704109220041092210444
:10564000109222041092230480911A01882301F100
:1056500080911E0490911F040097D1F00E941F05B5
:1056600020917803309179032817390788F49091B5
:105670001C0480911D04981709F4D0C00E94D32403
:10568000109279031092780310921F0410921E0456
:1056900080916B0380FF1EC08091190182FF1AC0A8
:1056A0000E943A052091740330917503AC01421BAE
:1056B000530B20911701309118014217530750F0F6
:1056C00020E332E041E0BC018091760390917703C2
:1056D0000E940B1886E0EAE4F2E0D80101900D92F6
:1056E0008A95E1F710924C0210924D0210924E02F0
:1056F00010924F028B819C81892B91F080914802FE
:10570000909149020E941F05AC0190914402992397
:1057100009F48DC0809115018417150608F495C011
:105720008D819E81892B91F0809146029091470254
:105730000E941F05AC0190914302992309F4C4C053
:10574000809111018417150608F4CCC046E050E0A2
:10575000B8018AE492E00E947830892B61F480914C
:105760004C0290914D02892B90914E02892B909181
:105770004F02892B11F00E94170786E0F801AAE476
:10578000B2E001900D928A95E1F70E94A7059091F1
:105790003802891721F0809338020E942E058091EB
:1057A0006804843009F048CE83E08093E90080915A
:1057B000E80082FF41CE8091E80090E085FF0AC0BA
:1057C0000E94B60350E2E52EF12C6801882309F40B
:1057D000D2C091E08091E8008B778093E800992314
:1057E00009F42ACEE0902D03F0902E038981E11474
:1057F000F10409F4CEC08E3F09F00DC18A818330D7
:1058000020F08550833008F006C1EA81EE3008F0C0
:1058100002C1F0E0E95FFE4C0C942B300E9476242C
:1058200010921F0410921E040E945E0631CF209138
:1058300016018AE0289F900111242417350708F0EB
:105840006FCF9F5F9093440202C09F3FD1F7FB80D0
:10585000FF2059F00E94FA079FEF1F140CF491E00B
:10586000899F802D112480934C02FC80FF2059F0E9
:105870000E94FA079FEF1F140CF491E0899F802D7E
:10588000112480934D0230914C02332309F448CF08
:1058900020914D02222309F443CF45EB3403C0018C
:1058A0001124992359F090934C0245EB2403900165
:1058B0001124332331F030934D0232CF50924C02F9
:1058C000F4CF50924D022CCF209112018AE0289FF4
:1058D000900111242417350708F038CF9F5F90936B
:1058E000430202C09F3FD1F7FD80FF2059F00E9484
:1058F000C1079FEF1F140CF491E0899F802D1124A4
:1059000080934E02FE80FF2059F00E94C1079FEF56
:105910001F140CF491E0899F802D112480934F0275
:1059200030914E02332309F411CF20914F022223EC
:1059300009F40CCF45EB3403C0011124992359F02D
:1059400090934E0245EB240390011124332331F050
:1059500030934F02FBCE50924E02F4CF50924F0242
:10596000F5CE8091F100D6018D936D01B1E0EB1A77
:10597000F10809F42ECF8091E80085FDF2CF8091E7
:10598000E8008B778093E8000E94B603882399F3A0
:1059900020CF8D3009F4BBC0B0F4843009F49EC030
:1059A00040F4823041F108F08AC0813001F18FEF7C
:1059B00002C3863009F4A8C008F49BC08C30B9F744
:1059C00080E18A8328C0813109F4FCC040F48F3023
:1059D00009F4CAC008F49EC00E94320E1CC0833174
:1059E00009F41BC108F4F0C08E3F09F70ECF1A82EC
:1059F00089E08B8310C08A81823009F4FBC2833036
:105A000099F18130A1F60E942E050E9431306B83FE
:105A10007C838D839E8380916804843009F00CCD53
:105A2000F090E9003F2D3F70F32E9091EC00892F0C
:105A3000817090FD80E8F82A82E08093E9008091EF
:105A4000E80080FF0CC050E040E060E270E0C80178
:105A50000E94E7038091E8008E778093E8008F2D05
:105A60008F708093E900E8CC80910D0190910E0138
:105A7000892B89F280913B0290913C0298278927DB
:105A800098279C838B8380913D0290913E029827BA
:105A9000892798279E838D8380913F0290914002B1
:105AA00098278927982798878F8380914102909122
:105AB00042029827892798279A878987ACCF8A81BD
:105AC000823009F074CF6B817C818D819E810E9430
:105AD000313086E290E00E94B3309DCF4C816B81E3
