:100000000C94EE020C9426030C9426030C94260305
:100010000C9426030C9426030C9426030C942603BC
:100020000C9426030C9426030C94C3270C947F276E
:100030000C94C0280C9426030C9426030C942603DD
:100040000C9426030C9426030C9426030C9426038C
:100050000C9426030C949C280C9426030C942603E1
:100060000C9426030C9426030C9426030C9426036C
:100070000C9426030C9426030C9426030C9426035C
:100080000C9426030C9426030C9426030C9426034C
:100090000C9426030C9426030C9426030C9426033C
:1000A0000C9426030C9426030C94260305010902E4
:1000B000A10185020901A100050919012905150001
:1000C00025019505750181029501750381010501E1
:1000D000093009311581257F950275088106093897
:1000E0001581257F950175088106050C0A380215D2
:1000F00081257F950175088106C0C005010980A191
:1001000001850319012AB700150126B7009501756D
:10011000108100C0050C0901A101850419012AA064
:1001200002150126A002950175108100C005010984
:1001300006A1018506050719E029E71500250195A7
:1001400008750181020507190029EF1500250195A1
:10015000F0750181020508190129059505750191C0
:1001600002950175039101C00660FF0961A10109B3
:1001700062150026FF0095207508810209631500AD
:1001800026FF00952075089102C005010906A1010E
:10019000050719E029E71500250195087501810279
:1001A0009501750881010507190029FF150026FF33
:1001B0000095067508810005081901290595057542
:1001C000019102950175039101C0FD377A585A00DB
:1001D0000004E6D6B4460200210116000000742F88
:1001E000E5A3E0022000F05D003D8889C65436C3D7
:1001F000174FE4F41B037A1B7FFA1773C5B3C76A62
:1002000072E57397FE0D752BC31A56A8740AA14E9A
:10021000F4CBC4C0C452D3F02B8B279D87AE3C25B2
:10022000558605A185E0BB105F3C42B55483E2A82A
:1002300035BD210851F45EE1B19DAF6009B88D6D07
:10024000D54CF190441DB597CF3720760B05674903
:10025000F3DD210A16AF4D5420DE0DB1B51191909A
:100260006E1A0AD539E14F41876249F70FE71C1E24
:10027000C6B8FAE4D608DDCF5C42280CDA4122AEDB
:100280009A5D843F374ACFEF29E98DE683207C5081
:1002900009BE574BF8FF8F0BB775A066DF33619E21
:1002A0006AE0123DBB00B9A4A7FC028281D45B586E
:1002B0005940451D7BDE805E189D2E83F76218D362
:1002C00012CF9670CECDB9CC575E934674EA530FD9
:1002D000785835D3EAB5B95D0000C9764D7253E858
:1002E00074D000018C02A1040000A2853922B1C49F
:1002F00067FB020000000004595A010001000100E0
:1003000001000100010001000100010001000100E5
:1003100001000100010001000100010001000100D5
:1003200001000100010001000100010001000100C5
:1003300000000100010001000100010001000100B6
:1003400001000100010001000100010000000100A6
:10035000010001000000000000000100000000009A
:100360000100010001000000000001000100740311
:10037000750DA80D0000020002007003750DA80D98
:100380000000030001007503750DA80D00000400B6
:1003900002005A03750DA80D9F06050001007603A3
:1003A000750DA80D0000060002005C03750DA80D78
:1003B0000000070002007203750DA80D0000080080
:1003C00001007703750DA80D0000090002005E030F
:1003D000750DA80D7A060A0002006003750DA80DC0
:1003E0007A060B0002006203750DA80D7A060C0058
:1003F00002006403750DA80D7A060D000200660365
:10040000750DA80D7A060E0002006803750DA80D83
:100410007A060F0002006A03750DA80D7A06100017
:1004200002006C03750DA80D7A06110002006E0320
:10043000750DA80D7A06120002007803750DA80D3F
:100440000000130002007A03750DA80D00001400CF
:1004500001007C03750DA80D0000150000000000D0
:1004600000068314000009025B00030100A0FA09E2
:1004700004000001030101000921110100012240D3
:1004800000070581030800010904010002030000C0
:10049000000921110100012222000705820320002A
:1004A0000107050303200001090402000103000005
:1004B0000009211101000122BC000705840320006E
:1004C000011201000200000008EDFE606000010161
:1004D0000203011C037600690061006C003A0066AB
:1004E0000036003400630032006200330063000015
:1004F000001A036A00750061006E0062006F0061FF
:1005000000720064005F0076003200000018036A89
:1005100000750061006E006D006900630068006591
:100520000072006F000000040309040000000000D6
:1005300000000000000000000000000000000000BB
:100540000000000000000000000000000000007E2D
:100550000F00D4FFFFFFC70000007800000000007C
:100560000000002A2B28000000000000000000000E
:1005700000000000000029000000002C1E34202193
:100580002224342627252E362D3738271E1F2021DA
:1005900022232425263333362E37381F0405060739
:1005A00008090A0B0C0D0E0F101112131415161753
:1005B00018191A1B1C1D2F3130232D350405060771
:1005C00008090A0B0C0D0E0F101112131415161733
:1005D00018191A1B1C1D2F3130354C0011241FBE59
:1005E000CFEFDAE0DEBFCDBF04B603FE18C08091C6
:1005F000810490918204A0918304B0918404873097
:10060000904BA740B04B59F4109281041092820491
:100610001092830410928404E0E0F8E3099511E05D
:10062000A0E0B1E0E0E6F1E602C005900D92A63749
:10063000B107D9F724E0A6E7B1E001C01D92A138C7
:10064000B207E1F70E94E7280C948A300C9400006E
:10065000E8EDF0E080818E7F80831092E2001092BE
:10066000DA001092E100A0EEB0E08C9181608C93F2
:1006700080818F77808319BCA7EDB0E08C918E7F4D
:100680008C9380818F7E808310924D0408952091F9
:10069000E4003091E50095E6A9012091EC00822F5D
:1006A000817020FF06C08091E80080FF06C080E0D6
:1006B00008952091E80022FD1AC0809172048823D9
:1006C00089F0853089F08091EB0085FD0FC0209185
:1006D000E4003091E50042175307F9F29150E1F63A
:1006E00084E0089582E0089583E0089581E008950C
:1006F000EF92FF920F931F93CF937C018B010E9487
:100700004703C82F811117C08091E80085FD0BC0F9
:100710008091E8008E778093E8000E944703882349
:1007200099F3C82F08C0F70181917F018093F100F0
:100730000150110949F78C2FCF911F910F91FF9014
:10074000EF9008958091740487FF13C08091E800B2
:1007500082FF06C08091E8008B778093E80004C098
:10076000809172048111F2CF0895809172048823E0
:10077000D9F38091E80080FFF8CF8091E8008E7770
:10078000ECCF982F9093E900242F762F50E0891713
:1007900031F07091EC002091ED005091F00021FDBE
:1007A00007C09F5F973071F78093E90081E008955B
:1007B0003091EB003E7F3093EB003091ED003D7FB8
:1007C0003093ED003091EB0031603093EB0070938B
:1007D000EC002093ED005093F0002091EE0027FDF7
:1007E000E0CF80E00895B0E0A0E0E9EFF3E00C9402
:1007F000DD2FC8EDD0E088818F7E8883E7EDF0E0C3
:1008000080818160808384E082BF81E080934D0499
:1008100088818E7F888302EE10E0F80110821092AA
:10082000DA0081EEC82ED12CF601108288818F77F4
:10083000888388818068888388818F7D888319BCBC
:10084000109272041092730410927104109270044A
:1008500090EEE92EF12CF70180818B7F80838881D7
:100860008160888342E060E080E00E94C103F6017D
:1008700080818E7F8083F801808181608083808188
:1008800088608083F70180818E7F8083888180618A
:100890008883CDB7DEB7E8E00C94F92FFC01809196
:1008A0007A0490917B0486179707A0F06115710573
:1008B00029F49091E8009E779093E80090E061150C
:1008C000710551F4911108C08091E80082FF34C095
:1008D00080E00895BC01F2CF809172048823C1F1B9
:1008E0008530C1F18091E80083FD30C08091E8003F
:1008F00082FDEACF8091E80080FFE1CF8091F30094
:100900002091F200382F6115710519F0283031055A
:1009100058F091E02830310509F090E02091E8008E
:100920002E772093E800CBCF81918093F100615026
:1009300071092F5F3F4FE7CF80917204882341F008
:10094000853041F08091E80083FFBECF81E00895BB
:1009500082E0089583E00895089580914F040895FA
:100960009C014FB7F8948091440490914504A09164
:100970004604B09147044FBF821B930B08952FB7D5
:10098000F8946091440470914504809146049091DC
:1009900047042FBF08952FB7F89480914404909195
:1009A0004504A0914604B09147042FBF08952091BB
:1009B0001B012223C1F02091480427FF14C0E62F19
:1009C000E695E695E695EE31F8F4E80FF92FF11D7E
:1009D000677021E030E001C0220F6A95EAF782815A
:1009E000822B82830895FC0132962FEF30E04191F3
:1009F000641751F02F3F19F4411101C0232F3F5FBD
:100A00003630A9F72F3F09F40895820F911D27FD75
:100A10009A95FC016283089520914104309142042B
:100A20002817390771F09093420480934104E091B4
:100A30003F04F0914004309721F00084F185E02DCF
:100A40000995089520913D0430913E0428173907F7
:100A500071F090933E0480933D04E0913F04F09147
:100A60004004309721F00680F781E02D0995089524
:100A7000E0913F04F0914004309729F00190F0811B
:100A8000E02D0995089580E00895CF93DF93EC0160
:100A900040913204509133046091340470913504D4
:100AA0002FB7F8948091440490914504A091460496
:100AB000B09147042FBF841B950BA60BB70B843F47
:100AC0009140A105B10518F580913204909133044D
:100AD000A0913404B091350480932E0490932F0498
:100AE000A0933004B093310484EF91E0A0E0B0E033
:100AF00080932A0490932B04A0932C04B0932D048C
:100B0000D0933A04C0933904DF91CF9108950E94A5
:100B1000BF0460932E0470932F048093300490934D
:100B2000310482E390E0A0E0B0E0E2CFFC018481F8
:100B3000862351F492819923B9F06923808583FF3C
:100B400005C081E061110FC080E00895892F8F708A
:100B500092959F70982B862F8F7062956F70682B7F
:100B600081E09613F1CF089581E0FDCF452B39F058
:100B7000682381E06F3F09F080E08170089581E093
:100B8000FCCFDC016091260480912704962F891305
:100B900001C00895292F30E0F901EE0FFF1FE25E3A
:100BA000FB4F408151814A175B07A1F487E08A9F80
:100BB000A0018B9F500D11244A515C4F81E0FA0136
:100BC00084839613E6CF2F5F3F4F23703327209304
:100BD000260408952F5F3F4F922F9370D8CF109225
:100BE000830310928203E6EEF3E08581811102C057
:100BF00014821682379684E0EE31F807B1F7089533
:100C0000B0E0A0E0E6E0F6E00C94DB2F8FEF9FEF82
:100C10004430510508F469C04091480441FB8827DD
:100C200080F990E0880F991F42FB002700F910E03F
:100C3000000F111F000F111F802B912B40FBCC24A4
:100C4000C0F8D12C8C299D2943FB222720F9C22FE3
:100C5000E0E0DE2F53E0CC0FDD1F5A95E1F78C2B3F
:100C60009D2B44FBAA27A0F9B0E0E4E0AA0FBB1F2C
:100C7000EA95E1F78A2B9B2B45FBEE27E0F9F0E0A4
:100C8000A5E0EE0FFF1FAA95E1F78E2B9F2B46FBE9
:100C9000222720F930E0B6E0220F331FBA95E1F7A2
:100CA000822B932B47FB222720F930E03695322FF9
:100CB000222737952795822B932B20914904322F99
:100CC0003170F32EE82EF92A26952170B22EBB0C36
:100CD000A82EBF28C501BB0CAA0BBB0BFB01808350
:100CE0009183A283B38390E080E0CDB7DEB7EAE0E2
:100CF0000C94F72FEAE5F3E0848195812AE030E057
:100D0000B9010E949E2F6093160186818093150180
:100D1000828580931401848580931301868597854D
:100D2000B9010E949E2F6093120180898093110166
:100D3000828980931001848980930F0108958091A6
:100D40005A0390915B0390931801809317010895C3
:100D50000E94CB049C019091560280915702982BDF
:100D600021F03093530220935202909158028091C7
:100D70005902982B21F03093510220935002E091B8
:100D80003F04F0914004309749F082E08093540290
:100D90000480F581E02D84E592E009950895909115
:100DA0005602803F59F48091570287FF0DC0109280
:100DB000570291110BC010924E0208C0813F81F47E
:100DC0008091570218169CF3992381F08091580264
:100DD00090915902892B09F064C010924D02089538
:100DE000823F49F497FFF0CF10925602809157024C
:100DF0008111ECCFE0CF833F19F41916ACF3E4CFA7
:100E000020915802893F29F41216F4F610925802E4
:100E1000DBCF8A3F19F427FFD7CFF8CF20915902B3
:100E20008B3F29F427FFD0CF10925902CDCF8C3FB2
:100E300019F41216CCF3C8CF843F31F480915502D7
:100E40008E7F80935502C0CF853F21F4809155025B
:100E50008D7FF7CF863F21F4809155028B7FF1CFB4
:100E6000873F21F480915502877FEBCF883F21F4A3
:100E7000809155028F7EE5CF8D3F31F480914F02F6
:100E80008E7F80934F02A0CF8E3F21F480914F023E
:100E90008D7FF7CF8F3F09F097CF80914F028B7FE7
:100EA000F0CF089580914F0280FF0CC06091100137
:100EB00070E075956795759567956115710549F1B0
:100EC000862F089581FF06C06091100170E075952E
:100ED0006795F3CF6091100182FD0BC090914D0298
:100EE0009923A1F060910F0180911001961738F0BD
:100EF000682F70E06038710500F38FE70895899FCF
:100F0000C001112470E00E94B22FF4CF61E070E0C4
:100F1000D7CF81E0089580914F0260916203709174
:100F2000630380FF16C020911401269FC001279FF4
:100F3000900D1124BC01769567957695679560387C
:100F4000710508F043C06115710509F441C0862F91
:100F5000089581FF0BC020911401269FC001279F97
:100F6000900D1124BC0176956795E9CF82FF09C0E9
:100F7000809114019B01829FB001839F700D112409
:100F8000DECF20914E022223D1F290911301809165
:100F90001401482F50E0291748F0CB01849FB0017D
:100FA000859F700D949F700D1124C9CF289F9001CB
:100FB0001124269FA001279F500D369F500D11240C
:100FC000692F70E0CA010E949E2FB9CF8FE7089564
:100FD00081E00895803F31F40E948B0781958093D2
:100FE00057020895813F19F40E948B07F8CF823F82
:100FF00031F40E948B078195809356020895833FB8
:1010000019F40E948B07F8CF893F29F40E945207F8
:101010008093580208958A3F21F40E9452078195D7
:10102000F7CF8B3F31F40E9452078195809359028C
:1010300008958C3F19F40E945207F8CF843F31F491
:10104000809155028160809355020895853F21F477
:10105000809155028260F7CF863F21F4809155023E
:101060008460F1CF873F21F4809155028860EBCFF7
:10107000883F21F4809155028061E5CF8D3F31F4A6
:1010800080914F02816080934F0208958E3F21F43A
:1010900080914F028260F7CF8F3FB9F780914F0266
:1010A0008460F1CF80E00895F894E82FE295EF7026
:1010B000F0E031A1282F2F7081E090E001C0880F6F
:1010C0002A95EAF7982F9095932391A392A1892BC3
:1010D00082A3789408959091480492FF06C0282F27
:1010E00028712830F9F4877F846093FF06C0282F89
:1010F00028712831F1F4877E84612091490420FF12
:1011000006C0382F38713830D9F4877F816021FFCD
:1011100006C0282F28712831D1F4877E816194FD83
:10112000877E0895282F24712430F9F68B7F8860FC
:10113000DCCF282F2471243101F78B7E8861DDCF2D
:10114000382F3171313019F78E7F8860E0CF282F2A
:101150002171213121F78E7E8861E1CFCF93DF931A
:10116000EC0182389105B1F108F040C0813391055E
:1011700009F49DC048F58932910509F48DC08A971C
:1011800009F49CC0C11521E5D20708F0C3C0C11500
:1011900030E5D30708F01EC1C83ED10508F0A3C052
:1011A000C13ED10588F5C83AD10508F08EC0C53AD0
:1011B000D10508F007C1C130D10531F1209721F1E7
:1011C000C430D10508F545C08533910509F45FC0E9
:1011D000C997C1F680914804837009F044C1809199
:1011E000490483FF11C0C9E2D0E00EC0833E9105DF
:1011F00099F170F4803E910501F1823E910511F65E
:101200008091480482FD21C0CE01DF91CF910895E5
:10121000863E910561F1873E910571F1843E91050D
:1012200009F0B0CF8091490481FFEECF809148044E
:10123000C7EED0E084FD0DC0E7CF8091480480FD6B
:1012400033C09091490490FFDFCFC3EED0E084FF1C
:10125000DBCFD0E0C0E0D8CF8091480482FD00C150
:101260009091490490FDFFC084FFCECFF2CF8091D2
:10127000480483FDDDCFC8CF8091480483FDF6C0CC
:101280009091490491FFF0CFC4EED0E0BDCF8091A2
:10129000480485FFB9CFA7CF8091480485FDE9C0F8
:1012A0008091490483FFB0CFC9E3D0E0ADCF8091F6
:1012B000480486FFA9CFCAE2D0E0A6CF80914804B7
:1012C00086FFA2CFC1E3D0E09FCFCF3BD10508F688
:1012D000C85AD0E0CC0FDD1FC95DDE4F0990D88120
:1012E000C02DD46491CFC11540E2D40758F4C11584
:1012F00081E0D80708F088CFC03FD10508F4A9CF16
:10130000D06582CFC11520E4D20708F4A2CFDF70E8
:10131000D06A7ACFC11535E5D30718F5C11544E574
:10132000D40708F085C0C11583E5D80708F06CC064
:10133000C11522E5D20708F462C0CE018370992757
:1013400021E030E002C0220F331F8A95E2F7C695F4
:10135000C69580E2C89FE0011124C22BD32BDC6824
:1013600053CFC11539E5D307A8F4C11548E5D40713
:1013700008F063C0C11586E5D80708F06ACF8C2F46
:101380000E946B08C82FD0E0DC2FCC27CC27DF7160
:10139000D0623ACFC1152AE5D20708F453C0CE0176
:1013A00090568115904208F054CF8D2F8F710E9476
:1013B0006B0890E0982F882788279F719C012C2B21
:1013C000E901E6CFC55AD0E0CC5DDE4FC881D0E060
:1013D000D0641ACF2C2F26952695237040E2249FA7
:1013E000900111248C2F8370C1E0D0E002C0CC0F9B
:1013F000DD1F8A95E2F7C22BD32BDD6805CFDC2FEA
:10140000CC27C16FD06A00CFCE018370992721E02D
:1014100030E002C0220F331F8A95E2F7C695C695C9
:1014200040E2C49FE0011124C22BD32BDA68ECCE3A
:10143000DC2FCC27C46FD06AE7CEDC2FCC27C06F5F
:10144000D06AE2CE8C2F8F700E946B0834E0D69564
:10145000C7953A95E1F7CF709C2FEC01D069D4CEB7
:10146000C2EED0E0D1CEC0EED0E0CECEC6EED0E01F
:10147000CBCEC5E3D0E0C8CE80912202882331F0E4
:101480001092220210922102109220020895CF930E
:10149000C82F8091490482FF0CC0809122028C17D2
:1014A00041F00E94CB049093210280932002C093CC
:1014B0002202CF91089580959091390398239093BB
:1014C000390308951092FF011092FE011092FD0160
:1014D000089580915C0390915D03892B89F00E94AF
:1014E000CB042091200230912102AC01421B530B0E
:1014F00081E020915C0330915D034217530708F4AB
:1015000080E08170089590911B019923D1F0909112
:10151000480497FF16C0E82FE695E695E695EE316C
:10152000E0F4F0E0E858FE4F282F277081E090E0CB
:1015300001C0880F2A95EAF78095928189238283DA
:101540000895EAE7F1E09191891303C0DF01119753
:101550001C9291E0E038F907B1F708952091FC0161
:101560009091BB01291302C080E0089530E0F90199
:1015700053E0EE0FFF1F5A95E1F7E454FE4F5181FF
:10158000561306C05081581303C05281541304C02F
:101590002F5F3F4F2770E6CF81E008958091FC01D7
:1015A0009091BB01981301C008958F5F8770FACFA7
:1015B000292F943078F58E3068F590E03EE0239F37
:1015C000800D911D1124682F677023E096958795F3
:1015D0002A95E1F7FC01EE0FFF1FE80FF91FE25615
:1015E000FE4F50E040E080E0219130E0062E02C046
:1015F000369527950A94E2F721703327042E01C00F
:10160000220F0A94EAF7822B4F5F5F4F4330510558
:1016100059F7089580E00895292F943098F58E3079
:1016200088F590E03EE0239F800D911D1124282F26
:10163000277041E001C0440F2A95EAF723E0969510
:1016400087952A95E1F7FC01EE0FFF1FE80FF91FC0
:10165000E256FE4F30E020E070E05191DF0111973B
:10166000CB01022E02C0969587950A94E2F781700D
:1016700081958527842385278C932F5F3F4F2330C7
:10168000310559F7089592959F70963091F058F46E
:10169000925F9F70923058F4803F19F030F4883E8A
:1016A00030F481E008959A5FF4CF843FD1F380E075
:1016B0000895883EB0F3813FD1F7F3CF9C013A956E
:1016C00021153F4150F5FC01EE27F170BC01662762
:1016D0007270AC01442754709C012227387094FF2B
:1016E0000EC080E1EF2B09F480E0672B09F08062E7
:1016F000452B09F08064232B89F08068089581E0F0
:10170000EF2B09F480E0672B09F08260452B09F08C
:101710008460232B19F08860089580E008958093F9
:101720004A0470934C0460934B048091720484309B
:10173000F9F48093E9008FEF9091E800815095FDD6
:1017400006C095ED9A95F1F700008111F5CF8091D3
:10175000E80085FF0DC050E040E063E070E08AE4FF
:1017600094E00E9478038091E8008E778093E800EF
:101770000895BC0184E00E948F0B0895BC0183E0B2
:101780000E948F0B08959C0184E08093E9009FEFF5
:101790008091E800915085FD06C085ED8A95F1F7AE
:1017A00000009111F5CF8091E80085FF0CC050E05A
:1017B00040E066E070E0C9010E9478038091E80093
:1017C0008E778093E8000895CF93DF93EC018091AA
:1017D0001B018823B1F18091480487FF32C060E289
:1017E00084E08093E9008FEF9091E800815095FDAF
:1017F00006C095ED9A95F1F700008111F5CF809123
:10180000E80085FF1BC080911B0170E050E040E0C4
:10181000811104C050E040E068E070E0CE010E9419
:1018200078038091E8008E778093E80080E2FE01E3
:10183000A0E5B4E001900D928A95E1F7DF91CF9198
:10184000089568E081E0CDCF81E08093E00080E200
:101850008093D8001092C9008FE19EE40197F1F7C0
:1018600000C0000087E090EBDC018093810490933E
:101870008204A0938304B093840488E19CE00FB6B3
:10188000F894A895809360000FBE90936000FFCFFE
:10189000019708F40895EFE9FFE03197F1F700C0F0
:1018A0000000F6CF0F931F93CF93DF930AE513E069
:1018B000C7ECD2E0CE010E944030F80181938F0145
:1018C0002196CB3EF2E0DF07A9F7C4E7D3E0FE01A3
:1018D00085919491009711F0FC0109952C96F4E004
:1018E000C037DF07A1F7DF91CF911F910F910895C6
:1018F0000F931F93CF93DF93863030F5643020F53C
:101900004E3010F5C42FD0E0CC0FDD1F2CE1629FCC
:10191000C00DD11D112430E7839FC00DD11D1124AE
:10192000CE0187960E944030082F10E0102F00272C
:10193000CE0188960E9440309801282BC901DF9182
:10194000CF911F910F91089590E080E0F8CF462F3E
:101950002091370330913803232B99F4703F39F4E9
:10196000603F79F480913503909136030895863075
:1019700040F4743030F46E3020F4672F0E94780CFD
:10198000089590E080E00895CF92DF92FF920F9348
:101990001F93CF93DF936C0100917C04809123020D
:1019A000082BC7E0D0E010E0FC2EC8010C2E02C0CE
:1019B000959587950A94E2F780FD0CC02197A0F7D2
:1019C000F12C8F2DDF91CF911F910F91FF90DF9020
:1019D000CF900895B6018C2F0E94A70C0E94AE08EC
:1019E000019761F3EECFCF93DF93EC010E94C40C1B
:1019F000BE010E94A70C0E94AE08DF91CF9108950E
:101A0000CF93DF93EC014B815C81698188810E94D7
:101A1000B605811110C08E819F81009739F00E9418
:101A2000AE080E94430BDF91CF9108958881998180
:101A30000E94F30CF6CF80E0F6CFA5E0B0E0E3E241
:101A4000FDE00C94E22F49835A8389819A816623B1
:101A500099F0222389F00E94C40C182F682F8981E5
:101A60009A810E940C0B69817A81812F0E94A70CB8
:101A70002596E3E00C94FE2F0E94D80A182FF3CF8E
:101A8000FC01262F86819781009739F4408151818E
:101A90006281738184810E941D0D089583E290E02C
:101AA0000E944030823089F484E290E00E9440300D
:101AB0008E3059F485E290E00E94403091E08E3AF9
:101AC00009F090E0892F8170089580E0FCCFCF93DA
:101AD00084E090E00E944030C82F82E290E00E94B3
:101AE0004030982F8C2FCF910895DB01FC01329666
:101AF000259134914217530758F0FC0134966591B3
:101B00007491A901CD010E94203090E080E00895F9
:101B10008FEF9FEF08950F931F93CF93DF930AE505
:101B200013E0C7ECD2E0CE010E944030F801619191
:101B30008F01681719F0CE010E944E302196CB3EDE
:101B4000F2E0DF0781F7DF91CF911F910F910895A8
:101B5000DA019C012E5F3F4FF90145915491F90143
:101B600025913491A217B30758F0FC013496859162
:101B700094910E9420300E948B0D90E080E00895A7
:101B80008FEF9FEF0895CF93DF93CBE8D3E060E032
:101B9000CE010E944E302196C11584E0D807B9F7D6
:101BA000DF91CF9108951F93CF93DF93122F86304B
:101BB000E0F46430D0F44E30C0F4C42FD0E0CC0F49
:101BC000DD1F9CE1699FC00DD11D112490E7899F05
:101BD000C00DD11D1124632FCE0187960E944E3077
:101BE000612FCE0188960E944E30DF91CF911F91D8
:101BF0000895CF93C82F6FEF811162E083E290E0E8
:101C00000E944E306FEFC1116EE084E290E00E94BE
:101C10004E306FEFC1116EEA85E290E00E944E30C7
:101C2000CF910895CF93C92F682F84E090E00E9450
:101C30004E306C2F82E290E00E944E30CF9108959A
:101C4000AAE0B0E0E6E2FEE00C94D92F0DEB12E042
:101C50008BEAC82E82E0D82E9BE3E92E93E0F92E82
:101C600027E0922E3AEAA32E32E0B32E8824839402
:101C7000D6010D931D936D014AE050E0B701CE01EE
:101C800001960E943030F8013896DF01892D1D92AF
:101C90008A95E9F789819A81D80111969C938E9350
:101CA0008F8112968C9312978D8113968C93139734
:101CB000888514968C931497898515968C9315971F
:101CC0008B819C8117969C938E93169718961C92E5
:101CD00018978A8587FF3CC01E961C921E921D97FE
:101CE00080FF03C0D80118968C9281FF04C0F801D0
:101CF00090859260908782FF07C0D80118969C91CA
:101D00001897946018969C9383FF04C0F8019085FF
:101D10009860908784FF07C0D80118969C91189707
:101D2000906118969C9385FF04C0F80180858062BD
:101D30008087015F1F4FFAE0EF0EF11C8BE8E81679
:101D400083E0F80609F094CF2A96ECE00C94F52F86
:101D5000F801B686A586C4CFAAE0B0E0E2EBFEE0CB
:101D60000C94DD2FEAE5F2E080E5DF011D928A9513
:101D7000E9F7E6EEF3E088E3DF011D928A95E9F7E3
:101D80008AE5C82E82E0D82E7F010BEE12E0F70123
:101D9000D182C0824AE050E0B801CE0101960E9493
:101DA000303088E0FE013196D60101900D928A957F
:101DB000E1F789859A85D70113969C938E931297A4
:101DC000BAE0CB0ED11CE7E0EE0EF11C065F1F4F10
:101DD0000B33F3E01F07D9F62A96E8E00C94F92FAD
:101DE000A8E0B0E0E6EFFEE00C94D92F8E010F5F83
:101DF0001F4F88E0F80111928A95E9F795E5E92EE1
:101E000091E0F92E6801AA24A394B12CF7018191E5
:101E10007F018F3F09F446C0F894E82FE295EF70F8
:101E2000F0E021A18F70A50102C0440F551F8A95D3
:101E3000E2F7CA01922F982B91A392A18095892352
:101E400082A3789400C0E9E5F1E021E030E0912C34
:101E5000812C41914F3F09F467C0A42FA295AF7028
:101E6000B0E090968C9190E04F7002C09595879568
:101E70004A95E2F780FD58C0C901882A992A220FA5
:101E8000331F51E0E736F50721F7F70131978081DD
:101E90008F3F11F00E94540880EA8A95F1F7F6010D
:101EA00091828082F2E0CF0ED11C49E5E41641E038
:101EB000F40609F0ABCF48E050E0B80187E292E0C9
:101EC0000E941330892B99F188E0F801A7E2B2E073
:101ED00001900D928A95E1F781E0809326020E949D
:101EE000CB04909325028093240280912402909148
:101EF00025020E94B0040597F0F048E050E067E248
:101F000072E085E492E00E941330892BC9F088E0EA
:101F1000E7E2F2E0A5E4B2E001900D928A95E1F7E4
:101F200081E01092260208C090E080E0A6CF809168
:101F300026028111DACF80E02896ECE00C94F52F90
:101F400080E0EFCFCF938091390390917D04892B6E
:101F50008093780180912202882329F180915C038B
:101F600090915D03892B29F00E94690A81110E94DA
:101F70003C0A8091780190912202892B809378010C
:101F800080911B01882309F447C08091480487FF92
:101F900043C08EE1EAE7F1E090E0815008F03EC0F6
:101FA00091110E943C0AC0913604C095809178013D
:101FB000C82380913704C82BC093780140E250E0D9
:101FC00060E072E088E791E00E941330892B11F104
:101FD00080E2E8E7F1E0A0E0B2E001900D928A959E
:101FE000E1F7E0913F04F0914004309799F080913F
:101FF0001B01882349F08091480487FF05C0C093E6
:10200000790186E0809378010280F381E02D88E7F2
:1020100091E00995CF91089586E0BCCF21912223CC
:1020200009F4BBCF9F5FB9CF80911901877F80935F
:10203000190190917D049D7F90937D0484FF08C0D9
:102040008F7E8093190180913903826080933903D8
:102050008091190185FF08C08F7D809319018091BF
:1020600039038062809339030E94A20F089590E0A3
:1020700080E00E94220590E080E00E940C05109212
:102080007D040E94A20F86E0E4E5F2E0DF011D92EC
:102090008A95E9F710924E0210924D0210924F026B
:1020A0000E94A806089580937C040E94371008952A
:1020B00080917C04982F9670963021F488600E945D
:1020C00053100895877FFBCF21E030E001C0220F3D
:1020D0008A95EAF7209580917C0482230E94531010
:1020E00008959091FF01809589238093FF01282F07
:1020F000277091F4282F082E000C330B921713062B
:1021000059F09091490492FF07C085958595859572
:102110000E9464100E94620A08959091490492FB03
:10212000222720F9281769F080FB92F9909349043F
:1021300080914804909149040E94120E82E00E940E
:102140007110089521E030E001C0220F8A95EAF76E
:1021500080917C04822B0E94531008959091490431
:1021600092FF10C098E0899F90011124622B609328
:10217000FF010E94A2100E94CB049093FE01809365
:10218000FD0108950E94A2100895809323020E94E9
:10219000371008951092390380911B01EAE7F1E0AE
:1021A000882361F08091480487FF08C08EE1DF0139
:1021B0001D928A95E9F70E943710089586E0F7CFBF
:1021C000AAE2B0E0E6EEF0E10C94E22F84E794E0BE
:1021D0002091F100DC012D93CD01B4E08C379B07F9
:1021E000B9F780917504833009F472C0B8F4813076
:1021F00009F449C0823009F4B3C08091E80083FF3C
:1022000096C280917404909175049A3008F08FC240
:10221000E92FF0E0E457FF4C0C94C62F8A3009F404
:102220008EC08B3009F471C0893039F78091740405
:10223000813219F78091780490917904009711F018
:102240000297D9F68091E800877F8093E80080911B
:10225000E80082FF38C09091F3008091F20002976D
:1022600031F48091F100813011F0863021F48091B9
:10227000F10080934F048091E8008B778093E80011
:102280000E94A203BACF80917404813A09F0B5CFBD
:102290008091E800877F8093E80080917804909196
:1022A0007904892B61F460E280E594E070E00E949B
:1022B0004E048091E8008B778093E8009ECF60E029
:1022C00090E080E0F3CF809172048111C0CF95CF70
:1022D00080917404813A09F090CF809178049091B4
:1022E0007904892B09F089CF8091E800877F80935A
:1022F000E8008091E80080FFFCCF80911B01809373
:10230000F1008091E8008E77B9CF8091740481321A
:1023100009F073CF8091780490917904892B09F0AA
:102320006CCF8091E800877F8093E8000E94A20331
:102330008091760480931B010E94CA105ECF809129
:102340007404813209F059CF8091E800877F80932F
:10235000E8000E94A2038091770480934E044DCF41
:1023600080917404813A09F048CF8091E800877F1A
:102370008093E8008091E80080FFFCCF80914E04BC
:10238000BECF803899F0823809F0D1C180917804AD
:102390008F70873008F0CBC18093E9008091EB000B
:1023A00085FB882780F91092E90006C080917004AF
:1023B00090917104911182609091E800977F9093C1
:1023C000E8008093F1001092F1008091E8008E7790
:1023D000AAC1882309F498C1823009F0A8C180916C
:1023E000760481119BC1809178048F702FEF280FA4
:1023F000263008F09CC18093E9002091EB0020FF7B
:102400008DC1933031F48091EB0080628093EB00BA
:1024100085C19091EB0090619093EB0021E030E05A
:1024200001C0220F8A95EAF72093EA001092EA0091
:102430008091EB008860EACF811179C11091760418
:102440001F778091E3008078812B8093E300809157
:10245000E800877F8093E8000E94A2038091E80053
:1024600080FFFCCF8091E30080688093E30082E0EE
:10247000111183E0809372045AC18058823008F0B1
:1024800056C120917604309177042C3DE3E03E075D
:10249000A1F583E08A838AE289834FB7F894DE014D
:1024A000139620E03EE051E2E32FF0E05093570016
:1024B000E49120FF03C0E295EF703F5FEF708E2F35
:1024C00090E0EA30C0F0C7968D939D932F5F243142
:1024D00059F74FBF8091E800877F8093E8006AE258
:1024E00070E0CE0101960E944E048091E8008B7747
:1024F0008093E8001CC1C096E7CF8091780490914A
:102500007904432F55274330510509F44AC078F523
:102510004130510509F485C08BE590E0E6E6F4E032
:102520004230510509F003C12091E800277F209334
:10253000E80020917A0430917B048217930708F415
:102540009C0140E02115310509F070C041116EC0B9
:102550008091E80082FDC9CF80917204882329F21E
:10256000853019F28091E80083FFF2CFBECF41326F
:10257000510509F447C04232510509F0D8C08330F3
:10258000910508F0D4C0FC01EE0FFF1FE659FE4F85
:102590000190F081E02D89599E4FDC018C9190E0F3
:1025A0001DC0332721303105E9F02115310579F0BF
:1025B00022303105F9F02330310509F0B8C0E3EDE0
:1025C000F4E0E4918E2F90E0E3EDF4E007C0E7E261
:1025D000F5E0E4918E2F90E0E7E2F5E0009709F452
:1025E000A6C0A2CFEDE0F5E0E4918E2F90E0EDE003
:1025F000F5E0F4CFE1EFF4E0E4918E2F90E0E1EF2D
:10260000F4E0ECCF8330910508F091C0880F991F5A
:10261000FC01E059FE4F0190F081E02D89E090E04F
:1026200083CF82E190E0E1ECF4E07ECF8091720410
:10263000882309F45ACF853009F457CF8091E800F8
:1026400083FD53CF8091E80082FD82CF8091E80026
:1026500080FF78CF9091F3008091F2002115310531
:1026600019F08830910550F041E0089709F040E0FA
:102670008091E8008E778093E80064CF4491409386
:10268000F1003196215031090196E8CF803809F0E8
:102690004EC08091E800877F8093E80080917304AA
:1026A0008093F10092CE811142C0109176041230D5
:1026B000F0F58091E800877F8093E8001093730421
:1026C0000E94A203112311F084E005C08091E30071
:1026D00087FDFACF81E08093720442E061EC81E0F3
:1026E0000E94C10342E261EC84E00E94C10342E225
:1026F00061EC82E00E94C10342E260EC83E00E9450
:10270000C1038091720413C080917604813079F402
:1027100081E0933009F080E0809371041092E90029
:102720008091E800877F8093E8000E94A203809157
:10273000E80083FF0AC08091E800877F8093E8006B
:102740008091EB0080628093EB00AA96E3E00C940A
:10275000FE2FEAE5F3E0128E138E8FEA90E091836C
:10276000808325E0248F88E893E1938382838AE045
:1027700090E09583848344E150E05783468348E0AA
:1027800050E051874087938782876EE170E07587BC
:1027900064879787868780E590E0918B808B538B49
:1027A000428B48E250E0558B448B42E350E0578B1C
:1027B000468B48EC50E0518F408F158E178E168E49
:1027C00091A380A322A30E948B0D0E94CA10109295
:1027D000490410924804E9E4F4E080818460808335
:1027E00080914804909149040E94120E0E94520C5C
:1027F0000895A4E1B0E0EFEFF3E10C94D92FA0909D
:102800000D01B0900E0181E090E090930E01809355
:102810000D01F12CE12C8AEFC82E82E0D82E10E0B9
:1028200017C0E114F104B9F4F40125913491402F5B
:10283000612F80E00E94D30D82E0880E911C0F5F13
:102840000E3079F71F5F9CE1C90ED11C143049F09E
:10285000460100E0E6CF21E030E0402F612F8E2DD1
:10286000E9CFEFEFEE1AFE0AF6E0EF16F10499F663
:102870000E94A913CE0101967C018AE0F701119212
:102880008A95E9F70BEE12E04AE050E0B801C70183
:102890000E947230065F1F4F0B33F3E01F07A1F752
:1028A0007E018BE0E80EF11C8AE0F70111928A9517
:1028B000E9F78FEF9FEF988B8F8787E08C8B4AE04B
:1028C00050E0B801C7010E947230065F1F4F0B38FD
:1028D000F3E01F07A1F7B0920E01A0920D016496DC
:1028E000ECE00C94F52F80E00E94F90D60E086E2A8
:1028F00090E00E944E300E94F9130E94C30D81E0C7
:102900000E94F90D0895CF92DF92EF92FF928FEF20
:102910009FEF4430510508F46AC0FB01C080D180AC
:10292000E280F3800E94CA1080914804C0FA80F9C6
:10293000B701A601769567955795479540FB81F9B4
:10294000B701A60122E076956795579547952A9598
:10295000D1F740FB82F9B701A60133E07695679580
:10296000579547953A95D1F740FB83F9B701A601F2
:10297000E4E07695679557954795EA95D1F740FB42
:1029800084F9B701A601F5E07695679557954795C7
:10299000FA95D1F740FB85F9B701A601A6E0769537
:1029A000679557954795AA95D1F740FB86F9B701EA
:1029B000A601B7E07695679557954795BA95D1F7F3
:1029C00040FB87F98093480480914904D0FA80F94C
:1029D000D1FACC24C0F8C0FA81F9809349048091DF
:1029E0004804909149040E94120E90E080E0FF900C
:1029F000EF90DF90CF9008950E94CA102FEF84E3EC
:102A00009CE0215080409040E1F700C0000088E148
:102A10009CE00FB6F894A895809360000FBE909349
:102A20006000FFCF882341F0809590917D04892339
:102A300080937D040E94A20F0895882339F090911D
:102A40007D04982B90937D040E94A20F0895882303
:102A500021F00E945B0A0E94A20F0895882339F09A
:102A600090913903982B909339030E94A20F0895F7
:102A7000882379F19CEF980F913A28F40E94830AF9
:102A80000E94A20F089590E2980F983050F487703A
:102A900091E001C0990F8A95EAF7892F0E945B0A9D
:102AA000EFCF9BE5980F933028F490E080E00E94F0
:102AB0002205089598E5980F973128F490E080E07A
:102AC0000E940C050895803F20F00E94CF060E94CE
:102AD000A8060895FF920F931F93CF93DF93F82ECC
:102AE00000913B0410913C040115110509F449C003
:102AF00010923A041092390410923604109237045E
:102B0000D8011696CD91DC919E013A9521153F4151
:102B100008F4D07ED1E0C11101C0D0E0D8011996EF
:102B2000ED91FC911A97309731F01B966D917C9145
:102B300080E00995D823DD2339F08CEF8C0F813AA2
:102B400030F58C2F0E94830AFF2099F0E0913B041E
:102B5000F0913C04808584FD0CC08091380488236A
:102B600041F0808191819C0121503109203B3D45FC
:102B7000A0F00E94A20F10923C0410923B0410920D
:102B80003804C801CDB7DEB7E5E00C94FC2F0E94F5
:102B9000A20F8C2F0E943815D7CF0E944505E9CF90
:102BA000CF93DF93EC010E943815CE010E945E0B9B
:102BB0009E01205E31092830310510F0CD2B29F41B
:102BC0000E942715DF91CF9108950E941215FACF28
:102BD000CF93C82F8823C1F18CEF8C0F813AB0F5C9
:102BE00080911B01882301F18091480487FF1CC05C
:102BF000EC2FE695E695E695F0E0E858FE4F8281E9
:102C000090E04C2F477021E030E002C0220F331FCC
:102C10004A95E2F782239323892B79F08C2F0E9427
:102C2000830A0E94A20F09C0EAE7F1E08191C81768
:102C3000A9F381E0E038F807C9F76C2F88E791E045
:102C40000E94D7040E94A20FCF91089580E28C0FBA
:102C5000883068F4C77021E030E001C0220FCA95C7
:102C6000EAF780913903822B80933903EBCFEBE5B0
:102C7000EC0FE33040F4F0E0EC5DFE4F808190E03B
:102C80000E942205E1CFE8E5EC0FE73150F4F0E0D7
:102C9000EE0FFF1FE95DFE4F808191810E940C05C0
:102CA000D3CFC03F88F28C2F0E94EA070E94A8066B
:102CB000CBCF1F93CF93DF93182FC0917A03D0917E
:102CC0007B03893321F0C0917803D0917903812F60
:102CD0000E94E815209739F4812F0E943815DF9162
:102CE000CF911F9108958FE99FE00197F1F700C000
:102CF00000002197EFCF0F931F93CF93DF93C62F41
:102D0000D42F022FFC0182818823A9F060938004D4
:102D10000E94CB0490937F0480937E04C77081E06F
:102D200001C0880FCA95EAF70E942E15DF91CF9156
:102D30001F910F91089580918004681332C0809193
:102D40007E0490917F040E94B004883C910548F570
:102D500010E21D0FCD17B9F080E28C0F883040F4DF
:102D6000C77081E001C0880FCA95EAF70E94271555
:102D7000183048F481E09D2F977001C0880F9A9514
:102D8000EAF70E942E15802F0E945916183070F60F
:102D9000D77081E001C0880FDA95EAF70E94271505
:102DA000C5CFC77081E001C0880FCA95EAF7F6CF9A
:102DB000B0E0A0E0EEEDF6E10C94DB2FEC018AE050
:102DC000A82E2881222309F48FC02130C9F59981CA
:102DD0008A81913021F422960E94591605C09230C2
:102DE00029F422960E94E8152196EBCF933021F426
:102DF00022960E943815F8CF943011F02196F4CF26
:102E0000229630E020E0AE014F5F5F4F8053990B78
:102E10008A30910550F02150310930F38FE99FE05D
:102E20000197F1F700C00000F6CFA29EB001A39E6B
:102E3000700D11249C01260F371F8981EA01E3CF11
:102E4000E22FF0E0E55AFA4FB490822F86958695EE
:102E5000869590E0FC01E55BFA4FE4902770F12C39
:102E6000022E02C0F594E7940A94E2F731E0E322DF
:102E7000FF24FC01E55CFA4FC490D12C022E02C065
:102E8000D594C7940A94E2F731E0C322DD24FC0113
:102E9000E55DFA4F049110E002C0159507952A955B
:102EA000E2F701701127E114F10419F081EE0E949C
:102EB000E815C114D10419F086EE0E94E8158B2D97
:102EC0000E945916C114D10419F086EE0E943815DB
:102ED000E114F10419F081EE0E9438150115110575
:102EE00009F482CF8CE278CFCDB7DEB7EAE00C945C
:102EF000F72FCF93DF93EC010E945E0B9E01205EC3
:102F000031092830310510F0209741F40E942E1528
:102F10008C2F0E94E815DF91CF9108950E941D1516
:102F2000F7CF662329F020917D04226020937D0451
:102F30009C013056211540E2340720F0305E211507
:102F4000304108F499270E9479170895B0E0A0E075
:102F5000ECEAF7E10C94DE2F7C018B01D42E8091FA
:102F6000190182FF8CC0C0918003D0918103CE15DE
:102F7000DF0521F0E114F10409F081C0809119010D
:102F80008B7F8093190181FD73C080917E039091A6
:102F90007F03A801481B590B81E020911701309154
:102FA00018014217530708F480E08170F82E8091D1
:102FB0001901F0FA81F980931901FE0183E0F69579
:102FC000E7958A95E1F7EE71FF27E65CFC4F2081DB
:102FD0003181AE014F70552781E090E002C0880F2B
:102FE000991F4A95E2F7FF2009F444C0822B932BE6
:102FF000918380838091390381FF08C080911901FA
:1030000080618093190182E00E945B0A80913903FC
:1030100085FF08C08091190180628093190180E2C8
:103020000E945B0A6F2DCE010E949117DD2031F0C6
:103030008091750385FF02C086FF3BC080917803B5
:10304000909179030E94480C8091800390918103B4
:103050009C013056211540E2340720F0305E2115E6
:10306000304108F499270E94D0150E9414101DC009
:1030700081E09BCF8095909582239323B9CFC701A0
:10308000992797013056211540E2340728F0305E29
:103090002115304108F0C7010E94D01580918003AE
:1030A000909181038E159F0501F310937F03009388
:1030B0007E03CDB7DEB7E7E00C94FA2F68EE7EEF23
:1030C00090E080E00E946C3060E082E090E00E943E
:1030D0004E3060E083E090E00E944E301092230278
:1030E00060E084E090E00E944E3064E082E290E094
:1030F0000E944E3060E085E090E00E944E3060E03B
:1031000086E090E00E944E306FEF87E090E00E94F2
:103110004E3040E050E0BA0188E090E00E9460301C
:1031200060E08DE090E00E944E3040E050E0BA0157
:1031300088E190E00E94603060E087E190E00E94CA
:103140004E3040E050E0BA018CE190E00E946030E7
:1031500070E060E080E290E00E946C3040E050E07F
:10316000BA0188E190E00E94603080E00E94F90D91
:103170000E94731440E050E0BA018FE090E00E949A
:10318000603040E050E0BA0183E190E00E9460309E
:103190000895A7E0B0E0EFECF8E10C94D32F7C01A8
:1031A000DC0113964D915C91149711966C911197D7
:1031B0008C910E94B6058111D3C061E0C7010E94C5
:1031C000400D8C01F7015280552009F483C78251CC
:1031D0009F45409708F05CC78FEF93E00E94403016
:1031E0008111AEC07EEED72ED00E0BE813E0D110C9
:1031F00036C019821A821B821C8299249A94680113
:103200002FEFC21AD20AC8010E94403089831A8265
:10321000882309F495C0813009F087C0580132E055
:10322000A30EB11CC6010E944030C82E8A83882399
:1032300009F486C0C5010E944030D82E8FEF8C0D56
:103240008330D8F4580143E0A40EB11CDB82DD20AA
:1032500021F0CE0101960E94D8168501D0CF01152C
:10326000F4E01F0709F46CC0C8010E9440308111CE
:1032700001C0DA940F5F1F4FBACF8BEF8C0D8330F4
:1032800070F5C8010396DB825C01DD2031F3580143
:1032900054E0A50EB11C0E9440308C838823E9F2D3
:1032A0000B811C8101306FEF160710F0102F0027E3
:1032B00076E0C71681F087E0C81649F0C8010E9481
:1032C000592780917803909179030E94480CC80196
:1032D0000E943427C2CFC8010E945927BECF94E074
:1032E000C912BBCF5801A4E0AA0EB11CC8010396B5
:1032F0000E944030DD2021F1882311F18150990B8B
:10330000989E9001999E300D1124ED2DE150FF0BF8
:10331000CF01820F931F019708F49FCFAFE9BFE061
:103320001197F1F700C00000F6CFCE0101960E9480
:10333000D816560192CF81E00E94A2100E94581028
:103340008091FF01877061F0D70112968C918823DC
:1033500039F08091490482FF03C082E00E9471101D
:103360002796E2E10C94EF2F81E00E946410E6CFF3
:1033700082E0E2CF82E0F9CF81E080930001E0CFEC
:1033800080954822D3C6552009F456C6109399015A
:10339000009398010E94BF04609332047093330439
:1033A000809334049093350410923A0410923904B7
:1033B000BDC682FB882780F9FCC6552001F18170CB
:1033C000F8C60E94381581C70497813A910558F4D0
:1033D0006A2D88E791E00E94D704552009F4D3C5EF
:1033E0000E94A20FADCF0E94A20F8FE39CE901972C
:1033F000F1F700C000008A2D0E94E815EECF9D81F4
:103400009F5F9D83ABC6FC012081318102171307AA
:1034100009F0B2C55110B2C51092380480E035C62B
:1034200080911901816080931901DAC58091190199
:103430008E7F809319010E941410D2C580911901CA
:103440008F7E013E110531F0053E1105C9F48091D2
:1034500019018F7D809319018091190180FFCFC5DB
:10346000D70112968C910832110528F50E311105FD
:1034700008F074C00430110580F58111BCC5BFC5CA
:10348000C8019056811560E2960720F0905E811584
:10349000904110F78091190182FFB1C580917703A7
:1034A00081FDADC52AE332E040E0B60190E080E066
:1034B0000E94A617A4C50933110558F40D32110551
:1034C00018F40B321105C9F69091750392FDD5CF12
:1034D00008C004361105C1F3D0CF9091750394FD57
:1034E000CCCF882309F49DC09091390380912202AA
:1034F000282F292B322F3D7FB1F11092810310929A
:1035000080033091750331FD2EC0F80143E0F6953C
:10351000E7954A95E1F7EE71FF27E65CFC4F9801CD
:103520002F70332781E090E002C0880F991F2A9501
:10353000E2F78095909520813181822393239183B6
:10354000808360E0C8010E949117809122028D7FE4
:103550000E94470A82E00E947110F2CE909175039A
:1035600093FD8BCFBECF38E0F701AAE3B2E0019024
:103570000D923A95E1F710923C0210923E021092A1
:103580003D02A0908003B09081030A151B0591F5C0
:103590003091750335FF2EC04091190141FB9924EC
:1035A00090F841FF02C036FF25C040917E03509144
:1035B0007F03F601E41BF50BE83CF105D8F491FF1D
:1035C00008C08091190180618093190182E00E94F6
:1035D0005B0A8091390385FF08C0809119018062E0
:1035E0008093190180E20E945B0A692DC5010E9447
:1035F0009117A6CE9091190121FB91F99093190191
:103600008D7F0E94470A1093810300938003D0921C
:103610007F03C0927E038091190184608093190119
:1036200099CF970140E0B601C8010E94A61788CE45
:10363000053F6CE5160709F460C008F45AC027E29C
:1036400045EE66EE063F8CE5180709F4F1C4D70194
:1036500012963C91332309F4DFC5109280040330A5
:10366000BDE51B0708F050C00A3FECE51E0730F42B
:10367000C80182509C45449708F052C00E94670DD3
:10368000909349048093480402315CE5150709F4DE
:103690008DC108F0DDC009307CE5170709F464C16D
:1036A00008F0A7C005309CE5190709F451C108F0DE
:1036B0008EC00330BCE51B0709F442C108F044C1C9
:1036C0008091480481600230FCE51F0709F4BDC009
:1036D00080914804909149040E94120E0E94CA10E1
:1036E0002FCE27E245EE65EEA3C426E241EE60EE62
:1036F0009FC427E245EE64EE9BC426E241EE62EEF3
:1037000097C428E241E0EFCF053AFDE51F0709F431
:10371000B5CF08F055C001364DE5140709F4AECF1A
:1037200006315CE5150709F47CC50A359DE51907E6
:1037300009F495C108F06EC10115BCE51B0709F439
:1037400074C10E3D1C4509F47DC1F7018681978146
:10375000009709F488C10E94AE08182F092FF701BD
:10376000D280C580C2943FE0C3228091FF01877060
:10377000C1F0AD2CDD20B1F0892F807F803421F0A5
:1037800080E2810F883068F08091490482FF09C08F
:1037900082E00E9471108091FF018770AA24A39497
:1037A0008111A12C902E92942FE09222FBE0F9152A
:1037B00008F4EDC1E92DF0E0EA56FF4C0C94C62F59
:1037C000C8018D5A9D45039708F0AACF57CF809125
:1037D0004804806207302CE51207B9F18091480453
:1037E000806108303CE5130780F1809148048064D3
:1037F0002CC00D304CE5140709F4C0C090F4809142
:1038000048048E7F0B306CE51607F9F08091480470
:103810008C600C307CE51707C0F0809148048D7FE8
:1038200014C00F308CE5180709F4B8C008F4AAC01A
:103830000031ACE51A0709F4B5C0809148048F7BCC
:103840000131BCE51B0709F043CF8093480440CF0A
:103850000F3FECE51E0709F4B3C0A8F50A3F2CE5BD
:10386000120709F479C0C0F404314CE5140709F4D7
:10387000B5C008F4A1C005316CE5160709F028CFE2
:103880008091480482FB992790F921E0922790FBD0
:1038900082F990FB83F9D9CF0C3F7CE5170709F437
:1038A00075C008F45DC00D3F9CE5190709F472C0AE
:1038B0008091490483600E3FACE51A0709F008CFF8
:1038C0008093490405CF0136BDE51B0709F491C07B
:1038D00090F40130FDE51F0709F489C008F474C0B5
:1038E00060E002303DE5130709F0F2CE8EE090E093
:1038F0000E944E30EDCE0D3A4DE51407E9F060F42C
:1039000090914804892F8E7F90FF8160053A6DE584
:10391000160709F49ACFDCCE0E3A7DE5170751F170
:103920000F3A8DE5180709F0D3CE90914904892FFD
:10393000877F93FF8860C4CF809149048860C0CF9F
:1039400080914804826081CF8091480484607DCF5B
:1039500080914804886079CF809149048160B0CF1C
:10396000809149048260ACCF0E94CA1080914804C3
:1039700080686BCF80914904877FA2CF80914804F3
:103980008B7F63CF80914804877F5FCF809149040C
:103990008E7F96CF809149048D7F92CF809148048D
:1039A0008F7E53CF809148048F7D4FCF0E94CA10E5
:1039B000809148048F7749CF80914804837F45CF19
:1039C000809149048C7F7CCF80914904982F9095F9
:1039D00091708E7F892B90FB81F972CF0E94CA1063
:1039E00090914804892F97FB87F980582ECF61E08A
:1039F0007DCF90914804892F8F7E94FF806125CFE1
:103A000080919A01811104C089E20E94830AE8CC66
:103A100085E3FBCF0C35FDE51F07B9F010F1073A40
:103A20001D4509F092CE0E94FC140E94CA104FEF6F
:103A300054E36CE0415050406040E1F700C00000AA
:103A40000E94240C0E945E18EECF8091490482FBF4
:103A5000882780F991E089270E948D1076CE81E039
:103A6000FBCF80E0F9CF828100811181882369F04A
:103A7000C8010E94C40CD82E682FC8010E940C0BEC
:103A8000B8018D2D0E94A70C66CEC8010E94D80AED
:103A9000D82EF6CF202F2F70B22E802F807F19F0D6
:103AA000B29490EFB922DD20B9F0BB2069F080E23A
:103AB000810F883010F0111109C080913903B82AA4
:103AC000B09239030E94A20F812F5FC080917D04C4
:103AD000B82AB0927D04F6CF812F0E943815BB2002
:103AE00009F455C080E2810F883010F0111104C034
:103AF0008B2D0E945B0A06C0B09480917D04B82291
:103B0000B0927D040E94A20F42C0302F3F70B32EAE
:103B1000802F807F803219F0B29480EFB822112379
:103B200021F1113009F4B0C0DD2009F4B9C0CC2076
:103B300009F481C020E0D7014C9111965C91119756
:103B400012966C91129713967C91139714968C9100
:103B50000E941D0D8091770381FDB6CFF70185810D
:103B600080FFB2CF8F70858366C08091490482FD4B
:103B700042C0DD20D1F1BB2039F080913903B82A51
:103B8000B09239030E94A20F80E00E94E815692DCF
:103B90006850770B6430710510F40E943805812F4E
:103BA000902F0E94430B8111C1C110929D01109270
:103BB0009C01AA20A9F08091FF0180FD11C0F701AE
:103BC00012828595859585950E94A210C7010E9455
:103BD000C9188091FF018595859585950E9464108F
:103BE00060E0C7010E94400DBBCB80E00E94381509
:103BF000BB2069F27DCFDD2011F1C11004C080919E
:103C000022028B2919C041E0C41206C08091220211
:103C10008B290E94470ABBCF80917603823078F3CC
:103C2000C812EDCF0E943C0A90919B018B2D892BED
:103C3000891380939B018B2D0E942E15A8CFC11054
:103C400003C00E943C0A17C08091760351E0C51260
:103C500016C0823008F49BCF809139038B2109F480
:103C600096CF0E943C0A90919B018B2D80958923D1
:103C7000891380939B018B2D0E94271588CF82305A
:103C800000F3C812DECF83CF80917C03DD2021F0CA
:103C90008C1508F47CCFCFCFC81608F078CFEBCFC7
:103CA000CC2049F380917A0390917B03193321F062
:103CB00080917803909179030E94480C812F0E9493
:103CC000381565CF802F86958695837069F0813091
:103CD00009F05DCF812F902F9370D11002C090E03A
:103CE00080E00E940C0553CF812F902F9370D1104C
:103CF00002C090E080E00E94220549CF812FDD20A4
:103D000029F00E94EA070E94A80641CF0E94CF0630
:103D1000FACF802F837091F5D11039CF412F429582
:103D200046954770440F440F812F8F70042E01C0B9
:103D3000880F0A94EAF7212F207114FF07C02FE0A3
:103D400030E001C0220F4A95EAF72095302F3695D2
:103D500036953370323069F050F44091230231309F
:103D600029F0822B84230E94C51011CF842B822B33
:103D7000FACF282B809123028227F5CF8695DD206C
:103D800011F0802F8170882309F401CF412F4295D3
:103D900046954770440F440F812F8F70042E01C049
:103DA000880F0A94EAF7212F207114FF07C02FE033
:103DB00030E001C0220F4A95EAF72095302F369562
:103DC00036953370323069F050F440917C043130D4
:103DD00029F0822B84230E945310D9CE842B822B6E
:103DE000FACF282B80917C048227F5CFF02FFF702B
:103DF000BF2EDD2029F08F2F0E94A210812F1CCF13
:103E0000812F0E9427158B2D0E946410C0CE123F77
:103E100089F160F4103FB9F0113F81F0DD2009F421
:103E200080C0C11051CE802F8F7128C0133F49F13F
:103E3000143FA1F78091490482FD2FC0802F8F711C
:103E4000DD2011F31BC080917C03DD2079F0C816C2
:103E500008F09DCE202F2F7181E090E001C0880FE7
:103E60002A95EAF790917C048927B5CF8C1508F440
:103E70008ECEF0CF802F8F71D110C6CF0E94A210AE
:103E800086CE80E0DD2009F4A6CF81E0902F9F71DF
:103E900001C0880F9A95EAF79ECF80917603823011
:103EA00040F1DD20D1F09091FF019770943041F402
:103EB0000E94620A802F8F710E946410A12C67CE2D
:103EC000C816E0F7202F2F71B22E822F0E94A21069
:103ED00063E08B2D0E94AE10F1CFC81630F00E9427
:103EE000620A64E0802F8F71F5CF81E00E9471102B
:103EF000E5CFDD2059F0302F3F71B32E832F0E9484
:103F0000A21063E08B2D0E94AE1041CE81E00E9492
:103F1000711041E04C1508F03ACE82E00E94711019
:103F200036CEC110BFCE802F8F716ECFDD2019F03D
:103F3000C1103BCE3ECEC11038CE20E0D7014C910F
:103F400011965C91119712966C91129713967C9131
:103F5000139714968C910E941D0D8091770383FF17
:103F600024CE80919C0190919D01029709F01DCE75
:103F7000812F0E94591619CE552029F0DC01189680
:103F80008C9185FF4BCA8091750380FF38C00E94D9
:103F9000CB046C01F7018281882309F44FCA809118
:103FA000190182FF08C02AE332E040E0B60190E048
:103FB00080E00E94A6170B31FCE51F0709F430CA08
:103FC0000C312CE5120709F431CA90911901892F9F
:103FD0008E7F90FF81600A313CE5130709F429CAFE
:103FE000C8019056811540E2940728F0905E811533
:103FF000904108F031CA1092810310928003033F70
:10400000FCE51F0709F471CB08F012CB083D3CE535
:10401000130709F466CB093D4CE5140709F471CB8D
:10402000073D5CE5150709F012CB26E241EE61EE93
:10403000C7010E947B1684C98091980190919901D3
:104040000817190781F410929901109298011092A3
:1040500032041092330410923404109235041092FA
:104060003A041092390480913B0490913C040097EB
:1040700009F489CFA8E08A16910408F0C4C9642D18
:104080000E94960581117FCF81E00E946A157BCF47
:104090000031BFE51B0709F44EC90131EFE51E07EA
:1040A00009F466C90F35EDE51E0709F465C9003648
:1040B000FDE51F0749F00E352DE51207A1F48091AB
:1040C0000001882309F458C91092000180E00E9481
:1040D0006A1536C98031FFE59F0709F445C981316A
:1040E0009F4509F447C980910001882309F44BCF0B
:1040F000480130EE831A91084090220280919B0182
:10410000482A80913903482A48E08416910408F02F
:104110003AC998012770332781E090E001C0880FE9
:104120002A95EAF7552009F42BC9482AD7018D9121
:104130009C910E94D80A21E030E0190102C0220CB3
:10414000331C8A95E2F7E0913B04F0913C04FF8335
:10415000EE8360909801709099011D822D81E22F6D
:10416000F0E0EE0FFF1FE555FD4FC080D180C11478
:10417000D10409F478CF411005C0D60112968C9174
:1041800081113DC9F601838190E082219321892B21
:1041900009F435C98085982F977009F487E0F8E015
:1041A0008F16910408F009C9552009F402C98695B3
:1041B0008170882309F423C9D601AD90BC900A15FB
:1041C0001B0519F4552009F41AC9EE81FF81CE169A
:1041D000DF0609F414C9D6011D96ED91FC913097C4
:1041E00021F08081882309F40AC9642DC6010E9448
:1041F0009605882309F403C90A151B0509F03FC079
:104200000115110509F440C0511040C0A614B704AF
:1042100009F0F5C8512C3AC006314CE5140709F0F5
:1042200094CA80913903982F9A7A2091740320FFC1
:1042300004C0482F447409F090E021FF04C0482FC7
:10424000417109F090E022FF04C0482F487809F03E
:1042500090E023FF03C0827209F090E0332309F459
:10426000CFCB81E0911101C080E080939A0169E297
:10427000911165E388E791E00E94D704B1C8A114C9
:10428000B10409F0C3CF512CB12CA12C80E00E94C5
:104290006A15D0923C04C0923B0481E080933804BC
:1042A000D60115968C918093360451100EC0AB2820
:1042B00061F0F601808191819C0124503109213AFD
:1042C000310508F07EC80E94830AD6011696AD908B
:1042D000BC90C5019A9581159F4110F4E0EEBE2275
:1042E00077247394C5010197803B9D4508F0712C9C
:1042F000D6011996ED91FC911A97309731F01B96E3
:104300006D917C9181E009957822772079F0F60112
:10431000868197810E945E0B80933704C501F8E087
:104320008F16910408F050C80E9445050E94A20F04
:1043300054C8EF92FF920F931F93CF93DF93809116
:10434000B801807F09F04CC08091B501882309F441
:1043500047C0C091FC01E090BB01D091B301F09047
:10436000B4010091B6011091B701EC16C9F1A80192
:104370006F2D8D2F0E94B6052C2F30E0811135C096
:10438000F90183E0EE0FFF1F8A95E1F7DF01A454E6
:10439000BE4F11968C9111978F1127C08C918D1360
:1043A00024C012968C91129781111FC013968D9183
:1043B0009C91801B910B883C9105B8F48091B801C9
:1043C0008F7080618093B801EF53FE4F80818F70B2
:1043D0008061808383EB91E00E94C9180E94CE0A1D
:1043E000CDB7DEB7E6E00C94FB2F2F5F3F4FC22F17
:1043F000C770BBCFA5E1B0E0E0E0F2E20C94D52FAE
:104400008C0185E0F801DE01519601900D928A95AC
:10441000E1F7D8016C9011967C9011971296EC9070
:1044200012971396CD90DC9060E083EB91E00E94B0
:10443000400D83EBA82E81E0B82E5090B301409040
:10444000B4018090B6019090B701A401642D852D30
:104450000E94B60581115CC1F090B5019601281942
:104460003909FF2009F417C18091B801982F907F76
:10447000283C310508F0D2C0F8012181911181C09A
:10448000FE2C24111FC0908195111CC04091B901D0
:104490005091BA01268137814217530799F4E110F0
:1044A00011C08F7080618093B801C5010E94C91846
:1044B0008091B801D80115968C938F2D6596E0E117
:1044C0000C94F12FA601672D862D0E94B605D82EDB
:1044D00081E08E25D11080E080FF18C04E2D672D21
:1044E000862D0E94AE0A882389F08091770380FF91
:1044F0000DC083EB91E00E94C91888E0E3EBF1E086
:10450000DF011D928A95E9F7F12CD7CF81E08E2546
:10451000D11080E0B82FB170DB2E80FF29C04E2D66
:10452000672D862D0E94AE0AC82E811121C0698A8E
:104530007A8A89899A890E94F30C292F22952F70F3
:10454000223050F0243078F49F7051F0F8019581BA
:10455000907F31F4FC2CB1CF9F7011F08823D1F300
:10456000805E8830B8F3C8010E94C918CD2CF2CF04
:10457000EE2009F4A2CF8091B80181608093B80148
:10458000C3CF24111BC09081951118C04091B9016F
:104590005091BA01268137814217530779F4E1100F
:1045A0000DC08583C8010E94C91888E0F801A3EBFB
:1045B000B1E001900D928A95E1F77FCFC8010E948A
:1045C000000D882339F1EE2029F18091B801803265
:1045D000A0F02091B3013091B4013A8729871B865E
:1045E000DD86CC868E878091B9019091BA01988B37
:1045F0008F87CE0109960E94C91888E0F801A3EBC5
:10460000B1E001900D928A95E1F70E949921FF2473
:10461000F39453CFC8010E94C918F9CF992309F424
:1046200068CFF8019181941118C09081951115C03F
:104630004091B9015091BA01268137814217530741
:1046400061F4E1100AC08583C8010E94C91888E09E
:10465000D5011D928A95E9F730CFC8010E94000D5F
:104660008823C1F2EE20B1F28091B801803228F2A5
:104670002091B3013091B4013A8329831B82DD82FA
:10468000CC828E838091B9019091BA0198878F83F3
:10469000CE010196B0CF283C3105C8F6FE2CEE20A5
:1046A00009F4B8CFF8018181841124C0808185117B
:1046B00021C02091B9013091BA01868197812817D4
:1046C0003907C1F48091770382FD6FCF9091B801D3
:1046D00090FD6BCF907F09F468CF8091B8018583FE
:1046E000903F09F45FCF982F907F905F8F70892B58
:1046F000858358CFC8010E94000D81117ECF809123
:10470000B80181608093B801C8010E94C918D5CE54
:10471000EE2009F47FCFC8010E94000DF82E8823F7
:1047200009F478CF88E0F801A3EBB1E001900D9295
:104730008A95E1F78091B3019091B4010E94F30C46
:104740000E949921BACEA0E1B0E0E9EAF3E20C942C
:10475000E32F29873A874B875C876D877E878F8712
:10476000988BCE0109960E94FA2181112FC088E012
:10477000FE013996DE01119601900D928A95E1F7BE
:104780004C855D856A8589850E94B60581111EC0AC
:10479000A091BB01B0E0CD010196877099272091CF
:1047A000FC0128171906E1F093E0AA0FBB1F9A95A8
:1047B000E1F7A454BE4F98E0FE01319601900D92AE
:1047C0009A95E1F78093BB010E94CE0A8091FC018B
:1047D0009091BB01891312C06096E2E00C94FF2F08
:1047E0000E94CA101092BB011092FC0188E0E3EB1A
:1047F000F1E0DF011D928A95E9F7E8CFB8E08B9FE1
:10480000C001112484549E4F0E94FA21882321F371
:104810008091FC0190E00196877099278093FC01BC
:10482000D5CFEF92FF920F931F93CF93DF93809199
:104830008503882361F0C09184038CE0F82E809179
:104840008503C81748F01092850310928403CDB7F2
:10485000DEB7E6E00C94FB2FEE24E394EC0EE0923E
:1048600084030C2F10E0CF9DE0011124CA57DC4FC8
:104870004B815C81698188810E94B60581111DC0D0
:104880008E819F81892B21F488859985019651F429
:10489000288139814A815B816C817D818E819F81F4
:1048A0000E94A323F09EF001F19EF00D1124EA571F
:1048B000FC4F1482138210927D04CE2DC0CF109233
:1048C00029041092280410921A01809127048093E1
:1048D00026040E94EF050E9411240895B0E0A0E094
:1048E000E4E7F4E20C94D42FC091260497E0892EDB
:1048F00001E010E02CE0322E3EEF932E442443944E
:10490000809127048C1309C00E9411240E94EF0596
:10491000CDB7DEB7E1E10C94F02FD0E0FE01EE0F51
:10492000FF1FE25EFB4F80819181889ED001899EAE
:10493000B00D1124AA51BC4F14962C91149721113B
:1049400058C050908503E6E8F3E030E020E0712C99
:104950005D01251508F04BC0E284F384D501CD90AC
:10496000DC906FEF7FEF612C462D50E0DA01AA0F4B
:10497000BB1FAC0DBD1D0D90BC91A02D109731F04B
:10498000EA16FB0609F4BA016394EECF6F3F76078F
:10499000A9F1D80102C0AA0FBB1F6A95E2F77A2AD3
:1049A000B801062C02C0660F771F0A94E2F7AB012C
:1049B0004150510974161506F9F4329EF001339EE8
:1049C000F00D1124EA57FC4F889ED001899EB00D4E
:1049D0001124AA51BC4F12962D913C911397378305
:1049E0002683908291829187808715964C920E94AF
:1049F000C1052196C37084CF148213822F5F3F4F6D
:104A00003C96A7CFA9E1B0E0E8E0F5E20C94D32F03
:104A1000942F498B252F5A8B6B8B7C8B8D8B4C89DC
:104A20005D89622F892F0E94B605811109C080918E
:104A30009C0190919D01019690939D0180939C0112
:104A40008B89811110927D041D861E861F86188A0F
:104A500085E0FE017196DE01199601900D928A950E
:104A6000E1F78091490482FF1EC080915C03909120
:104A70005D03892BC1F00E94CB042091FD01309190
:104A8000FE01821B930B20915C0330915D03821722
:104A9000930720F08091FF0182FFE2C10E94690A22
:104AA00081110E943C0A4C855D856A8589850E943A
:104AB000B605811111C061E0CE0109960E94400D3A
:104AC0006C018B8527EFC2162CE5D20681F4882372
:104AD00021F181E080931A0129853A854B855C8517
:104AE0006D857E858F8598890E94A323C6C038EF87
:104AF000C3163CE5D30629F4882379F00E945F248D
:104B0000EBCF49EFC4164CE5D40639F4882329F0DD
:104B100080911A018111F2CFDCCF06EE13E0512C07
:104B2000B12CA12C22242394312C2EEF422EF801FB
:104B30004081518188248A94982C20E0822F90E033
:104B4000FC01EE0FFF1FE40FF51F608171816115FD
:104B5000710531F0C616D70609F44C012F5FEECF70
:104B6000F12CFFEF8F169F0609F449C0F80144812C
:104B7000F0901A018F2D411180E0F82FF170FF2E77
:104B8000F801E58086819B85992309F4F8C0FF2010
:104B900009F4F5C06090700370907103E11013C0C8
:104BA000A101082C01C0440F0A94EAF7842B8683E4
:104BB00080918203909183038615970520F470926B
:104BC000830360928203C10102C0880F991F2A9556
:104BD000E2F70197F80126812817190681F48091E0
:104BE000280490912904009709F44BC00E94B00456
:104BF0006816790608F045C021E0F80124835F2893
:104C0000FFEFAF1ABF0A095F1F4F28E0A216B104D9
:104C100009F08DCF8B85882309F40DC1552009F447
:104C20000AC10E94CB0490932904809328048091A8
:104C30008503883010F591E0980F9093850398E0F4
:104C4000FE013996DE01119601900D929A95E1F7D9
:104C50003CE0839FC00111248A579C4F28E0FE014D
:104C60003196DC0101900D922A95E1F72FEF3FEF8D
:104C7000FC0131872087D386C2866996E2E10C94D5
:104C8000EF2F8091260450912704982FF0E0E0E068
:104C9000851314C090932604E017F10709F4AFCFF1
:104CA00090E0FC01EE0FFF1FE25EFB4FB182A0829D
:104CB00001968370992780932704A1CF682E712CC9
:104CC000F301EE0FFF1FE25EFB4F2081318147E0D1
:104CD000429FD001439FB00D1124AA51BC4F6D914A
:104CE0007C911197798F688F40E020E030E0E32FCE
:104CF000F0E0EE0FFF1F688D798DE60FF71F8080C3
:104D0000918081149104E1F0F8010190F081E02D8F
:104D1000FF8BEE8B20E005C08616970609F44F2D19
:104D20002F5FE22FF0E0EE0FFF1F6E897F89E60F05
:104D3000F71F608171816115710571F73F5FD7CFF2
:104D40004423D1F0F801231708F0FD0121E024836A
:104D50000E171F0721F490932604F42E50CF9813BA
:104D600005C0AE17BF0711F49F5F937093012F5FCB
:104D70003F4F822F83708CCFF0E0E0E0F7CF90E0E0
:104D8000E11020C0B10102C0660F771F2A95E2F73B
:104D90009B01215031098217930731F4442309F410
:104DA00048C0C5010E94C105C101082C01C0880F7F
:104DB0000A94EAF7982F9095F801868189238683D3
:104DC000FE2C1DCF9C01082C02C0359527950A9416
:104DD000E2F7A90141705527BC0161507109862392
:104DE0009723892B11F5452B01F1F80182819381DD
:104DF000892BC1F01B821C821D821E8249824A823D
:104E00000E94CB048160582F9D838C83F80182819E
:104E100093818F83988729813A814B816D817E812F
:104E20000E94A323F8011582BFCFF22FF170EF2E5D
:104E3000BBCFEF2CB9CF909126048091270498170F
:104E400031F00E946E24552009F446CE16CF0E9400
:104E5000112410922904109228040E94EF05F3CF28
:104E600082E00E9471101ACEA5E0B0E0EAE3F7E21A
:104E70000C94E32F9093360380933503811520E241
:104E8000920730F40E94D0152596E2E00C94FF2F93
:104E900080EF89838A831B820E94CB048160782FF4
:104EA0009D838C8349815A816B818D810E9402256B
:104EB000EBCFA5E0B0E0EFE5F7E20C94E32F9093A1
:104EC000360380933503811520E2920730F40E9467
:104ED00079172596E2E00C94FF2F80EF89838A836F
:104EE00081E08B830E94CB048160782F9D838C832B
:104EF00049815A816B818D810E940225EACF1F92E0
:104F00000F920FB60F9211242F933F934F935F93FD
:104F10006F937F938F939F93AF93BF93CF93DF93C1
:104F2000EF93FF93D091E900DF708091EC00C82FE0
:104F3000C17080FDC0E81092E9008091F000877F89
:104F40008093F00078940E94E0101092E900809124
:104F5000F00088608093F000CD2BCF70C093E90003
:104F6000FF91EF91DF91CF91BF91AF919F918F9181
:104F70007F916F915F914F913F912F910F900FBE55
:104F80000F901F9018951F920F920FB60F92112439
:104F90002F933F934F935F936F937F938F939F9341
:104FA000AF93BF93EF93FF938091E10082FF09C01D
:104FB0008091E20082FF05C08091E1008B7F8093A9
:104FC000E1008091DA0080FF24C08091D80080FF4A
:104FD00020C08091DA008E7F8093DA008091D90022
:104FE00080FF9DC080E189BD82E189BD09B400FEDA
:104FF000FDCF81E08093720480914D04811109C03E
:105000000E9428030E94F3038091E2008460809351
:10501000E2008091E10080FF17C08091E20080FFF4
:1050200013C08091E2008E7F8093E2008091E200C5
:1050300080618093E2008091D80080628093D800E4
:1050400019BC85E0809372048091E10084FF2BC03D
:105050008091E20084FF27C080E189BD82E189BDA3
:1050600089B5982F917080FFFBCF8091D8008F7DFC
:105070008093D8008091E1008F7E8093E100809141
:10508000E2008F7E8093E2008091E2008160809355
:10509000E20080917304882309F447C084E0809380
:1050A0007204809172048091E10083FF27C0809197
:1050B000E20083FF23C08091E100877F8093E100BD
:1050C00082E080937204109273048091E1008E7FDD
:1050D0008093E1008091E2008E7F8093E2008091D6
:1050E000E20080618093E20042E060E080E00E94A4
:1050F000C1038091F00088608093F000FF91EF91F0
:10510000BF91AF919F918F917F916F915F914F91DF
:105110003F912F910F900FBE0F901F90189519BCC3
:105120001092720410924D0474CF8091E30087FDB9
:1051300093E090937204B5CF78941F921FB61F929C
:1051400011248F939F93AF93BF93809144049091C8
:105150004504A0914604B09147040196A11DB11DDC
:105160008093440490934504A0934604B09347046D
:10517000BF91AF919F918F911F901FBE1F90189567
:105180001F921FB61F9211248F939F93AF93BF93CB
:1051900080914304811113C080914404909145048F
:1051A000A0914604B09147044196A11DB11D809382
:1051B000440490934504A0934604B0934704BF91E0
:1051C000AF919F918F911F901FBE1F901895CDB7E3
:1051D000DEB7E4970FB6F894DEBF0FBECDBF85B73C
:1051E000806885BF85B7806885BF84B7877F84BFA7
:1051F0000FB6F894A8958091600088618093600054
:10520000109260000FBE80E890E00FB6F894809393
:105210006100909361000FBE82E598E09093770162
:10522000809376010E94AC0E0E94200E0E94520CC8
:105230000E9428030E94F3038091E200846080931F
:10524000E2007894809172048823A1F01091E90023
:105250001F709091EC00892F817090FD80E8182BD1
:105260001092E9008091E80083FD0E94E0101F7019
:105270001093E90082E084BD93E095BD9AEF97BD5D
:1052800080936E000E944E0D811102C00E94731423
:1052900081E30E94540883E30E94540882E30E9441
:1052A000540886E30E94540809E511E087E6E82ED9
:1052B00081E0F82ED8018D918D018F3F11F00E9471
:1052C0005408E016F106B1F788E0E5E4F2E0DF010A
:1052D000282F1D922A95E9F7E7E2F2E0DF011D92FF
:1052E0008A95E9F790E080E00E944830883E9E4F22
:1052F00021F40E944E0D811102C00E945E1882E0CE
:1053000090E00E944030809331020E94670D90939C
:105310004904809348040E94F00EEFEFF6E721E085
:10532000E150F0402040E1F700C000000E94F00E84
:105330008091450280FF08C06FEF7FEF90E080E032
:105340000E946C300E94240C83E090E00E94403068
:105350000E94C51081E091E09093400480933F0447
:1053600010E4212E552453948E010F5F1F4F80911E
:105370007204A0E1EA2EB2E1FB2E853009F48EC062
:105380000E94F00EE2E38E2EE2E09E2EF5E46F2EF8
:10539000F2E07F2ED301F401219131918D919D9105
:1053A00042E0EA33F40709F483C028173907A1F370
:1053B000412CD301ED90FD903D01F401A190B190FD
:1053C0004F01AE14BF0459F1AE24BF24312CCC24BC
:1053D000C394D12CC5018C219D21892BB1F038AA11
:1053E00049AA21E0C7018C219D21892B09F420E0E5
:1053F0002AAB0E94CB048160782F9CAB8BAB48A971
:1054000059A96AA98CA90E9402253394CC0CDD1CF1
:10541000FEE03F12DFCFF4013297F182E082439445
:1054200024E04212C6CF0E94BF0464C0809172047F
:10543000843019F11092430488E190E00FB6F8949B
:10544000A895809360000FBE2092600083B7817F93
:10545000846083BF83B7816083BF7894889583B766
:105460008E7F83BF0FB6F894A89580916000886105
:1054700080936000109260000FBE809171048823B9
:1054800069F00E94F00EE5E4F2E081919191892BA0
:1054900009F007C592E0ED34F907B9F7809172047D
:1054A000853009F4C3CF0E94CA100E94380568CF26
:1054B0002817390709F07CCF0E94CB047C0180912A
:1054C0002F0290913002E816F906A1F08FEF8BA71A
:1054D0008CA71DA60E94CB048160782F9FA78EA762
:1054E0004BA55CA56DA58FA50E940225F092300208
:1054F000E0922F028091390490913A04892B09F4AB
:105500003EC040912E0450912F0460913004709160
:1055100031042FB7F8948091440490914504A091F0
:105520004604B09147042FBF841B950BA60BB70B05
:1055300040912A0450912B0460912C0470912D0409
:1055400084179507A607B707D0F08091390490918A
:105550003A040E94791710923A041092390410927A
:105560002E0410922F0410923004109231041092E5
:105570002A0410922B0410922C0410922D04809176
:105580001A01882301F18091280490912904009741
:10559000D1F00E94B0042091820330918303281738
:1055A000390788F49091260480912704981709F40C
:1055B000D0C00E946E241092830310928203109236
:1055C0002904109228048091750380FF1EC08091E9
:1055D000190182FF1AC00E94CB0420917E033091F2
:1055E0007F03AC01421B530B20911701309118012E
:1055F0004217530750F02AE332E041E0BC018091AA
:105600008003909181030E94A61786E0E4E5F2E012
:10561000D80101900D928A95E1F7109256021092EE
:10562000570210925802109259028B819C81892B4B
:1056300091F080915202909153020E94B004AC010B
:1056400090914E02992309F48DC080911501841721
:10565000150608F495C08D819E81892B91F080916B
:105660005002909151020E94B004AC0190914D0201
:10567000992309F4C4C0809111018417150608F418
:10568000CCC046E050E0B80184E592E00E941330BF
:10569000892B61F48091560290915702892B909149
:1056A0005802892B90915902892B11F00E94A8066B
:1056B00086E0F801A4E5B2E001900D928A95E1F749
:1056C0000E94380590914202891721F0809342028E
:1056D0000E94BF0480917204843009F048CE83E0B8
:1056E0008093E9008091E80082FF41CE8091E8003C
:1056F00090E085FF0AC00E94470350E2E52EF12C9E
:105700006801882309F4D2C091E08091E8008B778A
:105710008093E800992309F42ACEE0903703F090B3
:1057200038038981E114F10409F4CEC08E3F09F0F9
:105730000DC18A81833020F08550833008F006C186
:10574000EA81EE3008F002C1F0E0EE55FF4C0C9417
:10575000C62F0E94112410922904109228040E943E
:10576000EF0531CF209116018AE0289F9001112486
:105770002417350708F06FCF9F5F90934E0202C049
:105780009F3FD1F7FB80FF2059F00E948B079FEFCE
:105790001F140CF491E0899F802D112480935602F0
:1057A000FC80FF2059F00E948B079FEF1F140CF420
:1057B00091E0899F802D11248093570230915602E9
:1057C000332309F448CF20915702222309F443CF11
:1057D00045EB3403C0011124992359F090935602EC
:1057E00045EB240390011124332331F03093570209
:1057F00032CF50925602F4CF509257022CCF2091C4
:1058000012018AE0289F900111242417350708F01F
:1058100038CF9F5F90934D0202C09F3FD1F7FD802C
:10582000FF2059F00E9452079FEF1F140CF491E0E3
:10583000899F802D112480935802FE80FF2059F00B
:105840000E9452079FEF1F140CF491E0899F802D56
:1058500011248093590230915802332309F411CF57
:1058600020915902222309F40CCF45EB3403C001E7
:105870001124992359F09093580245EB2403900189
:105880001124332331F030935902FBCE5092580249
:10589000F4CF50925902F5CE8091F100D6018D934C
:1058A0006D01B1E0EB1AF10809F42ECF8091E80008
:1058B00085FDF2CF8091E8008B778093E8000E940D
:1058C0004703882399F320CF8D3009F4BBC0B0F48F
:1058D000843009F49EC040F4823041F108F08AC05F
:1058E000813001F18FEF02C3863009F4A8C008F4BB
:1058F0009BC08C30B9F780E18A8328C0813109F4DC
:10590000FAC040F48F3009F4C9C008F49EC00E9468
:10591000C30D1CC0833109F419C108F4EEC08E3FD9
:1059200009F70ECF1A8289E08B8310C08A818230FA
:1059300009F4FBC2833099F18130A1F60E94BF04C3
:105940000E94CC2F6B837C838D839E838091720415
:10595000843009F00CCDF090E9003F2D3F70F32E1C
:105960009091EC00892F817090FD80E8F82A82E008
:105970008093E9008091E80080FF0CC050E040E097
:1059800060E270E0C8010E9478038091E8008E77A1
:105990008093E8008F2D8F708093E900E8CC809190
:1059A0000D0190910E01892B89F280914502909111
:1059B00046029827892798279C838B8380914702EA
:1059C000909148029827892798279E838D838091FC
:1059D000490290914A0298278927982798878F83B0
:1059E00080914B0290914C029827892798279A879B
:1059F0008987ACCF8A81823009F074CF6B817C813A
:105A00008D819E810E94CC2F86E290E00E944E30D4
:105A10009DCF4C816B818A810E94780C98278927C1
:105A200098279E838D8392CF2D813E813227232715
:105A300032274C816B818A810E94D30D87CF0E94CF
:105A4000F91384CF1A8285E76FCFEC80F12CEDE15A
:105A5000EE16F10408F07ACFCA80DB80DC24CD2476
:105A6000DC245801E00EF11EC60185579C4FEA1454
:105A7000FB0409F46BCFF5E7CF16D10460F40E9464
:105A80004030D50114968C93FFEFCF1ADF0A2FEF29
:105A9000A21AB20AE9CFF5011482F6CF80910D0166
:105AA00090910E01892B09F451CFCC80D12C3DE18E
:105AB000C316D10408F04ACFEA80FB80FE24EF240D
:105AC000FE245801CE0CDF1CC70185579C4FCE1415
:105AD000DF0409F43BCF45E7E416F10428F4D501CF
