:100000000C94BF030C94F7030C94F7030C94F703C0
:100010000C94F7030C94F7030C94F7030C94F70378
:100020000C94F7030C94F7030C946A2B0C94262B76
:100030000C94672C0C94F7030C94F7030C94F703BF
:100040000C94F7030C94F7030C94F7030C94F70348
:100050000C94F7030C94432C0C94F7030C94F703C3
:100060000C94F7030C94F7030C94F7030C94F70328
:100070000C94F7030C94F7030C94F7030C94F70318
:100080000C94F7030C94F7030C94F7030C94F70308
:100090000C94F7030C94F7030C94F7030C94F703F8
:1000A0000C94F7030C94F7030C94F7030501090271
:1000B000A10185020901A100050919012905150001
:1000C00025019505750181029501750381010501E1
:1000D000093009311581257F950275088106093897
:1000E0001581257F950175088106050C0A380215D2
:1000F00081257F950175088106C0C005010980A191
:1001000001850319012AB700150126B7009501756D
:10011000108100C0050C0901A101850419012AA064
:1001200002150126A002950175108100C005010984
:1001300006A1018506050719E029E71500250195A7
:1001400008750181020507190029EF1500250195A1
:10015000F0750181020508190129059505750191C0
:1001600002950175039101C00660FF0961A10109B3
:1001700062150026FF0095207508810209631500AD
:1001800026FF00952075089102C005010906A1010E
:10019000050719E029E71500250195087501810279
:1001A0009501750881010507190029FF150026FF33
:1001B0000095067508810005081901290595057542
:1001C000019102950175039101C0FD377A585A00DB
:1001D0000004E6D6B4460200210116000000742F88
:1001E000E5A3E003B800E15D003D8889A654750AE7
:1001F00036E182AEFA7A1AA6FCA2ED495BAB6A5EE2
:100200007177BBD0558A5F04BCAA647EE5D3B498ED
:1002100057C974860BD13C57B902477435D2F1E8FF
:10022000FB339E0BEBA211FB981464DAC253ADFDB5
:10023000128DF5C6E54CA5485768DF81581FF76D4C
:10024000B043A8BEDFFF51EA9C9F0EB6D2B2A81100
:10025000D264C768736B6620FAFBB36D53C125F196
:100260007523099FA2A827AEE4CE73B7E720F20852
:1002700069D555C5E111693868E26979A1675A60A5
:100280000C5B12CA2E25BD0C77AADFB7EB4529FF00
:1002900009F6CD74C67E204BAA1C7A464BBE182F99
:1002A000D2D3BCED099FC05DAE7762F53D04291045
:1002B00047BAA38B2F9AC6B9A257CC14A4C1FCB7D6
:1002C000CFBC5269BEF3B671190D00000000DB0906
:1002D0005884FA6E4EB00001FD01B90700003FE0FE
:1002E0000C32B1C467FB020000000004595A000040
:1002F00000000000000000000100010001000100FA
:1003000001000000000000000000000001000100EA
:1003100001000100010000000000000000000000DA
:1003200001000100010001000100000000000000C8
:1003300001000100010001000000000000000100B8
:1003400001000100010001000000000000000000A9
:100350000000010001000100010001000000000098
:100360000000000000000100010001000100010088
:10037000000000000000000000000000000000007D
:100380000000000001000100010001000100000068
:100390000000000000000000010001000100010059
:1003A000010000000000000000000000010001004A
:1003B0000100010001000000000000000100010038
:1003C0000100010000000000000001000100010028
:1003D000010001000000000000000000000001001A
:1003E0000100010001000100000000000000000009
:1003F00000000100010001000100010000000000F8
:1004000000000000000000000000000000000000EC
:1004100001000100010001000100000000000000D7
:1004200000000000010001000100010001000000C7
:1004300000000000000000000100010001000100B8
:1004400001000000000000000100010001000100A7
:100450000000000000000100010001000100010097
:100460000000000000000000000001000100010089
:100470000100010000000000000000000000010079
:100480000100010001000100000000000000000068
:10049000000000000000000000000000010001005A
:1004A0000100010001000000000000000000000049
:1004B0000100010001000100010000000000000037
:1004C0000000000001000100010001000100000027
:1004D0000000000001000100010001000000000018
:1004E0000000010001000100010001000000000007
:1004F00000000000000001000100010001000100F7
:1005000000000000000000000000010001000100E8
:1005100001000100000000000000000000000100D8
:1005200001001004780EAB0E0000020002000C0463
:10053000780EAB0E0000030001001104780EAB0E24
:10054000000004000200F603780EAB0E70070500F1
:1005500001001204780EAB0E000006000200F80342
:10056000780EAB0E0000070002000E04780EAB0EF2
:100570000000080001001304780EAB0E0000090013
:100580000200FA03780EAB0E4B070A000200FC03D0
:10059000780EAB0E4B070B000200FE03780EAB0E7D
:1005A0004B070C0002000004780EAB0E4B070D0049
:1005B00002000204780EAB0E4B070E00020004048A
:1005C000780EAB0E4B070F0002000604780EAB0E40
:1005D0004B07100002000804780EAB0E4B07110009
:1005E00002000A04780EAB0E4B071200020014043E
:1005F000780EAB0E0000130002001604780EAB0E4E
:100600000000140001001804780EAB0E0000150065
:1006100000000000D1060716000009025B0003017C
:1006200000A0FA09040000010301010009211101E1
:1006300000012240000705810308000109040100B0
:100640000203000000092111010001222200070518
:1006500082032000010705030320000109040200B2
:10066000010300000009211101000122BC0007055F
:100670008403200001120100020000000824140677
:10068000000001010203011C037600690061006C97
:10069000003A006600360034006300320062003326
:1006A00000630000001003630068006500610070D3
:1006B00000690073000000100364006F0074006C98
:1006C0000065006F006E00000004030904000000D4
:1006D000000000000000000000000000000000001A
:1006E000000000000000000000000000000000000A
:1006F000007E0F00D4FFFFFFC7000000780000005D
:1007000000000000002A2B2800000000000000006C
:10071000000000000000000029000000002C1E3432
:1007200020212224342627252E362D3738271E1F38
:10073000202122232425263333362E37381F040563
:10074000060708090A0B0C0D0E0F101112131415D1
:10075000161718191A1B1C1D2F3130232D350405AF
:10076000060708090A0B0C0D0E0F101112131415B1
:10077000161718191A1B1C1D2F3130354C00112467
:100780001FBECFEFDAE0DEBFCDBF04B603FE18C058
:1007900080911F0590912005A0912105B09122051F
:1007A0008730904BA740B04B59F410921F05109220
:1007B00020051092210510922205E0E0F8E309954A
:1007C00011E0A0E0B1E0ECE4F9E602C005900D9282
:1007D000A637B107D9F725E0A6E7B1E001C01D9221
:1007E000AF31B207E1F70E948E2C0C9479340C944F
:1007F0000000E8EDF0E080818E7F80831092E200BF
:100800001092DA001092E100A0EEB0E08C918160CD
:100810008C9380818F77808319BCA7EDB0E08C9199
:100820008E7F8C9380818F7E80831092EE0408955A
:100830002091E4003091E50095E6A9012091EC00BB
:10084000822F817020FF06C08091E80080FF06C0E3
:1008500080E008952091E80022FD1AC080911305E0
:10086000882389F0853089F08091EB0085FD0FC0E9
:100870002091E4003091E50042175307F9F29150BE
:10088000E1F684E0089582E0089583E0089581E030
:100890000895EF92FF920F931F93CF937C018B01EA
:1008A0000E941804C82F811117C08091E80085FDAF
:1008B0000BC08091E8008E778093E8000E941804B6
:1008C000882399F3C82F08C0F70181917F01809395
:1008D000F1000150110949F78C2FCF911F910F9111
:1008E000FF90EF9008958091150587FF13C08091C8
:1008F000E80082FF06C08091E8008B778093E800D3
:1009000004C0809113058111F2CF089580911305E1
:100910008823D9F38091E80080FFF8CF8091E80028
:100920008E77ECCF982F9093E900242F762F50E00C
:10093000891731F07091EC002091ED005091F0009A
:1009400021FD07C09F5F973071F78093E90081E038
:1009500008953091EB003E7F3093EB003091ED0035
:100960003D7F3093ED003091EB0031603093EB0030
:100970007093EC002093ED005093F0002091EE0076
:1009800027FDE0CF80E00895B0E0A0E0EAECF4E0DD
:100990000C94CC33C8EDD0E088818F7E8883E7ED5E
:1009A000F0E080818160808384E082BF81E0809379
:1009B000EE0488818E7F888302EE10E0F8011082B9
:1009C0001092DA0081EEC82ED12CF60110828881B7
:1009D0008F77888388818068888388818F7D8883EA
:1009E00019BC109213051092140510921205109262
:1009F000110590EEE92EF12CF70180818B7F808329
:100A000088818160888342E060E080E00E949204F7
:100A1000F60180818E7F8083F801808181608083F0
:100A2000808188608083F70180818E7F80838881C8
:100A300080618883CDB7DEB7E8E00C94E833FC0131
:100A400080911B0590911C0586179707A0F06115F2
:100A5000710529F49091E8009E779093E80090E06A
:100A60006115710551F4911108C08091E80082FF71
:100A700034C080E00895BC01F2CF80911305882333
:100A8000C1F18530C1F18091E80083FD30C08091D3
:100A9000E80082FDEACF8091E80080FFE1CF8091FD
:100AA000F3002091F200382F6115710519F02830FC
:100AB000310558F091E02830310509F090E020919F
:100AC000E8002E772093E800CBCF81918093F1004E
:100AD000615071092F5F3F4FE7CF80911305882345
:100AE00041F0853041F08091E80083FFBECF81E086
:100AF000089582E0089583E0089508958091F004B8
:100B000008959C014FB7F8948091E5049091E60414
:100B1000A091E704B091E8044FBF821B930B0895A6
:100B20002FB7F8946091E5047091E6048091E70492
:100B30009091E8042FBF08952FB7F8948091E504B1
:100B40009091E604A091E704B091E8042FBF0895C6
:100B500020911B012223C1F02091E90427FF14C03A
:100B6000E62FE695E695E695EE31F8F4E80FF92FD5
:100B7000F11D677021E030E001C0220F6A95EAF7AD
:100B80008281822B82830895FC0132962FEF30E020
:100B90004191641751F02F3F19F4411101C0232FE7
:100BA0003F5F3630A9F72F3F09F40895820F911D5A
:100BB00027FD9A95FC01628308952091E20430910B
:100BC000E3042817390771F09093E3048093E2045B
:100BD000E091E004F091E104309721F00084F18588
:100BE000E02D099508952091DE043091DF04281747
:100BF000390771F09093DF048093DE04E091E00404
:100C0000F091E104309721F00680F781E02D0995FD
:100C10000895E091E004F091E104309729F001900B
:100C2000F081E02D0995089580E00895CF93DF933A
:100C3000EC014091CE045091CF046091D0047091AA
:100C4000D1042FB7F8948091E5049091E604A09127
:100C5000E704B091E8042FBF841B950BA60BB70BDC
:100C6000843F9140A105B10518F58091CE04909183
:100C7000CF04A091D004B091D1048093CA04909382
:100C8000CB04A093CC04B093CD0484EF91E0A0E01A
:100C9000B0E08093C6049093C704A093C804B093B7
:100CA000C904D093D604C093D504DF91CF910895A1
:100CB0000E9490056093CA047093CB048093CC0487
:100CC0009093CD0482E390E0A0E0B0E0E2CFFC019D
:100CD0008481862351F492819923B9F06923808518
:100CE00083FF05C081E061110FC080E00895892F66
:100CF0008F7092959F70982B862F8F7062956F7072
:100D0000682B81E09613F1CF089581E0FDCF452B4C
:100D100039F0682381E06F3F09F080E08170089529
:100D200081E0FCCFDC016091C2048091C304962F66
:100D3000891301C00895292F30E0F901EE0FFF1F3C
:100D4000E654FB4F408151814A175B07A1F487E0CD
:100D50008A9FA0018B9F500D11244E575B4F81E05D
:100D6000FA0184839613E6CF2F5F3F4F237033271A
:100D70002093C20408952F5F3F4F922F9370D8CFD6
:100D800010921F0410921E04E2E8F4E085818111A4
:100D900002C014821682379684E0EA3BF807B1F766
:100DA0000895B0E0A0E0E7EDF6E00C94CA338FEFD1
:100DB0009FEF4430510508F469C04091E90441FBBC
:100DC000882780F990E0880F991F42FB002700F9DF
:100DD00010E0000F111F000F111F802B912B40FB03
:100DE000CC24C0F8D12C8C299D2943FB222720F943
:100DF000C22FE0E0DE2F53E0CC0FDD1F5A95E1F764
:100E00008C2B9D2B44FBAA27A0F9B0E0E4E0AA0FAD
:100E1000BB1FEA95E1F78A2B9B2B45FBEE27E0F9F8
:100E2000F0E0A5E0EE0FFF1FAA95E1F78E2B9F2BB8
:100E300046FB222720F930E0B6E0220F331FBA9597
:100E4000E1F7822B932B47FB222720F930E03695E0
:100E5000322F222737952795822B932B2091EA0456
:100E6000322F3170F32EE82EF92A26952170B22EFA
:100E7000BB0CA82EBF28C501BB0CAA0BBB0BFB01EA
:100E800080839183A283B38390E080E0CDB7DEB707
:100E9000EAE00C94E633E6EFF3E0848195812AE002
:100EA00030E0B9010E948D336093160186818093F2
:100EB00015018285809314018485809313018685B2
:100EC0009785B9010E948D336093120180898093C8
:100ED0001101828980931001848980930F01089504
:100EE0008091F6039091F703909318018093170176
:100EF0000895E6E8F2E090E080E06BE87AE242EB09
:100F00005AE220E03AE2778366835187408733874D
:100F100022879587848701963E968830910599F7B8
:100F2000089581152CE5920741F420910D0130912F
:100F30000E01232B11F490E080E008950E949C059F
:100F40009C019091700280917102982B21F0309356
:100F50006D0220936C029091720280917302982B23
:100F600021F030936B0220936A02E091E004F0914B
:100F7000E104309749F082E080936E020480F581AD
:100F8000E02D8EE692E00995089590917002803FE1
:100F900059F48091710287FF0DC010927102911176
:100FA0000BC01092680208C0813F81F480917102E9
:100FB00018169CF3992381F080917202909173022C
:100FC000892B09F064C0109267020895823F49F4AA
:100FD00097FFF0CF10927002809171028111ECCFD7
:100FE000E0CF833F19F41916ACF3E4CF20917202DD
:100FF000893F29F41216F4F610927202DBCF8A3F71
:1010000019F427FFD7CFF8CF209173028B3F29F433
:1010100027FFD0CF10927302CDCF8C3F19F4121658
:10102000CCF3C8CF843F31F480916F028E7F8093E0
:101030006F02C0CF853F21F480916F028D7FF7CF83
:10104000863F21F480916F028B7FF1CF873F21F49F
:1010500080916F02877FEBCF883F21F480916F02F0
:101060008F7EE5CF8D3F31F4809169028E7F809332
:101070006902A0CF8E3F21F4809169028D7FF7CF66
:101080008F3F09F097CF809169028B7FF0CF089551
:101090008091690280FF0CC06091100170E075952D
:1010A0006795759567956115710549F1862F0895C6
:1010B00081FF06C06091100170E075956795F3CFD0
:1010C0006091100182FD0BC0909167029923A1F0FD
:1010D00060910F0180911001961738F0682F70E031
:1010E0006038710500F38FE70895899FC0011124CE
:1010F00070E00E94A133F4CF61E070E0D7CF81E0CF
:101100000895809169026091FE037091FF0380FF52
:1011100016C020911401269FC001279F900D112415
:10112000BC0176956795769567956038710508F0EE
:1011300043C06115710509F441C0862F089581FFF0
:101140000BC020911401269FC001279F900D1124F0
:10115000BC0176956795E9CF82FF09C080911401A3
:101160009B01829FB001839F700D1124DECF2091DF
:1011700068022223D1F29091130180911401482F2B
:1011800050E0291748F0CB01849FB001859F700D76
:10119000949F700D1124C9CF289F90011124269F80
:1011A000A001279F500D369F500D1124692F70E02C
:1011B000CA010E948D33B9CF8FE7089581E0089569
:1011C000803F31F40E9481088195809371020895D7
:1011D000813F19F40E948108F8CF823F31F40E94C8
:1011E00081088195809370020895833F19F40E94CD
:1011F0008108F8CF893F29F40E9448088093720241
:1012000008958A3F21F40E9448088195F7CF8B3FCB
:1012100031F40E94480881958093730208958C3FB1
:1012200019F40E944808F8CF843F31F480916F028E
:10123000816080936F020895853F21F480916F0251
:101240008260F7CF863F21F480916F028460F1CFF6
:10125000873F21F480916F028860EBCF883F21F4B3
:1012600080916F028061E5CF8D3F31F480916902FA
:1012700081608093690208958E3F21F48091690214
:101280008260F7CF8F3FB9F7809169028460F1CF18
:1012900080E00895F894E82FE295EF70F0E031A136
:1012A000282F2F7081E090E001C0880F2A95EAF77F
:1012B000982F9095932391A392A1892B82A3789440
:1012C00008959091E90492FF06C0282F28712830D4
:1012D000F9F4877F846093FF06C0282F2871283196
:1012E000F1F4877E84612091EA0420FF06C0382F44
:1012F00038713830D9F4877F816021FF06C0282FEC
:1013000028712831D1F4877E816194FD877E08950C
:10131000282F24712430F9F68B7F8860DCCF282FAA
:101320002471243101F78B7E8861DDCF382F317134
:10133000313019F78E7F8860E0CF282F217121315D
:1013400021F78E7E8861E1CFCF93DF93EC01823865
:101350009105B1F108F040C08133910509F49DC0B9
:1013600048F58932910509F48DC08A9709F49CC02B
:10137000C11521E5D20708F0C3C0C11530E5D30778
:1013800008F01EC1C83ED10508F0A3C0C13ED1057A
:1013900088F5C83AD10508F08EC0C53AD10508F0E5
:1013A00007C1C130D10531F1209721F1C430D105F9
:1013B00008F545C08533910509F45FC0C997C1F6AA
:1013C0008091E904837009F044C18091EA0483FFAD
:1013D00011C0C9E2D0E00EC0833E910599F170F4CE
:1013E000803E910501F1823E910511F68091E9045C
:1013F00082FD21C0CE01DF91CF910895863E9105F7
:1014000061F1873E910571F1843E910509F0B0CFFD
:101410008091EA0481FFEECF8091E904C7EED0E02D
:1014200084FD0DC0E7CF8091E90480FD33C0909129
:10143000EA0490FFDFCFC3EED0E084FFDBCFD0E043
:10144000C0E0D8CF8091E90482FD00C19091EA0408
:1014500090FDFFC084FFCECFF2CF8091E90483FDE1
:10146000DDCFC8CF8091E90483FDF6C09091EA04F6
:1014700091FFF0CFC4EED0E0BDCF8091E90485FFAD
:10148000B9CFA7CF8091E90485FDE9C08091EA0436
:1014900083FFB0CFC9E3D0E0ADCF8091E90486FFF0
:1014A000A9CFCAE2D0E0A6CF8091E90486FFA2CFFF
:1014B000C1E3D0E09FCFCF3BD10508F6C85AD0E0BA
:1014C000CC0FDD1FC95DDE4F0990D881C02DD464DB
:1014D00091CFC11540E2D40758F4C11581E0D80777
:1014E00008F088CFC03FD10508F4A9CFD06582CFDE
:1014F000C11520E4D20708F4A2CFDF70D06A7ACFFA
:10150000C11535E5D30718F5C11544E5D40708F032
:1015100085C0C11583E5D80708F06CC0C11522E568
:10152000D20708F462C0CE018370992721E030E031
:1015300002C0220F331F8A95E2F7C695C69580E256
:10154000C89FE0011124C22BD32BDC6853CFC115F7
:1015500039E5D307A8F4C11548E5D40708F063C0FE
:10156000C11586E5D80708F06ACF8C2F0E94610963
:10157000C82FD0E0DC2FCC27CC27DF71D0623ACF48
:10158000C1152AE5D20708F453C0CE019056811543
:10159000904208F054CF8D2F8F710E94610990E026
:1015A000982F882788279F719C012C2BE901E6CF73
:1015B000C55AD0E0CC5DDE4FC881D0E0D0641ACFF0
:1015C0002C2F26952695237040E2249F900111240C
:1015D0008C2F8370C1E0D0E002C0CC0FDD1F8A9554
:1015E000E2F7C22BD32BDD6805CFDC2FCC27C16FF0
:1015F000D06A00CFCE018370992721E030E002C08D
:10160000220F331F8A95E2F7C695C69540E2C49F24
:10161000E0011124C22BD32BDA68ECCEDC2FCC27CF
:10162000C46FD06AE7CEDC2FCC27C06FD06AE2CE81
:101630008C2F8F700E94610934E0D695C7953A953A
:10164000E1F7CF709C2FEC01D069D4CEC2EED0E090
:10165000D1CEC0EED0E0CECEC6EED0E0CBCEC5E34C
:10166000D0E0C8CE80912802882331F01092280261
:1016700010922702109226020895CF93C82F8091CE
:10168000EA0482FF0CC0809128028C1741F00E946E
:101690009C059093270280932602C0932802CF9145
:1016A0000895809590911E05982390931E050895A6
:1016B00080959091D50398239093D50308959091A8
:1016C000D503892B8093D5030895109205021092BB
:1016D00004021092030208958091F8039091F90397
:1016E000892B89F00E949C052091260230912702C7
:1016F000AC01421B530B81E02091F8033091F903B8
:101700004217530708F480E08170089590911B01FF
:101710009923D1F09091E90497FF16C0E82FE69540
:10172000E695E695EE31E0F4F0E0E858FE4F282F1C
:10173000277081E090E001C0880F2A95EAF7809534
:101740009281892382830895EAE7F1E091918913D8
:1017500003C0DF0111971C9291E0E038F907B1F75F
:101760000895209102029091C101291302C080E0E6
:10177000089530E0F90153E0EE0FFF1F5A95E1F7AD
:10178000EE53FE4F5181561306C05081581303C0CB
:101790005281541304C02F5F3F4F2770E6CF81E082
:1017A0000895809102029091C101981301C008959B
:1017B0008F5F8770FACF292F973078F58A3068F5D8
:1017C00090E03AE0239F800D911D1124682F6770EF
:1017D00023E0969587952A95E1F7FC01EE0FFF1F10
:1017E000E80FF91FE256FE4F50E040E080E0219103
:1017F00030E0062E02C0369527950A94E2F7217054
:101800003327042E01C0220F0A94EAF7822B4F5F80
:101810005F4F4330510559F7089580E00895292F0F
:10182000973098F58A3088F590E03AE0239F800D54
:10183000911D1124282F277041E001C0440F2A95E3
:10184000EAF723E0969587952A95E1F7FC01EE0FDC
:10185000FF1FE80FF91FE256FE4F30E020E070E076
:101860005191DF011197CB01022E02C09695879509
:101870000A94E2F7817081958527842385278C93CC
:101880002F5F3F4F2330310559F7089592959F7090
:10189000963091F058F4925F9F70923058F4803FE8
:1018A00019F030F4883E30F481E008959A5FF4CF67
:1018B000843FD1F380E00895883EB0F3813FD1F7B3
:1018C000F3CF9C013A9521153F4150F5FC01EE27DD
:1018D000F170BC0166277270AC01442754709C0102
:1018E0002227387094FF0EC080E1EF2B09F480E0CE
:1018F000672B09F08062452B09F08064232B89F067
:101900008068089581E0EF2B09F480E0672B09F0EF
:101910008260452B09F08460232B19F088600895BC
:1019200080E008958093EB047093ED046093EC04E1
:10193000809113058430F9F48093E9008FEF909142
:10194000E800815095FD06C095ED9A95F1F70000ED
:101950008111F5CF8091E80085FF0DC050E040E097
:1019600063E070E08BEE94E00E9449048091E8000F
:101970008E778093E8000895BC0184E00E94920C69
:101980000895BC0183E00E94920C08959C0184E0BC
:101990008093E9009FEF8091E800915085FD06C09B
:1019A00085ED8A95F1F700009111F5CF8091E8005F
:1019B00085FF0CC050E040E066E070E0C9010E9485
:1019C00049048091E8008E778093E8000895CF93D2
:1019D000DF93EC0180911B018823B1F18091E90430
:1019E00087FF32C060E284E08093E9008FEF90913E
:1019F000E800815095FD06C095ED9A95F1F700003D
:101A00008111F5CF8091E80085FF1BC080911B01FB
:101A100070E050E040E0811104C050E040E068E038
:101A200070E0CE010E9449048091E8008E77809397
:101A3000E80080E2FE01A1EFB4E001900D928A95EA
:101A4000E1F7DF91CF91089568E081E0CDCF81E0AB
:101A50008093E00080E28093D8001092C9008FE16B
:101A60009EE40197F1F700C0000087E090EBDC01F5
:101A700080931F0590932005A0932105B093220524
:101A800088E19CE00FB6F894A895809360000FBEA3
:101A900090936000FFCF019708F40895EFE9FFE00D
:101AA0003197F1F700C00000F6CF0F931F93CF934B
:101AB000DF9306EF13E0C7E5D2E0CE010E942F349A
:101AC000F80181938F012196CB37F2E0DF07A9F768
:101AD000C8E2D5E0FE0185919491009711F0FC01D8
:101AE00009952C96F6E0C432DF07A1F7DF91CF917C
:101AF0001F910F9108950F931F93CF93DF9384301D
:101B000030F5673020F54A3010F5C42FD0E0CC0F07
:101B1000DD1F24E1629FC00DD11D11243CE8839F8D
:101B2000C00DD11D1124CE0187960E942F34082F9D
:101B300010E0102F0027CE0188960E942F349801C4
:101B4000282BC901DF91CF911F910F91089590E04B
:101B500080E0F8CF462F2091D3033091D403232B7C
:101B600099F4703F39F4603F79F48091D1039091FA
:101B7000D2030895843040F4773030F46A3020F492
:101B8000672F0E947B0D089590E080E00895CF922A
:101B9000DF92FF920F931F93CF93DF936C0100911D
:101BA0001D0580912902082BC7E0D0E010E0FC2E33
:101BB000C8010C2E02C0959587950A94E2F780FD26
:101BC0000CC02197A0F7F12C8F2DDF91CF911F91A1
:101BD0000F91FF90DF90CF900895B6018C2F0E9457
:101BE000AA0D0E94A409019761F3EECFCF93DF9372
:101BF000EC010E94C70DBE010E94AA0D0E94A4091B
:101C0000DF91CF910895CF93DF93EC014B815C81FD
:101C1000698188810E948706811110C08E819F8111
:101C2000009739F00E94A4090E94460CDF91CF91E1
:101C30000895888199810E94F60DF6CF80E0F6CF55
:101C4000A5E0B0E0E6E2FEE00C94D13349835A838C
:101C500089819A81662399F0222389F00E94C70D19
:101C6000182F682F89819A810E940F0C69817A81CF
:101C7000812F0E94AA0D2596E3E00C94ED330E947B
:101C8000DB0B182FF3CFFC01262F8681978100975D
:101C900039F4408151816281738184810E94200ED8
:101CA000089583E290E00E942F34893489F484E21D
:101CB00090E00E942F34803F59F485E290E00E942A
:101CC0002F3491E0883509F090E0892F81700895D4
:101CD00080E0FCCFCF9384E090E00E942F34C82FA7
:101CE00082E290E00E942F34982F8C2FCF9108959C
:101CF000DB01FC013296259134914217530758F0CD
:101D0000FC01349665917491A901CD010E940F34B4
:101D100090E080E008958FEF9FEF08950F931F9359
:101D2000CF93DF9306EF13E0C7E5D2E0CE010E9428
:101D30002F34F80161918F01681719F0CE010E94CC
:101D40003D342196CB37F2E0DF0781F7DF91CF9169
:101D50001F910F910895DA019C012E5F3F4FF90109
:101D600045915491F90125913491A217B30758F088
:101D7000FC013496859194910E940F340E948E0E3E
:101D800090E080E008958FEF9FEF0895CF93DF9369
:101D9000CBE6D3E060E0CE010E943D342196C11530
:101DA00084E0D807B9F7DF91CF9108951F93CF93BF
:101DB000DF93122F8430E0F46730D0F44A30C0F45F
:101DC000C42FD0E0CC0FDD1F94E1699FC00DD11D61
:101DD00011249CE8899FC00DD11D1124632FCE01D1
:101DE00087960E943D34612FCE0188960E943D3433
:101DF000DF91CF911F910895CF93C82F6FEF81117D
:101E000069E483E290E00E943D346FEFC11160EF1E
:101E100084E290E00E943D346FEFC11168E585E2F5
:101E200090E00E943D34CF910895CF93C92F682F41
:101E300084E090E00E943D346C2F82E290E00E94AA
:101E40003D34CF9108959B01883070F49AE0899FCA
:101E5000B001112465587D4F4AE050E0C9010E944D
:101E60001F3490E080E008958FEF9FEF0895AAE07F
:101E7000B0E0EDE3FFE00C94D2339C0137552F3FE7
:101E8000310509F068F4BE016F5F7F4F0E94230F98
:101E9000892B31F489859A852A96E2E00C94EE33F9
:101EA00080910E0490910F04F7CFAAE0B0E0EBE52B
:101EB000FFE00C94C83309E513E087E4C82E83E003
:101EC000D82E9BE1E92E93E0F92E27E0922E36E4FE
:101ED000A32E33E0B32E88248394D6010D931D9353
:101EE0006D014AE050E0B701CE0101960E941F3417
:101EF000F8013896DF01892D1D928A95E9F78981CD
:101F00009A81D80111969C938E938F8112968C930F
:101F100012978D8113968C931397888514968C93C2
:101F20001497898515968C9315978B819C811796AC
:101F30009C938E93169718961C9218978A8587FF04
:101F40003CC01E961C921E921D9780FF03C0D801B4
:101F500018968C9281FF04C0F8019085926090875A
:101F600082FF07C0D80118969C9118979460189624
:101F70009C9383FF04C0F80190859860908784FF4C
:101F800007C0D80118969C911897906118969C9359
:101F900085FF04C0F801808580628087015F1F4F44
:101FA000FAE0EF0EF11C8BE6E81683E0F80609F084
:101FB00094CF2A96ECE00C94E433F801B686A5861B
:101FC000C4CFAAE0B0E0E7EEFFE00C94CC33E6EF3C
:101FD000F2E080E5DF011D928A95E9F7E2E8F4E09E
:101FE00088E3DF011D928A95E9F786EFC82E82E02B
:101FF000D82E7F010BEC12E0F701D182C0824AE0BB
:1020000050E0B801CE0101960E941F3488E0FE0125
:102010003196D60101900D928A95E1F789859A85CE
:10202000D70113969C938E931297BAE0CB0ED11CD6
:10203000E7E0EE0EF11C065F1F4F0B31F3E01F07C8
:10204000D9F62A96E8E00C94E833AEE0B0E0EBE293
:10205000F0E10C94C8338E010F5F1F4F8EE0F80142
:1020600011928A95E9F795E5E92E91E0F92E68013C
:10207000AA24A394B12CF70181917F018F3F09F429
:1020800046C0F894E82FE295EF70F0E021A18F7040
:10209000A50102C0440F551F8A95E2F7CA01922F8D
:1020A000982B91A392A18095892382A3789400C054
:1020B000ECE5F1E021E030E0912C812C41914F3FA3
:1020C00009F467C0A42FA295AF70B0E090968C91F0
:1020D00090E04F7002C0959587954A95E2F780FD94
:1020E00058C0C901882A992A220F331F51E0E636C9
:1020F000F50721F7F701319780818F3F11F00E949A
:102100004A0980EA8A95F1F7F60191828082F2E02D
:10211000CF0ED11C4CE5E41641E0F40609F0ABCF3C
:102120004EE050E0B8018DE292E00E940234892B2B
:1021300099F18EE0F801ADE2B2E001900D928A953E
:10214000E1F781E080932C020E949C0590932B0282
:1021500080932A0280912A0290912B020E9481058D
:102160000597F0F04EE050E06DE272E089E592E014
:102170000E940234892BC9F08EE0EDE2F2E0A9E57D
:10218000B2E001900D928A95E1F781E010922C0265
:1021900008C090E080E0A6CF80912C028111DACFB8
:1021A00080E02E96ECE00C94E43380E0EFCFCF9308
:1021B0008091D50390911E05892B809378018091A1
:1021C0002802882329F18091F8039091F903892B43
:1021D00029F00E946C0B81110E94320B80917801D2
:1021E00090912802892B8093780180911B0188238C
:1021F00009F447C08091E90487FF43C08EE1EAE714
:10220000F1E090E0815008F03EC091110E94320B45
:10221000C091D204C09580917801C8238091D304E5
:10222000C82BC093780140E250E066E072E088E796
:1022300091E00E940234892B11F180E2E8E7F1E09D
:10224000A6E0B2E001900D928A95E1F7E091E004FA
:10225000F091E104309799F080911B01882349F0B7
:102260008091E90487FF05C0C093790186E08093DF
:1022700078010280F381E02D88E791E00995CF9104
:10228000089586E0BCCF2191222309F4BBCF9F5F44
:10229000B9CFCF93DF93EC01EA85FB85309719F036
:1022A0006C857D8509958B810E94510B8C810E94E4
:1022B000580B0E94D71086E0FE0111928A95E9F72B
:1022C000DF91CF910895CF93DF93EC018D8181FD54
:1022D00015C082608D8380911E059B81892B809320
:1022E0001E058C810E945F0B0E94D710E885F9853E
:1022F000309721F06C857D85CE0109951092DD0423
:102300001092DC048D8180FD03C0CE010E94491132
:10231000DF91CF91089580911901877F80931901F2
:1023200082E00E94510B8091190184FF06C08F7ECC
:102330008093190182E00E945F0B8091190185FF53
:1023400006C08F7D8093190180E20E945F0B0E947E
:10235000D710089590E080E00E94F30590E080E0BF
:102360000E94DD0510921E050E94D71086E0EEE661
:10237000F2E0DF011D928A95E9F71092680210924F
:102380006702109269020E949E07089580931D05BE
:102390000E94AA11089580911D05982F967096307D
:1023A00021F488600E94C6110895877FFBCF21E049
:1023B00030E001C0220F8A95EAF7209580911D0533
:1023C00082230E94C6110895909105028095892369
:1023D00080930502282F277091F4282F082E000CD7
:1023E000330B9217130659F09091EA0492FF07C03D
:1023F0008595859585950E94D7110E94650B089556
:102400009091EA0492FB222720F9281769F080FBBB
:1024100092F99093EA048091E9049091EA040E9471
:10242000150F82E00E94E411089521E030E001C020
:10243000220F8A95EAF780911D05822B0E94C61112
:1024400008959091EA0492FF10C098E0899F90014E
:102450001124622B609305020E9415120E949C05B4
:10246000909304028093030208950E941512089528
:10247000809329020E94AA1108951092D503809199
:102480001B01EAE7F1E0882361F08091E90487FF0E
:1024900008C08EE1DF011D928A95E9F70E94AA111A
:1024A000089586E0F7CFAAE2B0E0E9E5F2E10C9406
:1024B000D13385E195E02091F100DC012D93CD0130
:1024C000B5E08D319B07B9F780911605833009F48B
:1024D00072C0B8F4813009F449C0823009F4B3C045
:1024E0008091E80083FF96C28091150590911605B2
:1024F0009A3008F08FC2E92FF0E0E558FB4C0C94BD
:10250000B5338A3009F48EC08B3009F471C089303C
:1025100039F780911505813219F78091190590914D
:102520001A05009711F00297D9F68091E800877F8D
:102530008093E8008091E80082FF38C09091F3001A
:102540008091F200029731F48091F100813011F016
:10255000863021F48091F1008093F0048091E800AE
:102560008B778093E8000E947304BACF80911505A1
:10257000813A09F0B5CF8091E800877F8093E80029
:102580008091190590911A05892B61F460E281EF21
:1025900094E070E00E941F058091E8008B778093A3
:1025A000E8009ECF60E090E080E0F3CF80911305DB
:1025B0008111C0CF95CF80911505813A09F090CF58
:1025C0008091190590911A05892B09F089CF809186
:1025D000E800877F8093E8008091E80080FFFCCFCF
:1025E00080911B018093F1008091E8008E77B9CF34
:1025F00080911505813209F073CF80911905909172
:102600001A05892B09F06CCF8091E800877F8093B1
:10261000E8000E9473048091170580931B010E94BB
:102620003D125ECF80911505813209F059CF80911E
:10263000E800877F8093E8000E947304809118056A
:102640008093EF044DCF80911505813A09F048CF72
:102650008091E800877F8093E8008091E80080FF08
:10266000FCCF8091EF04BECF803899F0823809F01A
:10267000D1C1809119058F70873008F0CBC180934C
:10268000E9008091EB0085FB882780F91092E90032
:1026900006C0809111059091120591118260909170
:1026A000E800977F9093E8008093F1001092F1008A
:1026B0008091E8008E77AAC1882309F498C18230FE
:1026C00009F0A8C18091170581119BC1809119055E
:1026D0008F702FEF280F263008F09CC18093E900FF
:1026E0002091EB0020FF8DC1933031F48091EB00FD
:1026F00080628093EB0085C19091EB009061909394
:10270000EB0021E030E001C0220F8A95EAF7209328
:10271000EA001092EA008091EB008860EACF811114
:1027200079C1109117051F778091E3008078812B84
:102730008093E3008091E800877F8093E8000E9407
:1027400073048091E80080FFFCCF8091E3008068F3
:102750008093E30082E0111183E0809313055AC156
:102760008058823008F056C1209117053091180525
:102770002C3DE3E03E07A1F583E08A838AE289836A
:102780004FB7F894DE01139620E03EE051E2E32FCC
:10279000F0E050935700E49120FF03C0E295EF7002
:1027A0003F5FEF708E2F90E0EA30C0F0C7968D93B8
:1027B0009D932F5F243159F74FBF8091E800877FA9
:1027C0008093E8006AE270E0CE0101960E941F0546
:1027D0008091E8008B778093E8001CC1C096E7CF1A
:1027E0008091190590911A05432F552743305105C3
:1027F00009F44AC078F54130510509F485C08BE5EC
:1028000090E0EAE1F6E04230510509F003C1209181
:10281000E800277F2093E80020911B0530911C05DC
:102820008217930708F49C0140E02115310509F057
:1028300070C041116EC08091E80082FDC9CF8091C7
:102840001305882329F2853019F28091E80083FF6F
:10285000F2CFBECF4132510509F447C04232510593
:1028600009F0D8C08330910508F0D4C0FC01EE0F08
:10287000FF1FE759FE4F0190F081E02D8A599E4FCE
:10288000DC018C9190E01DC0332721303105E9F047
:102890002115310579F022303105F9F02330310569
:1028A00009F0B8C0E7E8F6E0E4918E2F90E0E7E8A1
:1028B000F6E007C0E9ECF6E0E4918E2F90E0E9EC59
:1028C000F6E0009709F4A6C0A2CFE7EBF6E0E491AA
:1028D0008E2F90E0E7EBF6E0F4CFE5EAF6E0E49146
:1028E0008E2F90E0E5EAF6E0ECCF8330910508F01A
:1028F00091C0880F991FFC01E159FE4F0190F081B2
:10290000E02D89E090E083CF82E190E0E5E7F6E01A
:102910007ECF80911305882309F45ACF853009F4BE
:1029200057CF8091E80083FD53CF8091E80082FD6E
:1029300082CF8091E80080FF78CF9091F300809162
:10294000F2002115310519F08830910550F041E071
:10295000089709F040E08091E8008E778093E800C6
:1029600064CF44914093F100319621503109019692
:10297000E8CF803809F04EC08091E800877F8093CF
:10298000E800809114058093F10092CE811142C03D
:10299000109117051230F0F58091E800877F809341
:1029A000E800109314050E947304112311F084E0D1
:1029B00005C08091E30087FDFACF81E08093130585
:1029C00042E061EC81E00E94920442E261EC84E02A
:1029D0000E94920442E261EC82E00E94920442E290
:1029E00060EC83E00E9492048091130513C08091F3
:1029F0001705813079F481E0933009F080E080930D
:102A000012051092E9008091E800877F8093E8002A
:102A10000E9473048091E80083FF0AC08091E8005F
:102A2000877F8093E8008091EB0080628093EB00C9
:102A3000AA96E3E00C94ED33E6EFF3E0128E138EEA
:102A40008FEA90E09183808325E0248F88E893E1EA
:102A5000938382838AE090E09583848344E150E00D
:102A60005783468348E050E05187408793878287A9
:102A70006EE170E0758764879787868780E590E0D0
:102A8000918B808B538B428B48E250E0558B448B6B
:102A900042E350E0578B468B48EC50E0518F408F1B
:102AA000158E178E168E91A380A322A30E948E0EE0
:102AB0000E943D121092EA041092E904EAEEF4E05A
:102AC0008081846080838091E9049091EA040E946F
:102AD000150F0E94550D0895AEE1B0E0E2E7F5E173
:102AE0000C94C733A0900D01B0900E0181E090E0EE
:102AF00090930E0180930D018EEEC82E82E0D82EA9
:102B000000E0760110E015C0F40125913491472DC5
:102B1000612F802F0E94D60E82E0880E911C739444
:102B2000EAE07E12F1CFF4E1EF0EF11C1F5F1730E7
:102B300019F04701712CE8CF0F5F8CE8C80ED11C4B
:102B40000430F9F60E941C151A8219821C821B821D
:102B50001E821D8218861F8288EC90E09A878987E2
:102B60000BE712E04AE050E0B801CE0101960E9466
:102B70006134065F1F4F0B3CE2E01E0799F77E01B0
:102B8000FBE0EF0EF11C8AE0F70111928A95E9F75C
:102B90004AE050E0B801C7010E946134065F1F4F50
:102BA0000B31F3E01F07A1F77E0185E1E80EF11C70
:102BB0008AE0F70111928A95E9F78FEF9FEF9A8FDC
:102BC000898F87E08E8F4AE050E0B801C7010E94EC
:102BD0006134065F1F4F0B36F3E01F07A1F7B09279
:102BE0000E01A0920D016E96EDE00C94E33380E0AF
:102BF0000E94FC0E60E086E290E00E943D340E945C
:102C00006C150E94C60E81E00E94FC0E0895CF92C2
:102C1000DF92EF92FF928FEF9FEF4430510508F45F
:102C20006AC0FB01C080D180E280F3800E943D1227
:102C30008091E904C0FA80F9B701A60176956795FD
:102C40005795479540FB81F9B701A60122E076959B
:102C50006795579547952A95D1F740FB82F9B701BB
:102C6000A60133E076956795579547953A95D1F744
:102C700040FB83F9B701A601E4E076956795579587
:102C80004795EA95D1F740FB84F9B701A601F5E035
:102C90007695679557954795FA95D1F740FB85F955
:102CA000B701A601A6E07695679557954795AA9531
:102CB000D1F740FB86F9B701A601B7E07695679595
:102CC00057954795BA95D1F740FB87F98093E9046A
:102CD0008091EA04D0FA80F9D1FACC24C0F8C0FA85
:102CE00081F98093EA048091E9049091EA040E94BA
:102CF000150F90E080E0FF90EF90DF90CF90089567
:102D00000E943D122FEF84E39CE0215080409040D0
:102D1000E1F700C0000088E19CE00FB6F894A895A8
:102D2000809360000FBE90936000FFCF882321F056
:102D30000E94510B0E94D7100895882339F090917A
:102D40001E05982B90931E050E94D7100895882386
:102D500021F00E94580B0E94D7100895882321F07B
:102D60000E945F0B0E94D7100895882379F19CEF91
:102D7000980F913A28F40E94860B0E94D71008956C
:102D800090E2980F983050F4877091E001C0990F4D
:102D90008A95EAF7892F0E94580BEFCF9BE5980F91
:102DA000933028F490E080E00E94F305089598E5C0
:102DB000980F973128F490E080E00E94DD05089597
:102DC000803F20F00E94C5070E949E070895FF9251
:102DD0000F931F93CF93DF93F82E0091D704109198
:102DE000D8040115110509F449C01092D6041092B7
:102DF000D5041092D2041092D304D8011696CD9126
:102E0000DC919E013A9521153F4108F4D07ED1E036
:102E1000C11101C0D0E0D8011996ED91FC911A972B
:102E2000309731F01B966D917C9180E00995D82305
:102E3000DD2339F08CEF8C0F813A30F58C2F0E9416
:102E4000860BFF2099F0E091D704F091D80480859B
:102E500084FD0CC08091D404882341F0808191814D
:102E60009C0121503109203B3D45A0F00E94D71024
:102E70001092D8041092D7041092D404C801CDB790
:102E8000DEB7E5E00C94EB330E94D7108C2F0E9444
:102E9000B516D7CF0E941606E9CFCF93DF93EC018A
:102EA0000E94B516CE010E94610C9E01205E310980
:102EB0002830310510F0CD2B29F40E94A716DF91A0
:102EC000CF9108950E949616FACFCF93C82F8823EA
:102ED000C1F18CEF8C0F813AB0F580911B018823F2
:102EE00001F18091E90487FF1CC0EC2FE695E6957F
:102EF000E695F0E0E858FE4F828190E04C2F477055
:102F000021E030E002C0220F331F4A95E2F782230E
:102F10009323892B79F08C2F0E94860B0E94D71067
:102F200009C0EAE7F1E08191C817A9F381E0E03830
:102F3000F807C9F76C2F88E791E00E94A8050E9466
:102F4000D710CF91089580E28C0F883048F4C77075
:102F500081E001C0880FCA95EAF70E945F0BEFCFAE
:102F6000EBE5EC0FE33040F4F0E0EC5DFE4F8081E8
:102F700090E00E94F305E5CFE8E5EC0FE73150F46F
:102F8000F0E0EE0FFF1FE95DFE4F808191810E940E
:102F9000DD05D7CFC03FA8F28C2F0E94E0080E9429
:102FA0009E07CFCF1F93CF93DF93182FC0911604A6
:102FB000D0911704893321F0C0911404D0911504E5
:102FC000812F0E946517209739F4812F0E94B51632
:102FD000DF91CF911F9108958FE99FE00197F1F75D
:102FE00000C000002197EFCFB0E0A0E0EAEFF7E1EA
:102FF0000C94CA33EC018AE0A82E2881222309F41C
:103000008FC02130C9F599818A81913021F42296AF
:103010000E94D21705C0923029F422960E946517AB
:103020002196EBCF933021F422960E94B516F8CF6B
:10303000943011F02196F4CF229630E020E0AE01DA
:103040004F5F5F4F8053990B8A30910550F02150AC
:10305000310930F38FE99FE00197F1F700C00000DC
:10306000F6CFA29EB001A39E700D11249C01260FE5
:10307000371F8981EA01E3CFE22FF0E0E350F94FF7
:10308000B490822F86958695869590E0FC01E35159
:10309000F94FE4902770F12C022E02C0F594E794CA
:1030A0000A94E2F731E0E322FF24FC01E352F94FF6
:1030B000C490D12C022E02C0D594C7940A94E2F792
:1030C00031E0C322DD24FC01E353F94F049110E009
:1030D00002C0159507952A95E2F701701127E114B2
:1030E000F10419F081EE0E946517C114D10419F0A2
:1030F00086EE0E9465178B2D0E94D217C114D10451
:1031000019F086EE0E94B516E114F10419F081EE73
:103110000E94B5160115110509F482CF8CE278CF13
:10312000CDB7DEB7EAE00C94E633B0E0A0E0EBE91F
:10313000F8E10C94CA337C015B01C42FD22FFC014F
:1031400082818823A9F04093DB040E949C05909320
:10315000DA048093D904C77081E001C0880FCA9552
:10316000EAF70E94AE16CDB7DEB7EAE00C94E6337C
:103170001091DB04141338C08091D9049091DA04C3
:103180000E9481056C01B701C5010E94370FC81666
:10319000D90650F5C0E2CD0F1D17C1F080E2810FB6
:1031A000883048F4177081E0012E01C0880F0A941E
:1031B000EAF70E94A716C83048F481E09D2F977067
:1031C00001C0880F9A95EAF70E94AE16802F0E94E0
:1031D000D217C83040F6D77081E001C0880FDA9569
:1031E000EAF70E94A716BFCFC77081E001C0880F21
:1031F000CA95EAF7F6CFCF93DF93EC010E94610CFA
:103200009E01205E31092830310510F0209741F4ED
:103210000E94AE168C2F0E946517DF91CF91089502
:103220000E949D16F7CF662329F020911E0522608B
:1032300020931E059C013056211540E2340720F0F2
:10324000305E2115304108F499270E94FB1808953B
:10325000B0E0A0E0EEE2F9E10C94CD337C018B010B
:10326000D42E8091190182FF8CC0C0911C04D09192
:103270001D04CE15DF0521F0E114F10409F081C031
:10328000809119018B7F8093190181FD73C080911A
:103290001A0490911B04A801481B590B81E020914E
:1032A0001701309118014217530708F480E081702C
:1032B000F82E80911901F0FA81F980931901FE012D
:1032C00083E0F695E7958A95E1F7EE71FF27EA52DC
:1032D000FC4F20813181AE014F70552781E090E095
:1032E00002C0880F991F4A95E2F7FF2009F444C0F5
:1032F000822B932B918380838091D50381FF08C01B
:103300008091190180618093190182E00E94580B1D
:103310008091D50385FF08C0809119018062809358
:10332000190180E20E94580B6F2DCE010E941319E3
:10333000DD2031F08091110485FF02C086FF3BC083
:1033400080911404909115040E944B0D80911C04EF
:1033500090911D049C013056211540E2340720F065
:10336000305E2115304108F499270E944D170E94C4
:103370008B111DC081E09BCF809590958223932374
:10338000B9CFC701992797013056211540E234077C
:1033900028F0305E2115304108F0C7010E944D171A
:1033A00080911C0490911D048E159F0501F31093CC
:1033B0001B0400931A04CDB7DEB7E7E00C94E933A1
:1033C00068EE7EEF90E080E00E945B3460E082E097
:1033D00090E00E943D3460E083E090E00E943D3444
:1033E0001092290260E084E090E00E943D3464E0A5
:1033F00082E290E00E943D3460E085E090E00E942F
:103400003D3460E086E090E00E943D346FEF87E05D
:1034100090E00E943D3440E050E0BA0188E090E046
:103420000E944F3460E08DE090E00E943D3440E027
:1034300050E0BA0188E190E00E944F3460E087E1FB
:1034400090E00E943D3440E050E0BA018CE190E011
:103450000E944F3470E060E080E290E00E945B34B4
:1034600040E050E0BA0188E190E00E944F3480E0F3
:103470000E94FC0E0E94F71540E050E0BA018FE078
:1034800090E00E944F3440E050E0BA0183E190E0C8
:103490000E944F340895A7E0B0E0E1E5FAE10C9412
:1034A000C2337C01DC0113964D915C911497119607
:1034B0006C9111978C910E9487068111EEC061E09A
:1034C000C7010E94430E8C01F70182818823E1F03D
:1034D0008091DC049091DD040097B1F00817190782
:1034E00099F0FEE08F9FC0011124FC01E557FD4FCC
:1034F0002081246020838A579D4FDC010D931C930B
:103500000E94631110921E05F7018281882311F435
:103510000C940B23C80182519F45409710F00C94E6
:10352000FF228FEF93E00E942F348111A6C07EEE20
:10353000D72ED00E0BE613E0D11036C019821A82B6
:103540001B821C8299249A9468012FEFC21AD20A16
:10355000C8010E942F3489831A82882309F48DC000
:10356000813009F07FC0580132E0A30EB11CC601C2
:103570000E942F34C82E8A83882309F47EC0C50197
:103580000E942F34D82E8FEF8C0D8330D8F4580141
:1035900043E0A40EB11CDB82DD2021F0CE010196B8
:1035A0000E94F4178501D0CF0115F4E01F0709F43C
:1035B00064C0C8010E942F34811101C0DA940F5FEA
:1035C0001F4FBACF8BEF8C0D833030F5C8010396B7
:1035D000DB825C01DD2031F3580154E0A50EB11C03
:1035E0000E942F348C838823E9F28B819C81813067
:1035F000AFEF9A0710F0982F8827B6E0CB1631F07E
:10360000E7E0CE1631F00E947A2ACCCF0E94542AED
:10361000C9CF0E94DB29C6CFF4E0CF12C3CF580137
:1036200024E0A20EB11CC80103960E942F34DD20B5
:1036300021F1882311F18150990B989E9001999E58
:10364000300D11244D2D4150550BCA01820F931F8F
:10365000019708F4A7CFAFE9BFE01197F1F700C0D9
:103660000000F6CFCE0101960E94F41756019ACFC2
:1036700081E00E9415120E94CB1180910502877093
:1036800061F0D70112968C91882339F08091EA0479
:1036900082FF03C082E00E94E4112796E2E10C94CD
:1036A000DE3381E00E94D711E6CF82E0FBCF82308B
:1036B00011F00C9449238091800290918102892B12
:1036C00009F4E7C72EE02C9DC0012D9D900D11241B
:1036D000FC01E557FD4F20812E7F20838A579D4FA7
:1036E0000E946311D6C781E080930001C6CF80910C
:1036F0000001882309F4AFC6480120EE821A910820
:103700004090280280919B01482A8091D503482A45
:1037100038E08316910408F086C09801277033279B
:1037200081E090E001C0880F2A95EAF7552009F45E
:1037300077C0482AD7018D919C910E94DB0B21E034
:1037400030E0F90102C0EE0FFF1F8A95E2F7FF8318
:10375000EE832090D7043090D80460909801709048
:1037600099011D822D81E22FF0E0EE0FFF1FE95B32
:10377000FC4FC080D180C114D10409F4D0C64110DF
:1037800005C0D60112968C91811189C0F601838102
:1037900090E02E813F8182239323892B09F47FC0FF
:1037A0008085982F977009F487E038E0831691049C
:1037B00008F053C0552009F44CC0869581708823C9
:1037C00009F46DC0D601AD90BC900A151B0519F423
:1037D000552009F464C0C214D30409F460C0D601B2
:1037E0001D96ED91FC91309721F08081882309F49A
:1037F00056C0642DC6010E946706882309F44FC095
:103800000A151B0509F099C70115110509F49AC796
:1038100051109AC7A614B70409F041C0512C94C79F
:103820008095482287CF552009F462C610939901EC
:10383000009398010E9490056093CE047093CF048A
:103840008093D0049093D1041092D6041092D504A2
:1038500071CF82FB882780F9B2CF552001F18170AA
:10386000AECF0E94B5168EC70497813A910558F4E1
:103870006A2D88E791E00E94A805552009F4EBC560
:103880000E94D710FACE0E94D7108FE39CE90197CF
:10389000F1F700C000008A2D0E946517EECF9D81D0
:1038A0009F5F9D835FCFFC01208131810217130749
:1038B00009F0CAC55110CAC51092D40480E00E9414
:1038C000E716C9C5902F812F0EC6F901858181FFAA
:1038D0003AC6C9010E94491136C68091190181601A
:1038E000809319015EC6809119018E7F8093190122
:1038F0000E948B1156C6809119018F7E013E1105E1
:1039000031F0053E1105C9F4809119018F7D809336
:1039100019018091190180FF53C6D70112968C912D
:103920000832110528F50E31110508F072C0043077
:10393000110580F5811140C643C6C8019056811516
:1039400040E2940720F0905E8115904110F780913D
:10395000190182FF35C68091130481FD31C62EE422
:1039600032E040E0B60190E080E00E94281928C6CD
:103970000933110558F40D32110518F40B321105F5
:10398000C9F69091110492FDD5CF08C004361105F7
:10399000C1F3D0CF9091110494FDCCCF882309F4CA
:1039A000A8C0809128029091D503892B8D7FB1F119
:1039B00010921D0410921C048091110481FD2EC0F0
:1039C000F80143E0F695E7954A95E1F7EE71FF2798
:1039D000EA52FC4F98012F70332781E090E002C03B
:1039E000880F991F2A95E2F7809590952081318163
:1039F000822393239183808360E0C8010E9413197E
:103A0000809128028D7F0E943D0B82E00E94E4118C
:103A100034CE9091110493FD8DCFC0CF88E0F70193
:103A2000AEE4B2E001900D928A95E1F71092500257
:103A3000109252021092510280911C0490911D0428
:103A400008171907D1F52091110425FF36C03091D0
:103A5000190131FF02C026FF30C020911A043091B5
:103A60001B045601A21AB30AB7010E94370FA81609
:103A7000B90618F58091D50381FF08C0809119011E
:103A800080618093190182E00E94580B8091D503D8
:103A900085FF08C08091190180628093190180E23E
:103AA0000E94580B609119016695617080911C0409
:103AB00090911D040E941319E0CD809128029091ED
:103AC000D503982B2091190191FB21F9209319011D
:103AD0008D7F0E943D0B10931D0400931C04D09217
:103AE0001B04C0921A04809119018460809319010B
:103AF0008CCF970140E0B601C8010E942819BDCDC6
:103B0000053F4CE5140709F463C008F45BC0063FA9
:103B10008CE5180709F462C0D70112963C91332353
:103B200009F4D8C51092DB040330BDE51B0708F08B
:103B300061C00A3FECE51E0730F4C80182509C4585
:103B4000449708F063C00E946A0E9093EA04809341
:103B5000E90402315CE5150709F49EC108F0EEC0E6
:103B600009309CE5190709F475C108F0B8C00530A3
:103B7000BCE51B0709F462C108F09FC00330FCE5F7
:103B80001F0709F453C108F055C18091E904816011
:103B900002303CE5130709F4CEC08091E90490910E
:103BA000EA040E94150F0E943D1267CD07E225EE40
:103BB00045EE68ED7CE51FC506E221EE40EE63EFC1
:103BC0007CE519C507E225EE44EE64EF7CE513C5FC
:103BD00006E221EE42EE65EF7CE50DC507E225EE3B
:103BE00046EE66EF7CE507C508E221E045EE69EDAB
:103BF0007CE501C5053AFDE51F0709F4A4CF08F0EF
:103C000055C001364DE5140709F49DCF06318CE50A
:103C1000180709F464C50A355DE5150709F495C16F
:103C200008F06EC101159CE5190709F474C10E3D39
:103C30001C4509F47DC1F70186819781009709F43D
:103C400088C10E94A409182F092FF701D280C580CE
:103C5000C2943FE0C322809105028770C1F0AD2C71
:103C6000DD20B1F0892F807F803421F080E2810F48
:103C7000883068F08091EA0482FF09C082E00E94E7
:103C8000E411809105028770AA24A3948111A12CCC
:103C9000902E92942FE09222FBE0F91508F4E6C1F1
:103CA000E92DF0E0EB57FB4C0C94B533C8018D5A6D
:103CB0009D45039708F0AACF46CF8091E904806222
:103CC00007304CE51407B9F18091E90480610830B0
:103CD0005CE5150780F18091E90480642CC00D300B
:103CE0008CE5180709F4C0C090F48091E9048E7F38
:103CF0000B30ACE51A07F9F08091E9048C600C30C8
:103D0000BCE51B07C0F08091E9048D7F14C00F3023
:103D1000ECE51E0709F4B8C008F4AAC000312CE590
:103D2000120709F4B5C08091E9048F7B01313CE5AD
:103D3000130709F032CF8093E9042FCF0F3F4CE5F2
:103D4000140709F4B3C0A8F50A3F8CE5180709F475
:103D500079C0C0F40431ACE51A0709F4B5C008F421
:103D6000A1C00531ECE51E0709F017CF8091E904E9
:103D700082FB992790F921E0922790FB82F990FB32
:103D800083F9D9CF0C3FFCE51F0709F475C008F48F
:103D90005DC00D3F3CE5130709F472C08091EA0451
:103DA00083600E3F4CE5140709F0F7CE8093EA04D8
:103DB000F4CE01365DE5150709F491C090F40130A9
:103DC0009DE5190709F489C008F474C060E0023069
:103DD000BDE51B0709F0E1CE8EE090E00E943D3486
:103DE000DCCE0D3AEDE51E07E9F060F49091E904B0
:103DF000892F8E7F90FF8160053A2DE5120709F427
:103E00009ACFCBCE0E3A3DE5130751F10F3A4DE56F
:103E1000140709F0C2CE9091EA04892F877F93FF9F
:103E20008860C4CF8091EA048860C0CF8091E904A3
:103E3000826081CF8091E90484607DCF8091E90424
:103E4000886079CF8091EA048160B0CF8091EA04E4
:103E50008260ACCF0E943D128091E90480686BCFF4
:103E60008091EA04877FA2CF8091E9048B7F63CFA2
:103E70008091E904877F5FCF8091EA048E7F96CF9F
:103E80008091EA048D7F92CF8091E9048F7E53CF99
:103E90008091E9048F7D4FCF0E943D128091E9040B
:103EA0008F7749CF8091E904837F45CF8091EA04E1
:103EB0008C7F7CCF8091EA04982F909591708E7FB3
:103EC000892B90FB81F972CF0E943D129091E904F9
:103ED000892F97FB87F980582ECF61E07DCF909195
:103EE000E904892F8F7E94FF806125CF80919A010C
:103EF000811104C089E20E94860BC2CC85E3FBCF0E
:103F00000C35BDE51B07B9F010F1073A1D4509F066
:103F100092CE0E9480160E943D122FEF34E34CE0B7
:103F2000215030404040E1F700C000000E94270DC2
:103F30000E94E019EECF8091EA0482FB882780F985
:103F400091E089270E94001276CE81E0FBCF80E0CD
:103F5000F9CF828100811181882369F0C8010E9414
:103F6000C70DD82E682FC8010E940F0CB8018D2DE7
:103F70000E94AA0D66CEC8010E94DB0BD82EF6CF98
:103F8000202F2F70B22E802F807F19F0B29490EFE7
:103F9000B922DD20A9F0BB2059F080E2810F8830E2
:103FA00010F0111107C08B2D0E945F0B0E94D710DB
:103FB000812F5AC080911E05B82AB0921E05F6CFF7
:103FC000812F0E94B516BB2009F450C080E2810FFA
:103FD000883010F0111104C08B2D0E94580B03C0C3
:103FE0008B2D0E94510B0E94D71040C0302F3F7084
:103FF000B32E802F807F803219F0B29480EFB822E8
:10400000112321F1113009F4AEC0DD2009F4B7C04D
:10401000CC2009F47FC020E0D7014C9111965C912F
:10402000119712966C91129713967C911397149690
:104030008C910E94200E8091130481FDB9CFF7016D
:10404000858180FFB5CF8F70858364C08091EA043D
:1040500082FD40C0DD20C1F1BB2029F08B2D0E94E4
:104060005F0B0E94D71080E00E946517A92DA85011
:10407000BB0B149710F40E940906812F902F0E9409
:10408000460C8111C2C110929D0110929C01AA2080
:10409000B1F08091050280FD12C0D70112961C92EA
:1040A0008595859585950E941512C7010E944B1A2A
:1040B000809105028595859585950E94D71160E0D0
:1040C000C7010E94430EE9CA80E00E94B516BB20DA
:1040D00069F282CFDD2011F1C11004C08091280265
:1040E0008B2919C041E0C41206C0809128028B2997
:1040F0000E943D0BBBCF80911204823078F3C8122E
:10410000EDCF0E94320B90919B018B2D892B89134F
:1041100080939B018B2D0E94AE16A8CFC11003C0C7
:104120000E94320B17C08091120451E0C51216C0D4
:10413000823008F49BCF8091D5038B2109F496CF70
:104140000E94320B90919B018B2D809589238913BE
:1041500080939B018B2D0E94A71688CF823000F39D
:10416000C812DECF83CF80911804DD2021F08C159A
:1041700008F47CCFCFCFC81608F078CFEBCFCC2097
:1041800049F38091160490911704193321F080911E
:104190001404909115040E944B0D812F0E94B516B6
:1041A00065CF802F86958695837069F0813009F000
:1041B0005DCF812F902F9370D11002C090E080E0EE
:1041C0000E94DD0553CF812F902F9370D11002C034
:1041D00090E080E00E94F30549CF812FDD2029F097
:1041E0000E94E0080E949E0741CF0E94C507FACFB7
:1041F000802F837091F5D11039CF412F429546958C
:104200004770440F440F812F8F70042E01C0880F18
:104210000A94EAF7212F207114FF07C02FE030E045
:1042200001C0220F4A95EAF72095302F3695369532
:104230003370323069F050F440912902313029F066
:10424000822B84230E94381211CF842B822BFACF29
:10425000282B809129028227F5CF8695DD2011F049
:10426000802F8170882309F401CF412F4295469514
:104270004770440F440F812F8F70042E01C0880FA8
:104280000A94EAF7212F207114FF07C02FE030E0D5
:1042900001C0220F4A95EAF72095302F36953695C2
:1042A0003370323069F050F440911D05313029F0FF
:1042B000822B84230E94C611D9CE842B822BFACF65
:1042C000282B80911D058227F5CFF02FFF70BF2E80
:1042D000DD2029F08F2F0E941512812F1CCF812FF6
:1042E0000E94A7168B2D0E94D711C0CE123F89F1D4
:1042F00060F4103FB9F0113F81F0DD2009F480C077
:10430000C11056CE802F8F7128C0133F49F1143F42
:10431000A1F78091EA0482FD2FC0802F8F71DD20EC
:1043200011F31BC080911804DD2079F0C81608F045
:104330009DCE202F2F7181E090E001C0880F2A953B
:10434000EAF790911D058927B5CF8C1508F48ECE1C
:10435000F0CF802F8F71D110C6CF0E94151286CE5C
:1043600080E0DD2009F4A6CF81E0902F9F7101C08D
:10437000880F9A95EAF79ECF80911204823040F11F
:10438000DD20D1F0909105029770943041F40E94A5
:10439000650B802F8F710E94D711A12C67CEC81694
:1043A000E0F7202F2F71B22E822F0E94151263E0AA
:1043B0008B2D0E942112F1CFC81630F00E94650BA0
:1043C00064E0802F8F71F5CF81E00E94E411E5CF8A
:1043D000DD2059F0302F3F71B32E832F0E9415122C
:1043E00063E08B2D0E94211241CE81E00E94E411F6
:1043F00041E04C1508F03ACE82E00E94E41136CE3E
:10440000C110BFCE802F8F716ECFDD2019F0C1108B
:104410003ACE3DCEC11037CE20E0F7014081518128
:104420006281738184810E94200E8091130483FF36
:104430002ACE80919C0190919D01029709F023CE94
:10444000812F0E94D2171FCE552029F0DC0118962B
:104450008C9185FF33CAC80197558F3F910511F0A4
:1044600008F071C05801BB24BEE00B9FF00111247D
:104470009F012A573D4F6901D70112968C91E5574C
:10448000FD4F908180FB90F99083882309F41DCA29
:104490000E949C0590934D0280934C02F60182810C
:1044A0008F5F828380911E059091D503892B838332
:1044B0008091280284830680F781E02D309731F0C7
:1044C000D6011C966D917C91C60109958EE08A9D5E
:1044D000F0018B9DF00D1124EA57FD4F858181FF7E
:1044E000F1C990E080E09093DC048093DD042BC060
:1044F00080919801909199010817190781F4109201
:104500009901109298011092CE041092CF0410924B
:10451000D0041092D1041092D6041092D504809148
:10452000D7049091D804009709F495CFA8E08A1693
:10453000910408F0B8C9642D0E946706811103C078
:1045400081E00E94E7168091110480FF39C00E942B
:104550009C056C01D70112968C91882309F4CBC974
:104560008091190182FF08C02EE432E040E0B601DC
:1045700090E080E00E9428190B31BCE51B0709F48C
:10458000ACC90C31ECE51E0709F4ADC990911901D5
:10459000892F8E7F90FF81600A31FCE51F0709F4A7
:1045A000A5C9C8019056811520E2920728F0905EB7
:1045B0008115904108F0ADC910921D0410921C04A1
:1045C000033FBCE51B0709F4F7CA08F099CA083D88
:1045D000FCE51F0709F4EACA093D2CE5120709F4B6
:1045E00003CB073D3CE5130709F096CA06E221EE2E
:1045F00041EE67ED7CE5C7010E9495183EC8003189
:10460000FFE51F0709F434C801312FE5120709F04F
:1046100040C082E02EC800313FE5130709F441C8CD
:1046200001314FE5140709F440C86801E7E5DE1AD7
:10463000FFEFCF16D10409F060F56CE772E08C2D26
:104640000E94230F892B29F58EE08C9DF0018D9D12
:10465000F00D1124EA57FD4F8281813009F027C8FF
:1046600080917C0290917D02892B99F080917E024D
:1046700090917F02892B69F0809180029091810254
:104680002091820230918302822B932B892B09F493
:1046900019C8D70112965C90552009F428C80F3527
:1046A000BDE51B0709F41FC80036EDE51E0759F0EC
:1046B0000E35FDE51F0709F01AC880910001882317
:1046C00011F40C94731B1092000180E00E94E71615
:1046D0000C943D1B06315CE5150709F0ACCA8091CE
:1046E000D503982F9A7A2091100420FF04C0482FF8
:1046F000447409F090E021FF04C0482F417109F093
:1047000090E022FF04C0482F487809F090E023FF92
:1047100003C0827209F090E0332309F4E7CB81E013
:10472000911101C080E080939A0169E2911165E3E3
:1047300088E791E00E94A805A3C8A114B10409F07C
:1047400069C8512CB12CA12C80E00E94E716D092B0
:10475000D804C092D70481E08093D404F601858107
:104760008093D20451100EC0AB2861F0F601808115
:1047700091819C0124503109213A310508F071C81A
:104780000E94860BD6011696AD90BC90C5019A95F5
:1047900081159F4110F4E0EEBE2277247394C50189
:1047A0000197803B9D4508F0712CD6011996ED913B
:1047B000FC911A97309731F01B966D917C9181E0B6
:1047C00009957822772079F0F601868197810E94F9
:1047D000610C8093D304C501F8E08F16910408F0B2
:1047E00043C80E9416060E94D71047C8B0E0A0E058
:1047F000ECEFF3E20C94CC338091BE01807F31F476
:104800008091BB01C0910202811107C0CDB7DEB714
:10481000E8E00C94E8332196C7708091C1018C17B1
:10482000A9F3F090B901E090BA01C090BC01D0901A
:10483000BD01A6016E2D8F2D0E948706D0E081114B
:10484000EACF8E0183E0000F111F8A95E1F7F8018E
:10485000EE53FE4F81818E11DECF80818F11DBCF31
:1048600082818111D8CFE380F480EC18FD0860E0EC
:1048700089EB91E00E94430E69EB71E00E94370FD3
:10488000E816F90640F68091BE018F708061809332
:10489000BE01F801E953FE4F80818F7080618083F3
:1048A00089EB91E00E944B1A0E94D10BAFCFA5E19A
:1048B000B0E0EDE5F4E20C94C5338C0185E0F8013D
:1048C000DE01519601900D928A95E1F7D8015C9036
:1048D00011966C9011971296EC9012971396CD90BA
:1048E000DC9060E089EB91E00E94430E89EBA82EFA
:1048F00081E0B82E8090BC019090BD01A401609130
:10490000BA018091B9010E9487068111A8C1F09077
:10491000BB01F601E819F9094F0160E0FF2009F435
:104920004BC1C5010E94430EB5010E94370F709024
:10493000BE018816990608F0F2C04091BC01509162
:10494000BD01B090B901A090BA01872D807F6A2D7A
:1049500009F08CC08B2D0E948706FE2C811127C088
:10496000D80111968C9111978A1121C08C918B11CD
:104970001EC02091BF013091C00116968D919C916F
:1049800028173907A1F4E11012C0872D8F708061BC
:104990008093BE0189EB91E00E944B1A8091BE0189
:1049A000F80185838F2D6596EFE00C94E133A60125
:1049B000662D852D0E948706D82E81E08E25D11088
:1049C00080E080FF18C04E2D662D852D0E94B10B12
:1049D000882389F08091130480FF0DC089EB91E05A
:1049E0000E944B1A88E0E9EBF1E0DF011D928A9505
:1049F000E9F7F12CD7CF81E08E25D11080E0B82FD8
:104A0000B170CB2E80FF29C04E2D662D852D0E94C2
:104A1000B10BD82E811121C0598A6A8A89899A8955
:104A20000E94F60D292F22952F70223050F024304D
:104A300078F49F7051F0F8019581907F31F4FD2C4E
:104A4000B1CF9F7011F08823D1F3805E8830B8F326
:104A5000C8010E944B1ADC2CF2CFEE2009F4A2CF41
:104A60008091BE0181608093BE01C3CF8B2D0E94D7
:104A70008706811124C0D80111968C9111978A1153
:104A80001EC08C918B111BC02091BF013091C001C1
:104A900016968D919C9117972817390781F4E1108C
:104AA0000EC015967C92C8010E944B1A88E0F8014E
:104AB000A9EBB1E001900D928A95E1F773CFC8019F
:104AC0000E94030E882339F1EE2029F18091BE0166
:104AD0008032A0F02091B9013091BA013A8729873C
:104AE0001B86DD86CC868E878091BF019091C001A8
:104AF000988B8F87CE0109960E944B1A88E0F801A7
:104B0000A9EBB1E001900D928A95E1F70E94F6239E
:104B1000FF24F39447CFC8010E944B1AF9CF872D89
:104B2000807F09F45BCF9090B9018090BA014091E9
:104B3000BC015091BD01682D892D0E94870681110D
:104B40001CC0F8018181881118C08081891115C0AD
:104B50002091BF013091C0018681978128173907C4
:104B600061F4E1100AC07582C8010E944B1A88E006
:104B7000D5011D928A95E9F715CFC8010E94030E51
:104B8000882349F2EE2039F28091BE01803208F488
:104B9000B5CF2091B9013091BA013A8329831B82A4
:104BA000DD82CC828E838091BF019091C001988775
:104BB0008F83CE010196A0CF89EB91E00E94430E36
:104BC00069EB71E00E94370F8816990680F6FE2C7B
:104BD000EE2009F4A0CFE090B901D090BA01409145
:104BE000BC015091BD016D2D8E2D0E948706811153
:104BF00028C0F80181818D1124C080818E1121C0CF
:104C00002091BF013091C001868197812817390713
:104C1000C1F48091130482FD49CF9091BE0190FDB3
:104C200045CF907F09F442CF8091BE018583903FAC
:104C300009F439CF982F907F905F8F70892B8583EF
:104C400032CFC8010E94030E811158CF8091BE015E
:104C500081608093BE01C8010E944B1AA3CEEE2052
:104C600009F459CFC8010E94030EF82E882309F4D5
:104C700052CF88E0F801A9EBB1E001900D928A953E
:104C8000E1F78091B9019091BA010E94F60D0E945E
:104C9000F62388CEA0E1B0E0E0E5F6E20C94D23352
:104CA00029873A874B875C876D877E878F87988BAC
:104CB000CE0109960E94572481112FC088E0FE0181
:104CC0003996DE01119601900D928A95E1F74C8597
:104CD0005D856A8589850E94870681111EC0A09125
:104CE000C101B0E0CD0101968770992720910202A1
:104CF00028171906E1F093E0AA0FBB1F9A95E1F778
:104D0000AE53BE4F98E0FE01319601900D929A95F8
:104D1000E1F78093C1010E94D10B80910202909132
:104D2000C101891312C06096E2E00C94EE330E9438
:104D30003D121092C1011092020288E0E9EBF1E00D
:104D4000DF011D928A95E9F7E8CFB8E08B9FC0019B
:104D500011248E539E4F0E945724882321F3809163
:104D6000020290E001968770992780930202D5CFC6
:104D7000EF92FF920F931F93CF93DF9380912104C3
:104D8000882361F0C09120048CE0F82E80912104EA
:104D9000C81748F01092210410922004CDB7DEB756
:104DA000E6E00C94EA33EE24E394EC0EE092200467
:104DB0000C2F10E0CF9DE0011124CE5DDB4F4B8125
:104DC0005C81698188810E94870681111DC08E8166
:104DD0009F81892B21F488859985019651F428813A
:104DE00039814A815B816C817D818E819F810E94A6
:104DF0004A26F09EF001F19EF00D1124EE5DFB4F6E
:104E00001482138210921E05CE2DC0CF1092C504BD
:104E10001092C40410921A018091C3048093C204BA
:104E20000E94C0060E94B8260895B0E0A0E0EBE121
:104E3000F7E20C94C333C091C20497E0892E01E0DD
:104E400010E02CE0322E3EEF932E442443948091C8
:104E5000C3048C1309C00E94B8260E94C006CDB7B7
:104E6000DEB7E1E10C94DF33D0E0FE01EE0FFF1F6F
:104E7000E654FB4F80819181889ED001899EB00DC0
:104E80001124AE57BB4F14962C911497211158C082
:104E900050902104E2E2F4E030E020E0712C5D016A
:104EA000251508F04BC0E284F384D501CD90DC9049
:104EB0006FEF7FEF612C462D50E0DA01AA0FBB1F88
:104EC000AC0DBD1D0D90BC91A02D109731F0EA16D0
:104ED000FB0609F4BA016394EECF6F3F7607A9F1A0
:104EE000D80102C0AA0FBB1F6A95E2F77A2AB8015F
:104EF000062C02C0660F771F0A94E2F7AB014150FF
:104F0000510974161506F9F4329EF001339EF00D26
:104F10001124EE5DFB4F889ED001899EB00D1124B7
:104F2000AE57BB4F12962D913C9113973783268332
:104F3000908291829187808715964C920E9492066A
:104F40002196C37084CF148213822F5F3F4F3C960B
:104F5000A7CFA9E1B0E0EFEAF7E20C94C233942FB7
:104F6000498B252F5A8B6B8B7C8B8D8B4C895D8964
:104F7000622F892F0E948706811109C080919C01B0
:104F800090919D01019690939D0180939C018B8946
:104F9000811110921E051D861E861F86188A85E0C7
:104FA000FE017196DE01199601900D928A95E1F746
:104FB0008091EA0482FF1EC08091F8039091F9036A
:104FC000892BC1F00E949C052091030230910402BC
:104FD000821B930B2091F8033091F90382179307FA
:104FE00020F08091050282FFE2C10E946C0B8111CA
:104FF0000E94320B4C855D856A8589850E948706F3
:10500000811111C061E0CE0109960E94430E6C012E
:105010008B8527EFC2162CE5D20681F4882321F177
:1050200081E080931A0129853A854B855C856D85E1
:105030007E858F8598890E944A26C6C038EFC316A0
:105040003CE5D30629F4882379F00E940627EBCFAC
:1050500049EFC4164CE5D40639F4882329F0809131
:105060001A018111F2CFDCCF02E814E0512CB12CEF
:10507000A12C22242394312C2EEF422EF8014081C2
:10508000518188248A94982C20E0822F90E0FC01A2
:10509000EE0FFF1FE40FF51F60817181611571052F
:1050A00031F0C616D70609F44C012F5FEECFF12C74
:1050B000FFEF8F169F0609F449C0F8014481F09074
:1050C0001A018F2D411180E0F82FF170FF2EF801A9
:1050D000E58086819B85992309F4F8C0FF2009F4B7
:1050E000F5C060900C0470900D04E11013C0A10194
:1050F000082C01C0440F0A94EAF7842B8683809120
:105100001E0490911F048615970520F470921F04C9
:1051100060921E04C10102C0880F991F2A95E2F710
:105120000197F80126812817190681F48091C4049B
:105130009091C504009709F44BC00E948105681640
:10514000790608F045C021E0F80124835F28FFEFCD
:10515000AF1ABF0A095F1F4F28E0A216B10409F079
:105160008DCF8B85882309F40DC1552009F40AC120
:105170000E949C059093C5048093C40480912104EF
:10518000883010F591E0980F9093210498E0FE018B
:105190003996DE01119601900D929A95E1F73CE067
:1051A000839FC00111248E5D9B4F28E0FE01319644
:1051B000DC0101900D922A95E1F72FEF3FEFFC0102
:1051C00031872087D386C2866996E2E10C94DE336C
:1051D0008091C2045091C304982FF0E0E0E0851361
:1051E00014C09093C204E017F10709F4AFCF90E028
:1051F000FC01EE0FFF1FE654FB4FB182A082019627
:10520000837099278093C304A1CF682E712CF3017A
:10521000EE0FFF1FE654FB4F2081318147E0429F94
:10522000D001439FB00D1124AE57BB4F6D917C91BF
:105230001197798F688F40E020E030E0E32FF0E0B5
:10524000EE0FFF1F688D798DE60FF71F808091802C
:1052500081149104E1F0F8010190F081E02DFF8BC1
:10526000EE8B20E005C08616970609F44F2D2F5FC0
:10527000E22FF0E0EE0FFF1F6E897F89E60FF71F28
:10528000608171816115710571F73F5FD7CF44234C
:10529000D1F0F801231708F0FD0121E024830E1757
:1052A0001F0721F49093C204F42E50CF981305C029
:1052B000AE17BF0711F49F5F937093012F5F3F4FAD
:1052C000822F83708CCFF0E0E0E0F7CF90E0E11028
:1052D00020C0B10102C0660F771F2A95E2F79B013B
:1052E000215031098217930731F4442309F448C04F
:1052F000C5010E949206C101082C01C0880F0A94C2
:10530000EAF7982F9095F801868189238683FE2CF1
:105310001DCF9C01082C02C0359527950A94E2F711
:10532000A90141705527BC0161507109862397235B
:10533000892B11F5452B01F1F80182819381892B8D
:10534000C1F01B821C821D821E8249824A820E94F9
:105350009C058160582F9D838C83F8018281938105
:105360008F83988729813A814B816D817E810E944C
:105370004A26F8011582BFCFF22FF170EF2EBBCF76
:10538000EF2CB9CF9091C2048091C304981731F0EB
:105390000E941527552009F446CE16CF0E94B82644
:1053A0001092C5041092C4040E94C006F3CF82E09C
:1053B0000E94E4111ACEA5E0B0E0E1EEF9E20C940F
:1053C000D2339093D2038093D103811520E29207C8
:1053D00030F40E944D172596E2E00C94EE3380EFF6
:1053E00089838A831B820E949C058160782F9D831C
:1053F0008C8349815A816B818D810E94A927EBCFD3
:105400000F931F93CF93DF938C01EB016CE772E056
:105410008C2F0E94230F892BA1F48091140490916A
:1054200015040E944B0DDD27CC58DD4F8881F80113
:10543000128218828330F1F048F4813059F08230C2
:1054400081F0DF91CF911F910F9108958430B9F0D1
:105450008530B9F780917C0290917D02009789F3A5
:1054600006C080917E0290917F02009799F30E947E
:10547000DB29E7CF8091800290918102F6CF809165
:10548000820290918302009791F720917C023091E3
:105490007D0280917E0290917F0221153105F1F20B
:1054A000009729F7C901E3CFA5E0B0E0EAE5FAE209
:1054B0000C94D2339093D2038093D103811520E2D0
:1054C000920730F40E94FB182596E2E00C94EE332C
:1054D00080EF89838A8381E08B830E949C058160B1
:1054E000782F9D838C8349815A816B818D810E94A5
:1054F000A927EACFCF93DF93EC010E94542A809131
:105500001404909115040E944B0DCE010E94DB29DA
:10551000DF91CF9108950F931F93CF93DF938C0169
:10552000862F6CE772E00E94230F892BB1F4C091A3
:105530007C02D0917D02209781F0F8018281833036
:1055400051F4CE010E947A2ACE010E947A2ACE011D
:105550000E947A2A02C08430D0F7DF91CF911F9148
:105560000F9108950F931F93CF93DF938C01EB015D
:105570006CE772E08C2F0E94230F892B09F05CC02E
:10558000FE01FF27D80112968C911297EC58FD4F1F
:105590008130B9F415969C9192FF02C080830AC0B5
:1055A00090FFFCCF82E0808380917E0290917F0209
:1055B0000097B9F480917C0290917D020097E1F10F
:1055C00010C08230B9F515968C9182FD28C080FDFF
:1055D0000BC083E0808380918002909181020097CC
:1055E00001F10E94542A28C084E0808380918202C5
:1055F000909183020097A9F780917C0290917D029F
:105600000097F9F00E947A2A80917E0290917F02A1
:10561000009739F780917C0290917D02E2CF85E07E
:10562000808380917C0290917D02009729F00E94F6
:105630007A2AF0CF86E08083DF91CF911F910F917E
:10564000089580917E0290917F02B8CF1F920F92B1
:105650000FB60F9211242F933F934F935F936F9345
:105660007F938F939F93AF93BF93CF93DF93EF93EA
:10567000FF93D091E900DF708091EC00C82FC170DA
:1056800080FDC0E81092E9008091F000877F809350
:10569000F00078940E9453121092E9008091F0007B
:1056A00088608093F000CD2BCF70C093E900FF910C
:1056B000EF91DF91CF91BF91AF919F918F917F91AA
:1056C0006F915F914F913F912F910F900FBE0F906F
:1056D0001F9018951F920F920FB60F9211242F93BF
:1056E0003F934F935F936F937F938F939F93AF936A
:1056F000BF93EF93FF938091E10082FF09C08091F7
:10570000E20082FF05C08091E1008B7F8093E10081
:105710008091DA0080FF24C08091D80080FF20C0F3
:105720008091DA008E7F8093DA008091D90080FF2B
:105730009DC080E189BD82E189BD09B400FEFDCF35
:1057400081E0809313058091EE04811109C00E94CD
:10575000F9030E94C4048091E20084608093E20017
:105760008091E10080FF17C08091E20080FF13C0AC
:105770008091E2008E7F8093E2008091E200806160
:105780008093E2008091D80080628093D80019BC99
:1057900085E0809313058091E10084FF2BC0809108
:1057A000E20084FF27C080E189BD82E189BD89B51F
:1057B000982F917080FFFBCF8091D8008F7D8093D0
:1057C000D8008091E1008F7E8093E1008091E2001B
:1057D0008F7E8093E2008091E20081608093E200FE
:1057E00080911405882309F447C084E08093130551
:1057F000809113058091E10083FF27C08091E20032
:1058000083FF23C08091E100877F8093E10082E0E5
:1058100080931305109214058091E1008E7F809390
:10582000E1008091E2008E7F8093E2008091E200AF
:1058300080618093E20042E060E080E00E94920498
:105840008091F00088608093F000FF91EF91BF910C
:10585000AF919F918F917F916F915F914F913F9108
:105860002F910F900FBE0F901F90189519BC10929A
:1058700013051092EE0474CF8091E30087FD93E04E
:1058800090931305B5CF78941F921FB61F921124E1
:105890008F939F93AF93BF938091E5049091E6041B
:1058A000A091E704B091E8040196A11DB11D809379
:1058B000E5049093E604A093E704B093E804BF9155
:1058C000AF919F918F911F901FBE1F9018951F92AF
:1058D0001FB61F9211248F939F93AF93BF93809114
:1058E000E404811113C08091E5049091E604A09135
:1058F000E704B091E8044196A11DB11D8093E50431
:105900009093E604A093E704B093E804BF91AF91AD
:105910009F918F911F901FBE1F901895CDB7DEB736
:10592000EE970FB6F894DEBF0FBECDBF85B7806887
:1059300085BF85B7806885BF84B7877F84BF0FB672
:10594000F894A8958091600088618093600010921F
:1059500060000FBE80E890E00FB6F894809361007D
:10596000909361000FBE88E499E090937701809353
:1059700076010E9479070E94E10F0E94550F0E9454
:10598000550D0E94F9030E94C4048091E2008460D6
:105990008093E2007894809113058823A1F0109100
:1059A000E9001F709091EC00892F817090FD80E8D4
:1059B000182B1092E9008091E80083FD0E94531299
:1059C0001F701093E90082E084BD93E095BD9AEFCB
:1059D00097BD80936E000E94510E811102C00E94FB
:1059E000F71505E511E08CE5E82E81E0F82ED801E9
:1059F0008D918D018F3F11F00E944A09E016F1064A
:105A0000B1F70CE511E0B6E6EB2EB1E0FB2EF801A4
:105A100081918F018F3F11F00E944A09E016F10633
:105A2000B1F78EE0E9E5F2E0DF01282F1D922A951B
:105A3000E9F7EDE2F2E0DF011D928A95E9F790E0E7
:105A400080E00E943734883E9E4F21F40E94510E20
:105A5000811102C00E94E01982E090E00E942F3480
:105A600080933D020E946A0E9093EA048093E904B9
:105A70000E942510EFEFF6E721E0E150F0402040D2
:105A8000E1F700C000000E9425108091590280FFBC
:105A900008C06FEF7FEF90E080E00E945B340E94CF
:105AA000270D83E090E00E942F340E94381281E09D
:105AB00091E09093E1048093E004A0E42A2E552421
:105AC00053943E013BE2630E711C8091130500E18B
:105AD00012E1853009F495C00E942510FEE3AF2E37
