:100000000C948A030C94C2030C94C2030C94C20394
:100010000C94C2030C94C2030C94C2030C94C2034C
:100020000C94C2030C94C2030C9456280C9412280E
:100030000C9453290C94C2030C94C2030C94C20375
:100040000C94C2030C94C2030C94C2030C94C2031C
:100050000C94C2030C942F290C94C2030C94C20379
:100060000C94C2030C94C2030C94C2030C94C203FC
:100070000C94C2030C94C2030C94C2030C94C203EC
:100080000C94C2030C94C2030C94C2030C94C203DC
:100090000C94C2030C94C2030C94C2030C94C203CC
:1000A0000C94C2030C94C2030C94C2030501090210
:1000B000A10185020901A100050919012905150001
:1000C00025019505750181029501750381010501E1
:1000D000093009311581257F950275088106093897
:1000E0001581257F950175088106050C0A380215D2
:1000F00081257F950175088106C0C005010980A191
:1001000001850319012AB700150126B7009501756D
:10011000108100C0050C0901A101850419012AA064
:1001200002150126A002950175108100C005010984
:1001300006A1018506050719E029E71500250195A7
:1001400008750181020507190029EF1500250195A1
:10015000F0750181020508190129059505750191C0
:1001600002950175039101C00660FF0961A10109B3
:1001700062150026FF0095207508810209631500AD
:1001800026FF00952075089102C005010906A1010E
:10019000050719E029E71500250195087501810279
:1001A0009501750881010507190029FF150026FF33
:1001B0000095067508810005081901290595057542
:1001C000019102950175039101C0FD377A585A00DB
:1001D0000004E6D6B4460200210116000000742F88
:1001E000E5A3E001DC00E45D003D8889C65436C328
:1001F000174FE4F41B037A1DE3C9E8C48050C6A777
:100200000E3DCC9AA6DD627A47FE8D83F9314FA36D
:100210008262AA8E485926BE408906785C8485A1F0
:10022000175DC54BF3B55615B08104C5A77D90DEAB
:1002300030DAE6C10D9CADBB931D70B96ADA2514A6
:10024000B6BB61BD6250E107D2038BFAAA00EA6037
:100250005BA31ED10133947F10556206650FD0D287
:10026000B946778B6F0A8D56FB3FD830217F448784
:100270002ABCBDBF832DA88DB2A8CFC7D7889697BB
:10028000D2761147B1FF71F48E72DBAC1483C05F7C
:1002900037D60081EAB574DC73BDB86A71F48B7E21
:1002A00057EFCD01075C8516212A57F1E8FF733F10
:1002B00055028D096D38BA289DAE560D0C38EE7575
:1002C0003ACC7181C27DFB8E9A63C6EA4F00C45F4F
:1002D0002F75973FE99800018002DD030000784CFC
:1002E0005D71B1C467FB020000000004595A0000B0
:1002F00000000000000000000000000000000000FE
:1003000000000000000000000000000000000000ED
:1003100000000000000000000000000000000000DD
:1003200000000000000000000000000000000000CD
:1003300000000000000000000000000000000000BD
:1003400000000000000001000100010001000100A8
:100350000100010001000100010001000100010095
:100360000100010001000000010001000100010086
:100370000100010001000100010001000000010076
:100380000100010001000100000001000100000067
:100390000100000001000000010001000000010058
:1003A0000100010001000100010001000100010045
:1003B0000100010001000100010001000100000036
:1003C0000100010001000100010001000100010025
:1003D0000100010000000100010001000100010016
:1003E0000000010001000000010000000100000009
:1003F00001000100000001000100010001000100F6
:1004000001000100010001000100010001000100E4
:1004100001000100010000000100010001000100D5
:1004200001000100010001000100010000000100C5
:1004300001000100010001000000010001000000B6
:1004400001000000010000000100010000000100A7
:100450000100010001000100010001000100010094
:100460000100010001000100010001000100000085
:100470000100010001000100010001000100010074
:100480000100010000000100010001000100010065
:100490000000010001000000010000000100000058
:1004A000010001000000010001006F03110E440E65
:1004B0000000020002006B03110E440E0000030056
:1004C00001007003110E440E0000040002005503E9
:1004D000110E440E3B07050001007103110E440E7E
:1004E0000000060002005703110E440E0000070032
:1004F00002006D03110E440E00000800010072039B
:10050000110E440E0000090002005903110E440EA2
:1005100016070A0002005B03110E440E16070B00BB
:1005200002005D03110E440E16070C0002005F036B
:10053000110E440E16070D0002006103110E440E49
:1005400016070E0002006303110E440E16070F007B
:1005500002006503110E440E160710000200670327
:10056000110E440E1607110002006903110E440E0D
:100570001607120002007303110E440E0000130050
:1005800002007503110E440E0000140001007703F1
:10059000110E440E00001500000000009C06161508
:1005A000000009025B00030100A0FA090400000139
:1005B000030101000921110100012240000705810A
:1005C00003080001090401000203000000092111D1
:1005D0000100012222000705820320000107050314
:1005E0000320000109040200010300000009211199
:1005F00001000122BC000705840320000112010054
:100600000200000008EDFE60600001010203011C11
:10061000037600690061006C003A00660036003421
:100620000063003200620033006300000016036ABA
:1006300000750061006E006B006100740061006E67
:10064000006100000018036A00750061006E006D13
:1006500000690063006800650072006F000000041C
:10066000030904000000000000000000000000007A
:10067000000000000000000000000000000000007A
:10068000000000000000007E0F00D4FFFFFFC70045
:1006900000007800000000000000002A2B28000065
:1006A0000000000000000000000000000000290021
:1006B0000000002C1E3420212224342627252E362B
:1006C0002D3738271E1F2021222324252633333699
:1006D0002E37381F0405060708090A0B0C0D0E0FEC
:1006E000101112131415161718191A1B1C1D2F316F
:1006F00030232D350405060708090A0B0C0D0E0FD3
:10070000101112131415161718191A1B1C1D2F314E
:1007100030354C0011241FBECFEFDAE0DEBFCDBF75
:1007200004B603FE18C080917C0490917D04A091D2
:100730007E04B0917F048730904BA740B04B59F4B2
:1007400010927C0410927D0410927E0410927F041B
:10075000E0E0F8E3099511E0A0E0B1E0EAE8F2E6B4
:1007600002C005900D92A437B107D9F724E0A4E7A1
:10077000B1E001C01D92AC37B207E1F70E947A29BF
:100780000C941F310C940000E8EDF0E080818E7F26
:1007900080831092E2001092DA001092E100A0EE45
:1007A000B0E08C9181608C9380818F77808319BCBD
:1007B000A7EDB0E08C918E7F8C9380818F7E8083BB
:1007C0001092480408952091E4003091E50095E6E8
:1007D000A9012091EC00822F817020FF06C080913A
:1007E000E80080FF06C080E008952091E80022FD27
:1007F0001AC080916D04882389F0853089F080913A
:10080000EB0085FD0FC02091E4003091E500421718
:100810005307F9F29150E1F684E0089582E00895DB
:1008200083E0089581E00895EF92FF920F931F9364
:10083000CF937C018B010E94E303C82F811117C065
:100840008091E80085FD0BC08091E8008E77809351
:10085000E8000E94E303882399F3C82F08C0F7013A
:1008600081917F018093F1000150110949F78C2F8C
:10087000CF911F910F91FF90EF90089580916F0499
:1008800087FF13C08091E80082FF06C08091E800D6
:100890008B778093E80004C080916D048111F2CFC2
:1008A000089580916D048823D9F38091E80080FF3A
:1008B000F8CF8091E8008E77ECCF982F9093E900E5
:1008C000242F762F50E0891731F07091EC002091A1
:1008D000ED005091F00021FD07C09F5F973071F748
:1008E0008093E90081E008953091EB003E7F3093E2
:1008F000EB003091ED003D7F3093ED003091EB0047
:1009000031603093EB007093EC002093ED00509336
:10091000F0002091EE0027FDE0CF80E00895B0E0E8
:10092000A0E0E5E9F4E00C947230C8EDD0E08881F5
:100930008F7E8883E7EDF0E080818160808384E0B2
:1009400082BF81E08093480488818E7F888302EE95
:1009500010E0F80110821092DA0081EEC82ED12C3E
:10096000F601108288818F778883888180688883E8
:1009700088818F7D888319BC10926D0410926E045B
:1009800010926C0410926B0490EEE92EF12CF7019A
:1009900080818B7F808388818160888342E060E0F2
:1009A00080E00E945D04F60180818E7F8083F801E3
:1009B000808181608083808188608083F70180816D
:1009C0008E7F8083888180618883CDB7DEB7E8E041
:1009D0000C948E30FC0180917504909176048617FA
:1009E0009707A0F06115710529F49091E8009E77B2
:1009F0009093E80090E06115710551F4911108C0E1
:100A00008091E80082FF34C080E00895BC01F2CFFD
:100A100080916D048823C1F18530C1F18091E80097
:100A200083FD30C08091E80082FDEACF8091E8002C
:100A300080FFE1CF8091F3002091F200382F611503
:100A4000710519F02830310558F091E02830310552
:100A500009F090E02091E8002E772093E800CBCFBA
:100A600081918093F100615071092F5F3F4FE7CF73
:100A700080916D04882341F0853041F08091E80039
:100A800083FFBECF81E0089582E0089583E008955A
:100A9000089580914A0408959C014FB7F89480917D
:100AA0003F0490914004A0914104B09142044FBF93
:100AB000821B930B08952FB7F89460913F047091B7
:100AC000400480914104909142042FBF08952FB7B4
:100AD000F89480913F0490914004A0914104B0911A
:100AE00042042FBF089520911B012223C1F02091C1
:100AF000430427FF14C0E62FE695E695E695EE3110
:100B0000F8F4E80FF92FF11D677021E030E001C023
:100B1000220F6A95EAF78281822B82830895FC0175
:100B200032962FEF30E04191641751F02F3F19F4C6
:100B3000411101C0232F3F5F3630A9F72F3F09F441
:100B40000895820F911D27FD9A95FC0162830895F7
:100B500020913C0430913D042817390771F090939F
:100B60003D0480933C04E0913A04F0913B043097BB
:100B700021F00084F185E02D099508952091380435
:100B8000309139042817390771F090933904809314
:100B90003804E0913A04F0913B04309721F006804C
:100BA000F781E02D09950895E0913A04F0913B0416
:100BB000309729F00190F081E02D0995089580E0AB
:100BC0000895CF93DF93EC0140912D0450912E04B2
:100BD00060912F04709130042FB7F89480913F04F6
:100BE00090914004A0914104B09142042FBF841B16
:100BF000950BA60BB70B843F9140A105B10518F5E5
:100C000080912D0490912E04A0912F04B091300476
:100C10008093290490932A04A0932B04B0932C046E
:100C200084EF91E0A0E0B0E0809325049093260447
:100C3000A0932704B0932804D0933504C0933404C0
:100C4000DF91CF9108950E945B0560932904709312
:100C50002A0480932B0490932C0482E390E0A0E07C
:100C6000B0E0E2CFFC018481862351F49281992384
:100C7000B9F06923808583FF05C081E061110FC051
:100C800080E00895892F8F7092959F70982B862F02
:100C90008F7062956F70682B81E09613F1CF089585
:100CA00081E0FDCF452B39F0682381E06F3F09F0EB
:100CB00080E08170089581E0FCCFDC016091210427
:100CC00080912204962F891301C00895292F30E0C6
:100CD000F901EE0FFF1FE75EFB4F408151814A177C
:100CE0005B07A1F487E08A9FA0018B9F500D112420
:100CF0004F515C4F81E0FA0184839613E6CF2F5F5A
:100D00003F4F237033272093210408952F5F3F4FD7
:100D1000922F9370D8CF10927E0310927D03E1EE54
:100D2000F3E08581811102C014821682379684E037
:100D3000E931F807B1F70895B0E0A0E0E2EAF6E0A3
:100D40000C9470308FEF9FEF4430510508F469C068
:100D50004091430441FB882780F990E0880F991F58
:100D600042FB002700F910E0000F111F000F111FB8
:100D7000802B912B40FBCC24C0F8D12C8C299D29B1
:100D800043FB222720F9C22FE0E0DE2F53E0CC0FF7
:100D9000DD1F5A95E1F78C2B9D2B44FBAA27A0F968
:100DA000B0E0E4E0AA0FBB1FEA95E1F78A2B9B2B8A
:100DB00045FBEE27E0F9F0E0A5E0EE0FFF1FAA9556
:100DC000E1F78E2B9F2B46FB222720F930E0B6E07F
:100DD000220F331FBA95E1F7822B932B47FB222773
:100DE00020F930E03695322F222737952795822B30
:100DF000932B20914404322F3170F32EE82EF92AE0
:100E000026952170B22EBB0CA82EBF28C501BB0CA5
:100E1000AA0BBB0BFB0180839183A283B38390E079
:100E200080E0CDB7DEB7EAE00C948C30E5E5F3E086
:100E3000848195812AE030E0B9010E9433306093CB
:100E40001601868180931501828580931401848523
:100E50008093130186859785B9010E943330609392
:100E60001201808980931101828980931001848905
:100E700080930F01089580915503909156039093AC
:100E800018018093170108950E9467059C019091B5
:100E9000510280915202982B21F030934E02209300
:100EA0004D029091530280915402982B21F030937F
:100EB0004C0220934B02E0913A04F0913B043097AE
:100EC00049F082E080934F020480F581E02D8FE4A9
:100ED00092E00995089590915102803F59F48091D4
:100EE000520287FF0DC01092520291110BC0109256
:100EF000490208C0813F81F48091520218169CF388
:100F0000992381F08091530290915402892B09F02A
:100F100064C0109248020895823F49F497FFF0CFD1
:100F200010925102809152028111ECCFE0CF833FA9
:100F300019F41916ACF3E4CF20915302893F29F438
:100F40001216F4F610925302DBCF8A3F19F427FFF2
:100F5000D7CFF8CF209154028B3F29F427FFD0CF71
:100F600010925402CDCF8C3F19F41216CCF3C8CF97
:100F7000843F31F4809150028E7F80935002C0CF25
:100F8000853F21F4809150028D7FF7CF863F21F479
:100F9000809150028B7FF1CF873F21F480915002E6
:100FA000877FEBCF883F21F4809150028F7EE5CF81
:100FB0008D3F31F480914A028E7F80934A02A0CF08
:100FC0008E3F21F480914A028D7FF7CF8F3F09F049
:100FD00097CF80914A028B7FF0CF089580914A028B
:100FE00080FF0CC06091100170E075956795759554
:100FF00067956115710549F1862F089581FF06C037
:101000006091100170E075956795F3CF60911001C4
:1010100082FD0BC0909148029923A1F060910F01CD
:1010200080911001961738F0682F70E060387105D4
:1010300000F38FE70895899FC001112470E00E949A
:101040004730F4CF61E070E0D7CF81E00895809120
:101050004A0260915D0370915E0380FF16C020918B
:101060001401269FC001279F900D1124BC01769585
:101070006795769567956038710508F043C06115EE
:10108000710509F441C0862F089581FF0BC020919E
:101090001401269FC001279F900D1124BC01769555
:1010A0006795E9CF82FF09C0809114019B01829F5F
:1010B000B001839F700D1124DECF209149022223BD
:1010C000D1F29091130180911401482F50E029171B
:1010D00048F0CB01849FB001859F700D949F700DE7
:1010E0001124C9CF289F90011124269FA001279F7A
:1010F000500D369F500D1124692F70E0CA010E94D7
:101100003330B9CF8FE7089581E00895803F31F4FF
:101110000E9427088195809352020895813F19F417
:101120000E942708F8CF823F31F40E94270881955A
:10113000809351020895833F19F40E942708F8CF45
:10114000893F29F40E94EE078093530208958A3F55
:1011500021F40E94EE078195F7CF8B3F31F40E9476
:10116000EE0781958093540208958C3F19F40E94F4
:10117000EE07F8CF843F31F4809150028160809374
:1011800050020895853F21F4809150028260F7CF8C
:10119000863F21F4809150028460F1CF873F21F493
:1011A000809150028860EBCF883F21F480915002FB
:1011B0008061E5CF8D3F31F480914A028160809358
:1011C0004A0208958E3F21F480914A028260F7CF4F
:1011D0008F3FB9F780914A028460F1CF80E0089593
:1011E000F894E82FE295EF70F0E031A1282F2F70EE
:1011F00081E090E001C0880F2A95EAF7982F90953A
:10120000932391A392A1892B82A37894089590911E
:10121000430492FF06C0282F28712830F9F4877FF5
:10122000846093FF06C0282F28712831F1F4877E4F
:1012300084612091440420FF06C0382F3871383073
:10124000D9F4877F816021FF06C0282F28712831BB
:10125000D1F4877E816194FD877E0895282F2471C3
:101260002430F9F68B7F8860DCCF282F247124315D
:1012700001F78B7E8861DDCF382F3171313019F75E
:101280008E7F8860E0CF282F2171213121F78E7E5B
:101290008861E1CFCF93DF93EC0182389105B1F102
:1012A00008F040C08133910509F49DC048F58932AA
:1012B000910509F48DC08A9709F49CC0C11521E5F8
:1012C000D20708F0C3C0C11530E5D30708F01EC12E
:1012D000C83ED10508F0A3C0C13ED10588F5C83A83
:1012E000D10508F08EC0C53AD10508F007C1C1305C
:1012F000D10531F1209721F1C430D10508F545C061
:101300008533910509F45FC0C997C1F68091430404
:10131000837009F044C18091440483FF11C0C9E285
:10132000D0E00EC0833E910599F170F4803E9105A6
:1013300001F1823E910511F68091430482FD21C0A6
:10134000CE01DF91CF910895863E910561F1873EF0
:10135000910571F1843E910509F0B0CF809144046C
:1013600081FFEECF80914304C7EED0E084FD0DC035
:10137000E7CF8091430480FD33C09091440490FFF7
:10138000DFCFC3EED0E084FFDBCFD0E0C0E0D8CF2A
:101390008091430482FD00C19091440490FDFFC000
:1013A00084FFCECFF2CF8091430483FDDDCFC8CF41
:1013B0008091430483FDF6C09091440491FFF0CFE7
:1013C000C4EED0E0BDCF8091430485FFB9CFA7CF55
:1013D0008091430485FDE9C08091440483FFB0CF30
:1013E000C9E3D0E0ADCF8091430486FFA9CFCAE224
:1013F000D0E0A6CF8091430486FFA2CFC1E3D0E026
:101400009FCFCF3BD10508F6C85AD0E0CC0FDD1FE7
:10141000C95DDE4F0990D881C02DD46491CFC1152C
:1014200040E2D40758F4C11581E0D80708F088CF0E
:10143000C03FD10508F4A9CFD06582CFC11520E403
:10144000D20708F4A2CFDF70D06A7ACFC11535E594
:10145000D30718F5C11544E5D40708F085C0C115B8
:1014600083E5D80708F06CC0C11522E5D20708F45F
:1014700062C0CE018370992721E030E002C0220FC4
:10148000331F8A95E2F7C695C69580E2C89FE001B2
:101490001124C22BD32BDC6853CFC11539E5D307F8
:1014A000A8F4C11548E5D40708F063C0C11586E566
:1014B000D80708F06ACF8C2F0E940709C82FD0E008
:1014C000DC2FCC27CC27DF71D0623ACFC1152AE5BB
:1014D000D20708F453C0CE0190568115904208F00F
:1014E00054CF8D2F8F710E94070990E0982F882785
:1014F00088279F719C012C2BE901E6CFC55AD0E0CB
:10150000CC5DDE4FC881D0E0D0641ACF2C2F269559
:101510002695237040E2249F900111248C2F837024
:10152000C1E0D0E002C0CC0FDD1F8A95E2F7C22BEC
:10153000D32BDD6805CFDC2FCC27C16FD06A00CF5D
:10154000CE018370992721E030E002C0220F331FC3
:101550008A95E2F7C695C69540E2C49FE001112442
:10156000C22BD32BDA68ECCEDC2FCC27C46FD06A29
:10157000E7CEDC2FCC27C06FD06AE2CE8C2F8F70E5
:101580000E94070934E0D695C7953A95E1F7CF70E8
:101590009C2FEC01D069D4CEC2EED0E0D1CEC0EE0B
:1015A000D0E0CECEC6EED0E0CBCEC5E3D0E0C8CE04
:1015B00080911D02882331F010921D0210921C02AE
:1015C00010921B020895CF93C82F8091440482FF8C
:1015D0000CC080911D028C1741F00E94670590930A
:1015E0001C0280931B02C0931D02CF910895809529
:1015F0009091340398239093340308951092FA0144
:101600001092F9011092F80108958091570390917A
:101610005803892B89F00E94670520911B023091A5
:101620001C02AC01421B530B81E020915703309107
:1016300058034217530708F480E081700895909191
:101640001B019923D1F09091430497FF16C0E82F16
:10165000E695E695E695EE31E0F4F0E0EA58FE4FC7
:10166000282F277081E090E001C0880F2A95EAF7C3
:1016700080959281892382830895E8E7F1E0919132
:10168000891303C0DF0111971C9291E0EE37F9072F
:10169000B1F708952091F7019091B601291302C086
:1016A00080E0089530E0F90153E0EE0FFF1F5A95F6
:1016B000E1F7E954FE4F5181561306C0508158138B
:1016C00003C05281541304C02F5F3F4F2770E6CFF1
:1016D00081E008958091F7019091B601981301C0BF
:1016E00008958F5F8770FACF292F943078F58B306B
:1016F00068F590E03BE0239F800D911D1124682F39
:10170000677023E0969587952A95E1F7FC01EE0F27
:10171000FF1FE80FF91FE456FE4F50E040E080E065
:10172000219130E0062E02C0369527950A94E2F703
:1017300021703327042E01C0220F0A94EAF7822B6E
:101740004F5F5F4F4330510559F7089580E008958A
:10175000292F943098F58B3088F590E03BE0239F5B
:10176000800D911D1124282F277041E001C0440FE6
:101770002A95EAF723E0969587952A95E1F7FC01EB
:10178000EE0FFF1FE80FF91FE456FE4F30E020E098
:1017900070E05191DF011197CB01022E02C09695A6
:1017A00087950A94E2F781708195852784238527A0
:1017B0008C932F5F3F4F2330310559F70895929551
:1017C0009F70963091F058F4925F9F70923058F469
:1017D000803F19F030F4883E30F481E008959A5F3C
:1017E000F4CF843FD1F380E00895883EB0F3813F89
:1017F000D1F7F3CF9C013A9521153F4150F5FC01FB
:10180000EE27F170BC0166277270AC01442754705A
:101810009C012227387094FF0EC080E1EF2B09F461
:1018200080E0672B09F08062452B09F08064232B50
:1018300089F08068089581E0EF2B09F480E0672B40
:1018400009F08260452B09F08460232B19F0886031
:10185000089580E008958093450470934704609351
:10186000460480916D048430F9F48093E9008FEF91
:101870009091E800815095FD06C095ED9A95F1F79D
:1018800000008111F5CF8091E80085FF0DC050E088
:1018900040E063E070E085E494E00E9414048091ED
:1018A000E8008E778093E8000895BC0184E00E94F0
:1018B0002B0C0895BC0183E00E942B0C08959C0121
:1018C00084E08093E9009FEF8091E800915085FDCE
:1018D00006C085ED8A95F1F700009111F5CF809152
:1018E000E80085FF0CC050E040E066E070E0C90110
:1018F0000E9414048091E8008E778093E800089598
:10190000CF93DF93EC0180911B018823B1F180918B
:10191000430487FF32C060E284E08093E9008FEFE8
:101920009091E800815095FD06C095ED9A95F1F7EC
:1019300000008111F5CF8091E80085FF1BC08091E8
:101940001B0170E050E040E0811104C050E040E035
:1019500068E070E0CE010E9414048091E8008E7768
:101960008093E80080E2FE01ABE4B4E001900D92C8
:101970008A95E1F7DF91CF91089568E081E0CDCFBE
:1019800081E08093E00080E28093D8001092C9004B
:101990008FE19EE40197F1F700C0000087E090EB33
:1019A000DC0180937C0490937D04A0937E04B0932B
:1019B0007F0488E19CE00FB6F894A89580936000BE
:1019C0000FBE90936000FFCF019708F40895EFE9F0
:1019D000FFE03197F1F700C00000F6CF0F931F939F
:1019E000CF93DF9305E513E0CFEDD1E0CE010E9468
:1019F000D530F80181938F012196C330F2E0DF07E3
:101A0000A9F7C0EBD4E0FE0185919491009711F005
:101A1000FC0109952C96F5E0CC3ADF07A1F7DF91A0
:101A2000CF911F910F9108950F931F93CF93DF9341
:101A3000853030F5643020F54B3010F5C42FD0E000
:101A4000CC0FDD1F26E1629FC00DD11D112438E5AA
:101A5000839FC00DD11D1124CE0187960E94D530E1
:101A6000082F10E0102F0027CE0188960E94D53055
:101A70009801282BC901DF91CF911F910F910895F3
:101A800090E080E0F8CF462F20913203309133036D
:101A9000232B99F4703F39F4603F79F4809130033F
:101AA000909131030895853040F4743030F46B30F8
:101AB00020F4672F0E94140D089590E080E00895AF
:101AC000CF92DF92FF920F931F93CF93DF936C011E
:101AD0000091770480911E02082BC7E0D0E010E04F
:101AE000FC2EC8010C2E02C0959587950A94E2F74A
:101AF00080FD0CC02197A0F7F12C8F2DDF91CF91A5
:101B00001F910F91FF90DF90CF900895B6018C2F19
:101B10000E94430D0E944A09019761F3EECFCF93D3
:101B2000DF93EC010E94600DBE010E94430D0E94F4
:101B30004A09DF91CF910895CF93DF93EC014B8158
:101B40005C81698188810E945206811110C08E815A
:101B50009F81009739F00E944A090E94DF0BDF91B4
:101B6000CF910895888199810E948F0DF6CF80E0F2
:101B7000F6CFA5E0B0E0EFEBFDE00C9477304983C1
:101B80005A8389819A81662399F0222389F00E94E1
:101B9000600D182F682F89819A810E94A80B698196
:101BA0007A81812F0E94430D2596E3E00C949330B7
:101BB0000E94740B182FF3CFFC01262F868197818A
:101BC000009739F4408151816281738184810E9440
:101BD000B90D089583E290E00E94D530853289F4F2
:101BE00084E290E00E94D5308D3E59F485E290E089
:101BF0000E94D53091E0833909F090E0892F8170FF
:101C0000089580E0FCCFCF9384E090E00E94D5302F
:101C1000C82F82E290E00E94D530982F8C2FCF9170
:101C20000895DB01FC013296259134914217530748
:101C300058F0FC01349665917491A901CD010E9480
:101C4000B53090E080E008958FEF9FEF08950F93F7
:101C50001F93CF93DF9305E513E0CFEDD1E0CE01E5
:101C60000E94D530F80161918F01681719F0CE01FB
:101C70000E94E3302196C330F2E0DF0781F7DF9165
:101C8000CF911F910F910895DA019C012E5F3F4F74
:101C9000F90145915491F90125913491A217B307A7
:101CA00058F0FC013496859194910E94B5300E94C1
:101CB000270E90E080E008958FEF9FEF0895CF9377
:101CC000DF93C3EAD2E060E0CE010E94E3302196C8
:101CD000C11584E0D807B9F7DF91CF9108951F931C
:101CE000CF93DF93122F8530E0F46430D0F44B3083
:101CF000C0F4C42FD0E0CC0FDD1F96E1699FC00D6A
:101D0000D11D112498E5899FC00DD11D1124632F89
:101D1000CE0187960E94E330612FCE0188960E9403
:101D2000E330DF91CF911F910895CF93C82F6FEFCC
:101D3000811165E283E290E00E94E3306FEFC11110
:101D40006DEE84E290E00E94E3306FEFC11163E931
:101D500085E290E00E94E330CF910895CF93C92FA0
:101D6000682F84E090E00E94E3306C2F82E290E0E4
:101D70000E94E330CF910895AAE0B0E0E2ECFEE0EB
:101D80000C946E3008EB12E086EAC82E82E0D82E62
:101D900093E5E92E92E0F92E27E0922E35EAA32E64
:101DA00032E0B32E88248394D6010D931D936D01E8
:101DB0004AE050E0B701CE0101960E94C530F8011B
:101DC0003896DF01892D1D928A95E9F789819A81DC
:101DD000D80111969C938E938F8112968C931297B3
:101DE0008D8113968C931397888514968C931497F2
:101DF000898515968C9315978B819C8117969C935A
:101E00008E93169718961C9218978A8587FF3CC068
:101E10001E961C921E921D9780FF03C0D801189633
:101E20008C9281FF04C0F80190859260908782FFB8
:101E300007C0D80118969C911897946018969C93A7
:101E400083FF04C0F80190859860908784FF07C0E5
:101E5000D80118969C911897906118969C9385FFCD
:101E600004C0F801808580628087015F1F4FFAE01F
:101E7000EF0EF11C83EAE81682E0F80609F094CF31
:101E80002A96ECE00C948A30F801B686A586C4CF79
:101E9000AAE0B0E0EEE4FFE00C947230E5E5F2E099
:101EA00080E5DF011D928A95E9F7E1EEF3E088E332
:101EB000DF011D928A95E9F785E5C82E82E0D82ECC
:101EC0007F0103E012E0F701D182C0824AE050E0D6
:101ED000B801CE0101960E94C53088E0FE0131961E
:101EE000D60101900D928A95E1F789859A85D701EF
:101EF00013969C938E931297BAE0CB0ED11CE7E019
:101F0000EE0EF11C065F1F4F0335F2E01F07D9F6F6
:101F10002A96E8E00C948E30A8E0B0E0E2E9FFE019
:101F20000C946E308E010F5F1F4F88E0F801119204
:101F30008A95E9F795E5E92E91E0F92E6801AA2442
:101F4000A394B12CF70181917F018F3F09F446C022
:101F5000F894E82FE295EF70F0E021A18F70A501D1
:101F600002C0440F551F8A95E2F7CA01922F982BA1
:101F700091A392A18095892382A3789400C0E9E57A
:101F8000F1E021E030E0912C812C41914F3F09F4A8
:101F900067C0A42FA295AF70B0E090968C9190E0AE
:101FA0004F7002C0959587954A95E2F780FD58C01D
:101FB000C901882A992A220F331F51E0E436F50718
:101FC00021F7F701319780818F3F11F00E94F008CF
:101FD00080EA8A95F1F7F60191828082F2E0CF0ED5
:101FE000D11C49E5E41641E0F40609F0ABCF48E026
:101FF00050E0B80182E292E00E94A830892B99F16A
:1020000088E0F801A2E2B2E001900D928A95E1F732
:1020100081E0809321020E946705909320028093C3
:102020001F0280911F02909120020E944C0505978B
:10203000F0F048E050E062E272E080E492E00E945A
:10204000A830892BC9F088E0E2E2F2E0A0E4B2E037
:1020500001900D928A95E1F781E01092210208C06B
:1020600090E080E0A6CF809121028111DACF80E05C
:102070002896ECE00C948A3080E0EFCFCF938091EB
:10208000340390917804892B8093760180911D020E
:10209000882329F18091570390915803892B29F0C7
:1020A0000E94050B81110E94D80A809176019091BF
:1020B0001D02892B8093760180911B01882309F4EE
:1020C00047C08091430487FF43C08EE1E8E7F1E019
:1020D00090E0815008F03EC091110E94D80AC09152
:1020E0003104C09580917601C82380913204C82BB9
:1020F000C093760140E250E06BEF71E086E791E03B
:102100000E94A830892B11F180E2E6E7F1E0ABEF05
:10211000B1E001900D928A95E1F7E0913A04F091D7
:102120003B04309799F080911B01882349F08091FE
:10213000430487FF05C0C093770186E08093760152
:102140000280F381E02D86E791E00995CF91089513
:1021500086E0BCCF2191222309F4BBCF9F5FB9CF8A
:1021600080911901877F80931901909178049D7F58
:102170009093780484FF08C08F7E8093190180912A
:1021800034038260809334038091190185FF08C075
:102190008F7D809319018091340380628093340392
:1021A0000E943E10089590E080E00E94BE0590E0FD
:1021B00080E00E94A805109278040E943E1086E0FC
:1021C000EFE4F2E0DF011D928A95E9F710924902EF
:1021D0001092480210924A020E9444070895809388
:1021E00077040E94D310089580917704982F9670F9
:1021F000963021F488600E94EF100895877FFBCF0E
:1022000021E030E001C0220F8A95EAF72095809105
:10221000770482230E94EF1008959091FA0180952F
:1022200089238093FA01282F277091F4282F082EF4
:10223000000C330B9217130659F09091440492FF4F
:1022400007C08595859585950E9400110E94FE0A1C
:1022500008959091440492FB222720F9281769F0F1
:1022600080FB92F99093440480914304909144043C
:102270000E94AE0E82E00E940D11089521E030E030
:1022800001C0220F8A95EAF780917704822B0E9481
:10229000EF1008959091440492FF10C098E0899F38
:1022A00090011124622B6093FA010E943E110E945A
:1022B00067059093F9018093F80108950E943E11FB
:1022C000089580931E020E94D31008951092340343
:1022D00080911B01E8E7F1E0882361F080914304DD
:1022E00087FF08C08EE1DF011D928A95E9F70E9401
:1022F000D310089586E0F7CFAAE2B0E0E2E8F1E17A
:102300000C9477308FE694E02091F100DC012D935E
:10231000CD01B4E087379B07B9F780917004833013
:1023200009F472C0B8F4813009F449C0823009F46C
:10233000B3C08091E80083FF96C280916F049091B2
:1023400070049A3008F08FC2E92FF0E0EF5DFE4C88
:102350000C945B308A3009F48EC08B3009F471C064
:10236000893039F780916F04813219F780917304B5
:1023700090917404009711F00297D9F68091E800CB
:10238000877F8093E8008091E80082FF38C09091B9
:10239000F3008091F200029731F48091F1008130D6
:1023A00011F0863021F48091F10080934A048091ED
:1023B000E8008B778093E8000E943E04BACF8091BA
:1023C0006F04813A09F0B5CF8091E800877F809350
:1023D000E8008091730490917404892B61F460E2A9
:1023E0008BE494E070E00E94EA048091E8008B772F
:1023F0008093E8009ECF60E090E080E0F3CF809192
:102400006D048111C0CF95CF80916F04813A09F09E
:1024100090CF8091730490917404892B09F089CF37
:102420008091E800877F8093E8008091E80080FF3A
:10243000FCCF80911B018093F1008091E8008E77A2
:10244000B9CF80916F04813209F073CF809173040A
:1024500090917404892B09F06CCF8091E800877FFC
:102460008093E8000E943E048091710480931B01D8
:102470000E9466115ECF80916F04813209F059CFBE
:102480008091E800877F8093E8000E943E0480915D
:102490007204809349044DCF80916F04813A09F012
:1024A00048CF8091E800877F8093E8008091E80022
:1024B00080FFFCCF80914904BECF803899F08238EC
:1024C00009F0D1C1809173048F70873008F0CBC1BF
:1024D0008093E9008091EB0085FB882780F91092BA
:1024E000E90006C080916B0490916C0491118260A8
:1024F0009091E800977F9093E8008093F10010920C
:10250000F1008091E8008E77AAC1882309F498C170
:10251000823009F0A8C18091710481119BC1809122
:1025200073048F702FEF280F263008F09CC1809322
:10253000E9002091EB0020FF8DC1933031F48091B0
:10254000EB0080628093EB0085C19091EB0090617D
:102550009093EB0021E030E001C0220F8A95EAF76A
:102560002093EA001092EA008091EB008860EACFA5
:10257000811179C1109171041F778091E3008078F7
:10258000812B8093E3008091E800877F8093E800AF
:102590000E943E048091E80080FFFCCF8091E30020
:1025A00080688093E30082E0111183E080936D04E2
:1025B0005AC18058823008F056C120917104309180
:1025C00072042C3DE3E03E07A1F583E08A838AE2B2
:1025D00089834FB7F894DE01139620E03EE051E284
:1025E000E32FF0E050935700E49120FF03C0E29501
:1025F000EF703F5FEF708E2F90E0EA30C0F0C7962B
:102600008D939D932F5F243159F74FBF8091E80040
:10261000877F8093E8006AE270E0CE0101960E9415
:10262000EA048091E8008B778093E8001CC1C09693
:10263000E7CF8091730490917404432F5527433062
:10264000510509F44AC078F54130510509F485C0B7
:102650008BE590E0E2EAF5E04230510509F003C174
:102660002091E800277F2093E800209175043091A5
:1026700076048217930708F49C0140E02115310588
:1026800009F070C041116EC08091E80082FDC9CF91
:1026900080916D04882329F2853019F28091E80039
:1026A00083FFF2CFBECF4132510509F447C0423219
:1026B000510509F0D8C08330910508F0D4C0FC0161
:1026C000EE0FFF1FE959FE4F0190F081E02D8C596C
:1026D0009E4FDC018C9190E01DC0332721303105E5
:1026E000E9F02115310579F022303105F9F0233078
:1026F000310509F0B8C0EFE0F6E0E4918E2F90E0EC
:10270000EFE0F6E007C0EFE5F6E0E4918E2F90E011
:10271000EFE5F6E0009709F4A6C0A2CFE5E4F6E005
:10272000E4918E2F90E0E5E4F6E0F4CFEDE2F6E000
:10273000E4918E2F90E0EDE2F6E0ECCF833091054E
:1027400008F091C0880F991FFC01E359FE4F0190DA
:10275000F081E02D89E090E083CF82E190E0EDEF21
:10276000F5E07ECF80916D04882309F45ACF85303F
:1027700009F457CF8091E80083FD53CF8091E800A2
:1027800082FD82CF8091E80080FF78CF9091F300A6
:102790008091F2002115310519F08830910550F033
:1027A00041E0089709F040E08091E8008E7780933F
:1027B000E80064CF44914093F100319621503109F3
:1027C0000196E8CF803809F04EC08091E800877FFD
:1027D0008093E80080916E048093F10092CE811185
:1027E00042C0109171041230F0F58091E800877FAB
:1027F0008093E80010936E040E943E04112311F0B0
:1028000084E005C08091E30087FDFACF81E08093EA
:102810006D0442E061EC81E00E945D0442E261EC03
:1028200084E00E945D0442E261EC82E00E945D046B
:1028300042E260EC83E00E945D0480916D0413C06D
:1028400080917104813079F481E0933009F080E067
:1028500080936C041092E9008091E800877F809358
:10286000E8000E943E048091E80083FF0AC0809146
:10287000E800877F8093E8008091EB00806280937E
:10288000EB00AA96E3E00C949330E5E5F3E0128EBA
:10289000138E8FEA90E09183808325E0248F88E86F
:1028A00093E1938382838AE090E09583848344E17B
:1028B00050E05783468348E050E051874087938734
:1028C00082876EE170E0758764879787868780E5E9
:1028D00090E0918B808B538B428B48E250E0558B7C
:1028E000448B42E350E0578B468B48EC50E0518FCD
:1028F000408F158E178E168E91A380A322A30E945F
:10290000270E0E9466111092440410924304E4E4DE
:10291000F4E080818460808380914304909144043A
:102920000E94AE0E0E94EE0C0895A4E1B0E0EBE927
:10293000F4E10C946D30A0900D01B0900E0181E097
:1029400090E090930E0180930D018EEEC82E82E0F0
:10295000D82E00E0760110E015C0F40125913491E5
:10296000472D612F802F0E946F0E82E0880E911CF0
:1029700073949BE07912F1CFE6E1EE0EF11C1F5F3C
:10298000143019F04701712CE8CF0F5FF8E5CF0E36
:10299000D11C0530F9F60E944514CE0101967C0148
:1029A0008AE0F70111928A95E9F703E012E04AE024
:1029B00050E0B801C7010E940731065F1F4F033581
:1029C000F2E01F07A1F77E018BE0E80EF11C8AE020
:1029D000F70111928A95E9F78FEF9FEF988B8F8718
:1029E00087E08C8B4AE050E0B801C7010E940731B4
:1029F000065F1F4F033AF2E01F07A1F7B0920E01E6
:102A0000A0920D016496EDE00C94893080E00E9464
:102A1000950E60E086E290E00E94E3300E949514FB
:102A20000E945F0E81E00E94950E0895CF92DF9282
:102A3000EF92FF928FEF9FEF4430510508F46AC088
:102A4000FB01C080D180E280F3800E9466118091FA
:102A50004304C0FA80F9B701A601769567955795AA
:102A6000479540FB81F9B701A60122E0769567956D
:102A7000579547952A95D1F740FB82F9B701A601F2
:102A800033E076956795579547953A95D1F740FB92
:102A900083F9B701A601E4E07695679557954795C8
:102AA000EA95D1F740FB84F9B701A601F5E07695E8
:102AB000679557954795FA95D1F740FB85F9B7018A
:102AC000A601A6E07695679557954795AA95D1F703
:102AD00040FB86F9B701A601B7E076956795579553
:102AE0004795BA95D1F740FB87F9809343048091CD
:102AF0004404D0FA80F9D1FACC24C0F8C0FA81F9A4
:102B00008093440480914304909144040E94AE0E4B
:102B100090E080E0FF90EF90DF90CF9008950E94CA
:102B200066112FEF84E39CE0215080409040E1F754
:102B300000C0000088E19CE00FB6F894A89580934F
:102B400060000FBE90936000FFCF882341F0809516
:102B5000909178048923809378040E943E10089510
:102B6000882339F090917804982B909378040E94F0
:102B70003E100895882321F00E94F70A0E943E101B
:102B80000895882339F090913403982B909334035F
:102B90000E943E100895882379F19CEF980F913A96
:102BA00028F40E941F0B0E943E10089590E2980F97
:102BB000983050F4877091E001C0990F8A95EAF738
:102BC000892F0E94F70AEFCF9BE5980F933028F4E6
:102BD00090E080E00E94BE05089598E5980F973137
:102BE00028F490E080E00E94A8050895803F20F03E
:102BF0000E946B070E9444070895FF920F931F9352
:102C0000CF93DF93F82E009136041091370401150D
:102C1000110509F449C01092350410923404109241
:102C2000310410923204D8011696CD91DC919E01A8
:102C30003A9521153F4108F4D07ED1E0C11101C081
:102C4000D0E0D8011996ED91FC911A97309731F0A8
:102C50001B966D917C9180E00995D823DD2339F096
:102C60008CEF8C0F813A30F58C2F0E941F0BFF20C8
:102C700099F0E0913604F0913704808584FD0CC012
:102C800080913304882341F0808191819C012150FF
:102C90003109203B3D45A0F00E943E1010923704C0
:102CA0001092360410923304C801CDB7DEB7E5E0C8
:102CB0000C9491300E943E108C2F0E94CB15D7CFE0
:102CC0000E94E105E9CFCF93DF93EC010E94CB1581
:102CD000CE010E94FA0B9E01205E31092830310599
:102CE00010F0CD2B29F40E94BA15DF91CF910895F1
:102CF0000E94A515FACFCF93C82F8823C1F18CEF7E
:102D00008C0F813AB0F580911B01882301F18091ED
:102D1000430487FF1CC0EC2FE695E695E695F0E0AE
:102D2000EA58FE4F828190E04C2F477021E030E05E
:102D300002C0220F331F4A95E2F782239323892B87
:102D400079F08C2F0E941F0B0E943E1009C0E8E70B
:102D5000F1E08191C817A9F381E0EE37F807C9F7D0
:102D60006C2F86E791E00E9473050E943E10CF9180
:102D7000089580E28C0F883068F4C77021E030E05D
:102D800001C0220FCA95EAF780913403822B809309
:102D90003403EBCFEBE5EC0FE33040F4F0E0EC5D17
:102DA000FE4F808190E00E94BE05E1CFE8E5EC0F88
:102DB000E73150F4F0E0EE0FFF1FE95DFE4F808138
:102DC00091810E94A805D3CFC03F88F28C2F0E942A
:102DD00086080E944407CBCF1F93CF93DF93182F11
:102DE000C0917503D0917603893321F0C0917303AC
:102DF000D0917403812F0E947B16209739F4812F84
:102E00000E94CB15DF91CF911F9108958FE99FE02C
:102E10000197F1F700C000002197EFCF0F931F93A8
:102E2000CF93DF93C62FD42F022FFC0182818823FA
:102E3000A9F060937B040E94670590937A048093C5
:102E40007904C77081E001C0880FCA95EAF70E9433
:102E5000C115DF91CF911F910F91089580917B044F
:102E6000681332C08091790490917A040E944C05D5
:102E7000883C910548F510E21D0FCD17B9F080E2AE
:102E80008C0F883040F4C77081E001C0880FCA956C
:102E9000EAF70E94BA15183048F481E09D2F977028
:102EA00001C0880F9A95EAF70E94C115802F0E94F1
:102EB000EC16183070F6D77081E001C0880FDA95F3
:102EC000EAF70E94BA15C5CFC77081E001C0880F2C
:102ED000CA95EAF7F6CFB0E0A0E0E1E7F7E10C949D
:102EE0007030EC018AE0A82E2881222309F48FC0DB
:102EF0002130C9F599818A81913021F422960E946E
:102F0000EC1605C0923029F422960E947B16219679
:102F1000EBCF933021F422960E94CB15F8CF94305A
:102F200011F02196F4CF229630E020E0AE014F5F01
:102F30005F4F8053990B8A30910550F02150310931
:102F400030F38FE99FE00197F1F700C00000F6CF62
:102F5000A29EB001A39E700D11249C01260F371F65
:102F60008981EA01E3CFE22FF0E0ED56F94FB4900A
:102F7000822F86958695869590E0FC01ED57F94F56
:102F8000E4902770F12C022E02C0F594E7940A9485
:102F9000E2F731E0E322FF24FC01ED58F94FC49041
:102FA000D12C022E02C0D594C7940A94E2F731E0E6
:102FB000C322DD24FC01ED59F94F049110E002C059
:102FC000159507952A95E2F701701127E114F10490
:102FD00019F081EE0E947B16C114D10419F086EE1F
:102FE0000E947B168B2D0E94EC16C114D10419F09F
:102FF00086EE0E94CB15E114F10419F081EE0E94D7
:10300000CB150115110509F482CF8CE278CFCDB72D
:10301000DEB7EAE00C948C30CF93DF93EC010E9492
:10302000FA0B9E01205E31092830310510F02097FF
:1030300041F40E94C1158C2F0E947B16DF91CF9125
:1030400008950E94B015F7CF662329F020917804E7
:103050002260209378049C013056211540E2340709
:1030600020F0305E2115304108F499270E940C1899
:103070000895B0E0A0E0EFE3F8E10C9473307C0138
:103080008B01D42E8091190182FF8CC0C0917B03EB
:10309000D0917C03CE15DF0521F0E114F10409F095
:1030A00081C0809119018B7F8093190181FD73C0CC
:1030B0008091790390917A03A801481B590B81E014
:1030C00020911701309118014217530708F480E04E
:1030D0008170F82E80911901F0FA81F9809319011D
:1030E000FE0183E0F695E7958A95E1F7EE71FF27FB
:1030F000EB5CFC4F20813181AE014F70552781E0A0
:1031000090E002C0880F991F4A95E2F7FF2009F46A
:1031100044C0822B932B918380838091340381FF61
:1031200008C08091190180618093190182E00E949A
:10313000F70A8091340385FF08C0809119018062ED
:103140008093190180E20E94F70A6F2DCE010E9440
:103150002418DD2031F08091700385FF02C086FFC6
:103160003BC080917303909174030E94E40C8091A2
:103170007B0390917C039C013056211540E234077B
:1031800020F0305E2115304108F499270E94631623
:103190000E94B0101DC081E09BCF80959095822346
:1031A0009323B9CFC701992797013056211540E2E3
:1031B000340728F0305E2115304108F0C7010E9425
:1031C000631680917B0390917C038E159F0501F31C
:1031D00010937A0300937903CDB7DEB7E7E00C9440
:1031E0008F3068EE7EEF90E080E00E94013160E079
:1031F00082E090E00E94E33060E083E090E00E9493
:10320000E33010921E0260E084E090E00E94E33020
:1032100064E082E290E00E94E33060E085E090E0CC
:103220000E94E33060E086E090E00E94E3306FEFC0
:1032300087E090E00E94E33040E050E0BA0188E08F
:1032400090E00E94F53060E08DE090E00E94E33075
:1032500040E050E0BA0188E190E00E94F53060E083
:1032600087E190E00E94E33040E050E0BA018CE159
:1032700090E00E94F53070E060E080E290E00E9413
:10328000013140E050E0BA0188E190E00E94F53061
:1032900080E00E94950E0E94061540E050E0BA01C1
:1032A0008FE090E00E94F53040E050E0BA0183E109
:1032B00090E00E94F5300895A7E0B0E0E2E6F9E181
:1032C0000C9468307C01DC0113964D915C9114974D
:1032D00011966C9111978C910E9452068111D3C066
:1032E00061E0C7010E94DC0D8C01F701528055207E
:1032F00009F483C782519F45409708F05CC78FEF60
:1033000093E00E94D5308111AEC07EEED72ED00E54
:1033100003EA12E0D11036C019821A821B821C8285
:1033200099249A9468012FEFC21AD20AC8010E9408
:10333000D53089831A82882309F495C0813009F039
:1033400087C0580132E0A30EB11CC6010E94D530DF
:10335000C82E8A83882309F486C0C5010E94D5300F
:10336000D82E8FEF8C0D8330D8F4580143E0A40E93
:10337000B11CDB82DD2021F0CE0101960E946B178B
:103380008501D0CF0115F4E01F0709F46CC0C80116
:103390000E94D530811101C0DA940F5F1F4FBACF60
:1033A0008BEF8C0D833070F5C8010396DB825C01D6
:1033B000DD2031F3580154E0A50EB11C0E94D53038
:1033C0008C838823E9F20B811C8101306FEF160793
:1033D00010F0102F002776E0C71681F087E0C8169E
:1033E00049F0C8010E94EC27809173039091740307
:1033F0000E94E40CC8010E94C727C2CFC8010E94E6
:10340000EC27BECF94E0C912BBCF5801A4E0AA0EAE
:10341000B11CC80103960E94D530DD2021F188231C
:1034200011F18150990B989E9001999E300D1124B5
:10343000ED2DE150FF0BCF01820F931F019708F490
:103440009FCFAFE9BFE01197F1F700C00000F6CFC2
:10345000CE0101960E946B17560192CF81E00E9427
:103460003E110E94F4108091FA01877061F0D7013B
:1034700012968C91882339F08091440482FF03C016
:1034800082E00E940D112796E2E10C94843081E0E5
:103490000E940011E6CF82E0E2CF82E0F9CF81E026
:1034A00080930001E0CF80954822D3C6552009F4CF
:1034B00056C610939701009396010E945B05609396
:1034C0002D0470932E0480932F0490933004109257
:1034D000350410923404BDC682FB882780F9FCC6EF
:1034E000552001F18170F8C60E94CB1581C7049761
:1034F000813A910558F46A2D86E791E00E947305A0
:10350000552009F4D3C50E943E10ADCF0E943E1055
:103510008FE39CE90197F1F700C000008A2D0E941B
:103520007B16EECF9D819F5F9D83ABC6FC01208102
:1035300031810217130709F0B2C55110B2C51092BC
:10354000330480E035C680911901816080931901B0
:10355000DAC5809119018E7F809319010E94B01005
:10356000D2C5809119018F7E013E110531F0053ED3
:103570001105C9F4809119018F7D80931901809103
:10358000190180FFCFC5D70112968C910832110521
:1035900028F50E31110508F074C00430110580F5CE
:1035A0008111BCC5BFC5C8019056811560E2960760
:1035B00020F0905E8115904110F78091190182FFF3
:1035C000B1C58091720381FDADC525E332E040E0D5
:1035D000B60190E080E00E943918A4C509331105B6
:1035E00058F40D32110518F40B321105C9F69091FB
:1035F000700392FDD5CF08C004361105C1F3D0CFBA
:103600009091700394FDCCCF882309F49DC09091D4
:10361000340380911D02282F292B322F3D7FB1F1D9
:1036200010927C0310927B033091700331FD2EC009
:10363000F80143E0F695E7954A95E1F7EE71FF272B
:10364000EB5CFC4F98012F70332781E090E002C0C3
:10365000880F991F2A95E2F78095909520813181F6
:10366000822393239183808360E0C8010E94241801
:1036700080911D028D7F0E94E30A82E00E940D115D
:10368000F2CE9091700393FD8BCFBECF38E0F7015F
:10369000A5E3B2E001900D923A95E1F7109237025E
:1036A0001092390210923802A0907B03B0907C03F4
:1036B0000A151B0591F53091700335FF2EC040911E
:1036C000190141FB992490F841FF02C036FF25C043
:1036D0004091790350917A03F601E41BF50BE83C25
:1036E000F105D8F491FF08C08091190180618093A1
:1036F000190182E00E94F70A8091340385FF08C017
:103700008091190180628093190180E20E94F70A7A
:10371000692DC5010E942418A6CE9091190121FBA4
:1037200091F9909319018D7F0E94E30A10937C0315
:1037300000937B03D0927A03C092790380911901A0
:1037400084608093190199CF970140E0B601C801C8
:103750000E94391888CE053F6CE5160709F460C051
:1037600008F45AC027E245EE66EE063F8CE51807DE
:1037700009F4F1C4D70112963C91332309F4DFC553
:1037800010927B040330BDE51B0708F050C00A3FD0
:10379000ECE51E0730F4C80182509C45449708F0C0
:1037A00052C00E94030E909344048093430402315C
:1037B0005CE5150709F48DC108F0DDC009307CE532
:1037C000170709F464C108F0A7C005309CE5190784
:1037D00009F451C108F08EC00330BCE51B0709F4A1
:1037E00042C108F044C18091430481600230FCE58D
:1037F0001F0709F4BDC080914304909144040E94C6
:10380000AE0E0E9466112FCE27E245EE65EEA3C4F0
:1038100026E241EE60EE9FC427E245EE64EE9BC4D3
:1038200026E241EE62EE97C428E241E0EFCF053A8E
:10383000FDE51F0709F4B5CF08F055C001364DE589
:10384000140709F4AECF06315CE5150709F47CC511
:103850000A359DE5190709F495C108F06EC10115F7
:10386000BCE51B0709F474C10E3D1C4509F47DC17C
:10387000F70186819781009709F488C10E944A095F
:10388000182F092FF701D280C580C2943FE0C322D0
:103890008091FA018770C1F0AD2CDD20B1F0892F45
:1038A000807F803421F080E2810F883068F0809141
:1038B000440482FF09C082E00E940D118091FA0148
:1038C0008770AA24A3948111A12C902E92942FE0AA
:1038D0009222FBE0F91508F4EDC1E92DF0E0E55D79
:1038E000FE4C0C945B30C8018D5A9D45039708F03F
:1038F000AACF57CF80914304806207302CE512078E
:10390000B9F180914304806108303CE5130780F1F0
:103910008091430480642CC00D304CE5140709F4F9
:10392000C0C090F4809143048E7F0B306CE5160785
:10393000F9F0809143048C600C307CE51707C0F0EF
:10394000809143048D7F14C00F308CE5180709F473
:10395000B8C008F4AAC00031ACE51A0709F4B5C034
:10396000809143048F7B0131BCE51B0709F043CFF5
:103970008093430440CF0F3FECE51E0709F4B3C02A
:10398000A8F50A3F2CE5120709F479C0C0F4043108
:103990004CE5140709F4B5C008F4A1C005316CE585
:1039A000160709F028CF8091430482FB992790F9EC
:1039B00021E0922790FB82F990FB83F9D9CF0C3F4D
:1039C0007CE5170709F475C008F45DC00D3F9CE560
:1039D000190709F472C08091440483600E3FACE57E
:1039E0001A0709F008CF8093440405CF0136BDE5DE
:1039F0001B0709F491C090F40130FDE51F0709F49D
:103A000089C008F474C060E002303DE5130709F096
:103A1000F2CE8EE090E00E94E330EDCE0D3A4DE51F
:103A20001407E9F060F490914304892F8E7F90FF92
:103A30008160053A6DE5160709F49ACFDCCE0E3A9F
:103A40007DE5170751F10F3A8DE5180709F0D3CE40
:103A500090914404892F877F93FF8860C4CF809121
:103A600044048860C0CF80914304826081CF8091FC
:103A7000430484607DCF80914304886079CF809136
:103A800044048160B0CF809144048260ACCF0E9436
:103A900066118091430480686BCF80914404877FD6
:103AA000A2CF809143048B7F63CF80914304877FB3
:103AB0005FCF809144048E7F96CF809144048D7FA8
:103AC00092CF809143048F7E53CF809143048F7DAA
:103AD0004FCF0E946611809143048F7749CF809128
:103AE0004304837F45CF809144048C7F7CCF8091B9
:103AF0004404982F909591708E7F892B90FB81F9CB
:103B000072CF0E94661190914304892F97FB87F929
:103B100080582ECF61E07DCF90914304892F8F7E16
:103B200094FF806125CF80919801811104C089E2C2
:103B30000E941F0BE8CC85E3FBCF0C35FDE51F078A
:103B4000B9F010F1073A1D4509F092CE0E948F1589
:103B50000E9466114FEF54E36CE0415050406040CA
:103B6000E1F700C000000E94C00C0E94F118EECFE7
:103B70008091440482FB882780F991E089270E9484
:103B8000291176CE81E0FBCF80E0F9CF82810081E0
:103B90001181882369F0C8010E94600DD82E682F1A
:103BA000C8010E94A80BB8018D2D0E94430D66CE5E
:103BB000C8010E94740BD82EF6CF202F2F70B22E82
:103BC000802F807F19F0B29490EFB922DD20B9F0F8
:103BD000BB2069F080E2810F883010F0111109C01C
:103BE00080913403B82AB09234030E943E10812F92
:103BF0005FC080917804B82AB0927804F6CF812F04
:103C00000E94CB15BB2009F455C080E2810F88309B
:103C100010F0111104C08B2D0E94F70A06C0B09459
:103C200080917804B822B09278040E943E1042C07D
:103C3000302F3F70B32E802F807F803219F0B294E6
:103C400080EFB822112321F1113009F4B0C0DD203A
:103C500009F4B9C0CC2009F481C020E0D7014C910F
:103C600011965C91119712966C91129713967C9114
:103C7000139714968C910E94B90D8091720381FD67
:103C8000B6CFF701858180FFB2CF8F70858366C084
:103C90008091440482FD42C0DD20D1F1BB2039F087
:103CA00080913403B82AB09234030E943E1080E021
:103CB0000E947B16692D6850770B6430710510F4F3
:103CC0000E94D405812F902F0E94DF0B8111C1C16A
:103CD00010929B0110929A01AA20A9F08091FA01FA
:103CE00080FD11C0F70112828595859585950E940A
:103CF0003E11C7010E945C198091FA018595859556
:103D000085950E94001160E0C7010E94DC0DBBCBCD
:103D100080E00E94CB15BB2069F27DCFDD2011F140
:103D2000C11004C080911D028B2919C041E0C4124A
:103D300006C080911D028B290E94E30ABBCF8091AF
:103D40007103823078F3C812EDCF0E94D80A9091A7
:103D500099018B2D892B8913809399018B2D0E94BA
:103D6000C115A8CFC11003C00E94D80A17C0809106
:103D7000710351E0C51216C0823008F49BCF8091C8
:103D800034038B2109F496CF0E94D80A90919901AF
:103D90008B2D809589238913809399018B2D0E9407
:103DA000BA1588CF823000F3C812DECF83CF80915E
:103DB0007703DD2021F08C1508F47CCFCFCFC81617
:103DC00008F078CFEBCFCC2049F380917503909128
:103DD0007603193321F080917303909174030E944C
:103DE000E40C812F0E94CB1565CF802F8695869598
:103DF000837069F0813009F05DCF812F902F93702F
:103E0000D11002C090E080E00E94A80553CF812F1E
:103E1000902F9370D11002C090E080E00E94BE0508
:103E200049CF812FDD2029F00E9486080E94440797
:103E300041CF0E946B07FACF802F837091F5D1108C
:103E400039CF412F429546954770440F440F812F3B
:103E50008F70042E01C0880F0A94EAF7212F207179
:103E600014FF07C02FE030E001C0220F4A95EAF7A7
:103E70002095302F369536953370323069F050F4F6
:103E800040911E02313029F0822B84230E9461115F
:103E900011CF842B822BFACF282B80911E028227F0
:103EA000F5CF8695DD2011F0802F8170882309F4ED
:103EB00001CF412F429546954770440F440F812F03
:103EC0008F70042E01C0880F0A94EAF7212F207109
:103ED00014FF07C02FE030E001C0220F4A95EAF737
:103EE0002095302F369536953370323069F050F486
:103EF00040917704313029F0822B84230E94EF1007
:103F0000D9CE842B822BFACF282B8091770482275D
:103F1000F5CFF02FFF70BF2EDD2029F08F2F0E94EC
:103F20003E11812F1CCF812F0E94BA158B2D0E942C
:103F30000011C0CE123F89F160F4103FB9F0113F7B
:103F400081F0DD2009F480C0C11051CE802F8F7127
:103F500028C0133F49F1143FA1F78091440482FD2A
:103F60002FC0802F8F71DD2011F31BC0809177034C
:103F7000DD2079F0C81608F09DCE202F2F7181E04A
:103F800090E001C0880F2A95EAF79091770489277D
:103F9000B5CF8C1508F48ECEF0CF802F8F71D11055
:103FA000C6CF0E943E1186CE80E0DD2009F4A6CF68
:103FB00081E0902F9F7101C0880F9A95EAF79ECFFC
:103FC00080917103823040F1DD20D1F09091FA01AF
:103FD0009770943041F40E94FE0A802F8F710E94E6
:103FE0000011A12C67CEC816E0F7202F2F71B22E3A
:103FF000822F0E943E1163E08B2D0E944A11F1CF67
:10400000C81630F00E94FE0A64E0802F8F71F5CF51
:1040100081E00E940D11E5CFDD2059F0302F3F7176
:10402000B32E832F0E943E1163E08B2D0E944A1114
:1040300041CE81E00E940D1141E04C1508F03ACECE
:1040400082E00E940D1136CEC110BFCE802F8F713D
:104050006ECFDD2019F0C1103BCE3ECEC11038CE60
:1040600020E0D7014C9111965C91119712966C91BA
:10407000129713967C91139714968C910E94B90D08
:104080008091720383FF24CE80919A0190919B01CD
:10409000029709F01DCE812F0E94EC1619CE5520F3
:1040A00029F0DC0118968C9185FF4BCA8091700332
:1040B00080FF38C00E9467056C01F7018281882368
:1040C00009F44FCA8091190182FF08C025E332E04C
:1040D00040E0B60190E080E00E9439180B31FCE529
:1040E0001F0709F430CA0C312CE5120709F431CA54
:1040F00090911901892F8E7F90FF81600A313CE5F4
:10410000130709F429CAC8019056811540E29407A3
:1041100028F0905E8115904108F031CA10927C031E
:1041200010927B03033FFCE51F0709F471CB08F0F5
:1041300012CB083D3CE5130709F466CB093D4CE57D
:10414000140709F471CB073D5CE5150709F012CBA4
:1041500026E241EE61EEC7010E940E1784C98091EC
:104160009601909197010817190781F41092970111
:104170001092960110922D0410922E0410922F048A
:104180001092300410923504109234048091360459
:1041900090913704009709F489CFA8E08A1691041A
:1041A00008F0C4C9642D0E94320681117FCF81E0DE
:1041B0000E94FD157BCF0031BFE51B0709F44EC9F6
:1041C0000131EFE51E0709F466C90F35EDE51E075D
:1041D00009F465C90036FDE51F0749F00E352DE5E8
:1041E0001207A1F480910001882309F458C91092A4
:1041F000000180E00E94FD1536C98031FFE59F0770
:1042000009F445C981319F4509F447C980910001EE
:10421000882309F44BCF480130EE831A910840906F
:104220001D0280919901482A80913403482A48E070
:104230008416910408F03AC998012770332781E069
:1042400090E001C0880F2A95EAF7552009F42BC9A0
:10425000482AD7018D919C910E94740B21E030E097
:10426000190102C0220C331C8A95E2F7E091360452
:10427000F0913704FF83EE83609096017090970170
:104280001D822D81E22FF0E0EE0FFF1FEA55FD4F5A
:10429000C080D180C114D10409F478CF411005C089
:1042A000D60112968C9181113DC9F601838190E06F
:1042B00082219321892B09F435C98085982F977025
:1042C00009F487E0F8E08F16910408F009C9552039
:1042D00009F402C986958170882309F423C9D6019F
:1042E000AD90BC900A151B0519F4552009F41AC9A4
:1042F000EE81FF81CE16DF0609F414C9D6011D96A2
:10430000ED91FC91309721F08081882309F40AC94E
:10431000642DC6010E943206882309F403C90A15D8
:104320001B0509F03FC00115110509F440C05110EB
:1043300040C0A614B70409F0F5C8512C3AC00631A4
:104340004CE5140709F094CA80913403982F9A7AA7
:1043500020916F0320FF04C0482F447409F090E0BF
:1043600021FF04C0482F417109F090E022FF04C0F2
:10437000482F487809F090E023FF03C0827209F0CB
:1043800090E0332309F4CFCB81E0911101C080E0AC
:104390008093980169E2911165E386E791E00E94BC
:1043A0007305B1C8A114B10409F0C3CF512CB12CCD
:1043B000A12C80E00E94FD15D0923704C0923604F3
:1043C00081E080933304D60115968C91809331045B
:1043D00051100EC0AB2861F0F601808191819C01E3
:1043E00024503109213A310508F07EC80E941F0B84
:1043F000D6011696AD90BC90C5019A9581159F4146
:1044000010F4E0EEBE2277247394C5010197803B3F
:104410009D4508F0712CD6011996ED91FC911A97E3
:10442000309731F01B966D917C9181E0099578224F
:10443000772079F0F601868197810E94FA0B8093AC
:104440003204C501F8E08F16910408F050C80E94AC
:10445000E1050E943E1054C8EF92FF920F931F9304
:10446000CF93DF938091B301807F09F04CC080919E
:10447000B001882309F447C0C091F701E090B6016C
:10448000D091AE01F090AF010091B1011091B20155
:10449000EC16C9F1A8016F2D8D2F0E9452062C2F0A
:1044A00030E0811135C0F90183E0EE0FFF1F8A95DE
:1044B000E1F7DF01A954BE4F11968C9111978F112E
:1044C00027C08C918D1324C012968C911297811164
:1044D0001FC013968D919C91801B910B883C910578
:1044E000B8F48091B3018F7080618093B301E4547C
:1044F000FE4F80818F70806180838EEA91E00E9400
:104500005C190E946A0BCDB7DEB7E6E00C949030E0
:104510002F5F3F4FC22FC770BBCFA5E1B0E0E3E9EB
:10452000F2E20C946A308C0185E0F801DE015196CC
:1045300001900D928A95E1F7D8016C9011967C90CC
:1045400011971296EC9012971396CD90DC9060E044
:104550008EEA91E00E94DC0D8EEAA82E81E0B82E52
:104560005090AE014090AF018090B1019090B201A7
:10457000A401642D852D0E94520681115CC1F0902A
:10458000B001960128193909FF2009F417C180915B
:10459000B301982F907F283C310508F0D2C0F80174
:1045A0002181911181C0FE2C24111FC09081951191
:1045B0001CC04091B4015091B5012681378142174A
:1045C000530799F4E11011C08F7080618093B3019B
:1045D000C5010E945C198091B301D80115968C9396
:1045E0008F2D6596E0E10C948630A601672D862D0F
:1045F0000E945206D82E81E08E25D11080E080FFE7
:1046000018C04E2D672D862D0E944A0B882389F0F5
:104610008091720380FF0DC08EEA91E00E945C19C8
:1046200088E0EEEAF1E0DF011D928A95E9F7F12CCE
:10463000D7CF81E08E25D11080E0B82FB170DB2E6E
:1046400080FF29C04E2D672D862D0E944A0BC82E53
:10465000811121C0698A7A8A89899A890E948F0D7D
:10466000292F22952F70223050F0243078F49F703B
:1046700051F0F8019581907F31F4FC2CB1CF9F70FF
:1046800011F08823D1F3805E8830B8F3C8010E940E
:104690005C19CD2CF2CFEE2009F4A2CF8091B301AA
:1046A00081608093B301C3CF24111BC09081951109
:1046B00018C04091B4015091B5012681378142174D
:1046C000530779F4E1100DC08583C8010E945C197D
:1046D00088E0F801AEEAB1E001900D928A95E1F729
:1046E0007FCFC8010E949C0D882339F1EE2029F16B
:1046F0008091B3018032A0F02091AE013091AF01E2
:104700003A8729871B86DD86CC868E878091B40107
:104710009091B501988B8F87CE0109960E945C1904
:1047200088E0F801AEEAB1E001900D928A95E1F7D8
:104730000E942C22FF24F39453CFC8010E945C19DD
:10474000F9CF992309F468CFF8019181941118C029
:104750009081951115C04091B4015091B501268109
:1047600037814217530761F4E1100AC08583C801FD
:104770000E945C1988E0D5011D928A95E9F730CF37
:10478000C8010E949C0D8823C1F2EE20B1F28091F5
:10479000B301803228F22091AE013091AF013A830B
:1047A00029831B82DD82CC828E838091B40190911B
:1047B000B50198878F83CE010196B0CF283C310593
:1047C000C8F6FE2CEE2009F4B8CFF80181818411DF
:1047D00024C08081851121C02091B4013091B501A0
:1047E0008681978128173907C1F48091720382FD71
:1047F0006FCF9091B30190FD6BCF907F09F468CF9C
:104800008091B3018583903F09F45FCF982F907F0B
:10481000905F8F70892B858358CFC8010E949C0DB3
:1048200081117ECF8091B30181608093B301C80173
:104830000E945C19D5CEEE2009F47FCFC8010E94FA
:104840009C0DF82E882309F478CF88E0F801AEEAB1
:10485000B1E001900D928A95E1F78091AE019091BF
:10486000AF010E948F0D0E942C22BACEA0E1B0E0D1
:10487000ECE3F4E20C94783029873A874B875C8725
:104880006D877E878F87988BCE0109960E948D2237
:1048900081112FC088E0FE013996DE01119601904A
:1048A0000D928A95E1F74C855D856A8589850E9420
:1048B000520681111EC0A091B601B0E0CD01019653
:1048C000877099272091F70128171906E1F093E0E6
:1048D000AA0FBB1F9A95E1F7A954BE4F98E0FE01BD
:1048E000319601900D929A95E1F78093B6010E945E
:1048F0006A0B8091F7019091B601891312C06096FE
:10490000E2E00C9494300E9466111092B60110926D
:10491000F70188E0EEEAF1E0DF011D928A95E9F700
:10492000E8CFB8E08B9FC001112489549E4F0E94AC
:104930008D22882321F38091F70190E00196877002
:1049400099278093F701D5CFEF92FF920F931F9392
:10495000CF93DF9380918003882361F0C0917F0320
:104960008CE0F82E80918003C81748F010928003E5
:1049700010927F03CDB7DEB7E6E00C949030EE24C2
:10498000E394EC0EE0927F030C2F10E0CF9DE0014A
:104990001124CF57DC4F4B815C81698188810E9453
:1049A000520681111DC08E819F81892B21F488853B
:1049B0009985019651F4288139814A815B816C8106
:1049C0007D818E819F810E943624F09EF001F19EB0
:1049D000F00D1124EF57FC4F1482138210927804CB
:1049E000CE2DC0CF109224041092230410921A01ED
:1049F00080912204809321040E948B060E94A424AB
:104A00000895B0E0A0E0E7E0F5E20C946930C091D1
:104A1000210497E0892E01E010E02CE0322E3EEFD9
:104A2000932E44244394809122048C1309C00E9445
:104A3000A4240E948B06CDB7DEB7E1E10C9485304B
:104A4000D0E0FE01EE0FFF1FE75EFB4F80819181FA
:104A5000889ED001899EB00D1124AF51BC4F149691
:104A60002C911497211158C050908003E1E8F3E095
:104A700030E020E0712C5D01251508F04BC0E28488
:104A8000F384D501CD90DC906FEF7FEF612C462D44
:104A900050E0DA01AA0FBB1FAC0DBD1D0D90BC91FB
:104AA000A02D109731F0EA16FB0609F4BA016394C1
:104AB000EECF6F3F7607A9F1D80102C0AA0FBB1F46
:104AC0006A95E2F77A2AB801062C02C0660F771FB2
:104AD0000A94E2F7AB014150510974161506F9F436
:104AE000329EF001339EF00D1124EF57FC4F889E4B
:104AF000D001899EB00D1124AF51BC4F12962D915B
:104B00003C91139737832683908291829187808787
:104B100015964C920E945D062196C37084CF148234
:104B200013822F5F3F4F3C96A7CFA9E1B0E0EBE99E
:104B3000F5E20C946830942F498B252F5A8B6B8BA0
:104B40007C8B8D8B4C895D89622F892F0E94520648
:104B5000811109C080919A0190919B0101969093D7
:104B60009B0180939A018B898111109278041D8694
:104B70001E861F86188A85E0FE017196DE01199651
:104B800001900D928A95E1F78091440482FF1EC046
:104B90008091570390915803892BC1F00E946705BB
:104BA0002091F8013091F901821B930B209157035A
:104BB000309158038217930720F08091FA0182FF09
:104BC000E2C10E94050B81110E94D80A4C855D85C7
:104BD0006A8589850E945206811111C061E0CE016B
:104BE00009960E94DC0D6C018B8527EFC2162CE51F
:104BF000D20681F4882321F181E080931A0129856E
:104C00003A854B855C856D857E858F8598890E9468
:104C10003624C6C038EFC3163CE5D30629F48823F2
:104C200079F00E94F224EBCF49EFC4164CE5D4068C
:104C300039F4882329F080911A018111F2CFDCCF59
:104C400001EE13E0512CB12CA12C22242394312C01
:104C50002EEF422EF8014081518188248A94982CAD
:104C600020E0822F90E0FC01EE0FFF1FE40FF51F04
:104C7000608171816115710531F0C616D70609F49E
:104C80004C012F5FEECFF12CFFEF8F169F0609F43A
:104C900049C0F8014481F0901A018F2D411180E044
:104CA000F82FF170FF2EF801E58086819B8599230E
:104CB00009F4F8C0FF2009F4F5C060906B03709010
:104CC0006C03E11013C0A101082C01C0440F0A9429
:104CD000EAF7842B868380917D0390917E0386156D
:104CE000970520F470927E0360927D03C10102C09B
:104CF000880F991F2A95E2F70197F8012681281756
:104D0000190681F48091230490912404009709F4FA
:104D10004BC00E944C056816790608F045C021E09A
:104D2000F80124835F28FFEFAF1ABF0A095F1F4F06
:104D300028E0A216B10409F08DCF8B85882309F4F1
:104D40000DC1552009F40AC10E94670590932404FF
:104D50008093230480918003883010F591E0980FB0
:104D60009093800398E0FE013996DE011196019040
:104D70000D929A95E1F73CE0839FC00111248F5773
:104D80009C4F28E0FE013196DC0101900D922A959E
:104D9000E1F72FEF3FEFFC0131872087D386C286F2
:104DA0006996E2E10C9484308091210450912204B0
:104DB000982FF0E0E0E0851314C090932104E017F1
:104DC000F10709F4AFCF90E0FC01EE0FFF1FE75EA3
:104DD000FB4FB182A08201968370992780932204B1
:104DE000A1CF682E712CF301EE0FFF1FE75EFB4F82
:104DF0002081318147E0429FD001439FB00D1124B3
:104E0000AF51BC4F6D917C911197798F688F40E0C5
:104E100020E030E0E32FF0E0EE0FFF1F688D798D8A
:104E2000E60FF71F8080918081149104E1F0F80172
:104E30000190F081E02DFF8BEE8B20E005C08616FF
:104E4000970609F44F2D2F5FE22FF0E0EE0FFF1FC2
:104E50006E897F89E60FF71F608171816115710589
:104E600071F73F5FD7CF4423D1F0F801231708F043
:104E7000FD0121E024830E171F0721F490932104E4
:104E8000F42E50CF981305C0AE17BF0711F49F5FE3
:104E9000937093012F5F3F4F822F83708CCFF0E090
:104EA000E0E0F7CF90E0E11020C0B10102C0660F52
:104EB000771F2A95E2F79B0121503109821793074A
:104EC00031F4442309F448C0C5010E945D06C101C4
:104ED000082C01C0880F0A94EAF7982F9095F801E2
:104EE000868189238683FE2C1DCF9C01082C02C05D
:104EF000359527950A94E2F7A90141705527BC0121
:104F00006150710986239723892B11F5452B01F1F7
:104F1000F80182819381892BC1F01B821C821D8242
:104F20001E8249824A820E9467058160582F9D83B4
:104F30008C83F801828193818F83988729813A81BC
:104F40004B816D817E810E943624F8011582BFCF8E
:104F5000F22FF170EF2EBBCFEF2CB9CF909121043F
:104F600080912204981731F00E940125552009F400
:104F700046CE16CF0E94A42410922404109223043B
:104F80000E948B06F3CF82E00E940D111ACEA5E09D
:104F9000B0E0EDECF7E20C9478309093310380931D
:104FA0003003811520E2920730F40E9463162596A3
:104FB000E2E00C94943080EF89838A831B820E9404
:104FC00067058160782F9D838C8349815A816B812D
:104FD0008D810E949525EBCFA5E0B0E0E2EFF7E2EE
:104FE0000C9478309093310380933003811520E244
:104FF000920730F40E940C182596E2E00C9494304D
:1050000080EF89838A8381E08B830E9467058160BA
:10501000782F9D838C8349815A816B818D810E9479
:105020009525EACF1F920F920FB60F9211242F935E
:105030003F934F935F936F937F938F939F93AF9320
:10504000BF93CF93DF93EF93FF93D091E900DF708D
:105050008091EC00C82FC17080FDC0E81092E9007B
:105060008091F000877F8093F00078940E947C11FB
:105070001092E9008091F00088608093F000CD2BC1
:10508000CF70C093E900FF91EF91DF91CF91BF9175
:10509000AF919F918F917F916F915F914F913F91D0
:1050A0002F910F900FBE0F901F9018951F920F9287
:1050B0000FB60F9211242F933F934F935F936F93EB
:1050C0007F938F939F93AF93BF93EF93FF938091C1
:1050D000E10082FF09C08091E20082FF05C080915B
:1050E000E1008B7F8093E1008091DA0080FF24C093
:1050F0008091D80080FF20C08091DA008E7F80935D
:10510000DA008091D90080FF9DC080E189BD82E1F5
:1051100089BD09B400FEFDCF81E080936D048091CC
:105120004804811109C00E94C4030E948F04809129
:10513000E20084608093E2008091E10080FF17C06C
:105140008091E20080FF13C08091E2008E7F809307
:10515000E2008091E20080618093E2008091D800BB
:1051600080628093D80019BC85E080936D048091A3
:10517000E10084FF2BC08091E20084FF27C080E122
:1051800089BD82E189BD89B5982F917080FFFBCFE1
:105190008091D8008F7D8093D8008091E1008F7E30
:1051A0008093E1008091E2008F7E8093E200809105
:1051B000E20081608093E20080916E04882309F40C
:1051C00047C084E080936D0480916D048091E1007C
:1051D00083FF27C08091E20083FF23C08091E1001C
:1051E000877F8093E10082E080936D0410926E04CB
:1051F0008091E1008E7F8093E1008091E2008E7FBC
:105200008093E2008091E20080618093E20042E0BE
:1052100060E080E00E945D048091F00088608093EF
:10522000F000FF91EF91BF91AF919F918F917F918E
:105230006F915F914F913F912F910F900FBE0F9003
:105240001F90189519BC10926D041092480474CFE9
:105250008091E30087FD93E090936D04B5CF78943F
:105260001F921FB61F9211248F939F93AF93BF93EA
:1052700080913F0490914004A0914104B091420478
:105280000196A11DB11D80933F0490934004A0930B
:105290004104B0934204BF91AF919F918F911F90B1
:1052A0001FBE1F9018951F921FB61F9211248F9337
:1052B0009F93AF93BF9380913E04811113C080915F
:1052C0003F0490914004A0914104B0914204419662
:1052D000A11DB11D80933F0490934004A09341040D
:1052E000B0934204BF91AF919F918F911F901FBEC9
:1052F0001F901895CDB7DEB7E4970FB6F894DEBFD0
:105300000FBECDBF85B7806885BF85B7806885BF74
:1053100084B7877F84BF0FB6F894A895809160000A
:10532000886180936000109260000FBE80E890E07A
:105330000FB6F89480936100909361000FBE8EEEDB
:1053400098E090937501809374010E94480F0E9429
:10535000BC0E0E94EE0C0E94C4030E948F04809138
:10536000E20084608093E200789480916D04882349
:10537000A1F01091E9001F709091EC00892F8170CD
:1053800090FD80E8182B1092E9008091E80083FDE1
:105390000E947C111F701093E90082E084BD93E0AD
:1053A00095BD9AEF97BD80936E000E94EA0D811122
:1053B00002C00E94061581E30E94F00883E30E9468
:1053C000F00882E30E94F00886E30E94F00809E5F5
:1053D00011E084E6E82E81E0F82ED8018D918D0150
:1053E0008F3F11F00E94F008E016F106B1F788E057
:1053F000E0E4F2E0DF01282F1D922A95E9F7E2E2CE
:10540000F2E0DF011D928A95E9F790E080E00E94CA
:10541000DD30883E9E4F21F40E94EA0D811102C0CA
:105420000E94F11882E090E00E94D53080932C0217
:105430000E94030E90934404809343040E948C0FB7
:10544000EFEFF6E721E0E150F0402040E1F700C047
:1054500000000E948C0F8091400280FF08C06FEF17
:105460007FEF90E080E00E9401310E94C00C83E059
:1054700090E00E94D5300E94611181E091E090930C
:105480003B0480933A0410E4212E552453948E015A
:105490000F5F1F4F80916D04A0E1EA2EB2E1FB2E59
:1054A000853009F48EC00E948C0FEDE28E2EE2E072
:1054B0009E2EF0E46F2EF2E07F2ED301F4012191B5
:1054C00031918D919D9142E0E533F40709F483C059
:1054D00028173907A1F3412CD301ED90FD903D0130
:1054E000F401A190B1904F01AE14BF0459F1AE2464
:1054F000BF24312CCC24C394D12CC5018C219D21F7
:10550000892BB1F038AA49AA21E0C7018C219D213D
:10551000892B09F420E02AAB0E9467058160782F6F
:105520009CAB8BAB48A959A96AA98CA90E94952567
:105530003394CC0CDD1CFBE03F12DFCFF40132973B
:10554000F182E082439424E04212C6CF0E945B05C0
:1055500064C080916D04843019F110923E0488E19A
:1055600090E00FB6F894A895809360000FBE20924B
:10557000600083B7817F846083BF83B7816083BF0E
:105580007894889583B78E7F83BF0FB6F894A895DB
:1055900080916000886180936000109260000FBE6F
:1055A00080916C04882369F00E948C0FE0E4F2E0A3
:1055B00081919191892B09F009C592E0E834F907AE
:1055C000B9F780916D04853009F4C3CF0E9466114C
:1055D0000E94D40568CF2817390709F07CCF0E94B4
:1055E00067057C0180912A0290912B02E816F9064A
:1055F000A1F08FEF8BA78CA71DA60E946705816085
:10560000782F9FA78EA74BA55CA56DA58FA50E949F
:105610009525F0922B02E0922A0280913404909119
:105620003504892B09F43EC04091290450912A0485
:1056300060912B0470912C042FB7F89480913F0453
:1056400090914004A0914104B09142042FBF841B6B
:10565000950BA60BB70B4091250450912604609141
:1056600027047091280484179507A607B707D0F080
:1056700080913404909135040E940C1810923504E6
:10568000109234041092290410922A0410922B04D0
:1056900010922C04109225041092260410922704D4
:1056A0001092280480911A01882301F1809123042B
:1056B000909124040097D1F00E944C0520917D0325
:1056C00030917E032817390788F490912104809146
:1056D0002204981709F4D0C00E94012510927E037D
:1056E00010927D0310922404109223048091700381
:1056F00080FF1EC08091190182FF1AC00E946705B9
:105700002091790330917A03AC01421B530B209115
:105710001701309118014217530750F025E332E08A
:1057200041E0BC0180917B0390917C030E94391879
:1057300086E0EFE4F2E0D80101900D928A95E1F75E
:10574000109251021092520210925302109254027F
:105750008B819C81892B91F080914D0290914E021A
:105760000E944C05AC0190914902992309F48DC027
:10577000809115018417150608F495C08D819E81CE
:10578000892B91F080914B0290914C020E944C0524
:10579000AC0190914802992309F4C4C08091110191
:1057A0008417150608F4CCC046E050E0B8018FE439
:1057B00092E00E94A830892B61F48091510290916F
:1057C0005202892B90915302892B90915402892B7C
:1057D00011F00E94440786E0F801AFE4B2E00190C6
:1057E0000D928A95E1F70E94D40590913D028917A8
:1057F00021F080933D020E945B0580916D0484300E
:1058000009F048CE83E08093E9008091E80082FFB0
:1058100041CE8091E80090E085FF0AC00E94E3033A
:1058200050E2E52EF12C6801882309F4D2C091E002
:105830008091E8008B778093E800992309F42ACEC1
:10584000E0903203F09033038981E114F10409F40C
:10585000CEC08E3F09F00DC18A81833020F0855083
:10586000833008F006C1EA81EE3008F002C1F0E0B2
:10587000E95CFE4C0C945B300E94A424109224043A
:10588000109223040E948B0631CF209116018AE0EA
:10589000289F900111242417350708F06FCF9F5FD0
:1058A0009093490202C09F3FD1F7FB80FF2059F03F
:1058B0000E9427089FEF1F140CF491E0899F802D10
:1058C000112480935102FC80FF2059F00E94270888
:1058D0009FEF1F140CF491E0899F802D1124809379
:1058E000520230915102332309F448CF20915202E1
:1058F000222309F443CF45EB3403C001112499233B
:1059000059F09093510245EB240390011124332365
:1059100031F03093520232CF50925102F4CF509274
:1059200052022CCF209112018AE0289F900111246D
:105930002417350708F038CF9F5F9093480202C0C4
:105940009F3FD1F7FD80FF2059F00E94EE079FEFA7
:105950001F140CF491E0899F802D11248093530231
:10596000FE80FF2059F00E94EE079FEF1F140CF4F9
:1059700091E0899F802D112480935402309153022D
:10598000332309F411CF20915402222309F40CCFC0
:1059900045EB3403C0011124992359F0909353022D
:1059A00045EB240390011124332331F0309354024A
:1059B000FBCE50925302F4CF50925402F5CE809118
:1059C000F100D6018D936D01B1E0EB1AF10809F4F5
:1059D0002ECF8091E80085FDF2CF8091E8008B7793
:1059E0008093E8000E94E303882399F320CF8D3051
:1059F00009F4BBC0B0F4843009F49EC040F4823096
:105A000041F108F08AC0813001F18FEF04C3863084
:105A100009F4A8C008F49BC08C30B9F780E18A83F0
:105A200028C0813109F4FCC040F48F3009F4CAC0A9
:105A300008F49EC00E945F0E1CC0833109F41BC194
:105A400008F4F0C08E3F09F70ECF1A8289E08B83ED
:105A500010C08A81823009F4FDC2833099F181300F
:105A6000A1F60E945B050E9461306B837C838D836D
:105A70009E8380916D04843009F00CCDF090E90094
:105A80003F2D3F70F32E9091EC00892F817090FD97
:105A900080E8F82A82E08093E9008091E80080FFA6
:105AA0000CC050E040E060E270E0C8010E941404C5
:105AB0008091E8008E778093E8008F2D8F7080931F
:105AC000E900E8CC80910D0190910E01892B89F2BB
:105AD00080914002909141029827892798279C83C2
