:100000000C94C2020C94FA020C94FA020C94FA02B8
:100010000C94FA020C94FA020C94FA020C94FA0270
:100020000C94FA020C94FA020C948F270C944B2730
:100030000C948C280C94FA020C94FA020C94FA0298
:100040000C94FA020C94FA020C94FA020C94FA0240
:100050000C94FA020C9468280C94FA020C94FA029C
:100060000C94FA020C94FA020C94FA020C94FA0220
:100070000C94FA020C94FA020C94FA020C94FA0210
:100080000C94FA020C94FA020C94FA020C94FA0200
:100090000C94FA020C94FA020C94FA020C94FA02F0
:1000A0000C94FA020C94FA020C94FA02050109026B
:1000B000A10185020901A100050919012905150001
:1000C00025019505750181029501750381010501E1
:1000D000093009311581257F950275088106093897
:1000E0001581257F950175088106050C0A380215D2
:1000F00081257F950175088106C0C005010980A191
:1001000001850319012AB700150126B7009501756D
:10011000108100C0050C0901A101850419012AA064
:1001200002150126A002950175108100C005010984
:1001300006A1018506050719E029E71500250195A7
:1001400008750181020507190029EF1500250195A1
:10015000F0750181020508190129059505750191C0
:1001600002950175039101C00660FF0961A10109B3
:1001700062150026FF0095207508810209631500AD
:1001800026FF00952075089102C005010906A1010E
:10019000050719E029E71500250195087501810279
:1001A0009501750881010507190029FF150026FF33
:1001B0000095067508810005081901290595057542
:1001C000019102950175039101C0FD377A585A00DB
:1001D0000004E6D6B4460200210116000000742F88
:1001E000E5A3E000D300945D003D8889C65436C382
:1001F000174FE4F41B037A1F46B689FA1AFF11F26F
:100200008B6B410CE0EDF3AF29F896CD5501BB5255
:10021000DE06354B982F2B489E81FFDCF986989B94
:100220006C4CBA94A81BCE9FB8A11FF73E9506EA66
:1002300013E0D8B431D46D1FD3B4C90F4CE977BBE8
:10024000DC12DC027A30964AB8AEC0C1532A77FF7E
:100250005F3F1EAF2552C189B444971B0201408FF6
:10026000EA5CA9C7345F0F817CD0D0D877C0E4DEC8
:10027000746845A2352DE3050652BAA4000018AAF9
:10028000D4DD44FA7E570001B001D4010000E1AA98
:100290000B4CB1C467FB020000000004595A000077
:1002A000000000000000000000000000000000004E
:1002B0000000000000000100010001000100010039
:1002C0000100010001000100010001000100010026
:1002D0000100010001000100010001000100010016
:1002E0000100010001000100010001000100010006
:1002F00001000100010001000100010001000100F6
:1003000001000100010001000100010001000100E5
:10031000010001000100010001004F03480D7A0DAA
:100320000000020002004B03480D7A0D000003009C
:1003300001005003480D7A0D00000400020035034F
:10034000480D7A0D7306050001005103480D7A0D22
:100350000000060002003703480D7A0D0000070078
:1003600002004D03480D7A0D000008000100520301
:10037000480D7A0D0000090002003903480D7A0D7E
:100380004E060A0002003B03480D7A0D4E060B0094
:1003900002003D03480D7A0D4E060C0002003F039B
:1003A000480D7A0D4E060D0002004103480D7A0DEE
:1003B0004E060E0002004303480D7A0D4E060F0054
:1003C00002004503480D7A0D4E0610000200470357
:1003D000480D7A0D4E06110002004903480D7A0DB2
:1003E0004E06120002005303480D7A0D0000130060
:1003F00002005503480D7A0D000014000100570358
:10040000480D7A0D0000150000000000D4054F14BF
:10041000000009025B00030100A0FA0904000001CA
:10042000030101000921110100012240000705819B
:100430000308000109040100020300000009211162
:1004400001000122220007058203200001070503A5
:10045000032000010904020001030000000921112A
:1004600001000122BC0007058403200001120100E5
:100470000200000008EDFE60600001010203011CA3
:10048000037600690061006C003A006600360034B3
:100490000063003200620033006300000016036A4C
:1004A00000750061006E007000610064005F0076FE
:1004B000003200000018036A00750061006E006DD4
:1004C00000690063006800650072006F00000004AE
:1004D000030904000000000000000000000000000C
:1004E000000000000000000000000000000000000C
:1004F000000000000000007E0F00D4FFFFFFC700D7
:1005000000007800000000000000002A2B280000F6
:1005100000000000000000000000000000002900B2
:100520000000002C1E3420212224342627252E36BC
:100530002D3738271E1F202122232425263333362A
:100540002E37381F0405060708090A0B0C0D0E0F7D
:10055000101112131415161718191A1B1C1D2F3100
:1005600030232D350405060708090A0B0C0D0E0F64
:10057000101112131415161718191A1B1C1D2F31E0
:1005800030354C0011241FBECFEFDAE0DEBFCDBF07
:1005900004B603FE18C080915C0490915D04A091A4
:1005A0005E04B0915F048730904BA740B04B59F484
:1005B00010925C0410925D0410925E0410925F042D
:1005C000E0E0F8E3099511E0A0E0B1E0EEE9F0E643
:1005D00002C005900D92AC36B107D9F724E0ACE625
:1005E000B1E001C01D92AC35B207E1F70E94B3281B
:1005F0000C9429300C940000E8EDF0E080818E7FAF
:1006000080831092E2001092DA001092E100A0EED6
:10061000B0E08C9181608C9380818F77808319BC4E
:10062000A7EDB0E08C918E7F8C9380818F7E80834C
:100630001092280408952091E4003091E50095E699
:10064000A9012091EC00822F817020FF06C08091CB
:10065000E80080FF06C080E008952091E80022FDB8
:100660001AC080914D04882389F0853089F08091EB
:10067000EB0085FD0FC02091E4003091E5004217AA
:100680005307F9F29150E1F684E0089582E008956D
:1006900083E0089581E00895EF92FF920F931F93F6
:1006A000CF937C018B010E941B03C82F811117C0BF
:1006B0008091E80085FD0BC08091E8008E778093E3
:1006C000E8000E941B03882399F3C82F08C0F70194
:1006D00081917F018093F1000150110949F78C2F1E
:1006E000CF911F910F91FF90EF90089580914F044B
:1006F00087FF13C08091E80082FF06C08091E80068
:100700008B778093E80004C080914D048111F2CF73
:10071000089580914D048823D9F38091E80080FFEB
:10072000F8CF8091E8008E77ECCF982F9093E90076
:10073000242F762F50E0891731F07091EC00209132
:10074000ED005091F00021FD07C09F5F973071F7D9
:100750008093E90081E008953091EB003E7F309373
:10076000EB003091ED003D7F3093ED003091EB00D8
:1007700031603093EB007093EC002093ED005093C8
:10078000F0002091EE0027FDE0CF80E00895B0E07A
:10079000A0E0EDECF3E00C947C2FC8EDD0E0888174
:1007A0008F7E8883E7EDF0E080818160808384E044
:1007B00082BF81E08093280488818E7F888302EE47
:1007C00010E0F80110821092DA0081EEC82ED12CD0
:1007D000F601108288818F7788838881806888837A
:1007E00088818F7D888319BC10924D0410924E042D
:1007F00010924C0410924B0490EEE92EF12CF7016C
:1008000080818B7F808388818160888342E060E083
:1008100080E00E949503F60180818E7F8083F8013D
:10082000808181608083808188608083F7018081FE
:100830008E7F8083888180618883CDB7DEB7E8E0D2
:100840000C94982FFC0180915504909156048617C2
:100850009707A0F06115710529F49091E8009E7743
:100860009093E80090E06115710551F4911108C072
:100870008091E80082FF34C080E00895BC01F2CF8F
:1008800080914D048823C1F18530C1F18091E80049
:1008900083FD30C08091E80082FDEACF8091E800BE
:1008A00080FFE1CF8091F3002091F200382F611595
:1008B000710519F02830310558F091E028303105E4
:1008C00009F090E02091E8002E772093E800CBCF4C
:1008D00081918093F100615071092F5F3F4FE7CF05
:1008E00080914D04882341F0853041F08091E800EB
:1008F00083FFBECF81E0089582E0089583E00895EC
:10090000089580912A0408959C014FB7F89480912E
:100910001F0490912004A0912104B09122044FBFA4
:10092000821B930B08952FB7F89460911F04709168
:10093000200480912104909122042FBF08952FB7A5
:10094000F89480911F0490912004A0912104B0910B
:1009500022042FBF089520911B012223C1F0209172
:10096000230427FF14C0E62FE695E695E695EE31C1
:10097000F8F4E80FF92FF11D677021E030E001C0B5
:10098000220F6A95EAF78281822B82830895FC0107
:1009900032962FEF30E04191641751F02F3F19F458
:1009A000411101C0232F3F5F3630A9F72F3F09F4D3
:1009B0000895820F911D27FD9A95FC016283089589
:1009C00020911C0430911D042817390771F0909371
:1009D0001D0480931C04E0911A04F0911B043097CD
:1009E00021F00084F185E02D0995089520911804E7
:1009F000309119042817390771F0909319048093E6
:100A00001804E0911A04F0911B04309721F006803D
:100A1000F781E02D09950895E0911A04F0911B04E7
:100A2000309729F00190F081E02D0995089580E03C
:100A30000895CF93DF93EC0140910D0450910E0483
:100A400060910F04709110042FB7F89480911F04E7
:100A500090912004A0912104B09122042FBF841B07
:100A6000950BA60BB70B843F9140A105B10518F576
:100A700080910D0490910E04A0910F04B091100488
:100A80008093090490930A04A0930B04B0930C0480
:100A900084EF91E0A0E0B0E0809305049093060419
:100AA000A0930704B0930804D0931504C0931404D2
:100AB000DF91CF9108950E9493046093090470938D
:100AC0000A0480930B0490930C0482E390E0A0E06E
:100AD000B0E0E2CFFC018481862351F49281992316
:100AE000B9F06923808583FF05C081E061110FC0E3
:100AF00080E00895892F8F7092959F70982B862F94
:100B00008F7062956F70682B81E09613F1CF089516
:100B100081E0FDCF452B39F0682381E06F3F09F07C
:100B200080E08170089581E0FCCFDC0160910104D8
:100B300080910204962F891301C00895292F30E077
:100B4000F901EE0FFF1FE750FC4F408151814A171A
:100B50005B07A1F487E08A9FA0018B9F500D1124B1
:100B60004F535C4F81E0FA0184839613E6CF2F5FE9
:100B70003F4F237033272093010408952F5F3F4F89
:100B8000922F9370D8CF10925E0310925D03E1EC28
:100B9000F3E08581811102C014821682379683E0CA
:100BA000E93FF807B1F70895B0E0A0E0EAEDF5E01D
:100BB0000C947A2F8FEF9FEF4430510508F469C0F1
:100BC0004091230441FB882780F990E0880F991F0A
:100BD00042FB002700F910E0000F111F000F111F4A
:100BE000802B912B40FBCC24C0F8D12C8C299D2943
:100BF00043FB222720F9C22FE0E0DE2F53E0CC0F89
:100C0000DD1F5A95E1F78C2B9D2B44FBAA27A0F9F9
:100C1000B0E0E4E0AA0FBB1FEA95E1F78A2B9B2B1B
:100C200045FBEE27E0F9F0E0A5E0EE0FFF1FAA95E7
:100C3000E1F78E2B9F2B46FB222720F930E0B6E010
:100C4000220F331FBA95E1F7822B932B47FB222704
:100C500020F930E03695322F222737952795822BC1
:100C6000932B20912404322F3170F32EE82EF92A91
:100C700026952170B22EBB0CA82EBF28C501BB0C37
:100C8000AA0BBB0BFB0180839183A283B38390E00B
:100C900080E0CDB7DEB7EAE00C94962FE5E3F3E011
:100CA000848195812AE030E0B9010E943D2F609354
:100CB00016018681809315018285809314018485B5
:100CC0008093130186859785B9010E943D2F60931B
:100CD0001201808980931101828980931001848997
:100CE00080930F010895809135039091360390937E
:100CF00018018093170108950E949F049C01909110
:100D0000310280913202982B21F030932E022093F1
:100D10002D029091330280913402982B21F0309370
:100D20002C0220932B02E0911A04F0911B043097BF
:100D300049F082E080932F020480F581E02D8FE25C
:100D400092E00995089590913102803F59F4809185
:100D5000320287FF0DC01092320291110BC0109227
:100D6000290208C0813F81F48091320218169CF359
:100D7000992381F08091330290913402892B09F0FC
:100D800064C0109228020895823F49F497FFF0CF83
:100D900010923102809132028111ECCFE0CF833F7B
:100DA00019F41916ACF3E4CF20913302893F29F4EA
:100DB0001216F4F610923302DBCF8A3F19F427FFA4
:100DC000D7CFF8CF209134028B3F29F427FFD0CF23
:100DD00010923402CDCF8C3F19F41216CCF3C8CF49
:100DE000843F31F4809130028E7F80933002C0CFF7
:100DF000853F21F4809130028D7FF7CF863F21F42B
:100E0000809130028B7FF1CF873F21F480913002B7
:100E1000877FEBCF883F21F4809130028F7EE5CF32
:100E20008D3F31F480912A028E7F80932A02A0CFD9
:100E30008E3F21F480912A028D7FF7CF8F3F09F0FA
:100E400097CF80912A028B7FF0CF089580912A025C
:100E500080FF0CC06091100170E0759567957595E5
:100E600067956115710549F1862F089581FF06C0C8
:100E70006091100170E075956795F3CF6091100156
:100E800082FD0BC0909128029923A1F060910F017F
:100E900080911001961738F0682F70E06038710566
:100EA00000F38FE70895899FC001112470E00E942C
:100EB000512FF4CF61E070E0D7CF81E008958091A9
:100EC0002A0260913D0370913E0380FF16C020917D
:100ED0001401269FC001279F900D1124BC01769517
:100EE0006795769567956038710508F043C0611580
:100EF000710509F441C0862F089581FF0BC0209130
:100F00001401269FC001279F900D1124BC017695E6
:100F10006795E9CF82FF09C0809114019B01829FF0
:100F2000B001839F700D1124DECF2091290222236E
:100F3000D1F29091130180911401482F50E02917AC
:100F400048F0CB01849FB001859F700D949F700D78
:100F50001124C9CF289F90011124269FA001279F0B
:100F6000500D369F500D1124692F70E0CA010E9468
:100F70003D2FB9CF8FE7089581E00895803F31F488
:100F80000E945F078195809332020895813F19F492
:100F90000E945F07F8CF823F31F40E945F0781957E
:100FA000809331020895833F19F40E945F07F8CFC0
:100FB000893F29F40E9426078093330208958A3FCF
:100FC00021F40E9426078195F7CF8B3F31F40E94D0
:100FD000260781958093340208958C3F19F40E946E
:100FE0002607F8CF843F31F48091300281608093EE
:100FF00030020895853F21F4809130028260F7CF5E
:10100000863F21F4809130028460F1CF873F21F444
:10101000809130028860EBCF883F21F480913002CC
:101020008061E5CF8D3F31F480912A028160809309
:101030002A0208958E3F21F480912A028260F7CF20
:101040008F3FB9F780912A028460F1CF80E0089544
:10105000F894E82FE295EF70F0E031A1282F2F707F
:1010600081E090E001C0880F2A95EAF7982F9095CB
:10107000932391A392A1892B82A3789408959091B0
:10108000230492FF06C0282F28712830F9F4877FA7
:10109000846093FF06C0282F28712831F1F4877EE1
:1010A00084612091240420FF06C0382F3871383025
:1010B000D9F4877F816021FF06C0282F287128314D
:1010C000D1F4877E816194FD877E0895282F247155
:1010D0002430F9F68B7F8860DCCF282F24712431EF
:1010E00001F78B7E8861DDCF382F3171313019F7F0
:1010F0008E7F8860E0CF282F2171213121F78E7EED
:101100008861E1CFCF93DF93EC0182389105B1F193
:1011100008F040C08133910509F49DC048F589323B
:10112000910509F48DC08A9709F49CC0C11521E589
:10113000D20708F0C3C0C11530E5D30708F01EC1BF
:10114000C83ED10508F0A3C0C13ED10588F5C83A14
:10115000D10508F08EC0C53AD10508F007C1C130ED
:10116000D10531F1209721F1C430D10508F545C0F2
:101170008533910509F45FC0C997C1F680912304B6
:10118000837009F044C18091240483FF11C0C9E237
:10119000D0E00EC0833E910599F170F4803E910538
:1011A00001F1823E910511F68091230482FD21C058
:1011B000CE01DF91CF910895863E910561F1873E82
:1011C000910571F1843E910509F0B0CF809124041E
:1011D00081FFEECF80912304C7EED0E084FD0DC0E7
:1011E000E7CF8091230480FD33C09091240490FFC9
:1011F000DFCFC3EED0E084FFDBCFD0E0C0E0D8CFBC
:101200008091230482FD00C19091240490FDFFC0D1
:1012100084FFCECFF2CF8091230483FDDDCFC8CFF2
:101220008091230483FDF6C09091240491FFF0CFB8
:10123000C4EED0E0BDCF8091230485FFB9CFA7CF06
:101240008091230485FDE9C08091240483FFB0CF01
:10125000C9E3D0E0ADCF8091230486FFA9CFCAE2D5
:10126000D0E0A6CF8091230486FFA2CFC1E3D0E0D7
:101270009FCFCF3BD10508F6C85AD0E0CC0FDD1F79
:10128000C95DDE4F0990D881C02DD46491CFC115BE
:1012900040E2D40758F4C11581E0D80708F088CFA0
:1012A000C03FD10508F4A9CFD06582CFC11520E495
:1012B000D20708F4A2CFDF70D06A7ACFC11535E526
:1012C000D30718F5C11544E5D40708F085C0C1154A
:1012D00083E5D80708F06CC0C11522E5D20708F4F1
:1012E00062C0CE018370992721E030E002C0220F56
:1012F000331F8A95E2F7C695C69580E2C89FE00144
:101300001124C22BD32BDC6853CFC11539E5D30789
:10131000A8F4C11548E5D40708F063C0C11586E5F7
:10132000D80708F06ACF8C2F0E943F08C82FD0E062
:10133000DC2FCC27CC27DF71D0623ACFC1152AE54C
:10134000D20708F453C0CE0190568115904208F0A0
:1013500054CF8D2F8F710E943F0890E0982F8827DF
:1013600088279F719C012C2BE901E6CFC55AD0E05C
:10137000CC5DDE4FC881D0E0D0641ACF2C2F2695EB
:101380002695237040E2249F900111248C2F8370B6
:10139000C1E0D0E002C0CC0FDD1F8A95E2F7C22B7E
:1013A000D32BDD6805CFDC2FCC27C16FD06A00CFEF
:1013B000CE018370992721E030E002C0220F331F55
:1013C0008A95E2F7C695C69540E2C49FE0011124D4
:1013D000C22BD32BDA68ECCEDC2FCC27C46FD06ABB
:1013E000E7CEDC2FCC27C06FD06AE2CE8C2F8F7077
:1013F0000E943F0834E0D695C7953A95E1F7CF7043
:101400009C2FEC01D069D4CEC2EED0E0D1CEC0EE9C
:10141000D0E0CECEC6EED0E0CBCEC5E3D0E0C8CE95
:1014200080910902882331F010920902109208027B
:10143000109207020895CF93C82F8091240482FF51
:101440000CC0809109028C1741F00E949F04909378
:10145000080280930702C0930902CF9108958095F6
:101460009091140398239093140308951092E60129
:101470001092E5011092E401089580913703909154
:101480003803892B89F00E949F0420910702309134
:101490000802AC01421B530B81E0209137033091CD
:1014A00038034217530708F480E081700895909143
:1014B0001B019923D1F09091230497FF16C0E82FC8
:1014C000E695E695E695EE31E0F4F0E0E259FE4F60
:1014D000282F277081E090E001C0880F2A95EAF755
:1014E00080959281892382830895E0E7F1E09191CC
:1014F000891303C0DF0111971C9291E0E637F907C9
:10150000B1F708952091E3019091A201291302C03F
:1015100080E0089530E0F90153E0EE0FFF1F5A9587
:10152000E1F7ED55FE4F5181561306C05081581317
:1015300003C05281541304C02F5F3F4F2770E6CF82
:1015400081E008958091E3019091A201981301C078
:1015500008958F5F8770FACF292F943078F5833004
:1015600068F590E033E0239F800D911D1124682FD2
:10157000677023E0969587952A95E1F7FC01EE0FB9
:10158000FF1FE80FF91FEC56FE4F50E040E080E0EF
:10159000219130E0062E02C0369527950A94E2F795
:1015A00021703327042E01C0220F0A94EAF7822B00
:1015B0004F5F5F4F4330510559F7089580E008951C
:1015C000292F943098F5833088F590E033E0239FFD
:1015D000800D911D1124282F277041E001C0440F78
:1015E0002A95EAF723E0969587952A95E1F7FC017D
:1015F000EE0FFF1FE80FF91FEC56FE4F30E020E022
:1016000070E05191DF011197CB01022E02C0969537
:1016100087950A94E2F78170819585278423852731
:101620008C932F5F3F4F2330310559F708959295E2
:101630009F70963091F058F4925F9F70923058F4FA
:10164000803F19F030F4883E30F481E008959A5FCD
:10165000F4CF843FD1F380E00895883EB0F3813F1A
:10166000D1F7F3CF9C013A9521153F4150F5FC018C
:10167000EE27F170BC0166277270AC0144275470EC
:101680009C012227387094FF0EC080E1EF2B09F4F3
:1016900080E0672B09F08062452B09F08064232BE2
:1016A00089F08068089581E0EF2B09F480E0672BD2
:1016B00009F08260452B09F08460232B19F08860C3
:1016C000089580E008958093250470932704609323
:1016D000260480914D048430F9F48093E9008FEF63
:1016E0009091E800815095FD06C095ED9A95F1F72F
:1016F00000008111F5CF8091E80085FF0DC050E01A
:1017000040E063E070E085E294E00E944C03809149
:10171000E8008E778093E8000895BC0184E00E9481
:10172000630B0895BC0183E00E94630B08959C0144
:1017300084E08093E9009FEF8091E800915085FD5F
:1017400006C085ED8A95F1F700009111F5CF8091E3
:10175000E80085FF0CC050E040E066E070E0C901A1
:101760000E944C038091E8008E778093E8000895F2
:10177000CF93DF93EC0180911B018823B1F180911D
:10178000230487FF32C060E284E08093E9008FEF9A
:101790009091E800815095FD06C095ED9A95F1F77E
:1017A00000008111F5CF8091E80085FF1BC080917A
:1017B0001B0170E050E040E0811104C050E040E0C7
:1017C00068E070E0CE010E944C038091E8008E77C3
:1017D0008093E80080E2FE01ABE2B4E001900D925C
:1017E0008A95E1F7DF91CF91089568E081E0CDCF50
:1017F00081E08093E00080E28093D8001092C900DD
:101800008FE19EE40197F1F700C0000087E090EBC4
:10181000DC0180935C0490935D04A0935E04B0931C
:101820005F0488E19CE00FB6F894A895809360006F
:101830000FBE90936000FFCF019708F40895EFE981
:10184000FFE03197F1F700C00000F6CF0F931F9330
:10185000CF93DF9305E313E0C7E8D0E0CE010E9409
:10186000DF2FF80181938F012196CB3AD105B1F793
:10187000C0E2D3E0FE0185919491009711F0FC0144
:1018800009952C96F4E0CC31DF07A1F7DF91CF91D9
:101890001F910F9108950F931F93CF93DF9384307F
:1018A00030F5643020F5433010F5C42FD0E0CC0F74
:1018B000DD1F26E0629FC00DD11D112438E1839FFA
:1018C000C00DD11D1124CE0187960E94DF2F082F55
:1018D00010E0102F0027CE0188960E94DF2F98017C
:1018E000282BC901DF91CF911F910F91089590E0AE
:1018F00080E0F8CF462F2091120330911303232B61
:1019000099F4703F39F4603F79F48091100390911D
:1019100011030895843040F4743030F4633020F4BF
:10192000672F0E944B0C089590E080E00895CF92BD
:10193000DF92FF920F931F93CF93DF936C0100917F
:10194000570480910A02082BC7E0D0E010E0FC2E7B
:10195000C8010C2E02C0959587950A94E2F780FD88
:101960000CC02197A0F7F12C8F2DDF91CF911F9103
:101970000F91FF90DF90CF900895B6018C2F0E94B9
:101980007A0C0E948208019761F3EECFCF93DF9328
:10199000EC010E94970CBE010E947A0C0E94820802
:1019A000DF91CF910895CF93DF93EC014B815C8160
:1019B000698188810E948A05811110C08E819F8172
:1019C000009739F00E9482080E94170BDF91CF9197
:1019D0000895888199810E94C60CF6CF80E0F6CFE9
:1019E000A5E0B0E0E6EFFCE00C94812F49835A8338
:1019F00089819A81662399F0222389F00E94970CAD
:101A0000182F682F89819A810E94E00A69817A8162
:101A1000812F0E947A0C2596E3E00C949D2F0E9462
:101A2000AC0A182FF3CFFC01262F868197810097EF
:101A300039F4408151816281738184810E94F00C6C
:101A4000089583E290E00E94DF2F893989F484E2CF
:101A500090E00E94DF2F893659F485E290E00E94E1
:101A6000DF2F91E0883909F090E0892F8170089587
:101A700080E0FCCFCF9384E090E00E94DF2FC82F5E
:101A800082E290E00E94DF2F982F8C2FCF91089553
:101A9000DB01FC013296259134914217530758F02F
:101AA000FC01349665917491A901CD010E94BF2F6C
:101AB00090E080E008958FEF9FEF08950F931F93BC
:101AC000CF93DF9305E313E0C7E8D0E0CE010E9497
:101AD000DF2FF80161918F01681719F0CE010E9484
:101AE000ED2F2196CB3AD10589F7DF91CF911F9148
:101AF0000F910895DA019C012E5F3F4FF901459146
:101B00005491F90125913491A217B30758F0FC01C3
:101B10003496859194910E94BF2F0E945E0D90E0B3
:101B200080E008958FEF9FEF0895CF93DF93CBE48C
:101B3000D1E060E0CE010E94ED2F2196C11584E036
:101B4000D807B9F7DF91CF9108951F93CF93DF9313
:101B5000122F8430E0F46430D0F44330C0F4C42F4A
:101B6000D0E0CC0FDD1F96E0699FC00DD11D112480
:101B700098E1899FC00DD11D1124632FCE01879656
:101B80000E94ED2F612FCE0188960E94ED2FDF91EC
:101B9000CF911F910895CF93C82F6FEF811169E9FD
:101BA00083E290E00E94ED2F6FEFC11169E684E2BD
:101BB00090E00E94ED2F6FEFC11168E985E290E09F
:101BC0000E94ED2FCF910895CF93C92F682F84E005
:101BD00090E00E94ED2F6C2F82E290E00E94ED2FAA
:101BE000CF910895AAE0B0E0E8EFFDE00C94782FE3
:101BF00008E912E086E8C82E82E0D82E9BEFE92E95
:101C0000F12C27E0922E35E8A32E32E0B32E882463
:101C10008394D6010D931D936D014AE050E0B70106
:101C2000CE0101960E94CF2FF8013896DF01892D51
:101C30001D928A95E9F789819A81D80111969C9322
:101C40008E938F8112968C9312978D8113968C931D
:101C50001397888514968C931497898515968C9381
:101C600015978B819C8117969C938E931697189647
:101C70001C9218978A8587FF3CC01E961C921E9264
:101C80001D9780FF03C0D80118968C9281FF04C075
:101C9000F80190859260908782FF07C0D80118965E
:101CA0009C911897946018969C9383FF04C0F80148
:101CB00090859860908784FF07C0D80118969C9102
:101CC0001897906118969C9385FF04C0F801808551
:101CD00080628087015F1F4FFAE0EF0EF11C8BE4FA
:101CE000E81681E0F80609F094CF2A96ECE00C940F
:101CF000942FF801B686A586C4CFAAE0B0E0E3E849
:101D0000FEE00C947C2FE5E3F2E080E5DF011D921C
:101D10008A95E9F7E1ECF3E088E3DF011D928A950B
:101D2000E9F785E3C82E82E0D82E7F010BEA10E0A8
:101D3000F701D182C0824AE050E0B801CE0101969D
:101D40000E94CF2F88E0FE013196D60101900D92BE
:101D50008A95E1F789859A85D70113969C938E938E
:101D60001297BAE0CB0ED11CE7E0EE0EF11C065F35
:101D70001F4F0B3F1105E1F62A96E8E00C94982FCF
:101D8000A4E0B0E0E6ECFEE00C947B2F19821A820E
:101D90001B821C8285E5C82E81E0D82E10E000E071
:101DA000EE24E394F12CF60181916F018F3F09F449
:101DB00046C0F894E82FE295EF70F0E021A18F7013
:101DC000A70102C0440F551F8A95E2F7CA01922F5E
:101DD000982B91A392A18095892382A3789400C027
:101DE000E9E5F1E0B12C31E021912F3F09F473C016
:101DF000A22FA295AF70B0E090968C9190E02F70DA
:101E000002C0959587952A95E2F780FD64C0832FDF
:101E1000B82A330F51E0EC35F50731F7F601319769
:101E200080818F3F11F00E94280880EA8A95F1F79F
:101E3000E1E0F0E0EC0FFD1FE00FF11FB0820F5F5B
:101E40001F4F0430110509F0AECF44E050E0BE0151
:101E50006F5F7F4F8EE092E00E94B22F892BE9F1F5
:101E600089819A81AB81BC8180930E0290930F028D
:101E7000A0931002B093110281E080930D020E94A2
:101E80009F0490930C0280930B0280910B0290911F
:101E90000C020E948404059720F144E050E06EE0BB
:101EA00072E084E292E00E94B22F892BF9F08091D7
:101EB0000E0290910F02A0911002B0911102809336
:101EC000240290932502A0932602B093270281E07A
:101ED00010920D0207C080E09BCF80910D0281110E
:101EE000D4CF80E02496E9E00C94972F80E0F0CFE7
:101EF000CF938091140390915804892B80936E01A5
:101F000080910902882329F1809137039091380349
:101F1000892B29F00E943D0A81110E94100A8091AC
:101F20006E0190910902892B80936E0180911B01B3
:101F3000882309F447C08091230487FF43C08EE1C2
:101F4000E0E7F1E090E0815008F03EC091110E947E
:101F5000100AC0911104C09580916E01C823809130
:101F60001204C82BC0936E0140E250E067EE71E0AE
:101F70008EE691E00E94B22F892B11F180E2EEE60D
:101F8000F1E0A7EEB1E001900D928A95E1F7E091C2
:101F90001A04F0911B04309799F080911B0188235B
:101FA00049F08091230487FF05C0C0936F0186E04C
:101FB00080936E010280F381E02D8EE691E0099519
:101FC000CF91089586E0BCCF2191222309F4BBCFA5
:101FD0009F5FB9CF80911901877F809319019091FC
:101FE00058049D7F9093580484FF08C08F7E80938F
:101FF0001901809114038260809314038091190168
:1020000085FF08C08F7D8093190180911403806241
:10201000809314030E94780F089590E080E00E945E
:10202000F60490E080E00E94E004109258040E94C0
:10203000780F86E0EFE2F2E0DF011D928A95E9F782
:10204000109229021092280210922A020E947C0605
:102050000895809357040E940D10089580915704AD
:10206000982F9670963021F488600E942910089568
:10207000877FFBCF21E030E001C0220F8A95EAF78D
:1020800020958091570482230E94291008959091F1
:10209000E601809589238093E601282F277091F42B
:1020A000282F082E000C330B9217130659F090912D
:1020B000240492FF07C08595859585950E943A1066
:1020C0000E94360A08959091240492FB222720F959
:1020D000281769F080FB92F99093240480912304DF
:1020E000909124040E94E40D82E00E94471008951C
:1020F00021E030E001C0220F8A95EAF78091570471
:10210000822B0E94291008959091240492FF10C000
:1021100098E0899F90011124622B6093E6010E9450
:1021200078100E949F049093E5018093E401089544
:102130000E947810089580930A020E940D1008955D
:102140001092140380911B01E0E7F1E0882361F015
:102150008091230487FF08C08EE1DF011D928A95DC
:10216000E9F70E940D10089586E0F7CFAAE2B0E0EB
:10217000ECEBF0E10C94812F8FE494E02091F100DE
:10218000DC012D93CD01B4E087359B07B9F7809131
:102190005004833009F472C0B8F4813009F449C0A6
:1021A000823009F4B3C08091E80083FF96C2809129
:1021B0004F04909150049A3008F08FC2E92FF0E05C
:1021C000E55DFF4C0C94652F8A3009F48EC08B308E
:1021D00009F471C0893039F780914F04813219F7C1
:1021E0008091530490915404009711F00297D9F60E
:1021F0008091E800877F8093E8008091E80082FF6B
:1022000038C09091F3008091F200029731F48091F0
:10221000F100813011F0863021F48091F10080933B
:102220002A048091E8008B778093E8000E9476036F
:10223000BACF80914F04813A09F0B5CF8091E80080
:10224000877F8093E8008091530490915404892BF8
:1022500061F460E28BE294E070E00E9422048091DD
:10226000E8008B778093E8009ECF60E090E080E00C
:10227000F3CF80914D048111C0CF95CF80914F0451
:10228000813A09F090CF8091530490915404892BA6
:1022900009F089CF8091E800877F8093E8008091E2
:1022A000E80080FFFCCF80911B018093F1008091BA
:1022B000E8008E77B9CF80914F04813209F073CF57
:1022C0008091530490915404892B09F06CCF809134
:1022D000E800877F8093E8000E9476038091510494
:1022E00080931B010E94A0105ECF80914F04813229
:1022F00009F059CF8091E800877F8093E8000E9421
:10230000760380915204809329044DCF80914F042D
:10231000813A09F048CF8091E800877F8093E800F8
:102320008091E80080FFFCCF80912904BECF8038E7
:1023300099F0823809F0D1C1809153048F708730B1
:1023400008F0CBC18093E9008091EB0085FB8827E2
:1023500080F91092E90006C080914B0490914C04E2
:10236000911182609091E800977F9093E8008093AC
:10237000F1001092F1008091E8008E77AAC18823C5
:1023800009F498C1823009F0A8C1809151048111EB
:102390009BC1809153048F702FEF280F263008F0D7
:1023A0009CC18093E9002091EB0020FF8DC1933008
:1023B00031F48091EB0080628093EB0085C19091B5
:1023C000EB0090619093EB0021E030E001C0220F20
:1023D0008A95EAF72093EA001092EA008091EB00D8
:1023E0008860EACF811179C1109151041F778091E3
:1023F000E3008078812B8093E3008091E800877F61
:102400008093E8000E9476038091E80080FFFCCF73
:102410008091E30080688093E30082E0111183E003
:1024200080934D045AC18058823008F056C12091E3
:102430005104309152042C3DE3E03E07A1F583E0C6
:102440008A838AE289834FB7F894DE01139620E0ED
:102450003EE051E2E32FF0E050935700E49120FF7B
:1024600003C0E295EF703F5FEF708E2F90E0EA308F
:10247000C0F0C7968D939D932F5F243159F74FBFBE
:102480008091E800877F8093E8006AE270E0CE01E7
:1024900001960E9422048091E8008B778093E800E7
:1024A0001CC1C096E7CF8091530490915404432FF0
:1024B00055274330510509F44AC078F5413051059C
:1024C00009F485C08BE590E0E2E1F4E0423051058B
:1024D00009F003C12091E800277F2093E8002091B4
:1024E0005504309156048217930708F49C0140E08C
:1024F0002115310509F070C041116EC08091E800CE
:1025000082FDC9CF80914D04882329F2853019F2CC
:102510008091E80083FFF2CFBECF4132510509F42C
:1025200047C04232510509F0D8C08330910508F008
:10253000D4C0FC01EE0FFF1FE15AFE4F0190F08165
:10254000E02D845A9E4FDC018C9190E01DC0332712
:1025500021303105E9F02115310579F022303105BE
:10256000F9F02330310509F0B8C0EFE7F4E0E49169
:102570008E2F90E0EFE7F4E007C0EFECF4E0E49199
:102580008E2F90E0EFECF4E0009709F4A6C0A2CF04
:10259000E5EBF4E0E4918E2F90E0E5EBF4E0F4CF8E
:1025A000EDE9F4E0E4918E2F90E0EDE9F4E0ECCF7A
:1025B0008330910508F091C0880F991FFC01EB59F9
:1025C000FE4F0190F081E02D89E090E083CF82E121
:1025D00090E0EDE6F4E07ECF80914D04882309F48D
:1025E0005ACF853009F457CF8091E80083FD53CF4F
:1025F0008091E80082FD82CF8091E80080FF78CF53
:102600009091F3008091F2002115310519F0883086
:10261000910550F041E0089709F040E08091E80012
:102620008E778093E80064CF44914093F100319617
:10263000215031090196E8CF803809F04EC08091D1
:10264000E800877F8093E80080914E048093F1003A
:1026500092CE811142C0109151041230F0F5809158
:10266000E800877F8093E80010934E040E94760371
:10267000112311F084E005C08091E30087FDFACFBB
:1026800081E080934D0442E061EC81E00E9495037B
:1026900042E261EC84E00E94950342E261EC82E058
:1026A0000E94950342E260EC83E00E9495038091D2
:1026B0004D0413C080915104813079F481E093304E
:1026C00009F080E080934C041092E9008091E800CA
:1026D000877F8093E8000E9476038091E80083FF63
:1026E0000AC08091E800877F8093E8008091EB002A
:1026F00080628093EB00AA96E3E00C949D2FE5E3C3
:10270000F3E0128E138E8FEA90E09183808325E0B0
:10271000248F88E893E1938382838AE090E0958315
:10272000848344E150E05783468348E050E051877A
:102730004087938782876EE170E07587648797870B
:10274000868780E590E0918B808B538B428B48E2AB
:1027500050E0558B448B42E350E0578B468B48EC5E
:1027600050E0518F408F158E178E168E91A380A347
:1027700022A30E945E0D0E94A010109224041092C9
:102780002304E4E2F4E08081846080838091230468
:10279000909124040E94E40D0E94260C0895A4E167
:1027A000B0E0E5EDF3E10C94772FA0900D01B0902F
:1027B0000E0181E090E090930E0180930D018EE96F
:1027C000C82E82E0D82E00E0760110E015C0F4019A
:1027D00025913491472D612F802F0E94A50D82E015
:1027E000880E911C739493E07912F1CFE6E0EE0E1F
:1027F000F11C1F5F143019F04701712CE8CF0F5FF7
:10280000F8E1CF0ED11C0430F9F60E947F13CE01FF
:1028100001967C018AE0F70111928A95E9F70BEAAB
:1028200010E04AE050E0B801C7010E941130065F95
:102830001F4F0B3F1105A9F77E01FBE0EF0EF11CC6
:102840008AE0F70111928A95E9F78FEF9FEF988B55
:102850008F8787E08C8B4AE050E0B801C7010E9467
:102860001130065F1F4F0B34F1E01F07A1F7B09244
:102870000E01A0920D016496EDE00C94932F80E080
:102880000E94CB0D60E086E290E00E94ED2F0E9456
:10289000CF130E94950D81E00E94CB0D0895CF9239
:1028A000DF92EF92FF928FEF9FEF4430510508F4D3
:1028B0006AC0FB01C080D180E280F3800E94A0103A
:1028C00080912304C0FA80F9B701A6017695679537
:1028D0005795479540FB81F9B701A60122E076950F
:1028E0006795579547952A95D1F740FB82F9B7012F
:1028F000A60133E076956795579547953A95D1F7B8
:1029000040FB83F9B701A601E4E0769567955795FA
:102910004795EA95D1F740FB84F9B701A601F5E0A8
:102920007695679557954795FA95D1F740FB85F9C8
:10293000B701A601A6E07695679557954795AA95A4
:10294000D1F740FB86F9B701A601B7E07695679508
:1029500057954795BA95D1F740FB87F980932304A3
:1029600080912404D0FA80F9D1FACC24C0F8C0FABE
:1029700081F98093240480912304909124040E947F
:10298000E40D90E080E0FF90EF90DF90CF9008950D
:102990000E94A0102FEF84E39CE0215080409040E3
:1029A000E1F700C0000088E19CE00FB6F894A8951C
:1029B000809360000FBE90936000FFCF882341F0AA
:1029C0008095909158048923809358040E94780F31
:1029D0000895882339F090915804982B90935804C7
:1029E0000E94780F0895882321F00E942F0A0E94E8
:1029F000780F0895882339F090911403982B9093C1
:102A000014030E94780F0895882379F19CEF980FA2
:102A1000913A28F40E94570A0E94780F089590E294
:102A2000980F983050F4877091E001C0990F8A9503
:102A3000EAF7892F0E942F0AEFCF9BE5980F93307A
:102A400028F490E080E00E94F604089598E5980F3D
:102A5000973128F490E080E00E94E0040895803FE0
:102A600020F00E94A3060E947C060895FF920F9317
:102A70001F93CF93DF93F82E009116041091170443
:102A80000115110509F449C010921504109214049F
:102A90001092110410921204D8011696CD91DC9177
:102AA0009E013A9521153F4108F4D07ED1E0C11135
:102AB00001C0D0E0D8011996ED91FC911A9730979A
:102AC00031F01B966D917C9180E00995D823DD2330
:102AD00039F08CEF8C0F813A30F58C2F0E94570A19
:102AE000FF2099F0E0911604F0911704808584FD91
:102AF0000CC080911304882341F0808191819C0156
:102B000021503109203B3D45A0F00E94780F1092E2
:102B100017041092160410921304C801CDB7DEB743
:102B2000E5E00C949B2F0E94780F8C2F0E940415D7
:102B3000D7CF0E941905E9CFCF93DF93EC010E9414
:102B40000415CE010E94320B9E01205E310928300F
:102B5000310510F0CD2B29F40E94F314DF91CF91B1
:102B600008950E94DE14FACFCF93C82F8823C1F1B5
:102B70008CEF8C0F813AB0F580911B01882301F115
:102B80008091230487FF1CC0EC2FE695E695E6951F
:102B9000F0E0E259FE4F828190E04C2F477021E037
:102BA00030E002C0220F331F4A95E2F782239323BD
:102BB000892B79F08C2F0E94570A0E94780F09C048
:102BC000E0E7F1E08191C817A9F381E0E637F80763
:102BD000C9F76C2F8EE691E00E94AB040E94780F3B
:102BE000CF91089580E28C0F883068F4C77021E09F
:102BF00030E001C0220FCA95EAF780911403822BBE
:102C000080931403EBCFEBE5EC0FE33040F4F0E0FE
:102C1000EC5DFE4F808190E00E94F604E1CFE8E594
:102C2000EC0FE73150F4F0E0EE0FFF1FE95DFE4FCF
:102C3000808191810E94E004D3CFC03F88F28C2F25
:102C40000E94BE070E947C06CBCF1F93CF93DF93D9
:102C5000182FC0915503D0915603893321F0C091AC
:102C60005303D0915403812F0E94B415209739F457
:102C7000812F0E940415DF91CF911F9108958FE954
:102C80009FE00197F1F700C000002197EFCF0F936D
:102C90001F93CF93DF93C62FD42F022FFC01828185
:102CA0008823A9F060935B040E949F0490935A04C8
:102CB00080935904C77081E001C0880FCA95EAF774
:102CC0000E94FA14DF91CF911F910F910895809186
:102CD0005B04681332C08091590490915A040E9499
:102CE0008404883C910548F510E21D0FCD17B9F01A
:102CF00080E28C0F883040F4C77081E001C0880FFB
:102D0000CA95EAF70E94F314183048F481E09D2F29
:102D1000977001C0880F9A95EAF70E94FA14802FE5
:102D20000E942516183070F6D77081E001C0880F18
:102D3000DA95EAF70E94F314C5CFC77081E001C0AD
:102D4000880FCA95EAF7F6CFB0E0A0E0EAEAF6E12C
:102D50000C947A2FEC018AE0A82E2881222309F412
:102D60008FC02130C9F599818A81913021F4229652
:102D70000E94251605C0923029F422960E94B415AF
:102D80002196EBCF933021F422960E940415F8CFC0
:102D9000943011F02196F4CF229630E020E0AE017D
:102DA0004F5F5F4F8053990B8A30910550F021504F
:102DB000310930F38FE99FE00197F1F700C000007F
:102DC000F6CFA29EB001A39E700D11249C01260F88
:102DD000371F8981EA01E3CFE22FF0E0ED5FFA4F80
:102DE000B490822F86958695869590E0FC01ED50F3
:102DF000FB4FE4902770F12C022E02C0F594E7946B
:102E00000A94E2F731E0E322FF24FC01ED51FB4F8D
:102E1000C490D12C022E02C0D594C7940A94E2F734
:102E200031E0C322DD24FC01ED52FB4F049110E0A0
:102E300002C0159507952A95E2F701701127E11454
:102E4000F10419F081EE0E94B415C114D10419F0F7
:102E500086EE0E94B4158B2D0E942516C114D10454
:102E600019F086EE0E940415E114F10419F081EEC8
:102E70000E9404150115110509F482CF8CE278CF68
:102E8000CDB7DEB7EAE00C94962FCF93DF93EC0139
:102E90000E94320B9E01205E31092830310510F06E
:102EA000209741F40E94FA148C2F0E94B415DF91F0
:102EB000CF9108950E94E914F7CF662329F020915D
:102EC00058042260209358049C013056211540E29A
:102ED000340720F0305E2115304108F499270E9414
:102EE00045170895B0E0A0E0E8E7F7E10C947D2FE6
:102EF0007C018B01D42E8091190182FF8CC0C0917E
:102F00005B03D0915C03CE15DF0521F0E114F104E1
:102F100009F081C0809119018B7F8093190181FD97
:102F200073C08091590390915A03A801481B590B13
:102F300081E020911701309118014217530708F4DE
:102F400080E08170F82E80911901F0FA81F9809368
:102F50001901FE0183E0F695E7958A95E1F7EE7198
:102F6000FF27EB5EFC4F20813181AE014F7055276A
:102F700081E090E002C0880F991F4A95E2F7FF2098
:102F800009F444C0822B932B918380838091140396
:102F900081FF08C08091190180618093190182E04E
:102FA0000E942F0A8091140385FF08C080911901A7
:102FB00080628093190180E20E942F0A6F2DCE015A
:102FC0000E945D17DD2031F08091500385FF02C023
:102FD00086FF3BC080915303909154030E941C0CC8
:102FE00080915B0390915C039C013056211540E277
:102FF000340720F0305E2115304108F499270E94F3
:103000009C150E94EA0F1DC081E09BCF8095909592
:1030100082239323B9CFC7019927970130562115F1
:1030200040E2340728F0305E2115304108F0C70136
:103030000E949C1580915B0390915C038E159F0507
:1030400001F310935A0300935903CDB7DEB7E7E0BD
:103050000C94992F68EE7EEF90E080E00E940B3098
:1030600060E082E090E00E94ED2F60E083E090E07D
:103070000E94ED2F10920A0260E084E090E00E942E
:10308000ED2F64E082E290E00E94ED2F60E085E0A9
:1030900090E00E94ED2F60E086E090E00E94ED2F2E
:1030A0006FEF87E090E00E94ED2F40E050E0BA0122
:1030B00088E090E00E94FF2F60E08DE090E00E94A9
:1030C000ED2F40E050E0BA0188E190E00E94FF2F30
:1030D00060E087E190E00E94ED2F40E050E0BA010F
:1030E0008CE190E00E94FF2F70E060E080E290E0D1
:1030F0000E940B3040E050E0BA0188E190E00E946D
:10310000FF2F80E00E94CB0D0E943F1440E050E072
:10311000BA018FE090E00E94FF2F40E050E0BA013A
:1031200083E190E00E94FF2F0895A7E0B0E0EBE973
:10313000F8E10C94722F7C01DC0113964D915C91A7
:10314000149711966C9111978C910E948A058111A8
:10315000D3C061E0C7010E94130D8C01F7015280BA
:10316000552009F483C782519F45409708F05CC7FA
:103170008FEF93E00E94DF2F8111AEC07EEED72E3D
:10318000D00E0BE411E0D11036C019821A821B82D6
:103190001C8299249A9468012FEFC21AD20AC8019E
:1031A0000E94DF2F89831A82882309F495C0813019
:1031B00009F087C0580132E0A30EB11CC6010E947D
:1031C000DF2FC82E8A83882309F486C0C5010E9498
:1031D000DF2FD82E8FEF8C0D8330D8F4580143E0C9
:1031E000A40EB11CDB82DD2021F0CE0101960E94ED
:1031F000A4168501D0CF0115F4E01F0709F46CC0B7
:10320000C8010E94DF2F811101C0DA940F5F1F4FA8
:10321000BACF8BEF8C0D833070F5C8010396DB823B
:103220005C01DD2031F3580154E0A50EB11C0E9471
:10323000DF2F8C838823E9F20B811C8101306FEF33
:10324000160710F0102F002776E0C71681F087E0F0
:10325000C81649F0C8010E94252780915303909118
:1032600054030E941C0CC8010E940027C2CFC80151
:103270000E942527BECF94E0C912BBCF5801A4E01D
:10328000AA0EB11CC80103960E94DF2FDD2021F198
:10329000882311F18150990B989E9001999E300DD1
:1032A0001124ED2DE150FF0BCF01820F931F0197E9
:1032B00008F49FCFAFE9BFE01197F1F700C000001D
:1032C000F6CFCE0101960E94A416560192CF81E05E
:1032D0000E9478100E942E108091E601877061F0A4
:1032E000D70112968C91882339F08091240482FFB3
:1032F00003C082E00E9447102796E2E10C948E2FD3
:1033000081E00E943A10E6CF82E0E2CF82E0F9CF7E
:1033100081E080930001E0CF80954822D3C65520FC
:1033200009F456C610938F0100938E010E949304F6
:1033300060930D0470930E0480930F049093100417
:103340001092150410921404BDC682FB882780F9E0
:10335000FCC6552001F18170F8C60E94041581C792
:103360000497813A910558F46A2D8EE691E00E9407
:10337000AB04552009F4D3C50E94780FADCF0E944D
:10338000780F8FE39CE90197F1F700C000008A2DC8
:103390000E94B415EECF9D819F5F9D83ABC6FC015B
:1033A000208131810217130709F0B2C55110B2C54F
:1033B0001092130480E035C68091190181608093DA
:1033C0001901DAC5809119018E7F809319010E943D
:1033D000EA0FD2C5809119018F7E013E110531F0AF
:1033E000053E1105C9F4809119018F7D8093190163
:1033F0008091190180FFCFC5D70112968C910832B8
:10340000110528F50E31110508F074C004301105BE
:1034100080F58111BCC5BFC5C8019056811560E219
:10342000960720F0905E8115904110F78091190168
:1034300082FFB1C58091520381FDADC529E132E023
:1034400040E0B60190E080E00E947217A4C5093305
:10345000110558F40D32110518F40B321105C9F697
:103460009091500392FDD5CF08C004361105C1F3E9
:10347000D0CF9091500394FDCCCF882309F49DC008
:103480009091140380910902282F292B322F3D7F20
:10349000B1F110925C0310925B033091500331FD47
:1034A0002EC0F80143E0F695E7954A95E1F7EE71F5
:1034B000FF27EB5EFC4F98012F70332781E090E0EF
:1034C00002C0880F991F2A95E2F780959095208178
:1034D0003181822393239183808360E0C8010E941D
:1034E0005D17809109028D7F0E941B0A82E00E9475
:1034F0004710F2CE9091500393FD8BCFBECF38E0B2
:10350000F701A9E1B2E001900D923A95E1F710922E
:103510001B0210921D0210921C02A0905B03B0903F
:103520005C030A151B0591F53091500335FF2EC041
:103530004091190141FB992490F841FF02C036FFE8
:1035400025C04091590350915A03F601E41BF50B35
:10355000E83CF105D8F491FF08C080911901806121
:103560008093190182E00E942F0A8091140385FF45
:1035700008C08091190180628093190180E20E9445
:103580002F0A692DC5010E945D17A6CE90911901E1
:1035900021FB91F9909319018D7F0E941B0A1093D2
:1035A0005C0300935B03D0925A03C092590380914D
:1035B000190184608093190199CF970140E0B60109
:1035C000C8010E94721788CE053F6CE5160709F402
:1035D00060C008F45AC027E245EE66EE063F8CE56F
:1035E000180709F4F1C4D70112963C91332309F46A
:1035F000DFC510925B040330BDE51B0708F050C027
:103600000A3FECE51E0730F4C80182509C45449700
:1036100008F052C00E943A0D909324048093230432
:1036200002315CE5150709F48DC108F0DDC00930F1
:103630007CE5170709F464C108F0A7C005309CE5D4
:10364000190709F451C108F08EC00330BCE51B070F
:1036500009F442C108F044C1809123048160023022
:10366000FCE51F0709F4BDC0809123049091240458
:103670000E94E40D0E94A0102FCE27E245EE65EED9
:10368000A3C426E241EE60EE9FC427E245EE64EE5D
:103690009BC426E241EE62EE97C428E241E0EFCF00
:1036A000053AFDE51F0709F4B5CF08F055C001360E
:1036B0004DE5140709F4AECF06315CE5150709F4B2
:1036C0007CC50A359DE5190709F495C108F06EC15E
:1036D0000115BCE51B0709F474C10E3D1C4509F436
:1036E0007DC1F70186819781009709F488C10E9406
:1036F0008208182F092FF701D280C580C2943FE0BD
:10370000C3228091E6018770C1F0AD2CDD20B1F0BD
:10371000892F807F803421F080E2810F883068F02B
:103720008091240482FF09C082E00E9447108091AA
:10373000E6018770AA24A3948111A12C902E929463
:103740002FE09222FBE0F91508F4EDC1E92DF0E03D
:10375000EB5CFF4C0C94652FC8018D5A9D45039777
:1037600008F0AACF57CF80912304806207302CE560
:103770001207B9F180912304806108303CE51307FA
:1037800080F18091230480642CC00D304CE5140737
:1037900009F4C0C090F4809123048E7F0B306CE557
:1037A0001607F9F0809123048C600C307CE5170734
:1037B000C0F0809123048D7F14C00F308CE5180772
:1037C00009F4B8C008F4AAC00031ACE51A0709F43E
:1037D000B5C0809123048F7B0131BCE51B0709F044
:1037E00043CF8093230440CF0F3FECE51E0709F43D
:1037F000B3C0A8F50A3F2CE5120709F479C0C0F45C
:1038000004314CE5140709F4B5C008F4A1C0053132
:103810006CE5160709F028CF8091230482FB9927D5
:1038200090F921E0922790FB82F990FB83F9D9CFA0
:103830000C3F7CE5170709F475C008F45DC00D3F27
:103840009CE5190709F472C08091240483600E3F3F
:10385000ACE51A0709F008CF8093240405CF0136A0
:10386000BDE51B0709F491C090F40130FDE51F0789
:1038700009F489C008F474C060E002303DE5130724
:1038800009F0F2CE8EE090E00E94ED2FEDCE0D3AE1
:103890004DE51407E9F060F490912304892F8E7FA1
:1038A00090FF8160053A6DE5160709F49ACFDCCEEA
:1038B0000E3A7DE5170751F10F3A8DE5180709F02B
:1038C000D3CE90912404892F877F93FF8860C4CF43
:1038D000809124048860C0CF80912304826081CFCE
:1038E0008091230484607DCF80912304886079CF08
:1038F000809124048160B0CF809124048260ACCF99
:103900000E94A0108091230480686BCF80912404D2
:10391000877FA2CF809123048B7F63CF8091230484
:10392000877F5FCF809124048E7F96CF809124047F
:103930008D7F92CF809123048F7E53CF809123047B
:103940008F7D4FCF0E94A010809123048F7749CFA5
:1039500080912304837F45CF809124048C7F7CCF8A
:1039600080912404982F909591708E7F892B90FBE5
:1039700081F972CF0E94A01090912304892F97FBA8
:1039800087F980582ECF61E07DCF90912304892F55
:103990008F7E94FF806125CF80919001811104C0BA
:1039A00089E20E94570AE8CC85E3FBCF0C35FDE5A0
:1039B0001F07B9F010F1073A1D4509F092CE0E9499
:1039C000C8140E94A0104FEF54E36CE041505040E7
:1039D0006040E1F700C000000E94F80B0E942A1826
:1039E000EECF8091240482FB882780F991E089271B
:1039F0000E94631076CE81E0FBCF80E0F9CF828118
:103A000000811181882369F0C8010E94970CD82E8B
:103A1000682FC8010E94E00AB8018D2D0E947A0C1F
:103A200066CEC8010E94AC0AD82EF6CF202F2F7088
:103A3000B22E802F807F19F0B29490EFB922DD2052
:103A4000B9F0BB2069F080E2810F883010F01111CD
:103A500009C080911403B82AB09214030E94780F11
:103A6000812F5FC080915804B82AB0925804F6CFD5
:103A7000812F0E940415BB2009F455C080E2810FFC
:103A8000883010F0111104C08B2D0E942F0A06C03F
:103A9000B09480915804B822B09258040E94780FD4
:103AA00042C0302F3F70B32E802F807F803219F0BC
:103AB000B29480EFB822112321F1113009F4B0C083
:103AC000DD2009F4B9C0CC2009F481C020E0D70181
:103AD0004C9111965C91119712966C9112971396D6
:103AE0007C91139714968C910E94F00C8091520354
:103AF00081FDB6CFF701858180FFB2CF8F708583BE
:103B000066C08091240482FD42C0DD20D1F1BB203B
:103B100039F080911403B82AB09214030E94780FF0
:103B200080E00E94B415692D6850770B64307105F0
:103B300010F40E940C05812F902F0E94170B811109
:103B4000C1C11092930110929201AA20A9F0809114
:103B5000E60180FD11C0F701128285958595859556
:103B60000E947810C7010E9495188091E601859502
:103B7000859585950E943A1060E0C7010E94130D5B
:103B8000BBCB80E00E940415BB2069F27DCFDD2015
:103B900011F1C11004C0809109028B2919C041E0C4
:103BA000C41206C0809109028B290E941B0ABBCF58
:103BB00080915103823078F3C812EDCF0E94100A31
:103BC000909191018B2D892B8913809391018B2DDD
:103BD0000E94FA14A8CFC11003C00E94100A17C097
:103BE0008091510351E0C51216C0823008F49BCF7A
:103BF000809114038B2109F496CF0E94100A9091B2
:103C000091018B2D809589238913809391018B2DB0
:103C10000E94F31488CF823000F3C812DECF83CF26
:103C200080915703DD2021F08C1508F47CCFCFCF95
:103C3000C81608F078CFEBCFCC2049F3809155031C
:103C400090915603193321F08091530390915403BE
:103C50000E941C0C812F0E94041565CF802F869531
:103C60008695837069F0813009F05DCF812F902FA8
:103C70009370D11002C090E080E00E94E00453CF26
:103C8000812F902F9370D11002C090E080E00E94AD
:103C9000F60449CF812FDD2029F00E94BE070E9443
:103CA0007C0641CF0E94A306FACF802F837091F546
:103CB000D11039CF412F429546954770440F440F9C
:103CC000812F8F70042E01C0880F0A94EAF7212FEC
:103CD000207114FF07C02FE030E001C0220F4A9589
:103CE000EAF72095302F369536953370323069F0EB
:103CF00050F440910A02313029F0822B84230E9433
:103D00009B1011CF842B822BFACF282B80910A0293
:103D10008227F5CF8695DD2011F0802F81708823D2
:103D200009F401CF412F429546954770440F440F47
:103D3000812F8F70042E01C0880F0A94EAF7212F7B
:103D4000207114FF07C02FE030E001C0220F4A9518
:103D5000EAF72095302F369536953370323069F07A
:103D600050F440915704313029F0822B84230E9473
:103D70002910D9CE842B822BFACF282B809157047F
:103D80008227F5CFF02FFF70BF2EDD2029F08F2F77
:103D90000E947810812F1CCF812F0E94F3148B2D4D
:103DA0000E943A10C0CE123F89F160F4103FB9F082
:103DB000113F81F0DD2009F480C0C11051CE802F69
:103DC0008F7128C0133F49F1143FA1F7809124045B
:103DD00082FD2FC0802F8F71DD2011F31BC08091D9
:103DE0005703DD2079F0C81608F09DCE202F2F71E3
:103DF00081E090E001C0880F2A95EAF7909157047E
:103E00008927B5CF8C1508F48ECEF0CF802F8F7117
:103E1000D110C6CF0E94781086CE80E0DD2009F454
:103E2000A6CF81E0902F9F7101C0880F9A95EAF785
:103E30009ECF80915103823040F1DD20D1F09091EE
:103E4000E6019770943041F40E94360A802F8F71FA
:103E50000E943A10A12C67CEC816E0F7202F2F71D0
:103E6000B22E822F0E94781063E08B2D0E94841066
:103E7000F1CFC81630F00E94360A64E0802F8F71AF
:103E8000F5CF81E00E944710E5CFDD2059F0302FBB
:103E90003F71B32E832F0E94781063E08B2D0E9418
:103EA000841041CE81E00E94471041E04C1508F09B
:103EB0003ACE82E00E94471036CEC110BFCE802F8E
:103EC0008F716ECFDD2019F0C1103BCE3ECEC110F8
:103ED00038CE20E0D7014C9111965C911197129643
:103EE0006C91129713967C91139714968C910E9463
:103EF000F00C8091520383FF24CE80919201909127
:103F00009301029709F01DCE812F0E94251619CE2C
:103F1000552029F0DC0118968C9185FF4BCA8091C1
:103F2000500380FF38C00E949F046C01F70182811A
:103F3000882309F44FCA8091190182FF08C029E142
:103F400032E040E0B60190E080E00E9472170B3151
:103F5000FCE51F0709F430CA0C312CE5120709F4FF
:103F600031CA90911901892F8E7F90FF81600A31AB
:103F70003CE5130709F429CAC8019056811540E2AF
:103F8000940728F0905E8115904108F031CA109294
:103F90005C0310925B03033FFCE51F0709F471CB40
:103FA00008F012CB083D3CE5130709F466CB093D48
:103FB0004CE5140709F471CB073D5CE5150709F0E2
:103FC00012CB26E241EE61EEC7010E94471684C97A
:103FD00080918E0190918F010817190781F410923A
:103FE0008F0110928E0110920D0410920E04109207
:103FF0000F04109210041092150410921404809172
:10400000160490911704009709F489CFA8E08A1646
:10401000910408F0C4C9642D0E946A0581117FCF04
:1040200081E00E9436157BCF0031BFE51B0709F404
:104030004EC90131EFE51E0709F466C90F35EDE5FC
:104040001E0709F465C90036FDE51F0749F00E3566
:104050002DE51207A1F480910001882309F458C9C5
:104060001092000180E00E94361536C98031FFE5CC
:104070009F0709F445C981319F4509F447C98091DB
:104080000001882309F44BCF480130EE831A9108D0
:104090004090090280919101482A80911403482A96
:1040A00048E08416910408F03AC998012770332734
:1040B00081E090E001C0880F2A95EAF7552009F4C5
:1040C0002BC9482AD7018D919C910E94AC0A21E00E
:1040D00030E0190102C0220C331C8A95E2F7E0910E
:1040E0001604F0911704FF83EE8360908E017090A8
:1040F0008F011D822D81E22FF0E0EE0FFF1FEA57A6
:10410000FD4FC080D180C114D10409F478CF411093
:1041100005C0D60112968C9181113DC9F6018381AB
:1041200090E082219321892B09F435C98085982F4D
:10413000977009F487E0F8E08F16910408F009C938
:10414000552009F402C986958170882309F423C992
:10415000D601AD90BC900A151B0519F4552009F441
:104160001AC9EE81FF81CE16DF0609F414C9D60103
:104170001D96ED91FC91309721F08081882309F400
:104180000AC9642DC6010E946A05882309F403C97F
:104190000A151B0509F03FC00115110509F440C0BF
:1041A000511040C0A614B70409F0F5C8512C3AC00C
:1041B00006314CE5140709F094CA80911403982F36
:1041C0009A7A20914F0320FF04C0482F447409F0CD
:1041D00090E021FF04C0482F417109F090E022FFD8
:1041E00004C0482F487809F090E023FF03C0827292
:1041F00009F090E0332309F4CFCB81E0911101C0A5
:1042000080E08093900169E2911165E38EE691E090
:104210000E94AB04B1C8A114B10409F0C3CF512C62
:10422000B12CA12C80E00E943615D0921704C092C8
:10423000160481E080931304D60115968C91809327
:10424000110451100EC0AB2861F0F60180819181FC
:104250009C0124503109213A310508F07EC80E94A2
:10426000570AD6011696AD90BC90C5019A95811556
:104270009F4110F4E0EEBE2277247394C5010197AC
:10428000803B9D4508F0712CD6011996ED91FC916B
:104290001A97309731F01B966D917C9181E00995CA
:1042A0007822772079F0F601868197810E94320B7F
:1042B00080931204C501F8E08F16910408F050C8ED
:1042C0000E9419050E94780F54C8EF92FF920F9335
:1042D0001F93CF93DF9380919F01807F09F04CC0A3
:1042E00080919C01882309F447C0C091E301E090CC
:1042F000A201D0919A01F0909B0100919D01109133
:104300009E01EC16C9F1A8016F2D8D2F0E948A0520
:104310002C2F30E0811135C0F90183E0EE0FFF1F33
:104320008A95E1F7DF01AD55BE4F11968C9111973B
:104330008F1127C08C918D1324C012968C911297E7
:1043400081111FC013968D919C91801B910B883C0D
:104350009105B8F480919F018F70806180939F01D7
:10436000E855FE4F80818F70806180838AE991E0FB
:104370000E9495180E94A20ACDB7DEB7E6E00C9421
:104380009A2F2F5F3F4FC22FC770BBCFA5E1B0E080
:10439000ECECF1E20C94742F8C0185E0F801DE0165
:1043A000519601900D928A95E1F7D8016C90119683
:1043B0007C9011971296EC9012971396CD90DC900A
:1043C00060E08AE991E00E94130D8AE9A82E81E05D
:1043D000B82E50909A0140909B0180909D01909042
:1043E0009E01A401642D852D0E948A0581115CC166
:1043F000F0909C01960128193909FF2009F417C192
:1044000080919F01982F907F283C310508F0D2C001
:10441000F8012181911181C0FE2C24111FC09081CF
:1044200095111CC04091A0015091A10126813781B6
:104430004217530799F4E11011C08F708061809387
:104440009F01C5010E94951880919F01D801159682
:104450008C938F2D6596E0E10C94902FA601672D2B
:10446000862D0E948A05D82E81E08E25D11080E00D
:1044700080FF18C04E2D672D862D0E94820A88234A
:1044800089F08091520380FF0DC08AE991E00E947B
:10449000951888E0EAE9F1E0DF011D928A95E9F7D5
:1044A000F12CD7CF81E08E25D11080E0B82FB170EC
:1044B000DB2E80FF29C04E2D672D862D0E94820A9B
:1044C000C82E811121C0698A7A8A89899A890E94B5
:1044D000C60C292F22952F70223050F0243078F40A
:1044E0009F7051F0F8019581907F31F4FC2CB1CF91
:1044F0009F7011F08823D1F3805E8830B8F3C80133
:104500000E949518CD2CF2CFEE2009F4A2CF809115
:104510009F01816080939F01C3CF24111BC09081B4
:10452000951118C04091A0015091A10126813781B9
:104530004217530779F4E1100DC08583C8010E942A
:10454000951888E0F801AAE9B1E001900D928A95EA
:10455000E1F77FCFC8010E94D30C882339F1EE2008
:1045600029F180919F018032A0F020919A01309131
:104570009B013A8729871B86DD86CC868E878091B2
:10458000A0019091A101988B8F87CE0109960E947E
:10459000951888E0F801AAE9B1E001900D928A959A
:1045A000E1F70E946521FF24F39453CFC8010E94D4
:1045B0009518F9CF992309F468CFF80191819411E6
:1045C00018C09081951115C04091A0015091A10192
:1045D000268137814217530761F4E1100AC08583B1
:1045E000C8010E94951888E0D5011D928A95E9F7C7
:1045F00030CFC8010E94D30C8823C1F2EE20B1F263
:1046000080919F01803228F220919A0130919B0184
:104610003A8329831B82DD82CC828E838091A00124
:104620009091A10198878F83CE010196B0CF283C4D
:104630003105C8F6FE2CEE2009F4B8CFF8018181CF
:10464000841124C08081851121C02091A001309166
:10465000A1018681978128173907C1F480915203FF
:1046600082FD6FCF90919F0190FD6BCF907F09F4F9
:1046700068CF80919F018583903F09F45FCF982F89
:10468000907F905F8F70892B858358CFC8010E94DF
:10469000D30C81117ECF80919F01816080939F0117
:1046A000C8010E949518D5CEEE2009F47FCFC8012D
:1046B0000E94D30CF82E882309F478CF88E0F80103
:1046C000AAE9B1E001900D928A95E1F780919A01F3
:1046D00090919B010E94C60C0E946521BACEA0E178
:1046E000B0E0E5E7F3E20C94822F29873A874B8705
:1046F0005C876D877E878F87988BCE0109960E9495
:10470000C62181112FC088E0FE013996DE01119685
:1047100001900D928A95E1F74C855D856A858985C2
:104720000E948A0581111EC0A091A201B0E0CD01B6
:104730000196877099272091E30128171906E1F067
:1047400093E0AA0FBB1F9A95E1F7AD55BE4F98E0D5
:10475000FE01319601900D929A95E1F78093A201A6
:104760000E94A20A8091E3019091A201891312C0D4
:104770006096E2E00C949E2F0E94A0101092A2017D
:104780001092E30188E0EAE9F1E0DF011D928A95E9
:10479000E9F7E8CFB8E08B9FC00111248D559E4FFB
:1047A0000E94C621882321F38091E30190E00196C5
:1047B000877099278093E301D5CFEF92FF920F93F3
:1047C0001F93CF93DF9380916003882361F0C091A2
:1047D0005F038CE0F82E80916003C81748F01092B8
:1047E000600310925F03CDB7DEB7E6E00C949A2F1A
:1047F000EE24E394EC0EE0925F030C2F10E0CF9DCB
:10480000E0011124CF59DC4F4B815C8169818881A3
:104810000E948A0581111DC08E819F81892B21F400
:1048200088859985019651F4288139814A815B8177
:104830006C817D818E819F810E946F23F09EF001AB
:10484000F19EF00D1124EF59FC4F14821382109247
:104850005804CE2DC0CF109204041092030410927D
:104860001A0180910204809301040E94C3050E94F2
:10487000DD230895B0E0A0E0E0E4F4E20C94732FAF
:10488000C091010497E0892E01E010E02CE0322E67
:104890003EEF932E44244394809102048C1309C06C
:1048A0000E94DD230E94C305CDB7DEB7E1E10C9481
:1048B0008F2FD0E0FE01EE0FFF1FE750FC4F8081ED
:1048C0009181889ED001899EB00D1124AF53BC4FB9
:1048D00014962C911497211158C050906003E1E672
:1048E000F3E030E020E0712C5D01251508F04BC0AD
:1048F000E284F384D501CD90DC906FEF7FEF612CE3
:10490000462D50E0DA01AA0FBB1FAC0DBD1D0D9066
:10491000BC91A02D109731F0EA16FB0609F4BA01FC
:104920006394EECF6F3F7607A9F1D80102C0AA0FBA
:10493000BB1F6A95E2F77A2AB801062C02C0660FFF
:10494000771F0A94E2F7AB0141505109741615061E
:10495000F9F4329EF001339EF00D1124EF59FC4F13
:10496000889ED001899EB00D1124AF53BC4F129682
:104970002D913C9113973783268390829182918762
:10498000808715964C920E9495052196C37084CF1E
:10499000148213822F5F3F4F3C96A7CFA9E1B0E06E
:1049A000E4EDF4E20C94722F942F498B252F5A8B4F
:1049B0006B8B7C8B8D8B4C895D89622F892F0E943C
:1049C0008A05811109C0809192019091930101960D
:1049D00090939301809392018B89811110925804D6
:1049E0001D861E861F86188A85E0FE017196DE01EF
:1049F000199601900D928A95E1F78091240482FF27
:104A00001EC08091370390913803892BC1F00E941A
:104A10009F042091E4013091E501821B930B2091CA
:104A20003703309138038217930720F08091E60115
:104A300082FFE2C10E943D0A81110E94100A4C854A
:104A40005D856A8589850E948A05811111C061E0B2
:104A5000CE0109960E94130D6C018B8527EFC216BB
:104A60002CE5D20681F4882321F181E080931A019C
:104A700029853A854B855C856D857E858F859889EE
:104A80000E946F23C6C038EFC3163CE5D30629F455
:104A9000882379F00E942B24EBCF49EFC4164CE514
:104AA000D40639F4882329F080911A018111F2CFBC
:104AB000DCCF01EC13E0512CB12CA12C2224239447
:104AC000312C2EEF422EF8014081518188248A94A6
:104AD000982C20E0822F90E0FC01EE0FFF1FE40FE6
:104AE000F51F608171816115710531F0C616D70619
:104AF00009F44C012F5FEECFF12CFFEF8F169F06CC
:104B000009F449C0F8014481F0901A018F2D411138
:104B100080E0F82FF170FF2EF801E58086819B85FB
:104B2000992309F4F8C0FF2009F4F5C060904B0305
:104B300070904C03E11013C0A101082C01C0440F78
:104B40000A94EAF7842B868380915D0390915E033B
:104B50008615970520F470925E0360925D03C10193
:104B600002C0880F991F2A95E2F70197F801268164
:104B70002817190681F4809103049091040400978A
:104B800009F44BC00E9484046816790608F045C0F9
:104B900021E0F80124835F28FFEFAF1ABF0A095F05
:104BA0001F4F28E0A216B10409F08DCF8B85882312
:104BB00009F40DC1552009F40AC10E949F04909385
:104BC00004048093030480916003883010F591E021
:104BD000980F9093600398E0FE013996DE011196DC
:104BE00001900D929A95E1F73CE0839FC00111245A
:104BF0008F599C4F28E0FE013196DC0101900D9207
:104C00002A95E1F72FEF3FEFFC0131872087D3860C
:104C1000C2866996E2E10C948E2F80910104509136
:104C20000204982FF0E0E0E0851314C09093010493
:104C3000E017F10709F4AFCF90E0FC01EE0FFF1F82
:104C4000E750FC4FB182A082019683709927809330
:104C50000204A1CF682E712CF301EE0FFF1FE75065
:104C6000FC4F2081318147E0429FD001439FB00D2E
:104C70001124AF53BC4F6D917C911197798F688F40
:104C800040E020E030E0E32FF0E0EE0FFF1F688D02
:104C9000798DE60FF71F8080918081149104E1F0F7
:104CA000F8010190F081E02DFF8BEE8B20E005C034
:104CB0008616970609F44F2D2F5FE22FF0E0EE0FD6
:104CC000FF1F6E897F89E60FF71F60817181611573
:104CD000710571F73F5FD7CF4423D1F0F801231757
:104CE00008F0FD0121E024830E171F0721F49093A3
:104CF0000104F42E50CF981305C0AE17BF0711F46E
:104D00009F5F937093012F5F3F4F822F83708CCFF3
:104D1000F0E0E0E0F7CF90E0E11020C0B10102C088
:104D2000660F771F2A95E2F79B0121503109821700
:104D3000930731F4442309F448C0C5010E94950546
:104D4000C101082C01C0880F0A94EAF7982F9095AA
:104D5000F801868189238683FE2C1DCF9C01082CB7
:104D600002C0359527950A94E2F7A90141705527AD
:104D7000BC016150710986239723892B11F5452BBE
:104D800001F1F80182819381892BC1F01B821C8281
:104D90001D821E8249824A820E949F048160582F90
:104DA0009D838C83F801828193818F8398872981E9
:104DB0003A814B816D817E810E946F23F8011582BB
:104DC000BFCFF22FF170EF2EBBCFEF2CB9CF909168
:104DD000010480910204981731F00E943A24552072
:104DE00009F446CE16CF0E94DD23109204041092DF
:104DF00003040E94C305F3CF82E00E9447101ACE3D
:104E0000A5E0B0E0E6E0F7E20C94822F9093110366
:104E100080931003811520E2920730F40E949C15C4
:104E20002596E2E00C949E2F80EF89838A831B8273
:104E30000E949F048160782F9D838C8349815A81D1
:104E40006B818D810E94CE24EBCFA5E0B0E0EBE238
:104E5000F7E20C94822F9093110380931003811535
:104E600020E2920730F40E9445172596E2E00C9468
:104E70009E2F80EF89838A8381E08B830E949F0429
:104E80008160782F9D838C8349815A816B818D81CC
:104E90000E94CE24EACF1F920F920FB60F921124D8
:104EA0002F933F934F935F936F937F938F939F9332
:104EB000AF93BF93CF93DF93EF93FF93D091E9002C
:104EC000DF708091EC00C82FC17080FDC0E81092A7
:104ED000E9008091F000877F8093F00078940E9431
:104EE000B6101092E9008091F00088608093F00085
:104EF000CD2BCF70C093E900FF91EF91DF91CF915F
:104F0000BF91AF919F918F917F916F915F914F91E1
:104F10003F912F910F900FBE0F901F9018951F92E9
:104F20000F920FB60F9211242F933F934F935F93DD
:104F30006F937F938F939F93AF93BF93EF93FF9361
:104F40008091E10082FF09C08091E20082FF05C0EC
:104F50008091E1008B7F8093E1008091DA0080FFF7
:104F600024C08091D80080FF20C08091DA008E7F1D
:104F70008093DA008091D90080FF9DC080E189BDD7
:104F800082E189BD09B400FEFDCF81E080934D042C
:104F900080912804811109C00E94FC020E94C7036D
:104FA0008091E20084608093E2008091E10080FFC4
:104FB00017C08091E20080FF13C08091E2008E7FD5
:104FC0008093E2008091E20080618093E200809112
:104FD000D80080628093D80019BC85E080934D048E
:104FE0008091E10084FF2BC08091E20084FF27C004
:104FF00080E189BD82E189BD89B5982F917080FFDC
:10500000FBCF8091D8008F7D8093D8008091E10004
:105010008F7E8093E1008091E2008F7E8093E2009A
:105020008091E20081608093E20080914E048823A9
:1050300009F447C084E080934D0480914D04809131
:10504000E10083FF27C08091E20083FF23C08091AD
:10505000E100877F8093E10082E080934D0410920D
:105060004E048091E1008E7F8093E1008091E20008
:105070008E7F8093E2008091E20080618093E20065
:1050800042E060E080E00E9495038091F00088603B
:105090008093F000FF91EF91BF91AF919F918F911D
:1050A0007F916F915F914F913F912F910F900FBE24
:1050B0000F901F90189519BC10924D04109228045F
:1050C00074CF8091E30087FD93E090934D04B5CFBA
:1050D00078941F921FB61F9211248F939F93AF93C2
:1050E000BF9380911F0490912004A0912104B0915E
:1050F00022040196A11DB11D80931F0490932004EA
:10510000A0932104B0932204BF91AF919F918F91FE
:105110001F901FBE1F9018951F921FB61F9211243B
:105120008F939F93AF93BF9380911E04811113C0FF
:1051300080911F0490912004A0912104B091220439
:105140004196A11DB11D80931F0490932004A0934C
:105150002104B0932204BF91AF919F918F911F9032
:105160001FBE1F901895CDB7DEB7E4970FB6F89421
:10517000DEBF0FBECDBF85B7806885BF85B78068AD
:1051800085BF84B7877F84BF0FB6F894A8958091B8
:105190006000886180936000109260000FBE80E81C
:1051A00090E00FB6F89480936100909361000FBE79
:1051B00086E298E090936D0180936C010E947D0ED1
:1051C0000E94F20D0E94260C0E94FC020E94C7035E
:1051D0008091E20084608093E200789480914D0495
:1051E0008823A1F01091E9001F709091EC00892FA5
:1051F000817090FD80E8182B1092E9008091E80002
:1052000083FD0E94B6101F701093E90082E084BDF8
:1052100093E095BD9AEF97BD80936E000E94210D9B
:10522000811102C00E943F1486EF0E94280887EF78
:105230000E94280881E30E94280883E30E9428082E
:1052400084E90E94280886E60E94280887E90E94CF
:10525000280884E0E4E2F2E0DF01282F1D922A957D
:10526000E9F7EEE0F2E0DF011D928A95E9F790E0C0
:1052700080E00E94E72F883E9E4F21F40E94210D7E
:10528000811102C00E942A1882E090E00E94DF2F64
:10529000809314020E943A0D909324048093230477
:1052A0000E94C00EEFEFF6E721E0E150F040204011
:1052B000E1F700C000000E94C00E8091240280FF30
:1052C00008C06FEF7FEF90E080E00E940B300E94FB
:1052D000F80B83E090E00E94DF2F0E949B1081E09A
:1052E00091E090931B0480931A04B8E1CB2ED12C4B
:1052F00084E292E014E0B12EB80E8E010F5F1F4FD2
:1053000080914D04E0E4AE2EF0E1EF2EA2E1FA2E02
:10531000853009F47BC00E94C00E65E1862E62E0F4
:10532000962E74E2672E72E0772E29E132E0D301E7
:10533000F40191918D912E173F0709F471C09817D0
:10534000C1F3F12CD301ED903D01F40141904F01E7
:105350004E1419F14E24A12C55245394842D8521EB
:10536000A1F0A8AAF9AA91E08E2D852109F490E078
:105370009AAB0E949F048160782F9CAB8BAB48A9AD
:1053800059A96AA98CA90E94CE24A394550CF3E0D4
:10539000AF12E4CFF4013197E082F39424E0F212EB
:1053A000D1CF0E9493045CC080914D04843009F1F8
:1053B00010921E040FB6F894A895C09260000FBE1C
:1053C000A092600083B7817F846083BF83B78160D0
:1053D00083BF7894889583B78E7F83BF0FB6F89488
:1053E000A8958091600088618093600010926000B1
:1053F0000FBE80914C04882349F00E94C00EE4E265
:10540000F2E081918111EDC4BE12FBCF80914D0479
:10541000853009F4C9CF0E94A0100E940C057BCFF3
:1054200098138FCF0E949F047C018091120290916B
:105430001302E816F906A1F08FEF8BA78CA71DA623
:105440000E949F048160782F9FA78EA74BA55CA523
:105450006DA58FA50E94CE24F0921302E092120255
:105460008091140490911504892B09F43EC0409159
:10547000090450910A0460910B0470910C042FB739
:10548000F89480911F0490912004A0912104B09180
:1054900022042FBF841B950BA60BB70B409105046C
:1054A00050910604609107047091080484179507D1
:1054B000A607B707D0F080911404909115040E94BC
:1054C00045171092150410921404109209041092BA
:1054D0000A0410920B0410920C041092050410920E
:1054E0000604109207041092080480911A01882380
:1054F00001F180910304909104040097D1F00E947F
:10550000840420915D0330915E032817390788F4E5
:105510009091010480910204981709F4D0C00E9470
:105520003A2410925E0310925D03109204041092CC
:1055300003048091500380FF1EC08091190182FFF7
:105540001AC00E949F042091590330915A03AC0164
:10555000421B530B2091170130911801421753073A
:1055600050F029E132E041E0BC0180915B03909171
:105570005C030E94721786E0EFE2F2E0D80101902E
:105580000D928A95E1F71092310210923202109238
:105590003302109234028B819C81892B91F080918F
:1055A0002D0290912E020E948404AC019091290258
:1055B000992309F48DC0809115018417150608F40C
:1055C00095C08D819E81892B91F080912B029091C5
:1055D0002C020E948404AC0190912802992309F4C2
:1055E000C6C0809111018417150608F4CEC046E0AC
:1055F00050E0B8018FE292E00E94B22F892B61F453
:105600008091310290913202892B90913302892B43
:1056100090913402892B11F00E947C0686E0F801FB
:10562000AFE2B2E001900D928A95E1F70E940C057D
:1056300090912102891721F0809321020E94930406
:1056400080914D04843009F05BCE83E08093E900C3
:105650008091E80082FF54CE8091E80090E085FFC1
:105660000AC00E941B0350E2E52EF12C480188235A
:1056700009F4D6C091E08091E8008B778093E80030
:10568000992309F43DCEE0901203F0901303898131
:10569000E114F10409F4D2C08E3F09F011C18A81EE
:1056A000833020F08550833008F00AC1EA81EE3063
:1056B00008F006C1F0E0EF5BFF4C0C94652F0E94F0
:1056C000DD2310920404109203040E94C30531CF1D
:1056D000209116018AE0289F900111242417350794
:1056E00008F06FCF9F5F9093290202C09F3FD1F7D0
:1056F000FB80FF2059F00E945F079FEF1F140CF4FE
:1057000091E0899F802D112480933102FC80FF203D
:1057100059F00E945F079FEF1F140CF491E0899FDE
:10572000802D11248093320230913102332309F409
:1057300048CF20913202222309F443CF45EB3403B2
:10574000C0011124992359F09093310245EB2403B1
:1057500090011124332339F03093320232CF81E0AB
:1057600080933102F3CF81E0809332022ACF2091DF
:1057700012018AE0289F900111242417350708F0B0
:1057800036CF9F5F9093280202C09F3FD1F7FD80E4
:10579000FF2059F00E9426079FEF1F140CF491E0A0
:1057A000899F802D112480933302FE80FF2059F0C1
:1057B0000E9426079FEF1F140CF491E0899F802D13
:1057C00011248093340230913302332309F40FCF34
:1057D00020913402222309F40ACF45EB3403C0019F
:1057E0001124992359F09093330245EB240390013F
:1057F0001124332339F030933402F9CE81E08093C1
:105800003302F3CF81E080933402F1CE8091F10036
:10581000D4018D934D01B1E0EB1AF10809F42ACFC0
:105820008091E80085FDF2CF8091E8008B7780932E
:10583000E8000E941B03882399F31CCF8D3009F4E4
:10584000A3C0B0F4843009F486C040F4823041F142
:1058500008F072C0813001F18FEFE8C2863009F4A0
:1058600090C008F483C08C30B9F780E18A8328C0E7
:10587000813109F4E5C040F48F3009F4B3C008F475
:1058800087C00E94950D1CC0833109F403C108F440
:10589000D9C08E3F09F70ACF1A8289E08B8310C0E6
:1058A0008A81823009F4E1C2833099F18130A1F616
:1058B0000E9493040E946B2F6B837C838D839E8355
:1058C00080914D04843009F01BCDF090E9003F2D0C
:1058D0003F70F32E9091EC00892F817090FD80E84D
:1058E000F82A82E08093E9008091E80080FF0CC0F4
:1058F00050E040E060E270E0C8010E944C038091FB
:10590000E8008E778093E8008F2D8F708093E900F8
:10591000F7CC80910D0190910E01892B89F2809135
:1059200024028B83809125028C83809126028D83B3
:10593000809127028E83C4CF8A81823009F08CCF78
:105940006B817C818D819E810E946B2F86E290E02D
:105950000E94ED2FB5CF4C816B818A810E944B0C48
:105960009827892798279E838D83AACF2D813E81F2
:105970003227232732274C816B818A810E94A50D13
:105980009FCF0E94CF139CCF82E08A8385EB86CF86
:10599000EC80F12CEDE1EE16F10408F091CF8A8055
:1059A0009B809824892498243801E00EF11EC401BC
:1059B000855B9E4FE614F70409F482CFF5EB8F1652
:1059C000F2E09F0660F40E94DF2FD30114968C93BF
:1059D000FFEF8F1A9F0A2FEF621A720AE8CFF301C6
:1059E0001482F6CF80910D0190910E01892B09F45C
:1059F00067CF8C80912C3DE18316910408F060CF35
:105A0000EA80FB80FE24EF24FE2438018E0C9F1CCC
:105A1000C701855B9E4F8E149F0409F451CF45EB5F
:105A2000E41642E0F40628F4D30114966C910E9427
:105A3000ED2FBFEF6B1A7B0AEFEFEE1AFE0AE8CFED
:105A400084E014CFEC80F12CFDE1EF16F10408F0B6
:105A500037CF8A809B809824892498243801E00ECF
:105A6000F11EC40187966E147F0409F429CF20E645
:105A70008216910460F40E94DF2FD30114968C9358
:105A8000FFEF8F1A9F0A2FEF621A720AEACFF30113
:105A90001482F6CF8C80912C3DE18316910408F09E
:105AA0000FCFEA80FB80FE24EF24FE2440E6E416BC
:105AB000F10408F005CF80E690E08E199F09881563
:105AC000990508F4FDCE38018E0C9F1CC7018796FE
:105AD0008E149F0409F4F4CEA0E6EA16F10420F433
