:100000000C944D030C9485030C9485030C94850388
:100010000C9485030C9485030C9485030C94850340
:100020000C9485030C9485030C94F82A0C94B42A40
:100030000C94F52B0C9485030C9485030C94850388
:100040000C9485030C9485030C9485030C94850310
:100050000C9485030C94D12B0C9485030C9485038C
:100060000C9485030C9485030C9485030C948503F0
:100070000C9485030C9485030C9485030C948503E0
:100080000C9485030C9485030C9485030C948503D0
:100090000C9485030C9485030C9485030C948503C0
:1000A0000C9485030C9485030C94850305010902C7
:1000B000A10185020901A100050919012905150001
:1000C00025019505750181029501750381010501E1
:1000D000093009311581257F950275088106093897
:1000E0001581257F950175088106050C0A380215D2
:1000F00081257F950175088106C0C005010980A191
:1001000001850319012AB700150126B7009501756D
:10011000108100C0050C0901A101850419012AA064
:1001200002150126A002950175108100C005010984
:1001300006A1018506050719E029E71500250195A7
:1001400008750181020507190029EF1500250195A1
:10015000F0750181020508190129059505750191C0
:1001600002950175039101C00660FF0961A10109B3
:1001700062150026FF0095207508810209631500AD
:1001800026FF00952075089102C005010906A1010E
:10019000050719E029E71500250195087501810279
:1001A0009501750881010507190029FF150026FF33
:1001B0000095067508810005081901290595057542
:1001C000019102950175039101C0FD377A585A00DB
:1001D0000004E6D6B4460200210116000000742F88
:1001E000E5A3E0014300BC5D003D8889C65436C3E9
:1001F000174FE4F41B0391E68889A4FDFDA8C2FA19
:10020000537470A11EB46865CB54FD94FC71EB5F10
:10021000A43FEE12874E3FA13EBB4A08C63B24F1E5
:1002200038D18CC7F3AE2E7E48BA8D5C794286D821
:10023000005FD5470861FBCB2A33BC5D34E015680D
:100240009E328675F9100FB76DB80E47529038710F
:100250006CDC141D8BD68C8BF5BC76DBE39F740EA7
:100260003D865E04F224D001406E1D07AC426F4E05
:100270001B7FB816E24E3F158B0D3B24ADDB8FCFB5
:10028000688B2DDE3767A5A5B24986AD7B960D7AC2
:1002900079EF7399EC6FDBE8E37B735DBE2A17C9D6
:1002A0004153E9F536001990FFA69EA505D200013D
:1002B000D801C402000010CEF3FAB1C467FB0200FB
:1002C00000000004595A0000000000000000000077
:1002D000000000000000000000000000000000001E
:1002E000000000000000000000000000000000000E
:1002F00000000000000000000000000000000000FE
:1003000000000100010001000100010001000100E6
:1003100001000100010001000100010001000100D5
:1003200001000100010001000100000001000100C6
:1003300001000100010000000100010001000100B6
:1003400001000100010001000100010001000100A5
:100350000100010001000100010001000100010095
:100360000100010001000000010001000100010086
:100370000100000001000100010001000100010076
:100380000100010001000100010001000100010065
:100390000100010001000100010001000100010055
:1003A0000100000001000100010001000100000047
:1003B0000100010001000100010001000100010035
:1003C0000100010001000100010001000100010025
:1003D0000100010001000100010001000100000016
:1003E0000100010001000100010000000100010006
:1003F00001000100010001000100010001000100F5
:1004000001000100010001000100010001000100E4
:1004100001000100010001000100000001000100D5
:1004200001000100010000000100010001000100C5
:100430000100E503060E390E000002000200E10390
:10044000060E390E000003000100E603060E390E09
:10045000000004000200CB03060E390EFE06050064
:100460000100E703060E390E000006000200CD036E
:10047000060E390E000007000200E303060E390ED7
:10048000000008000100E803060E390E0000090014
:100490000200CF03060E390ED9060A000200D1036E
:1004A000060E390ED9060B000200D303060E390ED4
:1004B000D9060C000200D503060E390ED9060D0030
:1004C0000200D703060E390ED9060E000200D9032A
:1004D000060E390ED9060F000200DB03060E390E98
:1004E000D90610000200DD03060E390ED9061100F0
:1004F0000200DF03060E390ED90612000200E903DE
:10050000060E390E000013000200EB03060E390E32
:10051000000014000100ED03060E390E0000150066
:10052000000000005F069515000009025B00030152
:1005300000A0FA09040000010301010009211101D2
:1005400000012240000705810308000109040100A1
:100550000203000000092111010001222200070509
:1005600082032000010705030320000109040200A3
:10057000010300000009211101000122BC00070550
:1005800084032000011201000200000008EDFE605B
:10059000600001010203011C037600690061006C28
:1005A000003A006600360034006300320062003317
:1005B000006300000014036A00750061006E0061B2
:1005C000006C00700068006100000018036A00758C
:1005D0000061006E006D00690063006800650072D4
:1005E000006F000000040309040000000000000088
:1005F00000000000000000000000000000000000FB
:10060000000000000000000000000000007E0F005D
:10061000D4FFFFFFC70000007800000000000000CA
:10062000002A2B280000000000000000000000004D
:100630000000000029000000002C1E34202122248C
:10064000342627252E362D3738271E1F202122231A
:100650002425263333362E37381F040506070809AC
:100660000A0B0C0D0E0F1011121314151617181972
:100670001A1B1C1D2F3130232D35040506070809D0
:100680000A0B0C0D0E0F1011121314151617181952
:100690001A1B1C1D2F3130354C0011241FBECFEF0B
:1006A000DAE0DEBFCDBF04B603FE18C08091F404CB
:1006B0009091F504A091F604B091F7048730904B27
:1006C000A740B04B59F41092F4041092F504109224
:1006D000F6041092F704E0E0F8E3099511E0A0E0D9
:1006E000B1E0ECEBF8E602C005900D92A237B1073D
:1006F000D9F724E0A2E7B1E001C01D92A43FB20700
:10070000E1F70E941C2C0C9431340C940000E8EDAD
:10071000F0E080818E7F80831092E2001092DA00F8
:100720001092E100A0EEB0E08C9181608C9380810A
:100730008F77808319BCA7EDB0E08C918E7F8C936E
:1007400080818F7E80831092C30408952091E400FD
:100750003091E50095E6A9012091EC00822F81708F
:1007600020FF06C08091E80080FF06C080E0089569
:100770002091E80022FD1AC08091E804882389F0C6
:10078000853089F08091EB0085FD0FC02091E40059
:100790003091E50042175307F9F29150E1F684E0F9
:1007A000089582E0089583E0089581E00895EF922E
:1007B000FF920F931F93CF937C018B010E94A6039E
:1007C000C82F811117C08091E80085FD0BC0809172
:1007D000E8008E778093E8000E94A603882399F3AF
:1007E000C82F08C0F70181917F018093F10001506B
:1007F000110949F78C2FCF911F910F91FF90EF9026
:1008000008958091EA0487FF13C08091E80082FF79
:1008100006C08091E8008B778093E80004C0809147
:10082000E8048111F2CF08958091E8048823D9F378
:100830008091E80080FFF8CF8091E8008E77ECCFC0
:10084000982F9093E900242F762F50E0891731F0EC
:100850007091EC002091ED005091F00021FD07C057
:100860009F5F973071F78093E90081E008953091A0
:10087000EB003E7F3093EB003091ED003D7F3093F5
:10088000ED003091EB0031603093EB007093EC00A1
:100890002093ED005093F0002091EE0027FDE0CF73
:1008A00080E00895B0E0A0E0E8E5F4E00C94843343
:1008B000C8EDD0E088818F7E8883E7EDF0E080810D
:1008C0008160808384E082BF81E08093C30488815B
:1008D0008E7F888302EE10E0F80110821092DA0019
:1008E00081EEC82ED12CF601108288818F77888303
:1008F00088818068888388818F7D888319BC109265
:10090000E8041092E9041092E7041092E60490EED5
:10091000E92EF12CF70180818B7F808388818160B3
:10092000888342E060E080E00E942004F60180813C
:100930008E7F8083F80180818160808380818860E0
:100940008083F70180818E7F8083888180618883A6
:10095000CDB7DEB7E8E00C94A033FC018091F00441
:100960009091F10486179707A0F06115710529F49D
:100970009091E8009E779093E80090E061157105F2
:1009800051F4911108C08091E80082FF34C080E0EA
:100990000895BC01F2CF8091E8048823C1F185302D
:1009A000C1F18091E80083FD30C08091E80082FDB4
:1009B000EACF8091E80080FFE1CF8091F3002091A1
:1009C000F200382F6115710519F02830310558F003
:1009D00091E02830310509F090E02091E8002E7771
:1009E0002093E800CBCF81918093F1006150710991
:1009F0002F5F3F4FE7CF8091E804882341F0853097
:100A000041F08091E80083FFBECF81E0089582E04D
:100A1000089583E0089508958091C50408959C0188
:100A20004FB7F8948091BA049091BB04A091BC0494
:100A3000B091BD044FBF821B930B08952FB7F8945C
:100A40006091BA047091BB048091BC049091BD0484
:100A50002FBF08952FB7F8948091BA049091BB04EA
:100A6000A091BC04B091BD042FBF089520911B013B
:100A70002223C1F02091BE0427FF14C0E62FE69583
:100A8000E695E695EE31F8F4E80FF92FF11D677061
:100A900021E030E001C0220F6A95EAF78281822BC3
:100AA00082830895FC0132962FEF30E04191641764
:100AB00051F02F3F19F4411101C0232F3F5F363011
:100AC000A9F72F3F09F40895820F911D27FD9A95EC
:100AD000FC01628308952091B7043091B80428176F
:100AE000390771F09093B8048093B704E091B5048E
:100AF000F091B604309721F00084F185E02D09953E
:100B000008952091B3043091B4042817390771F087
:100B10009093B4048093B304E091B504F091B604CB
:100B2000309721F00680F781E02D09950895E09136
:100B3000B504F091B604309729F00190F081E02DD2
:100B40000995089580E00895CF93DF93EC014091DB
:100B5000A3045091A4046091A5047091A6042FB73A
:100B6000F8948091BA049091BB04A091BC04B09118
:100B7000BD042FBF841B950BA60BB70B843F914080
:100B8000A105B10518F58091A3049091A404A0914A
:100B9000A504B091A60480939F049093A004A09311
:100BA000A104B093A20484EF91E0A0E0B0E08093B0
:100BB0009B0490939C04A0939D04B0939E04D093B7
:100BC000AB04C093AA04DF91CF9108950E941E0543
:100BD00060939F047093A0048093A1049093A20457
:100BE00082E390E0A0E0B0E0E2CFFC0184818623C4
:100BF00051F492819923B9F06923808583FF05C060
:100C000081E061110FC080E00895892F8F70929567
:100C10009F70982B862F8F7062956F70682B81E084
:100C20009613F1CF089581E0FDCF452B39F068236D
:100C300081E06F3F09F080E08170089581E0FCCF92
:100C4000DC016091970480919804962F891301C06C
:100C50000895292F30E0F901EE0FFF1FE157FB4FF8
:100C6000408151814A175B07A1F487E08A9FA00168
:100C70008B9F500D1124495A5B4F81E0FA01848308
:100C80009613E6CF2F5F3F4F2370332720939704AF
:100C900008952F5F3F4F922F9370D8CF1092F40397
:100CA0001092F303E7E5F4E08581811102C014821C
:100CB0001682379684E0EF38F807B1F70895B0E070
:100CC000A0E0E5E6F6E00C9482338FEF9FEF44302E
:100CD000510508F469C04091BE0441FB882780F9A2
:100CE00090E0880F991F42FB002700F910E0000FE9
:100CF000111F000F111F802B912B40FBCC24C0F83B
:100D0000D12C8C299D2943FB222720F9C22FE0E01A
:100D1000DE2F53E0CC0FDD1F5A95E1F78C2B9D2B76
:100D200044FBAA27A0F9B0E0E4E0AA0FBB1FEA95B4
:100D3000E1F78A2B9B2B45FBEE27E0F9F0E0A5E0DD
:100D4000EE0FFF1FAA95E1F78E2B9F2B46FB222764
:100D500020F930E0B6E0220F331FBA95E1F7822B7D
:100D6000932B47FB222720F930E03695322F22279C
:100D700037952795822B932B2091BF04322F31700A
:100D8000F32EE82EF92A26952170B22EBB0CA82E40
:100D9000BF28C501BB0CAA0BBB0BFB018083918351
:100DA000A283B38390E080E0CDB7DEB7EAE00C9495
:100DB0009E33EBECF3E0848195812AE030E0B901C9
:100DC0000E944533609316018681809315018285C8
:100DD0008093140184858093130186859785B901DA
:100DE0000E944533609312018089809311018289AA
:100DF00080931001848980930F0108958091CB0323
:100E00009091CC0390931801809317010895EBE51E
:100E1000F2E090E080E069E17AE240E45AE22EE814
:100E200039E27783668351874087338722879587A6
:100E3000848701963E968830910599F7089581152B
:100E40002CE5920741F420910D0130910E01232BE6
:100E500011F490E080E008950E942A059C01909191
:100E6000450280914602982B21F030934202209354
:100E700041029091470280914802982B21F03093D3
:100E8000400220933F02E091B504F091B604309700
:100E900049F082E0809343020480F581E02D83E4F1
:100EA00092E00995089590914502803F59F4809110
:100EB000460287FF0DC01092460291110BC010929E
:100EC0003D0208C0813F81F48091460218169CF3D0
:100ED000992381F08091470290914802892B09F073
:100EE00064C010923C020895823F49F497FFF0CF0E
:100EF00010924502809146028111ECCFE0CF833FF2
:100F000019F41916ACF3E4CF20914702893F29F474
:100F10001216F4F610924702DBCF8A3F19F427FF2E
:100F2000D7CFF8CF209148028B3F29F427FFD0CFAD
:100F300010924802CDCF8C3F19F41216CCF3C8CFD3
:100F4000843F31F4809144028E7F80934402C0CF6D
:100F5000853F21F4809144028D7FF7CF863F21F4B5
:100F6000809144028B7FF1CF873F21F4809144022E
:100F7000877FEBCF883F21F4809144028F7EE5CFBD
:100F80008D3F31F480913E028E7F80933E02A0CF50
:100F90008E3F21F480913E028D7FF7CF8F3F09F085
:100FA00097CF80913E028B7FF0CF089580913E02D3
:100FB00080FF0CC06091100170E075956795759584
:100FC00067956115710549F1862F089581FF06C067
:100FD0006091100170E075956795F3CF60911001F5
:100FE00082FD0BC090913C029923A1F060910F010A
:100FF00080911001961738F0682F70E06038710505
:1010000000F38FE70895899FC001112470E00E94CA
:101010005933F4CF61E070E0D7CF81E0089580913B
:101020003E026091D3037091D40380FF16C02091DB
:101030001401269FC001279F900D1124BC017695B5
:101040006795769567956038710508F043C061151E
:10105000710509F441C0862F089581FF0BC02091CE
:101060001401269FC001279F900D1124BC01769585
:101070006795E9CF82FF09C0809114019B01829F8F
:10108000B001839F700D1124DECF20913D022223F9
:10109000D1F29091130180911401482F50E029174B
:1010A00048F0CB01849FB001859F700D949F700D17
:1010B0001124C9CF289F90011124269FA001279FAA
:1010C000500D369F500D1124692F70E0CA010E9407
:1010D0004533B9CF8FE7089581E00895803F31F41B
:1010E0000E940F088195809346020895813F19F46C
:1010F0000E940F08F8CF823F31F40E940F088195BB
:10110000809345020895833F19F40E940F08F8CF99
:10111000893F29F40E94D6078093470208958A3FA9
:1011200021F40E94D6078195F7CF8B3F31F40E94BE
:10113000D60781958093480208958C3F19F40E9448
:10114000D607F8CF843F31F48091440281608093C8
:1011500044020895853F21F4809144028260F7CFD4
:10116000863F21F4809144028460F1CF873F21F4CF
:10117000809144028860EBCF883F21F48091440243
:101180008061E5CF8D3F31F480913E028160809394
:101190003E0208958E3F21F480913E028260F7CF97
:1011A0008F3FB9F780913E028460F1CF80E00895CF
:1011B000F894E82FE295EF70F0E031A1282F2F701E
:1011C00081E090E001C0880F2A95EAF7982F90956A
:1011D000932391A392A1892B82A37894089590914F
:1011E000BE0492FF06C0282F28712830F9F4877FAB
:1011F000846093FF06C0282F28712831F1F4877E80
:1012000084612091BF0420FF06C0382F3871383028
:10121000D9F4877F816021FF06C0282F28712831EB
:10122000D1F4877E816194FD877E0895282F2471F3
:101230002430F9F68B7F8860DCCF282F247124318D
:1012400001F78B7E8861DDCF382F3171313019F78E
:101250008E7F8860E0CF282F2171213121F78E7E8B
:101260008861E1CFCF93DF93EC0182389105B1F132
:1012700008F040C08133910509F49DC048F58932DA
:10128000910509F48DC08A9709F49CC0C11521E528
:10129000D20708F0C3C0C11530E5D30708F01EC15E
:1012A000C83ED10508F0A3C0C13ED10588F5C83AB3
:1012B000D10508F08EC0C53AD10508F007C1C1308C
:1012C000D10531F1209721F1C430D10508F545C091
:1012D0008533910509F45FC0C997C1F68091BE04BA
:1012E000837009F044C18091BF0483FF11C0C9E23B
:1012F000D0E00EC0833E910599F170F4803E9105D7
:1013000001F1823E910511F68091BE0482FD21C05B
:10131000CE01DF91CF910895863E910561F1873E20
:10132000910571F1843E910509F0B0CF8091BF0421
:1013300081FFEECF8091BE04C7EED0E084FD0DC0EA
:10134000E7CF8091BE0480FD33C09091BF0490FF31
:10135000DFCFC3EED0E084FFDBCFD0E0C0E0D8CF5A
:101360008091BE0482FD00C19091BF0490FDFFC03A
:1013700084FFCECFF2CF8091BE0483FDDDCFC8CFF6
:101380008091BE0483FDF6C09091BF0491FFF0CF21
:10139000C4EED0E0BDCF8091BE0485FFB9CFA7CF0A
:1013A0008091BE0485FDE9C08091BF0483FFB0CF6A
:1013B000C9E3D0E0ADCF8091BE0486FFA9CFCAE2D9
:1013C000D0E0A6CF8091BE0486FFA2CFC1E3D0E0DB
:1013D0009FCFCF3BD10508F6C85AD0E0CC0FDD1F18
:1013E000C95DDE4F0990D881C02DD46491CFC1155D
:1013F00040E2D40758F4C11581E0D80708F088CF3F
:10140000C03FD10508F4A9CFD06582CFC11520E433
:10141000D20708F4A2CFDF70D06A7ACFC11535E5C4
:10142000D30718F5C11544E5D40708F085C0C115E8
:1014300083E5D80708F06CC0C11522E5D20708F48F
:1014400062C0CE018370992721E030E002C0220FF4
:10145000331F8A95E2F7C695C69580E2C89FE001E2
:101460001124C22BD32BDC6853CFC11539E5D30728
:10147000A8F4C11548E5D40708F063C0C11586E596
:10148000D80708F06ACF8C2F0E94EF08C82FD0E051
:10149000DC2FCC27CC27DF71D0623ACFC1152AE5EB
:1014A000D20708F453C0CE0190568115904208F03F
:1014B00054CF8D2F8F710E94EF0890E0982F8827CE
:1014C00088279F719C012C2BE901E6CFC55AD0E0FB
:1014D000CC5DDE4FC881D0E0D0641ACF2C2F26958A
:1014E0002695237040E2249F900111248C2F837055
:1014F000C1E0D0E002C0CC0FDD1F8A95E2F7C22B1D
:10150000D32BDD6805CFDC2FCC27C16FD06A00CF8D
:10151000CE018370992721E030E002C0220F331FF3
:101520008A95E2F7C695C69540E2C49FE001112472
:10153000C22BD32BDA68ECCEDC2FCC27C46FD06A59
:10154000E7CEDC2FCC27C06FD06AE2CE8C2F8F7015
:101550000E94EF0834E0D695C7953A95E1F7CF7031
:101560009C2FEC01D069D4CEC2EED0E0D1CEC0EE3B
:10157000D0E0CECEC6EED0E0CBCEC5E3D0E0C8CE34
:1015800080911502882331F01092150210921402F6
:10159000109213020895CF93C82F8091BF0482FF49
:1015A0000CC0809115028C1741F00E942A0590937F
:1015B000140280931302C0931502CF910895809571
:1015C0009091F30498239093F3040895809590915B
:1015D000AA0398239093AA0308959091AA03892BB4
:1015E0008093AA0308951092F2011092F1011092D3
:1015F000F00108958091CD039091CE03892B89F05D
:101600000E942A052091130230911402AC01421B62
:10161000530B81E02091CD033091CE034217530745
:1016200008F480E08170089590911B019923D1F016
:101630009091BE0497FF16C0E82FE695E695E695D3
:10164000EE31E0F4F0E0EC58FE4F282F277081E0F7
:1016500090E001C0880F2A95EAF78095928189234E
:1016600082830895E6E7F1E09191891303C0DF01D9
:1016700011971C9291E0EC37F907B1F7089520918A
:10168000EF019091AE01291302C080E0089530E08F
:10169000F90153E0EE0FFF1F5A95E1F7E155FE4FB8
:1016A0005181561306C05081581303C05281541300
:1016B00004C02F5F3F4F2770E6CF81E008958091EF
:1016C000EF019091AE01981301C008958F5F87706C
:1016D000FACF292F933078F58A3068F590E03AE018
:1016E000239F800D911D1124682F677023E096952C
:1016F00087952A95E1F7FC01EE0FFF1FE80FF91F10
:10170000E656FE4F50E040E080E0219130E0062EAA
:1017100002C0369527950A94E2F721703327042EEC
:1017200001C0220F0A94EAF7822B4F5F5F4F4330CC
:10173000510559F7089580E00895292F933098F5C1
:101740008A3088F590E03AE0239F800D911D1124A6
:10175000282F277041E001C0440F2A95EAF723E0C3
:10176000969587952A95E1F7FC01EE0FFF1FE80F8C
:10177000F91FE656FE4F30E020E070E05191DF01A6
:101780001197CB01022E02C0969587950A94E2F735
:10179000817081958527842385278C932F5F3F4F08
:1017A0002330310559F7089592959F70963091F046
:1017B00058F4925F9F70923058F4803F19F030F4E3
:1017C000883E30F481E008959A5FF4CF843FD1F3EE
:1017D00080E00895883EB0F3813FD1F7F3CF9C01BC
:1017E0003A9521153F4150F5FC01EE27F170BC01FF
:1017F00066277270AC01442754709C012227387010
:1018000094FF0EC080E1EF2B09F480E0672B09F014
:101810008062452B09F08064232B89F0806808954D
:1018200081E0EF2B09F480E0672B09F08260452B03
:1018300009F08460232B19F08860089580E00895F2
:101840008093C0047093C2046093C1048091E80443
:101850008430F9F48093E9008FEF9091E800815093
:1018600095FD06C095ED9A95F1F700008111F5CF31
:101870008091E80085FF0DC050E040E063E070E03B
:1018800080EC94E00E94D7038091E8008E778093EB
:10189000E8000895BC0184E00E94200C0895BC017A
:1018A00083E00E94200C08959C0184E08093E9006D
:1018B0009FEF8091E800915085FD06C085ED8A95E7
:1018C000F1F700009111F5CF8091E80085FF0CC081
:1018D00050E040E066E070E0C9010E94D7038091CB
:1018E000E8008E778093E8000895CF93DF93EC01B2
:1018F00080911B018823B1F18091BE0487FF32C023
:1019000060E284E08093E9008FEF9091E8008150DD
:1019100095FD06C095ED9A95F1F700008111F5CF80
:101920008091E80085FF1BC080911B0170E050E0B2
:1019300040E0811104C050E040E068E070E0CE017A
:101940000E94D7038091E8008E778093E80080E2C0
:10195000FE01A6ECB4E001900D928A95E1F7DF91CB
:10196000CF91089568E081E0CDCF81E08093E000E1
:1019700080E28093D8001092C9008FE19EE4019725
:10198000F1F700C0000087E090EBDC018093F404E5
:101990009093F504A093F604B093F70488E19CE0DB
:1019A0000FB6F894A895809360000FBE90936000E6
:1019B000FFCF019708F40895EFE9FFE03197F1F7C1
:1019C00000C00000F6CF0F931F93CF93DF930BEC73
:1019D00013E0CFE8D1E0CE010E94E733F801819314
:1019E0008F012196C33BF1E0DF07A9F7C8E3D4E0FC
:1019F000FE0185919491009711F0FC0109952C96B8
:101A0000F5E0C433DF07A1F7DF91CF911F910F916C
:101A100008950F931F93CF93DF93863030F5633093
:101A200020F54A3010F5C42FD0E0CC0FDD1F24E1A3
:101A3000629FC00DD11D11243CE3839FC00DD11DB9
:101A40001124CE0187960E94E733082F10E0102F53
:101A50000027CE0188960E94E7339801282BC90100
:101A6000DF91CF911F910F91089590E080E0F8CF22
:101A7000462F2091A8033091A903232B99F4703F9E
:101A800039F4603F79F48091A6039091A7030895FB
:101A9000863040F4733030F46A3020F4672F0E94AF
:101AA000090D089590E080E00895CF92DF92FF92B3
:101AB0000F931F93CF93DF936C010091F2048091F9
:101AC0001602082BC7E0D0E010E0FC2EC8010C2E57
:101AD00002C0959587950A94E2F780FD0CC0219786
:101AE000A0F7F12C8F2DDF91CF911F910F91FF90D7
:101AF000DF90CF900895B6018C2F0E94380D0E9480
:101B00003209019761F3EECFCF93DF93EC010E948E
:101B1000550DBE010E94380D0E943209DF91CF9110
:101B20000895CF93DF93EC014B815C8169818881BB
:101B30000E941506811110C08E819F81009739F097
:101B40000E9432090E94D40BDF91CF9108958881C1
:101B500099810E94840DF6CF80E0F6CFA5E0B0E039
:101B6000E4EBFDE00C94893349835A8389819A819F
:101B7000662399F0222389F00E94550D182F682FB3
:101B800089819A810E949D0B69817A81812F0E94AF
:101B9000380D2596E3E00C94A5330E94690B182FAD
:101BA000F3CFFC01262F86819781009739F440817D
:101BB00051816281738184810E94AE0D089583E218
:101BC00090E00E94E7338F3989F484E290E00E942C
:101BD000E733843859F485E290E00E94E73391E0DE
:101BE0008A3D09F090E0892F8170089580E0FCCF54
:101BF000CF9384E090E00E94E733C82F82E290E028
:101C00000E94E733982F8C2FCF910895DB01FC01C0
:101C10003296259134914217530758F0FC013496BF
:101C200065917491A901CD010E94C73390E080E0D5
:101C300008958FEF9FEF08950F931F93CF93DF9336
:101C40000BEC13E0CFE8D1E0CE010E94E733F801BE
:101C500061918F01681719F0CE010E94F53321962A
:101C6000C33BF1E0DF0781F7DF91CF911F910F9127
:101C70000895DA019C012E5F3F4FF901459154917F
:101C8000F90125913491A217B30758F0FC0134965D
:101C9000859194910E94C7330E941C0E90E080E0D1
:101CA00008958FEF9FEF0895CF93DF93C3EAD2E0BB
:101CB00060E0CE010E94F5332196C11584E0D8077B
:101CC000B9F7DF91CF9108951F93CF93DF93122F30
:101CD0008630E0F46330D0F44A30C0F4C42FD0E052
:101CE000CC0FDD1F94E1699FC00DD11D11249CE331
:101CF000899FC00DD11D1124632FCE0187960E94AC
:101D0000F533612FCE0188960E94F533DF91CF9194
:101D10001F910895CF93C82F6FEF81116FE983E270
:101D200090E00E94F5336FEFC11164E884E290E027
:101D30000E94F5336FEFC1116AED85E290E00E94D9
:101D4000F533CF910895CF93C92F682F84E090E0A9
:101D50000E94F5336C2F82E290E00E94F533CF9120
:101D600008959B01883070F49AE0899FB001112496
:101D70006D547E4F4AE050E0C9010E94D73390E095
:101D800080E008958FEF9FEF0895AAE0B0E0EBECBC
:101D9000FEE00C948A339C0137552F3F310509F042
:101DA00068F4BE016F5F7F4F0E94B10E892B31F442
:101DB00089859A852A96E2E00C94A6338091E30304
:101DC0009091E403F7CFAAE0B0E0E9EEFEE00C94D6
:101DD00080330EE213E08CE1C82E83E0D82E93E529
:101DE000E92E92E0F92E27E0922E3BE1A32E33E07C
:101DF000B32E88248394D6010D931D936D014AE080
:101E000050E0B701CE0101960E94D733F801389611
:101E1000DF01892D1D928A95E9F789819A81D80180
:101E200011969C938E938F8112968C9312978D812D
:101E300013968C931397888514968C9314978985A1
:101E400015968C9315978B819C8117969C938E93F6
:101E5000169718961C9218978A8587FF3CC01E9685
:101E60001C921E921D9780FF03C0D80118968C9279
:101E700081FF04C0F80190859260908782FF07C0BF
:101E8000D80118969C911897946018969C9383FF9C
:101E900004C0F80190859860908784FF07C0D8013E
:101EA00018969C911897906118969C9385FF04C092
:101EB000F801808580628087015F1F4FFAE0EF0E96
:101EC000F11C83EAE81682E0F80609F094CF2A961E
:101ED000ECE00C949C33F801B686A586C4CFAAE04A
:101EE000B0E0E5E7FFE00C948433EBECF2E080E552
:101EF000DF011D928A95E9F7E7E5F4E088E3DF0169
:101F00001D928A95E9F78BECC82E82E0D82E7F01CE
:101F100003E012E0F701D182C0824AE050E0B8014C
:101F2000CE0101960E94D73388E0FE013196D6019A
:101F300001900D928A95E1F789859A85D7011396CC
:101F40009C938E931297BAE0CB0ED11CE7E0EE0E75
:101F5000F11C065F1F4F0335F2E01F07D9F62A96E2
:101F6000E8E00C94A033A6E0B0E0E9EBFFE00C94CD
:101F700080338E010F5F1F4F86E0F80111928A9522
:101F8000E9F795E5E92E91E0F92E6801AA24A394DA
:101F9000B12CF70181917F018F3F09F446C0F8947D
:101FA000E82FE295EF70F0E021A18F70A50102C04B
:101FB000440F551F8A95E2F7CA01922F982B91A3DF
:101FC00092A18095892382A3789400C0E8E5F1E08E
:101FD00021E030E0912C812C41914F3F09F467C002
:101FE000A42FA295AF70B0E090968C9190E04F70C6
:101FF00002C0959587954A95E2F780FD58C0C901C2
:10200000882A992A220F331F51E0E236F50721F77B
:10201000F701319780818F3F11F00E94D80880EA44
:102020008A95F1F7F60191828082F2E0CF0ED11C01
:1020300048E5E41641E0F40609F0ABCF46E050E095
:10204000B8018AE192E00E94BA33892B99F186E0C7
:10205000F801AAE1B2E001900D928A95E1F781E0E2
:10206000809319020E942A05909318028093170208
:1020700080911702909118020E940F050597F0F0C9
:1020800046E050E06AE172E086E392E00E94BA33F3
:10209000892BC9F086E0EAE1F2E0A6E3B2E0019024
:1020A0000D928A95E1F781E01092190208C090E044
:1020B00080E0A6CF809119028111DACF80E02696C8
:1020C000ECE00C949C3380E0EFCFCF938091AA0397
:1020D0009091F304892B80937401809115028823D9
:1020E00029F18091CD039091CE03892B29F00E9494
:1020F000FA0A81110E94C00A809174019091150220
:10210000892B8093740180911B01882309F447C0B7
:102110008091BE0487FF43C08EE1E6E7F1E090E0E6
:10212000815008F03EC091110E94C00AC091A704DE
:10213000C09580917401C8238091A804C82BC093D6
:10214000740140E250E063EF71E084E791E00E94A7
:10215000BA33892B11F180E2E4E7F1E0A3EFB1E0BB
:1021600001900D928A95E1F7E091B504F091B604E3
:10217000309799F080911B01882349F08091BE042B
:1021800087FF05C0C093750186E0809374010280CB
:10219000F381E02D84E791E00995CF91089586E0E1
:1021A000BCCF2191222309F4BBCF9F5FB9CFCF933E
:1021B000DF93EC01EA85FB85309719F06C857D850E
:1021C00009958B810E94DF0A8C810E94E60A0E9499
:1021D000651086E0FE0111928A95E9F7DF91CF91B3
:1021E0000895CF93DF93EC018D8181FD15C082604E
:1021F0008D838091F3049B81892B8093F3048C81E0
:102200000E94ED0A0E946510E885F985309721F05B
:102210006C857D85CE0109951092B2041092B104AF
:102220008D8180FD03C0CE010E94D710DF91CF9138
:10223000089580911901877F8093190182E00E949F
:10224000DF0A8091190184FF06C08F7E80931901F7
:1022500082E00E94ED0A8091190185FF06C08F7D02
:102260008093190180E20E94ED0A0E946510089592
:1022700090E080E00E94810590E080E00E946B0584
:102280001092F3040E94651086E0E3E4F2E0DF01BF
:102290001D928A95E9F710923D0210923C0210922D
:1022A0003E020E942C0708958093F2040E94381188
:1022B00008958091F204982F9670963021F48860EA
:1022C0000E9454110895877FFBCF21E030E001C0C8
:1022D000220F8A95EAF720958091F20482230E94CA
:1022E000541108959091F201809589238093F20111
:1022F000282F277091F4282F082E000C330B9217EB
:10230000130659F09091BF0492FF07C085958595FB
:1023100085950E9465110E94F30A08959091BF046B
:1023200092FB222720F9281769F080FB92F99093FD
:10233000BF048091BE049091BF040E94A30E82E06E
:102340000E947211089521E030E001C0220F8A95A9
:10235000EAF78091F204822B0E9454110895909123
:10236000BF0492FF10C098E0899F90011124622B56
:102370006093F2010E94A3110E942A059093F1013B
:102380008093F00108950E94A3110895809316028E
:102390000E94381108951092AA0380911B01E6E76C
:1023A000F1E0882361F08091BE0487FF08C08EE1D0
:1023B000DF011D928A95E9F70E943811089586E0A1
:1023C000F7CFAAE2B0E0E7EEF1E10C9489338AEEB0
:1023D00094E02091F100DC012D93CD01B4E0823F27
:1023E0009B07B9F78091EB04833009F472C0B8F40D
:1023F000813009F449C0823009F4B3C08091E8000B
:1024000083FF96C28091EA049091EB049A3008F021
:102410008FC2E92FF0E0ED5CFB4C0C946D338A30F9
:1024200009F48EC08B3009F471C0893039F780917E
:10243000EA04813219F78091EE049091EF0400973D
:1024400011F00297D9F68091E800877F8093E80029
:102450008091E80082FF38C09091F3008091F200F3
:10246000029731F48091F100813011F0863021F42F
:102470008091F1008093C5048091E8008B77809370
:10248000E8000E940104BACF8091EA04813A09F081
:10249000B5CF8091E800877F8093E8008091EE04BB
:1024A0009091EF04892B61F460E286EC94E070E097
:1024B0000E94AD048091E8008B778093E8009ECF66
:1024C00060E090E080E0F3CF8091E8048111C0CF1C
:1024D00095CF8091EA04813A09F090CF8091EE0483
:1024E0009091EF04892B09F089CF8091E800877FD4
:1024F0008093E8008091E80080FFFCCF80911B0171
:102500008093F1008091E8008E77B9CF8091EA0442
:10251000813209F073CF8091EE049091EF04892B02
:1025200009F06CCF8091E800877F8093E8000E94DB
:1025300001048091EC0480931B010E94CB115ECFBB
:102540008091EA04813209F059CF8091E800877FB9
:102550008093E8000E9401048091ED048093C404FC
:102560004DCF8091EA04813A09F048CF8091E8008C
:10257000877F8093E8008091E80080FFFCCF809106
:10258000C404BECF803899F0823809F0D1C180915F
:10259000EE048F70873008F0CBC18093E900809102
:1025A000EB0085FB882780F91092E90006C0809136
:1025B000E6049091E704911182609091E800977F82
:1025C0009093E8008093F1001092F1008091E80070
:1025D0008E77AAC1882309F498C1823009F0A8C176
:1025E0008091EC0481119BC18091EE048F702FEFDC
:1025F000280F263008F09CC18093E9002091EB0061
:1026000020FF8DC1933031F48091EB008062809384
:10261000EB0085C19091EB0090619093EB0021E07D
:1026200030E001C0220F8A95EAF72093EA00109269
:10263000EA008091EB008860EACF811179C11091A6
:10264000EC041F778091E3008078812B8093E30076
:102650008091E800877F8093E8000E9401048091C8
:10266000E80080FFFCCF8091E30080688093E30066
:1026700082E0111183E08093E8045AC180588230CF
:1026800008F056C12091EC043091ED042C3DE3E0BC
:102690003E07A1F583E08A838AE289834FB7F894E5
:1026A000DE01139620E03EE051E2E32FF0E050938C
:1026B0005700E49120FF03C0E295EF703F5FEF7099
:1026C0008E2F90E0EA30C0F0C7968D939D932F5FD8
:1026D000243159F74FBF8091E800877F8093E8004D
:1026E0006AE270E0CE0101960E94AD048091E8009C
:1026F0008B778093E8001CC1C096E7CF8091EE04F1
:102700009091EF04432F55274330510509F44AC0F7
:1027100078F54130510509F485C08BE590E0EAE297
:10272000F5E04230510509F003C12091E800277F10
:102730002093E8002091F0043091F1048217930770
:1027400008F49C0140E02115310509F070C04111E9
:102750006EC08091E80082FDC9CF8091E804882393
:1027600029F2853019F28091E80083FFF2CFBECFC5
:102770004132510509F447C04232510509F0D8C031
:102780008330910508F0D4C0FC01EE0FFF1FEB5918
:10279000FE4F0190F081E02D8E599E4FDC018C910F
:1027A00090E01DC0332721303105E9F021153105B6
:1027B00079F022303105F9F02330310509F0B8C045
:1027C000E7E9F5E0E4918E2F90E0E7E9F5E007C056
:1027D000E5EEF5E0E4918E2F90E0E5EEF5E0009770
:1027E00009F4A6C0A2CFEBECF5E0E4918E2F90E0C7
:1027F000EBECF5E0F4CFE5EBF5E0E4918E2F90E023
:10280000E5EBF5E0ECCF8330910508F091C0880F3F
:10281000991FFC01E559FE4F0190F081E02D89E000
:1028200090E083CF82E190E0E5E8F5E07ECF809113
:10283000E804882309F45ACF853009F457CF8091F2
:10284000E80083FD53CF8091E80082FD82CF809124
:10285000E80080FF78CF9091F3008091F20021157D
:10286000310519F08830910550F041E0089709F0E2
:1028700040E08091E8008E778093E80064CF449137
:102880004093F1003196215031090196E8CF80380C
:1028900009F04EC08091E800877F8093E800809126
:1028A000E9048093F10092CE811142C01091EC04B2
:1028B0001230F0F58091E800877F8093E800109354
:1028C000E9040E940104112311F084E005C0809105
:1028D000E30087FDFACF81E08093E80442E061ECF9
:1028E00081E00E94200442E261EC84E00E94200426
:1028F00042E261EC82E00E94200442E260EC83E06C
:102900000E9420048091E80413C08091EC0481307F
:1029100079F481E0933009F080E08093E70410922D
:10292000E9008091E800877F8093E8000E9401041D
:102930008091E80083FF0AC08091E800877F809340
:10294000E8008091EB0080628093EB00AA96E3E0C0
:102950000C94A533EBECF3E0128E138E8FEA90E02B
:102960009183808325E0248F88E893E19383828399
:102970008AE090E09583848344E150E05783468366
:1029800048E050E051874087938782876EE170E08E
:10299000758764879787868780E590E0918B808B29
:1029A000538B428B48E250E0558B448B42E350E01E
:1029B000578B468B48EC50E0518F408F158E178E09
:1029C000168E91A380A322A30E941C0E0E94CB11FD
:1029D0001092BF041092BE04EFEBF4E0808184609B
:1029E00080838091BE049091BF040E94A30E0E9438
:1029F000E30C0895AEE1B0E0E0E0F5E10C947F3344
:102A0000A0900D01B0900E0181E090E090930E0136
:102A100080930D0186ECC82E82E0D82E00E076016E
:102A200010E015C0F40125913491472D612F802FBE
:102A30000E94640E82E0880E911C7394EAE07E127C
:102A4000F1CFF4E1EF0EF11C1F5F133019F04701D5
:102A5000712CE8CF0F5F8CE3C80ED11C0630F9F65D
:102A60000E94AA141A8219821C821B821E821D8255
:102A700018861F8288EC90E09A87898703EB11E023
:102A80004AE050E0B801CE0101960E941934065F79
:102A90001F4F0330E2E01E0799F77E01FBE0EF0EC7
:102AA000F11C8AE0F70111928A95E9F74AE050E0BB
:102AB000B801C7010E941934065F1F4F0335F2E0C9
:102AC0001F07A1F77E0185E1E80EF11C8AE0F701FE
:102AD00011928A95E9F78FEF9FEF9A8F898F87E0A0
:102AE0008E8F4AE050E0B801C7010E941934065F9A
:102AF0001F4F033AF2E01F07A1F7B0920E01A09218
:102B00000D016E96EDE00C949B3380E00E948A0EDE
:102B100060E086E290E00E94F5330E94FA140E9481
:102B2000540E81E00E948A0E0895CF92DF92EF92B8
:102B3000FF928FEF9FEF4430510508F46AC0FB010C
:102B4000C080D180E280F3800E94CB118091BE04CE
:102B5000C0FA80F9B701A601769567955795479514
:102B600040FB81F9B701A60122E07695679557955C
:102B700047952A95D1F740FB82F9B701A60133E0CA
:102B800076956795579547953A95D1F740FB83F928
:102B9000B701A601E4E07695679557954795EA95C4
:102BA000D1F740FB84F9B701A601F5E0769567956A
:102BB00057954795FA95D1F740FB85F9B701A601DE
:102BC000A6E07695679557954795AA95D1F740FB6E
:102BD00086F9B701A601B7E07695679557954795B1
:102BE000BA95D1F740FB87F98093BE048091BF046A
:102BF000D0FA80F9D1FACC24C0F8C0FA81F98093D8
:102C0000BF048091BE049091BF040E94A30E90E087
:102C100080E0FF90EF90DF90CF9008950E94CB115D
:102C20002FEF84E39CE0215080409040E1F700C00A
:102C3000000088E19CE00FB6F894A89580936000AE
:102C40000FBE90936000FFCF882321F00E94DF0A1F
:102C50000E9465100895882339F09091F304982B11
:102C60009093F3040E9465100895882321F00E9438
:102C7000E60A0E9465100895882321F00E94ED0A5B
:102C80000E9465100895882379F19CEF980F913A7E
:102C900028F40E94140B0E946510089590E2980F8A
:102CA000983050F4877091E001C0990F8A95EAF747
:102CB000892F0E94E60AEFCF9BE5980F933028F406
:102CC00090E080E00E948105089598E5980F973183
:102CD00028F490E080E00E946B050895803F20F08A
:102CE0000E9453070E942C070895FF920F931F9391
:102CF000CF93DF93F82E0091AC041091AD04011531
:102D0000110509F449C01092AB041092AA04109264
:102D1000A7041092A804D8011696CD91DC919E01CB
:102D20003A9521153F4108F4D07ED1E0C11101C090
:102D3000D0E0D8011996ED91FC911A97309731F0B7
:102D40001B966D917C9180E00995D823DD2339F0A5
:102D50008CEF8C0F813A30F58C2F0E94140BFF20E2
:102D600099F0E091AC04F091AD04808584FD0CC035
:102D70008091A904882341F0808191819C01215098
:102D80003109203B3D45A0F00E9465101092AD0432
:102D90001092AC041092A904C801CDB7DEB7E5E0EB
:102DA0000C94A3330E9465108C2F0E944316D7CF3A
:102DB0000E94A405E9CFCF93DF93EC010E94431654
:102DC000CE010E94EF0B9E01205E310928303105B3
:102DD00010F0CD2B29F40E943516DF91CF91089584
:102DE0000E942416FACFCF93C82F8823C1F18CEF0D
:102DF0008C0F813AB0F580911B01882301F18091FD
:102E0000BE0487FF1CC0EC2FE695E695E695F0E042
:102E1000EC58FE4F828190E04C2F477021E030E06B
:102E200002C0220F331F4A95E2F782239323892B96
:102E300079F08C2F0E94140B0E94651009C0E6E700
:102E4000F1E08191C817A9F381E0EC37F807C9F7E1
:102E50006C2F84E791E00E9436050E946510CF91A7
:102E6000089580E28C0F883048F4C77081E001C07B
:102E7000880FCA95EAF70E94ED0AEFCFEBE5EC0F59
:102E8000E33040F4F0E0EC5DFE4F808190E00E9482
:102E90008105E5CFE8E5EC0FE73150F4F0E0EE0F07
:102EA000FF1FE95DFE4F808191810E946B05D7CFA6
:102EB000C03FA8F28C2F0E946E080E942C07CFCF33
:102EC0001F93CF93DF93182FC091EB03D091EC03A6
:102ED000893321F0C091E903D091EA03812F0E9448
:102EE000F316209739F4812F0E944316DF91CF917A
:102EF0001F9108958FE99FE00197F1F700C000004E
:102F00002197EFCFB0E0A0E0E8E8F7E10C9482333E
:102F1000EC018AE0A82E2881222309F48FC02130F9
:102F2000C9F599818A81913021F422960E94601717
:102F300005C0923029F422960E94F3162196EBCF19
:102F4000933021F422960E944316F8CF943011F06A
:102F50002196F4CF229630E020E0AE014F5F5F4F24
:102F60008053990B8A30910550F02150310930F38C
:102F70008FE99FE00197F1F700C00000F6CFA29E15
:102F8000B001A39E700D11249C01260F371F89816B
:102F9000EA01E3CFE22FF0E0E75EF94FB490822F31
:102FA00086958695869590E0FC01E75FF94FE49061
:102FB0002770F12C022E02C0F594E7940A94E2F7F0
:102FC00031E0E322FF24FC01E750FA4FC490D12CFA
:102FD000022E02C0D594C7940A94E2F731E0C322CE
:102FE000DD24FC01E751FA4F049110E002C0159571
:102FF00007952A95E2F701701127E114F10419F001
:1030000081EE0E94F316C114D10419F086EE0E94DD
:10301000F3168B2D0E946017C114D10419F086EEAF
:103020000E944316E114F10419F081EE0E94431648
:103030000115110509F482CF8CE278CFCDB7DEB748
:10304000EAE00C949E33B0E0A0E0E9E2F8E10C94F1
:1030500082337C015B01C42FD22FFC018281882343
:10306000A9F04093B0040E942A059093AF04809386
:10307000AE04C77081E001C0880FCA95EAF70E94CC
:103080003C16CDB7DEB7EAE00C949E331091B00445
:10309000141338C08091AE049091AF040E940F05C4
:1030A0006C01B701C5010E94C50EC816D90650F5BE
:1030B000C0E2CD0F1D17C1F080E2810F883048F4C7
:1030C000177081E0012E01C0880F0A94EAF70E9470
:1030D0003516C83048F481E09D2F977001C0880FE5
:1030E0009A95EAF70E943C16802F0E946017C8301C
:1030F00040F6D77081E001C0880FDA95EAF70E94A8
:103100003516BFCFC77081E001C0880FCA95EAF7B6
:10311000F6CFCF93DF93EC010E94EF0B9E01205E70
:1031200031092830310510F0209741F40E943C16F7
:103130008C2F0E94F316DF91CF9108950E942B16D9
:10314000F7CF662329F02091F30422602093F30443
:103150009C013056211540E2340720F0305E2115E5
:10316000304108F499270E9489180895B0E0A0E042
:10317000ECEBF8E10C9485337C018B01D42E80912B
:10318000190182FF8CC0C091F103D091F203CE15DA
:10319000DF0521F0E114F10409F081C080911901EB
:1031A0008B7F8093190181FD73C08091EF03909113
:1031B000F003A801481B590B81E0209117013091C1
:1031C00018014217530708F480E08170F82E8091AF
:1031D0001901F0FA81F980931901FE0183E0F69557
:1031E000E7958A95E1F7EE71FF27E555FC4F2081C1
:1031F0003181AE014F70552781E090E002C0880F09
:10320000991F4A95E2F7FF2009F444C0822B932BC3
:10321000918380838091AA0381FF08C08091190166
:1032200080618093190182E00E94E60A8091AA03DE
:1032300085FF08C08091190180628093190180E2A6
:103240000E94E60A6F2DCE010E94A118DD2031F008
:103250008091E60385FF02C086FF3BC08091E903B1
:103260009091EA030E94D90C8091F1039091F203AE
:103270009C013056211540E2340720F0305E2115C4
:10328000304108F499270E94DB160E9419111DC0D5
:1032900081E09BCF8095909582239323B9CFC7017E
:1032A000992797013056211540E2340728F0305E07
:1032B0002115304108F0C7010E94DB168091F1030F
:1032C0009091F2038E159F0501F31093F003009384
:1032D000EF03CDB7DEB7E7E00C94A13368EE7EEFE5
:1032E00090E080E00E94133460E082E090E00E9471
:1032F000F53360E083E090E00E94F533109216020F
:1033000060E084E090E00E94F53364E082E290E0C7
:103310000E94F53360E085E090E00E94F53360E0C4
:1033200086E090E00E94F5336FEF87E090E00E9426
:10333000F53340E050E0BA0188E090E00E940734A5
:1033400060E08DE090E00E94F53340E050E0BA018B
:1033500088E190E00E94073460E087E190E00E94FD
:10336000F53340E050E0BA018CE190E00E94073470
:1033700070E060E080E290E00E94133440E050E0B2
:10338000BA0188E190E00E94073480E00E948A0E32
:103390000E94851540E050E0BA018FE090E00E9465
:1033A000073440E050E0BA0183E190E00E94073426
:1033B0000895A7E0B0E0EFEDF9E10C947A337C01D9
:1033C000DC0113964D915C91149711966C911197B5
:1033D0008C910E9415068111EEC061E0C7010E9428
:1033E000D10D8C01F70182818823E1F08091B10435
:1033F0009091B2040097B1F00817190799F0FEE018
:103400008F9FC0011124FC01E05AFD4F20812460F0
:103410002083855A9D4FDC010D931C930E94F1106F
:103420001092F304F7018281882311F40C949922FD
:10343000C80182519F45409710F00C948D228FEF68
:1034400093E00E94E7338111A6C07EEED72ED00E06
:1034500003EA12E0D11036C019821A821B821C8244
:1034600099249A9468012FEFC21AD20AC8010E94C7
:10347000E73389831A82882309F48DC0813009F0EB
:103480007FC0580132E0A30EB11CC6010E94E73391
:10349000C82E8A83882309F47EC0C5010E94E733C1
:1034A000D82E8FEF8C0D8330D8F4580143E0A40E52
:1034B000B11CDB82DD2021F0CE0101960E94821733
:1034C0008501D0CF0115F4E01F0709F464C0C801DD
:1034D0000E94E733811101C0DA940F5F1F4FBACF0A
:1034E0008BEF8C0D833030F5C8010396DB825C01D5
:1034F000DD2031F3580154E0A50EB11C0E94E733E2
:103500008C838823E9F28B819C818130AFEF9A070D
:1035100010F0982F8827B6E0CB1631F0E7E0CE16F2
:1035200031F00E94082ACCCF0E94E229C9CF0E9424
:103530006929C6CFF4E0CF12C3CF580124E0A20E10
:10354000B11CC80103960E94E733DD2021F18823D6
:1035500011F18150990B989E9001999E300D112484
:103560004D2D4150550BCA01820F931F019708F44E
:10357000A7CFAFE9BFE01197F1F700C00000F6CF89
:10358000CE0101960E94821756019ACF81E00E94D7
:10359000A3110E9459118091F201877061F0D70147
:1035A00012968C91882339F08091BF0482FF03C06A
:1035B00082E00E9472112796E2E10C94963381E03A
:1035C0000E946511E6CF82E0FBCF823011F00C94AF
:1035D000D7228091550290915602892B09F4E7C7B2
:1035E0002EE02C9DC0012D9D900D1124FC01E05A70
:1035F000FD4F20812E7F2083855A9D4F0E94F11020
:10360000D6C781E080930001C6CF80910001882356
:1036100009F4AFC6480120EE821A910840901502C5
:1036200080919701482A8091AA03482A38E083169E
:10363000910408F086C098012770332781E090E05C
:1036400001C0880F2A95EAF7552009F477C0482A67
:10365000D7018D919C910E94690B21E030E0F90126
:1036600002C0EE0FFF1F8A95E2F7FF83EE832090E2
:10367000AC043090AD0460909401709095011D826F
:103680002D81E22FF0E0EE0FFF1FE45EFC4FC080C3
:10369000D180C114D10409F4D0C6411005C0D601AF
:1036A00012968C91811189C0F601838190E02E8160
:1036B0003F8182239323892B09F47FC08085982F33
:1036C000977009F487E038E08316910408F053C03E
:1036D000552009F44CC086958170882309F46DC08B
:1036E000D601AD90BC900A151B0519F4552009F4BC
:1036F00064C0C214D30409F460C0D6011D96ED91D4
:10370000FC91309721F08081882309F456C0642D04
:10371000C6010E94F505882309F44FC00A151B0550
:1037200009F099C70115110509F49AC751109AC7F4
:10373000A614B70409F041C0512C94C780954822C3
:1037400087CF552009F462C6109395010093940128
:103750000E941E056093A3047093A4048093A504A3
:103760009093A6041092AB041092AA0471CF82FB2E
:10377000882780F9B2CF552001F18170AECF0E9429
:1037800043168EC70497813A910558F46A2D84E751
:1037900091E00E943605552009F4EBC50E946510A2
:1037A000FACE0E9465108FE39CE90197F1F700C003
:1037B00000008A2D0E94F316EECF9D819F5F9D83AE
:1037C0005FCFFC01208131810217130709F0CAC5C0
:1037D0005110CAC51092A90480E00E947516C9C58F
:1037E000902F812F0EC6F901858181FF3AC6C9014C
:1037F0000E94D71036C6809119018160809319010B
:103800005EC6809119018E7F809319010E94191163
:1038100056C6809119018F7E013E110531F0053E9B
:103820001105C9F4809119018F7D80931901809150
:10383000190180FF53C6D70112968C9108321105E9
:1038400028F50E31110508F072C00430110580F51D
:10385000811140C643C6C8019056811540E29407C5
:1038600020F0905E8115904110F78091190182FF40
:1038700035C68091E80381FD31C62BE232E040E09D
:10388000B60190E080E00E94B61828C60933110501
:1038900058F40D32110518F40B321105C9F6909148
:1038A000E60392FDD5CF08C004361105C1F3D0CF91
:1038B0009091E60394FDCCCF882309F4A8C08091B1
:1038C00015029091AA03892B8D7FB1F11092F2031A
:1038D0001092F1038091E60381FD2EC0F80143E0D0
:1038E000F695E7954A95E1F7EE71FF27E555FC4F10
:1038F00098012F70332781E090E002C0880F991F54
:103900002A95E2F780959095208131818223932337
:103910009183808360E0C8010E94A1188091150204
:103920008D7F0E94CB0A82E00E94721134CE90916A
:10393000E60393FD8DCFC0CF88E0F701ABE2B2E0A4
:1039400001900D928A95E1F710922D0210922F02AC
:1039500010922E028091F1039091F203081719073B
:10396000D1F52091E60325FF36C03091190131FFD2
:1039700002C026FF30C02091EF033091F0035601C2
:10398000A21AB30AB7010E94C50EA816B90618F507
:103990008091AA0381FF08C0809119018061809302
:1039A000190182E00E94E60A8091AA0385FF08C0FF
:1039B0008091190180628093190180E20E94E60AD9
:1039C00060911901669561708091F1039091F20305
:1039D0000E94A118E0CD809115029091AA03982B26
:1039E0002091190191FB21F9209319018D7F0E94EB
:1039F000CB0A1093F2030093F103D092F003C0922C
:103A0000EF03809119018460809319018CCF970195
:103A100040E0B601C8010E94B618BDCD053F4CE597
:103A2000140709F463C008F45BC0063F8CE518076F
:103A300009F462C0D70112963C91332309F4D8C52A
:103A40001092B0040330BDE51B0708F061C00A3FC7
:103A5000ECE51E0730F4C80182509C45449708F0FD
:103A600063C00E94F80D9093BF048093BE0402319E
:103A70005CE5150709F49EC108F0EEC009309CE52D
:103A8000190709F475C108F0B8C00530BCE51B077B
:103A900009F462C108F09FC00330FCE51F0709F478
:103AA00053C108F055C18091BE04816002303CE5ED
:103AB000130709F4CEC08091BE049091BF040E9408
:103AC000A30E0E94CB1167CD07E225EE45EE68ED0F
:103AD0007CE51FC506E221EE40EE63EF7CE519C5EB
:103AE00007E225EE44EE64EF7CE513C506E221EE25
:103AF00042EE65EF7CE50DC507E225EE46EE66EF8A
:103B00007CE507C508E221E045EE69ED7CE501C5ED
:103B1000053AFDE51F0709F4A4CF08F055C00136AA
:103B20004DE5140709F49DCF06318CE5180709F41B
:103B300064C50A355DE5150709F495C108F06EC145
:103B400001159CE5190709F474C10E3D1C4509F4E3
:103B50007DC1F70186819781009709F488C10E9491
:103B60003209182F092FF701D280C580C2943FE097
:103B7000C3228091F2018770C1F0AD2CDD20B1F03D
:103B8000892F807F803421F080E2810F883068F0B7
:103B90008091BF0482FF09C082E00E94721180916F
:103BA000F2018770AA24A3948111A12C902E9294E3
:103BB0002FE09222FBE0F91508F4E6C1E92DF0E0D0
:103BC000E35CFB4C0C946D33C8018D5A9D45039703
:103BD00008F0AACF46CF8091BE04806207304CE542
:103BE0001407B9F18091BE04806108305CE51507C7
:103BF00080F18091BE0480642CC00D308CE51807E4
:103C000009F4C0C090F48091BE048E7F0B30ACE507
:103C10001A07F9F08091BE048C600C30BCE51B07DC
:103C2000C0F08091BE048D7F14C00F30ECE51E07FC
:103C300009F4B8C008F4AAC000312CE5120709F451
:103C4000B5C08091BE048F7B01313CE5130709F0BC
:103C500032CF8093BE042FCF0F3F4CE5140709F4F9
:103C6000B3C0A8F50A3F8CE5180709F479C0C0F481
:103C70000431ACE51A0709F4B5C008F4A1C0053158
:103C8000ECE51E0709F017CF8091BE0482FB99274F
:103C900090F921E0922790FB82F990FB83F9D9CF2C
:103CA0000C3FFCE51F0709F475C008F45DC00D3F2B
:103CB0003CE5130709F472C08091BF0483600E3F96
:103CC0004CE5140709F0F7CE8093BF04F4CE01361B
:103CD0005DE5150709F491C090F401309DE51907E1
:103CE00009F489C008F474C060E00230BDE51B0728
:103CF00009F0E1CE8EE090E00E94F533DCCE0D3A83
:103D0000EDE51E07E9F060F49091BE04892F8E7FE7
:103D100090FF8160053A2DE5120709F49ACFCBCECA
:103D20000E3A3DE5130751F10F3A4DE5140709F03E
:103D3000C2CE9091BF04892F877F93FF8860C4CF44
:103D40008091BF048860C0CF8091BE04826081CF23
:103D50008091BE0484607DCF8091BE04886079CF5D
:103D60008091BF048160B0CF8091BF048260ACCFEE
:103D70000E94CB118091BE0480686BCF8091BF04FC
:103D8000877FA2CF8091BE048B7F63CF8091BE04DA
:103D9000877F5FCF8091BF048E7F96CF8091BF04D5
:103DA0008D7F92CF8091BE048F7E53CF8091BE04D1
:103DB0008F7D4FCF0E94CB118091BE048F7749CF6A
:103DC0008091BE04837F45CF8091BF048C7F7CCFE0
:103DD0008091BF04982F909591708E7F892B90FBD6
:103DE00081F972CF0E94CB119091BE04892F97FB6D
:103DF00087F980582ECF61E07DCF9091BE04892F46
:103E00008F7E94FF806125CF80919601811104C03F
:103E100089E20E94140BC2CC85E3FBCF0C35BDE5D3
:103E20001B07B9F010F1073A1D4509F092CE0E9428
:103E30000E160E94CB112FEF34E34CE0215030409E
:103E40004040E1F700C000000E94B50C0E946E19CE
:103E5000EECF8091BF0482FB882780F991E089270B
:103E60000E948E1176CE81E0FBCF80E0F9CF828177
:103E700000811181882369F0C8010E94550DD82E58
:103E8000682FC8010E949D0BB8018D2D0E94380D2E
:103E900066CEC8010E94690BD82EF6CF202F2F7056
:103EA000B22E802F807F19F0B29490EFB922DD20DE
:103EB000A9F0BB2059F080E2810F883010F0111179
:103EC00007C08B2D0E94ED0A0E946510812F5AC0F9
:103ED0008091F304B82AB092F304F6CF812F0E94A8
:103EE0004316BB2009F450C080E2810F883010F0E7
:103EF000111104C08B2D0E94E60A03C08B2D0E9475
:103F0000DF0A0E94651040C0302F3F70B32E802F13
:103F1000807F803219F0B29480EFB822112321F112
:103F2000113009F4AEC0DD2009F4B7C0CC2009F48B
:103F30007FC020E0D7014C9111965C9111971296A9
:103F40006C91129713967C91139714968C910E9402
:103F5000AE0D8091E80381FDB9CFF701858180FF27
:103F6000B5CF8F70858364C08091BF0482FD40C04F
:103F7000DD20C1F1BB2029F08B2D0E94ED0A0E94AB
:103F8000651080E00E94F316A92DA850BB0B149772
:103F900010F40E949705812F902F0E94D40B81115D
:103FA000C2C11092990110929801AA20B1F080919B
:103FB000F20180FD12C0D70112961C92859585955D
:103FC00085950E94A311C7010E94D9198091F20121
:103FD0008595859585950E94651160E0C7010E94D1
:103FE000D10DE9CA80E00E944316BB2069F282CF5E
:103FF000DD2011F1C11004C0809115028B2919C078
:1040000041E0C41206C0809115028B290E94CB0AA0
:10401000BBCF8091E703823078F3C812EDCF0E94C6
:10402000C00A909197018B2D892B8913809397015A
:104030008B2D0E943C16A8CFC11003C00E94C00A5D
:1040400017C08091E70351E0C51216C0823008F412
:104050009BCF8091AA038B2109F496CF0E94C00ABE
:10406000909197018B2D80958923891380939701D7
:104070008B2D0E94351688CF823000F3C812DECF18
:1040800083CF8091ED03DD2021F08C1508F47CCFE7
:10409000CFCFC81608F078CFEBCFCC2049F3809172
:1040A000EB039091EC03193321F08091E903909197
:1040B000EA030E94D90C812F0E94431665CF802FFE
:1040C00086958695837069F0813009F05DCF812FE8
:1040D000902F9370D11002C090E080E00E946B0599
:1040E00053CF812F902F9370D11002C090E080E0C9
:1040F0000E94810549CF812FDD2029F00E946E08A2
:104100000E942C0741CF0E945307FACF802F837063
:1041100091F5D11039CF412F429546954770440F04
:10412000440F812F8F70042E01C0880F0A94EAF784
:10413000212F207114FF07C02FE030E001C0220FB3
:104140004A95EAF72095302F369536953370323000
:1041500069F050F440911602313029F0822B84230B
:104160000E94C61111CF842B822BFACF282B80916D
:1041700016028227F5CF8695DD2011F0802F817001
:10418000882309F401CF412F429546954770440F8B
:10419000440F812F8F70042E01C0880F0A94EAF714
:1041A000212F207114FF07C02FE030E001C0220F43
:1041B0004A95EAF72095302F369536953370323090
:1041C00069F050F44091F204313029F0822B8423BD
:1041D0000E945411D9CE842B822BFACF282B8091A8
:1041E000F2048227F5CFF02FFF70BF2EDD2029F0DB
:1041F0008F2F0E94A311812F1CCF812F0E94351673
:104200008B2D0E946511C0CE123F89F160F4103FE2
:10421000B9F0113F81F0DD2009F480C0C11056CE05
:10422000802F8F7128C0133F49F1143FA1F780916F
:10423000BF0482FD2FC0802F8F71DD2011F31BC0C2
:104240008091ED03DD2079F0C81608F09DCE202F77
:104250002F7181E090E001C0880F2A95EAF79091D4
:10426000F2048927B5CF8C1508F48ECEF0CF802FBD
:104270008F71D110C6CF0E94A31186CE80E0DD20C1
:1042800009F4A6CF81E0902F9F7101C0880F9A9505
:10429000EAF79ECF8091E703823040F1DD20D1F034
:1042A0009091F2019770943041F40E94F30A802FAC
:1042B0008F710E946511A12C67CEC816E0F7202FE0
:1042C0002F71B22E822F0E94A31163E08B2D0E94CA
:1042D000AF11F1CFC81630F00E94F30A64E0802FCE
:1042E0008F71F5CF81E00E947211E5CFDD2059F08A
:1042F000302F3F71B32E832F0E94A31163E08B2DCB
:104300000E94AF1141CE81E00E94721141E04C1534
:1043100008F03ACE82E00E94721136CEC110BFCEB4
:10432000802F8F716ECFDD2019F0C1103ACE3DCEB7
:10433000C11037CE20E0F701408151816281738145
:1043400084810E94AE0D8091E80383FF2ACE809184
:10435000980190919901029709F023CE812F0E9434
:1043600060171FCE552029F0DC0118968C9185FF2F
:1043700033CAC80197558F3F910511F008F071C0FD
:104380005801BB24BEE00B9FF00111249F01255A68
:104390003D4F6901D70112968C91E05AFD4F9081F3
:1043A00080FB90F99083882309F41DCA0E942A0596
:1043B00090932A0280932902F60182818F5F828383
:1043C0008091F3049091AA03892B83838091150235
:1043D00084830680F781E02D309731F0D6011C965A
:1043E0006D917C91C60109958EE08A9DF0018B9DAF
:1043F000F00D1124E55AFD4F858181FFF1C990E050
:1044000080E09093B1048093B2042BC0809194011A
:10441000909195010817190781F410929501109257
:1044200094011092A3041092A4041092A504109277
:10443000A6041092AB041092AA048091AC0490914F
:10444000AD04009709F495CFA8E08A16910408F00E
:10445000B8C9642D0E94F505811103C081E00E9456
:1044600075168091E60380FF39C00E942A056C0111
:10447000D70112968C91882309F4CBC98091190138
:1044800082FF08C02BE232E040E0B60190E080E01D
:104490000E94B6180B31BCE51B0709F4ACC90C31FE
:1044A000ECE51E0709F4ADC990911901892F8E7FA3
:1044B00090FF81600A31FCE51F0709F4A5C9C80116
:1044C0009056811520E2920728F0905E8115904168
:1044D00008F0ADC91092F2031092F103033FBCE55E
:1044E0001B0709F4F7CA08F099CA083DFCE51F0745
:1044F00009F4EACA093D2CE5120709F403CB073D8C
:104500003CE5130709F096CA06E221EE41EE67ED9D
:104510007CE5C7010E9423183EC80031FFE51F0754
:1045200009F434C801312FE5120709F040C082E0D8
:104530002EC800313FE5130709F441C801314FE5AA
:10454000140709F440C86801E7E5DE1AFFEFCF164B
:10455000D10409F060F561E572E08C2D0E94B10E86
:10456000892B29F58EE08C9DF0018D9DF00D112495
:10457000E55AFD4F8281813009F027C880915102B0
:1045800090915202892B99F080915302909154029C
:10459000892B69F080915502909156022091570223
:1045A00030915802822B932B892B09F419C8D7011B
:1045B00012965C90552009F428C80F35BDE51B07FD
:1045C00009F41FC80036EDE51E0759F00E35FDE56C
:1045D0001F0709F01AC880910001882311F40C9478
:1045E000011B1092000180E00E9475160C94CB1AFA
:1045F00006315CE5150709F0ACCA8091AA03982F33
:104600009A7A2091E50320FF04C0482F447409F0F2
:1046100090E021FF04C0482F417109F090E022FF93
:1046200004C0482F487809F090E023FF03C082724D
:1046300009F090E0332309F4E7CB81E0911101C048
:1046400080E08093960169E2911165E384E791E04F
:104650000E943605A3C8A114B10409F069C8512C01
:10466000B12CA12C80E00E947516D092AD04C092AE
:10467000AC0481E08093A904F60185818093A704AE
:1046800051100EC0AB2861F0F601808191819C0130
:1046900024503109213A310508F071C80E94140BE9
:1046A000D6011696AD90BC90C5019A9581159F4193
:1046B00010F4E0EEBE2277247394C5010197803B8D
:1046C0009D4508F0712CD6011996ED91FC911A9731
:1046D000309731F01B966D917C9181E0099578229D
:1046E000772079F0F601868197810E94EF0B809305
:1046F000A804C501F8E08F16910408F043C80E9491
:10470000A4050E94651047C8B0E0A0E0EAE8F3E223
:104710000C9484338091AB01807F31F48091A801A7
:10472000C091EF01811107C0CDB7DEB7E8E00C946E
:10473000A0332196C7708091AE018C17A9F3F09039
:10474000A601E090A701C090A901D090AA01A601FE
:104750006E2D8F2D0E941506D0E08111EACF8E01BB
:1047600083E0000F111F8A95E1F7F801E155FE4F34
:1047700081818E11DECF80818F11DBCF828181110B
:10478000D8CFE380F480EC18FD0860E086EA91E081
:104790000E94D10D66EA71E00E94C50EE816F90686
:1047A00040F68091AB018F7080618093AB01F8017E
:1047B000EC54FE4F80818F708061808386EA91E0A7
:1047C0000E94D9190E945F0BAFCFA5E1B0E0EBEEDC
:1047D000F3E20C947D338C0185E0F801DE01519603
:1047E00001900D928A95E1F7D8015C9011966C903A
:1047F00011971296EC9012971396CD90DC9060E092
:1048000086EA91E00E94D10D86EAA82E81E0B82EBA
:104810008090A9019090AA01A4016091A7018091C4
:10482000A6010E9415068111A8C1F090A801F60109
:10483000E819F9094F0160E0FF2009F44BC1C501F7
:104840000E94D10DB5010E94C50E7090AB01881673
:10485000990608F0F2C04091A9015091AA01B090C8
:10486000A601A090A701872D807F6A2D09F08CC03A
:104870008B2D0E941506FE2C811127C0D8011196A0
:104880008C9111978A1121C08C918B111EC020919F
:10489000AC013091AD0116968D919C912817390786
:1048A000A1F4E11012C0872D8F7080618093AB015D
:1048B00086EA91E00E94D9198091AB01F8018583C5
:1048C0008F2D6596EFE00C949933A601662D852D0A
:1048D0000E941506D82E81E08E25D11080E080FF41
:1048E00018C04E2D662D852D0E943F0B882389F020
:1048F0008091E80380FF0DC086EA91E00E94D919FB
:1049000088E0E6EAF1E0DF011D928A95E9F7F12CF3
:10491000D7CF81E08E25D11080E0B82FB170CB2E9B
:1049200080FF29C04E2D662D852D0E943F0BD82E6D
:10493000811121C0598A6A8A89899A890E94840DC5
:10494000292F22952F70223050F0243078F49F7058
:1049500051F0F8019581907F31F4FD2CB1CF9F701B
:1049600011F08823D1F3805E8830B8F3C8010E942B
:10497000D919DC2CF2CFEE2009F4A2CF8091AB0143
:1049800081608093AB01C3CF8B2D0E9415068111EE
:1049900024C0D80111968C9111978A111EC08C9158
:1049A0008B111BC02091AC013091AD0116968D91F9
:1049B0009C9117972817390781F4E1100EC01596BE
:1049C0007C92C8010E94D91988E0F801A6EAB1E0FA
:1049D00001900D928A95E1F773CFC8010E94910D65
:1049E000882339F1EE2029F18091AB018032A0F0CB
:1049F0002091A6013091A7013A8729871B86DD8681
:104A0000CC868E878091AC019091AD01988B8F8779
:104A1000CE0109960E94D91988E0F801A6EAB1E012
:104A200001900D928A95E1F70E948423FF24F3946C
:104A300047CFC8010E94D919F9CF872D807F09F48B
:104A40005BCF9090A6018090A7014091A901509161
:104A5000AA01682D892D0E94150681111CC0F8013C
:104A60008181881118C08081891115C02091AC0105
:104A70003091AD01868197812817390761F4E110E3
:104A80000AC07582C8010E94D91988E0D5011D921B
:104A90008A95E9F715CFC8010E94910D882349F244
:104AA000EE2039F28091AB01803208F4B5CF20912D
:104AB000A6013091A7013A8329831B82DD82CC8233
:104AC0008E838091AC019091AD0198878F83CE0148
:104AD0000196A0CF86EA91E00E94D10D66EA71E0CE
:104AE0000E94C50E8816990680F6FE2CEE2009F469
:104AF000A0CFE090A601D090A7014091A9015091CC
:104B0000AA016D2D8E2D0E941506811128C0F80175
:104B100081818D1124C080818E1121C02091AC0132
:104B20003091AD018681978128173907C1F48091B2
:104B3000E80382FD49CF9091AB0190FD45CF907F76
:104B400009F442CF8091AB018583903F09F439CFBE
:104B5000982F907F905F8F70892B858332CFC8010B
:104B60000E94910D811158CF8091AB01816080939B
:104B7000AB01C8010E94D919A3CEEE2009F459CF88
:104B8000C8010E94910DF82E882309F452CF88E0C5
:104B9000F801A6EAB1E001900D928A95E1F78091C3
:104BA000A6019091A7010E94840D0E94842388CEC3
:104BB000A0E1B0E0EEEDF5E20C948A3329873A8764
:104BC0004B875C876D877E878F87988BCE01099690
:104BD0000E94E52381112FC088E0FE013996DE0195
:104BE000119601900D928A95E1F74C855D856A8555
:104BF00089850E94150681111EC0A091AE01B0E00A
:104C0000CD010196877099272091EF012817190689
:104C1000E1F093E0AA0FBB1F9A95E1F7A155BE4FB3
:104C200098E0FE01319601900D929A95E1F78093FC
:104C3000AE010E945F0B8091EF019091AE0189134C
:104C400012C06096E2E00C94A6330E94CB11109241
:104C5000AE011092EF0188E0E6EAF1E0DF011D927B
:104C60008A95E9F7E8CFB8E08B9FC0011124815500
:104C70009E4F0E94E523882321F38091EF0190E06D
:104C80000196877099278093EF01D5CFEF92FF921D
:104C90000F931F93CF93DF938091F603882361F0E6
:104CA000C091F5038CE0F82E8091F603C81748F008
:104CB0001092F6031092F503CDB7DEB7E6E00C9440
:104CC000A233EE24E394EC0EE092F5030C2F10E0F7
:104CD000CF9DE0011124C950DC4F4B815C8169817B
:104CE00088810E94150681111DC08E819F81892BAC
:104CF00021F488859985019651F4288139814A816A
:104D00005B816C817D818E819F810E94D825F09E80
:104D1000F001F19EF00D1124E950FC4F1482138232
:104D20001092F304CE2DC0CF10929A0410929904E1
:104D300010921A0180919804809397040E944E0665
:104D40000E9446260895B0E0A0E0E9EAF6E20C945D
:104D50007B33C091970497E0892E01E010E02CE0AE
:104D6000322E3EEF932E44244394809198048C136A
:104D700009C00E9446260E944E06CDB7DEB7E1E18B
:104D80000C949733D0E0FE01EE0FFF1FE157FB4F6D
:104D900080819181889ED001899EB00D1124A95AED
:104DA000BB4F14962C911497211158C05090F603C4
:104DB000E7EFF3E030E020E0712C5D01251508F00D
:104DC0004BC0E284F384D501CD90DC906FEF7FEF90
:104DD000612C462D50E0DA01AA0FBB1FAC0DBD1DA2
:104DE0000D90BC91A02D109731F0EA16FB0609F446
:104DF000BA016394EECF6F3F7607A9F1D80102C0E4
:104E0000AA0FBB1F6A95E2F77A2AB801062C02C0E6
:104E1000660F771F0A94E2F7AB01415051097416EF
:104E20001506F9F4329EF001339EF00D1124E9507D
:104E3000FC4F889ED001899EB00D1124A95ABB4F0A
:104E400012962D913C9113973783268390829182FD
:104E50009187808715964C920E9420062196C370F8
:104E600084CF148213822F5F3F4F3C96A7CFA9E1D6
:104E7000B0E0EDE3F7E20C947A33942F498B252FC1
:104E80005A8B6B8B7C8B8D8B4C895D89622F892F24
:104E90000E941506811109C0809198019091990195
:104EA000019690939901809398018B8981111092BA
:104EB000F3041D861E861F86188A85E0FE01719602
:104EC000DE01199601900D928A95E1F78091BF0459
:104ED00082FF1EC08091CD039091CE03892BC1F03B
:104EE0000E942A052091F0013091F101821B930B61
:104EF0002091CD033091CE038217930720F080914B
:104F0000F20182FFE2C10E94FA0A81110E94C00AE6
:104F10004C855D856A8589850E941506811111C0C1
:104F200061E0CE0109960E94D10D6C018B8527EFBF
:104F3000C2162CE5D20681F4882321F181E080930A
:104F40001A0129853A854B855C856D857E858F851F
:104F500098890E94D825C6C038EFC3163CE5D30611
:104F600029F4882379F00E949426EBCF49EFC416E8
:104F70004CE5D40639F4882329F080911A01811177
:104F8000F2CFDCCF07E514E0512CB12CA12C222468
:104F90002394312C2EEF422EF80140815181882438
:104FA0008A94982C20E0822F90E0FC01EE0FFF1FE6
:104FB000E40FF51F608171816115710531F0C6162E
:104FC000D70609F44C012F5FEECFF12CFFEF8F16BF
:104FD0009F0609F449C0F8014481F0901A018F2D11
:104FE000411180E0F82FF170FF2EF801E5808681F5
:104FF0009B85992309F4F8C0FF2009F4F5C060905F
:10500000E1037090E203E11013C0A101082C01C07C
:10501000440F0A94EAF7842B86838091F3039091DE
:10502000F4038615970520F47092F4036092F3035D
:10503000C10102C0880F991F2A95E2F70197F80174
:1050400026812817190681F48091990490919A0479
:10505000009709F44BC00E940F056816790608F006
:1050600045C021E0F80124835F28FFEFAF1ABF0A93
:10507000095F1F4F28E0A216B10409F08DCF8B8580
:10508000882309F40DC1552009F40AC10E942A059C
:1050900090939A04809399048091F603883010F5D8
:1050A00091E0980F9093F60398E0FE013996DE01A7
:1050B000119601900D929A95E1F73CE0839FC00113
:1050C000112489509C4F28E0FE013196DC010190AB
:1050D0000D922A95E1F72FEF3FEFFC0131872087F2
:1050E000D386C2866996E2E10C9496338091970448
:1050F00050919804982FF0E0E0E0851314C090934D
:105100009704E017F10709F4AFCF90E0FC01EE0F30
:10511000FF1FE157FB4FB182A08201968370992750
:1051200080939804A1CF682E712CF301EE0FFF1F1E
:10513000E157FB4F2081318147E0429FD001439FDF
:10514000B00D1124A95ABB4F6D917C911197798FA5
:10515000688F40E020E030E0E32FF0E0EE0FFF1F2B
:10516000688D798DE60FF71F8080918081149104FE
:10517000E1F0F8010190F081E02DFF8BEE8B20E053
:1051800005C08616970609F44F2D2F5FE22FF0E039
:10519000EE0FFF1F6E897F89E60FF71F6081718117
:1051A0006115710571F73F5FD7CF4423D1F0F80146
:1051B000231708F0FD0121E024830E171F0721F4B7
:1051C00090939704F42E50CF981305C0AE17BF07E5
:1051D00011F49F5F937093012F5F3F4F822F837075
:1051E0008CCFF0E0E0E0F7CF90E0E11020C0B1011B
:1051F00002C0660F771F2A95E2F79B012150310903
:105200008217930731F4442309F448C0C5010E9472
:105210002006C101082C01C0880F0A94EAF7982FD4
:105220009095F801868189238683FE2C1DCF9C01F1
:10523000082C02C0359527950A94E2F7A901417020
:105240005527BC016150710986239723892B11F5DD
:10525000452B01F1F80182819381892BC1F01B82DA
:105260001C821D821E8249824A820E942A05816018
:10527000582F9D838C83F801828193818F83988737
:1052800029813A814B816D817E810E94D825F80168
:105290001582BFCFF22FF170EF2EBBCFEF2CB9CF1D
:1052A0009091970480919804981731F00E94A3265A
:1052B000552009F446CE16CF0E94462610929A0435
:1052C000109299040E944E06F3CF82E00E94721160
:1052D0001ACEA5E0B0E0EFE6F9E20C948A339093A1
:1052E000A7038093A603811520E2920730F40E9461
:1052F000DB162596E2E00C94A63380EF89838A833F
:105300001B820E942A058160782F9D838C834981AE
:105310005A816B818D810E943727EBCF0F931F93AA
:10532000CF93DF938C01EB0161E572E08C2F0E943B
:10533000B10E892BA1F48091E9039091EA030E94B8
:10534000D90CDD27C75BDD4F8881F80112821882F6
:105350008330F1F048F4813059F0823081F0DF91F0
:10536000CF911F910F9108958430B9F08530B9F72E
:105370008091510290915202009789F306C080916A
:10538000530290915402009799F30E946929E7CF44
:105390008091550290915602F6CF809157029091DC
:1053A0005802009791F7209151023091520280915A
:1053B00053029091540221153105F1F2009729F71B
:1053C000C901E3CFA5E0B0E0E8EEF9E20C948A333E
:1053D0009093A7038093A603811520E2920730F4EF
:1053E0000E9489182596E2E00C94A63380EF898309
:1053F0008A8381E08B830E942A058160782F9D83B8
:105400008C8349815A816B818D810E943727EACF35
:10541000CF93DF93EC010E94E2298091E903909100
:10542000EA030E94D90CCE010E946929DF91CF9135
:1054300008950F931F93CF93DF938C01862F61E51F
:1054400072E00E94B10E892BB1F4C0915102D0914B
:105450005202209781F0F8018281833051F4CE010D
:105460000E94082ACE010E94082ACE010E94082A22
:1054700002C08430D0F7DF91CF911F910F91089532
:105480000F931F93CF93DF938C01EB0161E572E0E3
:105490008C2F0E94B10E892B09F05CC0FE01FF2702
:1054A000D80112968C911297E75BFD4F8130B9F4C9
:1054B00015969C9192FF02C080830AC090FFFCCF9A
:1054C00082E0808380915302909154020097B9F456
:1054D00080915102909152020097E1F110C0823008
:1054E000B9F515968C9182FD28C080FD0BC083E034
:1054F00080838091550290915602009701F10E949D
:10550000E22928C084E0808380915702909158025C
:105510000097A9F780915102909152020097F9F0FB
:105520000E94082A8091530290915402009739F703
:105530008091510290915202E2CF85E08083809168
:10554000510290915202009729F00E94082AF0CF50
:1055500086E08083DF91CF911F910F910895809114
:10556000530290915402B8CF1F920F920FB60F9230
:1055700011242F933F934F935F936F937F938F9358
:105580009F93AF93BF93CF93DF93EF93FF93D0910C
:10559000E900DF708091EC00C82FC17080FDC0E889
:1055A0001092E9008091F000877F8093F00078945A
:1055B0000E94E1111092E9008091F00088608093D0
:1055C000F000CD2BCF70C093E900FF91EF91DF91F8
:1055D000CF91BF91AF919F918F917F916F915F918B
:1055E0004F913F912F910F900FBE0F901F901895E4
:1055F0001F920F920FB60F9211242F933F934F9348
:105600005F936F937F938F939F93AF93BF93EF932A
:10561000FF938091E10082FF09C08091E20082FF48
:1056200005C08091E1008B7F8093E1008091DA00DA
:1056300080FF24C08091D80080FF20C08091DA00D4
:105640008E7F8093DA008091D90080FF9DC080E139
:1056500089BD82E189BD09B400FEFDCF81E0809360
:10566000E8048091C304811109C00E9487030E944D
:1056700052048091E20084608093E2008091E10016
:1056800080FF17C08091E20080FF13C08091E2008C
:105690008E7F8093E2008091E20080618093E2003F
:1056A0008091D80080628093D80019BC85E08093F7
:1056B000E8048091E10084FF2BC08091E20084FF28
:1056C00027C080E189BD82E189BD89B5982F91709D
:1056D00080FFFBCF8091D8008F7D8093D800809190
:1056E000E1008F7E8093E1008091E2008F7E8093C5
:1056F000E2008091E20081608093E2008091E90401
:10570000882309F447C084E08093E8048091E8048A
:105710008091E10083FF27C08091E20083FF23C0D6
:105720008091E100877F8093E10082E08093E8042C
:105730001092E9048091E1008E7F8093E1008091D6
:10574000E2008E7F8093E2008091E200806180938E
:10575000E20042E060E080E00E9420048091F000DE
:1057600088608093F000FF91EF91BF91AF919F917E
:105770008F917F916F915F914F913F912F910F90FA
:105780000FBE0F901F90189519BC1092E80410924C
:10579000C30474CF8091E30087FD93E09093E80405
:1057A000B5CF78941F921FB61F9211248F939F93A9
:1057B000AF93BF938091BA049091BB04A091BC04B5
:1057C000B091BD040196A11DB11D8093BA049093C0
:1057D000BB04A093BC04B093BD04BF91AF919F9153
:1057E0008F911F901FBE1F9018951F921FB61F927A
:1057F00011248F939F93AF93BF938091B90481112C
:1058000013C08091BA049091BB04A091BC04B091E4
:10581000BD044196A11DB11D8093BA049093BB04B1
:10582000A093BC04B093BD04BF91AF919F918F91A1
:105830001F901FBE1F901895CDB7DEB7EC970FB61F
:10584000F894DEBF0FBECDBF85B7806885BF85B732
:10585000806885BF84B7877F84BF0FB6F894A8950A
:1058600080916000886180936000109260000FBE9C
:1058700080E890E00FB6F894809361009093610007
:105880000FBE86ED98E090937301809372010E94A1
:1058900007070E946F0F0E94E30E0E94E30C0E9414
:1058A00087030E9452048091E20084608093E200AA
:1058B00078948091E8048823A1F01091E9001F708A
:1058C0009091EC00892F817090FD80E8182B109248
:1058D000E9008091E80083FD0E94E1111F701093A0
:1058E000E90082E084BD93E095BD9AEF97BD809377
:1058F0006E000E94DF0D811102C00E94851587EFA6
:105900000E94D80886EF0E94D80881E90E94D80832
:1059100008E511E082E6E82E81E0F82ED8018D91AD
:105920008D018F3F11F00E94D808E016F106B1F703
:1059300086E0E6E3F2E0DF01282F1D922A95E9F7E1
:10594000EAE1F2E0DF011D928A95E9F790E080E05C
:105950000E94EF33883E9E4F21F40E94DF0D81119B
:1059600002C00E946E1982E090E00E94E7338093AB
:1059700022020E94F80D9093BF048093BE040E94FF
:10598000B30FEFEFF6E721E0E150F0402040E1F700
:1059900000C000000E94B30F8091360280FF08C053
:1059A0006FEF7FEF90E080E00E9413340E94B50C0F
:1059B00083E090E00E94E7330E94C61181E091E00D
:1059C0009093B6048093B504B0E42B2E55245394E1
:1059D0004E013BE2830E911C8091E80410E102E14C
:1059E000853009F4F4C10E94B30F20913602309142
:1059F000370280912302909124022817390709F079
:105A0000F0C12091250230912602809138029091B8
:105A100039022817390709F0E4C120912702309193
:105A2000280280913A0290913B022817390709F029
:105A3000D8C10E942A058C018091200290912102F8
:105A400008171907A1F08FEF8BAB8CAB1DAA0E9432
:105A50002A058160782F9FAB8EAB4BA95CA96DA9FD
:105A60008FA90E9437271093210200932002809172
:105A7000AA049091AB04892B09F43EC040919F0485
:105A80005091A0046091A1047091A2042FB7F894E2
:105A90008091BA049091BB04A091BC04B091BD0464
:105AA0002FBF841B950BA60BB70B40919B04509105
:105AB0009C0460919D0470919E0484179507A6072D
:105AC000B707D0F08091AA049091AB040E94891886
:105AD0001092AB041092AA0410929F041092A0049A
